:020000040800F2
:1028000008260020692A00082B750008D55000080A
:1028100027750008D144000867A2000800000000E6
:10282000000000000000000000000000038C000811
:102830004547000800000000F32A000851920008F4
:10284000832A0008832A0008832A0008832A0008B4
:10285000832A0008832A0008832A0008832A0008A4
:10286000832A0008832A000805490008832A0008F3
:10287000832A0008832A0008832A0008832A000884
:10288000832A0008832A0008832A0008832A000874
:10289000832A0008832A0008832A0008832A000864
:1028A000832A0008832A0008832A0008832A000854
:1028B0003D9300086993000885930008832A000867
:1028C000832A0008832A0008832A0008832A000834
:1028D000832A0008C99D0008A59E0008832A0008D5
:1028E000832A0008832A0008832A0008832A000814
:1028F000832A0008832A0008832A0008832A000804
:10290000832A0008832A0008832A0008832A0008F3
:10291000832A0008832A0008832A0008832A0008E3
:10292000832A0008832A0008832A0008832A0008D3
:1029300000F002F800F079F80AA090E8000C824458
:102940008344AAF10107DA4501D100F06EF8AFF235
:10295000090EBAE80F0013F0010F18BFFB1A43F07D
:1029600001031847F0450100104601000A444FF0EA
:10297000000C10F8013B13F0070408BF10F8014BDE
:102980001D1108BF10F8015B641E05D010F8016B23
:10299000641E01F8016BF9D113F0080F1EBF10F887
:1029A000014BAD1C0C1B09D16D1E58BF01F801CBAA
:1029B000FAD505E014F8016B01F8016B6D1EF9D52D
:1029C0009142D6D370470000002300240025002642
:1029D000103A28BF78C1FBD8520728BF30C148BF82
:1029E0000B607047662913F08287652913F07F8793
:1029F000642900F02781782900F06081732900F0B4
:102A00009686002070471FB500F096FE0400002057
:102A1000002112F067FF401C60600020002112F0CE
:102A200077FFE0601FBD10B510BD00F085FF1146B7
:102A3000FFF7E9FF0DF09EFB00F0A3FF03B4FFF7E3
:102A4000F2FF03BC07F09DFEEFF30980704780F3AF
:102A500009887047EFF30880704780F30888704753
:102A600040BA7047C0BA70470948804709480047D4
:102A7000FEE7FEE7FEE7FEE7FEE7FEE7FEE7FEE72E
:102A8000FEE7FEE704480549034A054B704700008E
:102A9000DD920008312900080824002008260020C3
:102AA00008240020EFF3108072B6704780F310887E
:102AB0007047224C224D25604FF0000484F30988B2
:102AC000204C4FF0010525701F4C4FF080552560BC
:102AD00062B6FEE730B41C4C4FF08055256030BC28
:102AE000704730B4184C4FF08055256030BC7047AB
:102AF00000BF72B6EFF3098028B1203880E8F00FEC
:102B0000124909680860124812490A7802700F4891
:102B100011490A680260106890E8F00F203080F3D5
:102B200009884EF0040E62B67047B0FA80F0704724
:102B300090FAA0F04FEA10407047000020ED00E04E
:102B40000000FFFF4400002004ED00E050000020E2
:102B5000480000204C00002054000020704710B5B1
:102B6000044600F03BFB0068005DC00602D504F19E
:102B7000200010BD204610BD0FB41CB5084B06AA9E
:102B80007B4469460090059800F0A7FD04460020AC
:102B9000694600F0B5FD20461CBC5DF814FB000042
:102BA0007D0B000070B5044685690068C10601D53B
:102BB000302600E02026C00707D070BDD4E90121EF
:102BC00030469047206A401C20626D1EF6D570BDCD
:102BD00070B5044685690078C00707D170BDD4E997
:102BE000012120209047206A401C20626D1EF6D5EE
:102BF00070BD70B50C460546012A05D028788006C0
:102C000000D5EA69002302E0012305E05B1C934242
:102C100002D2E05C0028F9D1A869E618C01AA861C0
:102C2000286A184428622846FFF7BCFF04E0D5E96B
:102C3000012114F8010B9047B442F8D32846FFF75E
:102C4000C7FF70BD2DE9F0410646002410687529C4
:102C5000314616A510D0AFF30080002802DA4042BA
:102C600013A507E031688A0701D512A502E04907DC
:102C700004D511A5012401E0AFF3008000210A2250
:102C800006F1240709E0B0FBF2FCB0FBF2F302FB13
:102C90001C00303078541846491C0028F3D12346D4
:102CA0002A463046BDE8F04100F0ABBA0000000013
:102CB0002D0000002B0000002000000070B504462D
:102CC0000D4621461068AFF300802188090502D522
:102CD0000F4A7A4402E00E4A7A440E32002104F18F
:102CE000240305E000F00F060009965D5E54491CC0
:102CF0000028F7D120780023000704D5702D02D0DA
:102D000009B1022311322046BDE8704000F079BAC3
:102D1000F53F01002DE9F05F894604464FF0000AB7
:102D2000DFF824B1FB44C0F820A02046E1688847C2
:102D300000287DD0252806D0D4E901219047206ABB
:102D4000401C2062F1E700255F462046E168884785
:102D50002028064607DB312E05D2B81910F8200CC2
:102D600008B10543F1E7A80701D525F00405C4F82B
:102D70001CA00027C4F818A02A2E09D0304607F05E
:102D8000F9FC38B304EB8708303EC8F8186019E046
:102D900059F8041B204604EB87029161E1688847DB
:102DA000012F064618D1E069002820DA25F0200519
:102DB0001DE0D8F8180000EB800006EB400030382A
:102DC000C8F818002046E1688847064607F0D2FC9C
:102DD0000028EED1012F0AD02E2E08D12046E1681E
:102DE00088477F1C0646022F45F02005C4DBA069FA
:102DF000002803DA404245F00105A061E80701D050
:102E000025F01005A6B1A6F14100192802D82036F8
:102E100045F400654A463146204625604D46FFF799
:102E2000E1FD60B1012807D0ED1D25F0070000E0AD
:102E300007E000F1080978E705F1040975E7304675
:102E40007AE7206ABDE8F09FCB3F0100401ECAB27E
:102E500010F8011F8A4202D00029F9D100207047E2
:102E600040EA0103024630B59B0710D14FF0013410
:102E700000E008C208C91D1B9D4315EAC41FF8D015
:102E800013F0FF0102F8011B0DD01B0AF8E711F83F
:102E9000013B002B02F8013B05D011F8013B002B50
:102EA00002F8013BF3D130BD10B5431C02E010F82D
:102EB000011B71B18107FAD14FF0013202C88C1A9F
:102EC0008C4314EAC211F9D0C01A0A0603D0C01EFE
:102ED00010BDC01A10BD0A0401D0801E10BD090229
:102EE000FCD0401E10BD40EA010370B59B072ED1F7
:102EF0004FF00136042A2AD308C810C99D1B9D43F0
:102F0000121F15EAC61517D0D8B2E1B2401A50EA1E
:102F1000056110D198B2A1B2401A50EA05410AD118
:102F200023F07F4024F07F41401A50EA052102D16E
:102F3000180EA0EB146070BDA342DBD018BA21BA02
:102F4000884201D9012070BD4FF0FF3070BD0AB931
:102F5000002070BD10F8013B11F8014B63B1A34292
:102F60000AD1521E08D010F8013B11F8014B1BB1D9
:102F7000A34201D1521EEDD1181B70BD032A40F2AD
:102F8000308010F0030C00F0158011F8013BBCF10B
:102F9000020F624498BF11F801CB00F8013B38BF23
:102FA00011F8013BA2F1040298BF00F801CB38BF31
:102FB00000F8013B11F0030300F02580083AC0F04F
:102FC000088051F8043B083A51F804CBA0E80810F7
:102FD000F5E7121D5CBF51F8043B40F8043BAFF32A
:102FE0000080D20724BF11F8013B11F801CB48BF84
:102FF00011F8012B24BF00F8013B00F801CB48BFBA
:1030000000F8012B704710B5203AC0F00B80B1E8F2
:103010001850203AA0E81850B1E81850A0E818500D
:10302000BFF4F5AF5FEA027C24BFB1E81850A0E816
:10303000185044BF18C918C0BDE810405FEA827C30
:1030400024BF51F8043B40F8043B08BF7047D20747
:1030500028BF31F8023B48BF11F8012B28BF20F8E8
:10306000023B48BF00F8012B70474FF000020429D3
:10307000C0F0128010F0030C00F01B80CCF1040CA7
:10308000BCF1020F18BF00F8012BA8BF20F8022BDB
:10309000A1EB0C0100F00DB85FEAC17C24BF00F881
:1030A000012B00F8012B48BF00F8012B70474FF0AF
:1030B000000200B5134694469646203922BFA0E888
:1030C0000C50A0E80C50B1F12001BFF4F7AF090794
:1030D00028BFA0E80C5048BF0CC05DF804EB890085
:1030E00028BF40F8042B08BF704748BF20F8022BC8
:1030F00011F0804F18BF00F8012B704710B504463F
:1031000010F0030F08BF11F0030F40F015804FF0CF
:10311000013E121FC0F20E8051F8043BA3EB0E0CCF
:103120002CEA030C1CEACE1C08BF40F8043BF0D08C
:10313000A1F1040102F10402521E08DB11F8013B67
:10314000002B00F8013BF7D11146FFF78EFF204618
:1031500010BD00004FF0013C50F8042B51F8043B27
:103160009A4221D1A2EB0C03934313EACC1317D15B
:1031700050F8042B51F8043B9A4215D1A2EB0C03F2
:10318000934313EACC130BD150F8042B51F8043BB2
:103190009A4209D1A2EB0C03934313EACC13DBD080
:1031A0004FF00000704700BFD01A01BAB1FA81F1A8
:1031B00001F0180122FA01F0CB40C1F12001DBB28D
:1031C000C0B2C01A2CFA01F3D11A914311EAC3110B
:1031D000E6D17047704770477047704710B500F0F0
:1031E000ABFA001D10BD00BFFD26010010B500F0B8
:1031F000A7FA006810BD10B5044600F0A1FA0460FB
:1032000010BD2DE9F0470D4699469246044600F15F
:1032100024080168880604D5E06921F010012160C6
:1032200000E00120A84201DD471B00E00027A16962
:103230007A1902EB0900081AA0612078C00602D4AE
:103240002046FFF7AFFC002608E0D4E901211AF878
:1032500006009047206A401C761C20624E45F4DB35
:103260002078C0060AD52046FFF79CFC06E0D4E98A
:10327000012130209047206A401C2062381EA7F1AF
:103280000107F4DC07E0D4E9012118F805009047B4
:10329000206A401C2062281EA5F10105F3DC2046AF
:1032A000FFF796FC2078000602D50220BDE8F087E3
:1032B0000120FBE770472DE9FF4F0C461E464FF0FB
:1032C000FF378BB0D2E90001DDF860800A908A46B2
:1032D000C1F30A5505B93D46002108464FF00000EC
:1032E000BAF1000F00F4400005DA00EB80004FF463
:1032F000400101EA50004FEA9059B9F1010F00DD99
:10330000B9460A9850EA4A000ED044F61050A5F289
:10331000FF3545432F14B8F1000F1ED07542291E0A
:103320001EDDC9F100021CE0B8F1010F4FF00000F2
:1033300001D0302103E0F24305E02154401CB042AB
:10334000FBDB30460022002121540B99C1F8088094
:10335000C1E900200FB0BDE8F08FBD1B6D1CDEE79A
:103360004A4600DA694206A800F074FA06AB93E810
:10337000070003AB83E8070050460A9900F007FBFB
:103380008DE80700A0F500501F3800900398002D2D
:1033900009DD42F21F014A46084403A9039068462A
:1033A00000F066FD08E0A0F500504A461F3803A96A
:1033B0000390684600F070FD8DE807000004000CE3
:1033C00003D04FF0FF30410800E01046B8F1000F85
:1033D00003D00022009215461EE0751E05D400F0B1
:1033E000B3F9303262556D1EF9D5B3460122084358
:1033F00002D000227F1C04E02078302801D1002276
:103400007F1E002A099786D01DE0112D07DA00F0F3
:103410009BF9303262556D1C50EA0102F5D1084328
:1034200002D00098C8B10EE00021681E05E0235CC0
:10343000625C63542254401E491C8142F7DBAB4658
:10344000A81B401E0990002004F80B000B98099A55
:10345000C0F80880C0E9002B7CE711264FF0000877
:1034600059E72DE9F04F88460446D21D22F00701A6
:1034700091B0D1E90001CDE90A0107F0F1F8024667
:103480000B98C00F01D02D2007E02068810701D5DF
:103490002B2002E0202101EAC000032A099001D07C
:1034A000072A05DB03464146204600F093F90BE16D
:1034B0002078800601D5E06900E00620B8F1650FAC
:1034C000814606D0B8F1660F18D0B8F1670F70D1F9
:1034D00031E00020B9F1110F009001DB112301E070
:1034E00009F101030AAA01A90CA8FFF7E4FEDDE92E
:1034F0000C70002609F10105834647E001204B4688
:1035000000904FF000470AAA01A90CA8FFF7D3FECC
:10351000DDE90DB00C995D46002610B909F10100F6
:103520000D18B9EB050003D4C0F1FF3609F1010510
:10353000A5EB09002BE0B9F1010F01DA4FF0010909
:103540000020B9F1110F0090484601DD112300E081
:1035500003460AAA01A90CA8FFF7ADFEDDE90C702D
:103560004D4600268346207800070AD4AB4500DA92
:103570005D4601A8012D04DD411911F8011C302917
:1035800007D04F4502DA17F1040F04DA0120824612
:103590000FE06D1EEEE7002F02DCED1B3E4403E062
:1035A000781CA84200DD7D1CB81B00F1010A4FF019
:1035B00000472078000703D4AA4501DB4FF0FF3A0B
:1035C0000021B7F1004F0DF143088DF8431024D0CE
:1035D00002202B23002F01DA7F422D230A21021E15
:1035E000A0F1010000DC5FB197FBF1FC97FBF1F269
:1035F00001FB1C7C17460CF1300C08F801CDEEE7FE
:10360000A8F1010003702188090501D5452100E0DA
:103610006521A0F1010800F8011C09980FA9A1EB90
:103620000807FF1D00B10120411901EBEA70A169F3
:103630003844081A401EA0612078C00602D42046F3
:10364000FFF7B0FA099828B1D4E901219047206A20
:10365000401C20622078C00622D52046FFF7A2FA3F
:103660001EE0002E04DBB34502DD01A8805D00E012
:103670003020D4E901219047206A401C2062761C4A
:10368000AAF101005FEA000A0AD100F055F8C0680B
:103690000168405CD4E901219047206A401C206207
:1036A000281EA5F10105DCDC07E0D4E9012118F8AA
:1036B000010B9047206A401C2062381EA7F10107C9
:1036C000F3DC2046FFF784FA032011B043E6000044
:1036D00001694A1C02610878704700B58FB0CDE9D6
:1036E00001310021059105497944CDE903101146C6
:1036F0006846FFF70FFB0FB000BD0000E5FFFFFFBE
:103700000A6802F8010B0A60704710B5436913B1EB
:10371000AFF3008001E0FFF76CFA012010BD1278D2
:1037200000F124010A7000224A700122EDE71168BD
:103730004FF0FF32E9E7000000487047C423002043
:1037400000487047A423002030B5B0F10A024FEAC8
:10375000900E71F100034EEA817EB0EB0E0061EB3A
:1037600091014FEA101E4EEA017E10EB0E0041EB74
:1037700011114FEA102E4EEA016E10EB0E0041EBD4
:1037800011214FEA104E4EEA014E10EB0E0041EBB4
:103790001141401841F100014FEAD00040EA417068
:1037A0004FEAD10110EB80054FEA810444EA90749E
:1037B00044EB01046D1944EB0404521BA3414FF088
:1037C000000348BF0A3200D530BD401C41F1000162
:1037D00030BD00002DE9F0411F4604460326016874
:1037E000072A01F4006004DB08B116A505E016A560
:1037F00003E008B115A500E015A521F01000206038
:10380000A069C01EA0610FB1401EA0612046FFF755
:10381000C9F94FB1D4E9012138469047206A401CCC
:103820002062C01C206206E0206AFAE7D4E9012188
:1038300015F8010B9047761EF8D22046FFF7C8F91D
:10384000BDE8F0814E414E006E616E00494E46006B
:10385000696E66002DE9F047814616468AB0334806
:1038600078440DC88DE80D0030487844801C03ACC6
:103870000DC884E80D0041F69B300844372190FBC9
:10388000F1F290FBF1F5A5F1800501FB12041B3C60
:1038900002D56442012000E00020DFF890A08046BD
:1038A0000027FA44AAF1BE0A0DE0E00709D032462B
:1038B000684607EB47010AEB810100F0EDFA8DE85D
:1038C000070064107F1C002CEFD1184F7F44AC3FE1
:1038D00018E0E80714D007EB04100DF1180A90E87F
:1038E0000E008AE80E00C068F04201D198190890D5
:1038F000324606A903A800F0CFFA03AB83E807001D
:103900006D10641C002DE4D132466946B8F1000FF9
:1039100003A802D000F0ACFA01E000F0BDFAC9E95A
:103920000001C9F808200AB0BDE8F087B0350100F1
:1039300000487047A42300207546FFF7F9FFAE4604
:1039400005006946534620F00700854618B020B5AB
:10395000FFF798F8BDE820404FF000064FF0000751
:103960004FF000084FF0000B21F00701AC46ACE827
:10397000C009ACE8C009ACE8C009ACE8C0098D4694
:1039800070470446AFF300802046FFF757F85FEA20
:10399000400C08BF91F0000F4FEA8C234FEAC12280
:1039A00043EA51514FEA1C5018BF00F5F0404FEA6E
:1039B000300018BF41F000415FEA6C5C00F02980E4
:1039C000BCF1FF3F08BF40F080407047130C06BFBA
:1039D00012044FF0100C4FF0000C130E04BF120233
:1039E0000CF1080C130F04BF12010CF1040C930F1F
:1039F00004BF92000CF1020CD30F04BF52000CF173
:103A0000010C11464FF00002A0F11F00A0EB0C00CA
:103A1000704711F0004F08BF704731F000413FF48C
:103A2000D5AF0B0C06BF09044FF0100C4FF0000C83
:103A30000B0E04BF09020CF1080C0B0F04BF0901A7
:103A40000CF1040C8B0F04BF89000CF1020CCB0F9E
:103A500004BF49000CF1010CCCF12003A0EB0C00D9
:103A600022FA03F302FA0CF241EA030100F1010029
:103A7000704720F07F4C80EA030023F07F47ACEBD7
:103A8000070303F57C5300F0004003F1FF032DE929
:103A900080494FEA154B09B44FEA144325EA0B4E0F
:103AA00024EA03480FF2042606EB132749083E7860
:103AB0005FEA320203FB0667C7F5000707FB06F65D
:103AC0004FEA54374FEAD64606F1020607FB066C6A
:103AD000CCF1005C4FEA1C472CEA074C07FB06F4CC
:103AE0000CFB06F504EB15464FEA961634BF002092
:103AF0004FF000404FEAD13706FB07FC4FEA1C4C61
:103B00000CFB0BF7D21B03FB0CF761EB07010CFB63
:103B10000EF7B0EB074072EB17420CFB08F734BF0F
:103B2000A2EB0742B2EB074261EB17414FEA0C44AC
:103B30004FEA910706FB07FC4FEA1C4C0CFB0BF706
:103B4000B0EBC74072EB573203FB0CF734BFA2EB6C
:103B5000C742B2EBC74261EB57310CFB0EF7B0EB3B
:103B6000C70072EB57720CFB08F734BFA2EBC70219
:103B7000B2EBC70261EB5771039F4FEA816141EAE3
:103B8000921104EBCC044FEAD1374FEA826206FB74
:103B900007FC42EA90124FEA80604FEA1C4C0CFB93
:103BA0000BF7D21B03FB0CF761EB07010CFB0EF7C5
:103BB000B0EB074072EB17420CFB08F734BFA2EBE7
:103BC0000742B2EB074261EB17414FEA8C554FEACF
:103BD000910704EB9C2406FB07FC4FEA1C4C0CFBF2
:103BE0000BF7B0EBC74072EB573203FB0CF734BF57
:103BF000A2EBC742B2EBC74261EB57310CFB0EF7A9
:103C0000B0EBC70072EB57720CFB08F734BFA2EBA6
:103C1000C702B2EBC70261EB577115EB4C254FEAB7
:103C2000816141EA92114FEA82624FEAD13742EA5A
:103C3000901206FB07FC44F100044FEA80604FEA53
:103C40001C4C0CFB0BF7D21B03FB0CF761EB0701C1
:103C50000CFB0EF7B0EB074072EB17420CFB08F7BA
:103C600034BFA2EB0742B2EB074261EB174115EB01
:103C70001C154FEA813141EA92414FEA823242EA11
:103C800090424FEA80304FEA0C7644F1000448EA53
:103C900003434EEA0B484FF0000EB2EB080C71EBF9
:103CA000030724BF624639464EEB0E0E4FF0000B61
:103CB0000018524149414BEB0B0BB2EB080C71EB76
:103CC00003077BF1000B24BF624639464EEB0E0E14
:103CD0004FF0000B0018524149414BEB0B0BB2EB7C
:103CE000080C71EB03077BF1000B24BF62463946D9
:103CF0004EEB0E0E51EA020718BF46F0010616EB16
:103D00000E7655F1000254F1000103D5BDE889019A
:103D1000BDE80088BDE88901BDE80048B6195241F8
:103D200041EB0101A3F10103704780807F7E7D7C20
:103D30007B7A7978777676757473727171706F6E3D
:103D40006E6D6C6C6B6A6A696868676666656464E8
:103D5000636362616160605F5F5E5E5D5D5C5C5B72
:103D60005B5A5A59595858575756565555555454E1
:103D7000535352525251515050504F4F4F4E4E4D3F
:103D80004D4D4C4C4C4B4B4B4A4A4A49494948488B
:103D900048474747474646464545454444444443CB
:103DA00043434342424242414141002B26D47700E3
:103DB00021D01CB54FEA370703B44FF010004FF085
:103DC00010014FF000000FBCBDE810400BF1010BDB
:103DD000BBF1010F08BF5FEA170722BF12F1010212
:103DE00011F101014FF0004143F1000300F00040E8
:103DF00043EA00007047F9D35708DAE746EA064677
:103E000013F1400F4FEA16461FDD13F1200FDFBFFD
:103E100016430A46002120335B42C8D0C3F1200775
:103E200046EA064602FA07F74FEA164646EA07064A
:103E3000C3F1200722FA03F201FA07F721FA03F18E
:103E40004FF0000342EA0702B1E746EA020646EAFB
:103E500006464FEA164646EA0106BCBF46EA064653
:103E6000360C4FF000034FF000024FF000019EE7C8
:103E70002DE9C048934630B491E8380007C831EACC
:103E8000400C48BF34EA430C03D5FFF7F2FDFFF7BF
:103E90008CFFF0BCBDE800882DE9C048934630B4E3
:103EA00091E8380007C810F0804F08BF13F0804F2A
:103EB00003D100F005F8FFF778FFF0BCBDE80088FB
:103EC00020F07F4780EA030023F07F4C07EB0C03D0
:103ED000A3F57C5300F00040A3F1FE0392F0000F25
:103EE00000F0B38095F0000F00F077802DE90149D4
:103EF0004FEA11404FEA144621EA004800FB06FC55
:103F000024EA064708FB06F607FB08F800FB07F75C
:103F100018EB06484CEB164C4FEA124B18EB0748CF
:103F20004FEA15464CEB174022EA0B4E0BFB06FC02
:103F300025EA06470EFB06F607FB0EFE0BFB07F70E
:103F40001EEB064E4CEB164C4FF000061EEB074ED8
:103F50004CEB174B18EB0B0840F1000018EB0E0B65
:103F600058EB000840F100008F1A4FF000013CBFF1
:103F7000C943661B14BFB5EB040C00213CBFC94309
:103F8000F61B4FEA17444EEA8E0E27EA04454FEA25
:103F90001C4704FB07622CEA074C05FB07F70CFBE8
:103FA00005F604FB0CFC16EB074642EB174216EB3A
:103FB0000C4642EB1C421BEB060658EB0202414149
:103FC00046EA9E0601D5BDE80189B619524141EB8A
:103FD0000101A3F10103BDE801894FEA14454FEA4D
:103FE000114724EA054621EA074C05FB07F406FBC6
:103FF00007F70CFB06F105FB0CFC11EB074144EB4A
:1040000017444FEA124711EB0C4144EB1C4422EADF
:10401000074C05FB07F206FB07F70CFB06F605FB52
:104020000CFC16EB074642EB174216EB0C4642EB34
:104030001C456A1854F1000148BF7047B619524137
:1040400041EB0101A3F10103704795F0000F37D058
:104050004FEA11424FEA144721EA024624EA074C8C
:1040600002FB07F106FB07F70CFB06F402FB0CFC56
:1040700014EB074441EB17414FEA154714EB0C448E
:1040800041EB1C4125EA074C02FB07F506FB07F74D
:104090000CFB06F602FB0CFC16EB074645EB17453E
:1040A00016EB0C4645EB1C42121951F1000148BFBA
:1040B0007047B619524141EB0101A3F1010370476A
:1040C0004FEA14454FEA114724EA054621EA074C16
:1040D00005FB07F106FB07F70CFB06F24FF00006A5
:1040E00005FB0CFC12EB074241EB174112EB0C42B3
:1040F00051EB1C4148BF7047921841EB0101A3F1FD
:104100000103704710B50AF039F9408C012804D139
:104110000AF034F90021418403E00AF02FF901216B
:1041200041840AF02BF990F82240214606200BF03A
:10413000D9F910BD1CB510A103C9CDE900010AF0E1
:104140001DF9808A01280BD100208DF80700082175
:10415000684601F0A3F90AF011F9002181820AE012
:104160000AF00CF90121818201208DF80700082155
:10417000684601F093F91CBD5AA50582100900009C
:1041800008B50121102003F01FFB4FF40050ADF8DB
:10419000000010208DF8030002208DF8020069460F
:1041A000074800F029FD002003F098FB4FF4005170
:1041B000034800F0F9FD034806F030FB08BD00009D
:1041C00000100140C54300080EB50020009001908A
:1041D000029003208DF8000002208DF801000020DD
:1041E0008DF802008DF8030002208DF804008DF890
:1041F00005006946052010F04BFB0EBD0EB50020F2
:1042000000900190029002208DF800008DF80100CE
:1042100000208DF802008DF8030002208DF80400C4
:104220008DF805006946052010F032FB0EBD0EB575
:10423000002000900190029004208DF800000220E0
:104240008DF8010000208DF802008DF80300022097
:104250008DF804008DF805006946052010F018FB64
:104260000EBD0EB5002000900190029005208DF843
:10427000000002208DF8010000208DF802008DF86A
:10428000030002208DF8040001208DF80500694626
:10429000052010F0FDFA0EBD0EB500200090019033
:1042A000029002208DF800008DF8010000208DF8AA
:1042B00002008DF8030002208DF8040001208DF823
:1042C00005006946052010F0E3FA0EBD7FB50546EE
:1042D0000024394B0FCB8DE80F00384800780128B7
:1042E00000D17FBD0120354908704FF416700DF0E4
:1042F0007FFC334908600846006800B9F1E74AE0EE
:10430000287830383DF8100061002D4A126822F8F4
:10431000110068785F280DD16100294A126832F8CF
:10432000110000EBD07149106200254B1B6823F887
:10433000121010E068787E280DD1600020490968CD
:1043400031F810004FF6FF7101EA400061001C4A8D
:10435000126822F81100A8793038082191FBF0F09A
:10436000012101EB4401164A126822F811000120D4
:1043700000EB44001249096831F8100029793039FE
:104380004843012101EB44010D4A126822F8110053
:104390000835601C84B228780028B1D1012101EBD6
:1043A0004401074A126822F811000121880705F02C
:1043B00002F900BF95E70000E46901086C000020E5
:1043C0007000002010B53B480068002870D03A48C3
:1043D000008840003749096831F81000374991FBDF
:1043E000F0F437480068401C3549086035480068DB
:1043F000401C3449086064B1601F31490968884233
:1044000003D201203049086006E000202E490860F0
:1044100002E000202C490860274800884000254918
:10442000096831F81000254991FBF0F0244909682A
:10443000884202D80020224908601F4800880121D4
:1044400001EB40001B49096831F8100040F271216E
:1044500048431C490968B1EB001F28D3164800885F
:10446000401C154908800020164908601248008841
:10447000012101EB40000F49096831F81000B0B983
:1044800000200D4908800F4908600D49086009485F
:1044900000680DF099FB0020064908600A49086091
:1044A0000A49087000214FF0804005F084F800BFF1
:1044B00010BD00007000002074000020A0860100E4
:1044C0007C00002078000020B40122426C00002013
:1044D00003F07AF870B50546002401240AE000F0E4
:1044E0006BFC610030F81100A84201D1012070BDC1
:1044F000601C84B200F060FC610030F811000028FC
:10450000EDD100BFF3E70000002000BF04E0002170
:10451000034A1154411C88B23A28F8DB7047000066
:10452000AC2000207FB505460C46002600200190F7
:10453000029003900090FF208DF804008DF8050094
:1045400028128DF80600E8B28DF8070001208DF8DA
:10455000080000208DF8090002208DF80A000020D4
:104560008DF80B0010208DF80C006A46092101A877
:1045700000F0DCFC9DF800008DF80D009DF80100B6
:104580008DF80E000B2101A803F0C2F900BF30E046
:10459000C82009F0B5F81921204603F0FFF930B31F
:1045A000A079C11D6A46204600F0C0FC9DF80010AD
:1045B000A079C01D205C814219D19DF80110A0791D
:1045C0000830205C814212D1E078A17840EA0120D5
:1045D000A8420CD120799DF8081041F08001884252
:1045E00005D1207AE17940EA012004B070BD701C49
:1045F000C6B2052ECCDB0A20F7E72DE9F0418EB0DC
:1046000004460D4616461F464FF000080020029053
:104610000390049005900190FF208DF808008DF81C
:10462000090020128DF80A00E0B28DF80B0003207B
:104630008DF80C0000208DF80D0003208DF80E0081
:104640008DF80F508DF810608DF8117001AA0A21B5
:1046500002A800F06BFC9DF804008DF812009DF894
:1046600005008DF813000C2102A803F051F900BFDA
:104670003DE0C82009F044F8182106A803F08EF99F
:1046800080B39DF81E00C11D01AA06A800F04EFCD3
:104690009DF804109DF81E00C01D06AA105C814202
:1046A00021D19DF805109DF81E000830105C814254
:1046B00019D19DF81B009DF81A1040EA0120A04274
:1046C00011D19DF81C009DF80C1041F0800188422A
:1046D00009D19DF820009DF81F1040EA01200EB07E
:1046E000BDE8F081FFE708F101001FFA80F8B8F19A
:1046F000050FBEDB0A20F2E72DE9F04706460F461C
:1047000090461C464FF0004020FA04F50C48006823
:10471000284010B10120BDE8F0870948006828430F
:1047200007490860002342463946304602F08AFFB6
:10473000814622464946304603F006F80020EAE763
:104740006400002002F040FF10B50446A0B208F05B
:10475000D7FF10BDFEB504460E461546002000905A
:104760000190029002208DF80000022C52D1A6B3D5
:10477000012D17D101208DF801008DF80200694646
:10478000042010F085F86946022010F081F800201E
:104790008DF8010002208DF802006946042010F017
:1047A00077F8ADE0022DFCD101208DF80100022048
:1047B0008DF802006946042010F06AF8694602206C
:1047C00010F066F800208DF8010001208DF802003D
:1047D0006946042010F05CF892E0FFE700208DF8B5
:1047E000010001208DF802006946042010F050F805
:1047F0006946022010F04CF800208DF801000220DC
:104800008DF80200694610F043F86946042010F064
:104810003FF875E0032C01D0052C51D19EB3012D3A
:1048200017D101208DF8010003208DF802006946A0
:10483000042010F02DF86946022010F029F800201D
:104840008DF8010004208DF80200694610F020F870
:1048500056E0022D54D101208DF8010004208DF87E
:104860000200694610F014F86946022010F010F8B2
:1048700000208DF8010003208DF802006946042015
:1048800010F006F83CE0FFE700208DF8010004205E
:104890008DF8020069460FF0FBFF694602200FF019
:1048A000F7FF00208DF8010003208DF80200694613
:1048B00004200FF0EDFF694602200FF0E9FF1FE032
:1048C000042C1DD176B101208DF8010006208DF851
:1048D0000200694604200FF0DBFF694602200FF05A
:1048E000D7FF0DE000208DF8010006208DF80200B2
:1048F000694604200FF0CCFF694602200FF0C8FF84
:10490000FEBD000070B500240025102000F06CF8FA
:1049100000285ED0102000F061F800BF152003F0E1
:1049200031FA044604F0F001152005F0E1FD2948B4
:104930000078204327490870172003F023FA044623
:1049400004F0010090B10221002003F03DFA054679
:104950002A460221002005F0FBFD1F48007828436D
:104960001D4908700121072004F06EFF04F00200C9
:10497000022812D10221012003F026FA05462A4618
:104980000221012005F0E4FD134840782843124934
:1049900048700121072004F057FF04F004000428A8
:1049A00012D10221084603F00FFA05462A460221D9
:1049B000084605F0CDFD08488078284306498870F0
:1049C0000121072004F040FF172003F0DBF9002845
:1049D000A4D170BD00010020010100200149086040
:1049E0007047000014040140014600200022074BDC
:1049F0001B6803EA0102054B14331B680B4013B11B
:104A00000AB1012000E000207047000000040140CE
:104A1000002123498279002A3AD00A4612680368A5
:104A20009A430B461A600A1D126803689A430B1DCD
:104A30001A60027911440A6803681A430A60184A26
:104A40000832126803689A43154B08331A601A1D1E
:104A5000126803689A43124B0C331A604279102A89
:104A60000ED11A1F126803681A430D4B08331A60DF
:104A70001A1D126803681A43094B0C331A600DE0C3
:104A80000749427911440A6803681A430A6005E03D
:104A9000027911440A6803689A430A60704700006B
:104AA0000004014030B5044604254FF4302000F0E6
:104AB0006FF80546042D17D10C48006940F002003C
:104AC0000A49086108464461006940F040000861F5
:104AD0004FF4302000F05CF805460448006941F6C8
:104AE000FD71084001490861284630BD00200240A0
:104AF00004200B49C96801F0010109B101200EE051
:104B00000749C96801F0040109B1022007E004491E
:104B1000C96801F0100109B1032000E004207047CA
:104B2000002002400348006940F08000014908610C
:104B3000704700000020024070B504460D46042670
:104B4000F00200F025F80646042E11D1094800694C
:104B500040F00100074908612580F00200F018F8D4
:104B600006460448006941F6FE71084001490861A3
:104B7000304670BD002002400248034948600348A7
:104B8000486070472301674500200240AB89EFCDA4
:104B900000B502460423FFF7ABFF034603E0FFF72F
:104BA000A7FF0346521E012B01D1002AF7D102B9FB
:104BB0000523184600BD000030B500228B071C0FEE
:104BC0000F2303FA04F20B4B8C1053F82430934359
:104BD000084C8D1044F8253023468C1053F82430AF
:104BE0008C07240F00FA04F42343024C8D1044F880
:104BF000253030BD080001402DE9F0410246002576
:104C00000026002000230024002791F803C00CF0A8
:104C10000F0591F803C00CF0100CBCF1000F03D08D
:104C200091F802C04CEA050591F800C0BCF1000FF4
:104C300031D0146800202BE04FF0010C0CFA00F387
:104C4000B1F800C00CEA03069E4220D183004FF069
:104C50000F0C0CFA03F7BC4305FA03FC4CEA0404FE
:104C600091F803C0BCF1280F06D14FF0010C0CFAEB
:104C700000FCC2F814C00AE091F803C0BCF1480F70
:104C800005D14FF0010C0CFA00FCC2F810C0401C1A
:104C90000828D1D31460B1F800C0BCF1FF0F34DD97
:104CA000546800202EE000F1080C4FF0010808FACB
:104CB0000CF3B1F800C00CEA03069E4221D1830038
:104CC0004FF00F0C0CFA03F7BC4305FA03FC4CEA57
:104CD000040491F803C0BCF1280F05D100F1080CC1
:104CE00008FA0CF8C2F8148091F803C0BCF1480F20
:104CF00007D100F1080C4FF0010808FA0CF8C2F8CF
:104D00001080401C0828CED35460BDE8F08100001C
:104D1000F0B50A46002300240021002500F00046DB
:104D2000B6F1004F02D11D4EF16901E01B4E7168D2
:104D3000C0F3034583B200F44016B6F5401F08D116
:104D400021F07061154E766826F07066134F7E6014
:104D500012E000F48016B6F5801F06D1032606FA8D
:104D600005F4A14341F0706106E0460D360103FAF7
:104D700006F6B14341F0706122B1460D360103FAE7
:104D800006F6314300F00046B6F1004F02D1034E63
:104D9000F16101E0014E7160F0BD000000000140D2
:104DA0000146886880B27047416170470161704771
:104DB00000487047C8220020004870473821002072
:104DC0000246002100BF0DE0012000EB41000A4B2C
:104DD00013F81000904203D1480033F810007047D8
:104DE000481C81B2012000EB4100034B33F8100056
:104DF0000028E9D100BFF2E70E01002000B502460D
:104E00000021012112E0FFF7D7FF4B0030F813001B
:104E1000904209D1FFF7D0FF012303EB410330F8A3
:104E2000130000F47F4000BD481C81B2FFF7C4FFAF
:104E30004B0030F813000028E5D1FF20F3E700B560
:104E40000246002100BF10E0FFF7B6FF4B0030F82C
:104E50001300904207D1FFF7AFFF012303EB41039B
:104E600010F8130000BD481C81B2FFF7A5FF4B00EE
:104E700030F813000028E7D1FF20F3E730B50246F1
:104E80000B4600210024012114E0FFF795FF0125C6
:104E900005EB410510F81500904209D19C4205D15F
:104EA000FFF78AFF4D0030F8150030BD601C84B25A
:104EB000481C81B2FFF780FF012505EB410530F862
:104EC00015000028E1D100BFEFE700001349098871
:104ED000322904DA1249114A1288885C05E000215F
:104EE0000E4A11800E491288885C00210D4A11601B
:104EF0000B4A0A4B1B88D1540B49098821B10A4936
:104F00000988491E084A11800121064A1160034997
:104F10000988491C014A118070470000C200002026
:104F20007A20002094012742C8000020F0B50B46EB
:104F3000FF24FF2509E010F8016B86EA0401074E03
:104F4000765C86EA0504064E755C1E00A3F1010737
:104F5000BBB2F0D114705570F0BD00004C6A01086E
:104F60004C6B010810B501464A1E034B985C0023A8
:104F70004A1E014CA35410BD8000002000B5FFF76D
:104F80001BFF008800BD00B5FFF716FF90F8660113
:104F900000BD00B5FFF710FF00F5B47000BD0000C4
:104FA00010B50446002300BF04E00548C05CE0548F
:104FB000581C83B23A2BF8DBFFF7A6FA184610BD4F
:104FC000AC200020F8B506460C46002500200090D5
:104FD0000027194806602078FF281CD16078FF2838
:104FE00019D1A079617940EA0120C01D85B2382D20
:104FF00000DDF8BD6A4629462046FFF797FF605D51
:105000009DF80010884206D1681C205C9DF80110B4
:10501000884200D1012767B12079052803D12046B5
:1050200005F06BFF04E00521204605F099FF00BF65
:1050300000BF00BFDDE700007C01002010B509F0D3
:105040009DF9C08B01280ED1012108460AF04AFAC9
:10505000642008F071FB002102200AF043FA64206A
:1050600008F06AFB21E009F089F9C08B02280ED113
:10507000002101200AF036FA642008F05DFB0121CE
:1050800002200AF02FFA642008F056FB0DE0002100
:1050900001200AF027FA642008F04EFB00210220CC
:1050A0000AF020FA642008F047FB09F067F9408C09
:1050B000012807D1012106200AF014FA642008F023
:1050C0003BFB06E0002106200AF00CFA642008F001
:1050D00033FB10BD02F078FA1CB5044609A103C9E0
:1050E000CDE90001E07960B9207A052809D1607A1C
:1050F0000D2806D1A07AC02803D10621684600F009
:10510000CDF91CBD5AA503804F02000010B5FF2445
:105110008548FFF745FE00F00F04ACB983480078DE
:1051200010BB03208249087082480078401C8149E6
:10513000087008460078502816DB02207C49087069
:1051400001207A4908700FE07A480078012806DDCE
:1051500078480078502802DA01207549087000204C
:105160007449087071490870012C15D16F48407856
:1051700010BB03206E4948706E484078401C6D4952
:10518000487008464078502816DB0220684948706D
:105190000120664948700FE066484078012806DD26
:1051A00064484078502802DA0120614948700020A4
:1051B000604948705D494870022C15D15B48807881
:1051C00010BB03205A4988705A488078401C5949BE
:1051D000887008468078502816DB02205449887071
:1051E0000120524988700FE052488078012806DD7E
:1051F00050488078502802DA01204D4988700020FC
:105200004C49887049498870032C15D14748C078AB
:1052100010BB03204649C8704648C078401C454929
:10522000C8700846C078502816DB02204049C87074
:1052300001203E49C8700FE03E48C078012806DDD5
:105240003C48C078502802DA01203949C870002053
:105250003849C8703549C870042C15D133480079D5
:1052600010BB03203249087132480079401C314993
:10527000087108460079502816DB02202C49087175
:1052800001202A4908710FE02A480079012806DD2B
:1052900028480079502802DA0120254908710020A9
:1052A0002449087121490871052C15D11F484079FE
:1052B00010BB03201E4948711E484079401C1D49FF
:1052C000487108464079502816DB02201849487179
:1052D0000120164948710FE016484079012806DD83
:1052E00014484079502802DA012011494871002001
:1052F000104948710D4948710D48007870B90C4843
:10530000407858B90A48807840B90948C07828B927
:105310000748007910B90648407918B101210846BC
:1053200004F092FA10BD0000001001408C00002033
:10533000800000208600002008B50121102002F026
:1053400043FA0F20ADF8000048208DF80300032039
:105350008DF8020069460348FFF74EFC024805F04D
:1053600049FA08BD001001400D51000810B586B083
:1053700004460121042002F027FA0121082002F04E
:1053800023FA0121480402F0FFF94FF48050ADF8F0
:10539000140010208DF8170003208DF8160005A9C1
:1053A0002A48FFF729FC0420ADF8140018208DF8D6
:1053B000170005A92648FFF71FFC0820ADF81400C8
:1053C00004208DF8170005A92148FFF715FC0121DD
:1053D000480402F0E9F900214FF4003002F0E4F94A
:1053E00001940020ADF80800ADF80A00ADF80C00FB
:1053F000ADF810000C20ADF80E0001A9154804F01E
:1054000045FE26208DF8000000208DF801000220C6
:105410008DF8020001208DF80300684602F088F83C
:10542000012240F225510B4804F00BFE012240F20C
:105430002441084804F005FE0121064804F06FFDF0
:1054400000200549086006B010BD0000000C0140B6
:105450000008014000440040B081214230B50346BD
:105460000C4C2278002000240C800A4C2478A242A4
:105470000FD172B100BF04E0074C245C1C54441CE3
:10548000E0B29042F8DB034C24780C800024014DFC
:105490002C7030BD930000205C20002070B50546C4
:1054A0000E4601200F49086000240CE000BF402197
:1054B0000D4804F08FFD0028F9D0295D0A4804F05A
:1054C00056FE601CC4B2B442F0DB00BF4021064867
:1054D00004F080FD0028F9D000200449087001493B
:1054E000086070BDB081214200440040930000205C
:1054F000202801D201490870704700009200002066
:1055000000B587B0002004900590069001900290AD
:10551000039003208DF8100001208DF811003F202A
:105520008DF8120000208DF8130001208DF8140072
:1055300000208DF8150001208DF8040005208DF85D
:1055400005003F208DF8060001A901200FF0A0F909
:1055500002208DF8040000208DF8050005208DF84C
:10556000060001A904200FF093F904A902200FF00E
:105570008FF907B000BD00B587B0002004900590FA
:10558000069001900290039003208DF810000120F6
:105590008DF8110000208DF812008DF81300012005
:1055A0008DF8140000208DF8150001208DF80400FE
:1055B00005208DF8050000208DF8060001A90120C6
:1055C0000FF066F902208DF8040001208DF8050027
:1055D00005208DF8060001A904200FF059F904A94F
:1055E00002200FF055F907B000BD00B508F0C6FE67
:1055F000408C00BD00B50146052904DA08F0BEFE66
:1056000030F8110000BD0020FCE700B5014608F0AD
:10561000B5FE418400BD00B50246052A03DA08F054
:10562000ADFE20F81210002000BD000008B50121D9
:10563000082002F0C9F80320ADF8000018208DF80A
:10564000030003208DF8020069463A48FFF7D4FAB8
:105650000020394908603949C1F8A001012108201A
:1056600002F0B2F80820ADF8000010208DF8030019
:1056700003208DF8020069462E48FFF7BDFA01218C
:10568000202002F0A1F80420ADF8000010208DF8D1
:10569000030003208DF8020069462948FFF7ACFAA1
:1056A0000121102002F090F84FF48060ADF8000066
:1056B00010208DF8030003208DF802006946214870
:1056C000FFF79AFA0121042002F07EF84FF400401F
:1056D000ADF8000010208DF8030003208DF80200C3
:1056E00069461948FFF788FA0121082002F06CF892
:1056F0000120ADF8000010208DF8030003208DF884
:1057000002000121042002F05FF80220ADF8000041
:1057100010208DF8030003208DF8020069460A4826
:10572000FFF76AFA0020094908600AF011FB09F046
:10573000A5FE08BD000C01409C012242000022424F
:105740000014014000100140000801408C812142FA
:1057500070B50024FFF730FB0546C82229461A48D9
:1057600003F016F900BF24E0FFF726FB30F8140021
:105770004FF6FF71884204D1FFF71EFB002120F88D
:10578000141004F0010090B1FFF716FB00EB440188
:1057900008780880FFF710FB10F8140038B1FFF705
:1057A0000BFB00EB4401088840F400600880601C9B
:1057B00084B2642CD8DBFFF7FFFA811C408840F4E8
:1057C0008070088070BD000028FC03087CB50024B0
:1057D00000200090019008F0D1FD808BADF8000012
:1057E00008F0CCFDC08BADF8020008F0C7FD008CBE
:1057F000ADF8040008F0C2FD408CADF8060008F0DA
:10580000BDFD054614222946124803F0C1F800BF29
:105810000EE008F0B3FD30F814004FF6FF71884237
:1058200004D108F0ABFD002120F81410601C84B2F4
:10583000142CEEDB08F0A2FDBDF80010818308F007
:105840009DFDBDF80210C18308F098FDBDF804105D
:1058500001847CBD00FC03081CB500200090019071
:1058600006220F490F480CF0D9F90D49891D06226F
:1058700068460CF0D3F9002008E00A49095C1DF8DD
:1058800000201144074A1154411CC8B20628F4DB19
:105890000448007800F0FE00024908701CBD0000BA
:1058A000E8F7FF1FFA00002070B54FF4C8600CF055
:1058B0009FF905462C4614A214A120460FF048FA81
:1058C000083411A212A120460FF042FA08340EA2A9
:1058D00010A120460FF03CFA08340BA20EA120467E
:1058E0000FF036FA08340DA20DA120460FF030FA61
:1058F0000834204608F05AFE2846FEF7E7FC284602
:105900000CF062F970BD0000312F3200350000004C
:10591000340000003300000032000000312F31005D
:105920003100000070B54FF4C8600CF061F9054615
:105930002C46FEA2FEA120460FF00AFA0834FDA272
:10594000FDA120460FF004FA0834FCA2FCA1204679
:105950000FF0FEF90834FBA2FBA120460FF0F8F986
:105960000834F6A2F9A120460FF0F2F90834F1A2AA
:10597000F3A120460FF0ECF90834F0A2EEA1204686
:105980000FF0E6F90834EDA2EDA120460FF0E0F9A2
:105990000834EAA2E8A120460FF0DAF90834E3A2BD
:1059A000E9A120460FF0D4F90834E9A2E9A1204684
:1059B0000FF0CEF90834DDA2DDA120460FF0C8F9C2
:1059C0000834DCA2DCA120460FF0C2F90834DBA2C7
:1059D000DBA120460FF0BCF90834DAA2DAA1204698
:1059E0000FF0B6F90834D5A2D8A120460FF0B0F9CF
:1059F0000834D2A2D2A120460FF0AAF90834CBA2D3
:105A0000CDA120460FF0A4F90834CEA2C8A12046AB
:105A10000FF09EF90834C5A2C7A120460FF098F9EF
:105A20000834C8A2C8A120460FF092F90834BFA2DA
:105A3000BFA120460FF08CF90834BCA2C2A12046B9
:105A40000FF086F90834BDA2BBA120460FF080F903
:105A50000834BAA2BAA120460FF07AF90834B9A2E4
:105A6000B5A120460FF074F90834B0A2B7A12046C2
:105A70000FF06EF90834ADA2B1A120460FF068F91D
:105A80000834ACA2ACA120460FF062F90834A7A2FA
:105A9000ADA120460FF05CF90834ADA2ADA12046BF
:105AA0000FF056F90834A1A2A1A120460FF050F939
:105AB00008349EA2A4A120460FF04AF908349BA204
:105AC0009BA120460FF044F9083498A2A2A12046D9
:105AD0000FF03EF9083495A29BA120460FF038F94B
:105AE000083492A29CA120460FF032F908348FA20C
:105AF0009AA120460FF02CF9083492A298A12046D2
:105B00000FF026F9083497A293A120460FF020F950
:105B100008348AA28CA120460FF01AF9083489A211
:105B200083A120460FF014F9083480A286A12046F4
:105B30000FF00EF908347FA287A120460FF008F974
:105B400008347EA281A120460FF002F9083486A213
:105B50007DA120460FF0FCF8083478A280A12046F1
:105B60000FF0F6F8083475A27CA120460FF0F0F88B
:105B7000083472A278A120460FF0EAF808346FA228
:105B80006BA120460FF0E4F808346CA277A1204600
:105B90000FF0DEF8083465A265A120460FF0D8F8B2
:105BA000083466A268A120460FF0D2F8083465A236
:105BB00065A120460FF0CCF8083460A262A120460F
:105BC0000FF0C6F808345FA259A120460FF0C0F8C4
:105BD00008345AA25CA120460FF0BAF8083453A248
:105BE0005DA120460FF0B4F8083450A250A1204621
:105BF0000FF0AEF8083451A254A120460FF0A8F8D7
:105C000008344EA250A120460FF0A2F8083447A253
:105C100049A120460FF09CF8083444A248A1204630
:105C20000FF096F8083441A243A120460FF090F8F7
:105C300008344FA244A120460FF08AF808343FA24E
:105C400041A120460FF084F808343EA238A1204636
:105C50000FF07EF8083435A23BA120460FF078F80B
:105C6000083434A23CA120460FF072F8083433A265
:105C700036A120460FF06CF8083430A232A120463D
:105C80000FF066F808342DA235A120460FF060F819
:105C900008342AA231A120460FF05AF8083427A26E
:105CA0002DA120460FF054F8083424A220A120464C
:105CB0000FF04EF8083421A22CA120460FF048F82E
:105CC00008341AA21AA120460FF042F8083420A284
:105CD0001DA120460FF03CF8083418A21AA1204656
:105CE0000FF036F8083417A211A120460FF030F853
:105CF000083412A214A120460FF02AF808340BA28F
:105D00001CA120460FF024F808340AA214A1204652
:105D10000FF01EF8083409A216A120460FF018F85B
:105D2000083408A20DA1204626E00000312F3100E2
:105D300036000000332F320032000000312F3200D5
:105D400031000000322F310033000000300000002D
:105D5000352F3200365F000037000000317E000032
:105D6000327E0000362F3100312F33003500000025
:105D7000332F3100337E00000EF0EAFF0834AFF21B
:105D80005402AFF22C0120460EF0E2FF0834AFF2CD
:105D90002C02AFF2640120460EF0DAFF08342046F0
:105DA00008F004FC2846FEF791FA28460BF00CFF99
:105DB00070BD000070B54FF4C8600BF019FF0546C8
:105DC0002C46FEA2FEA120460EF0C2FF0834FDA222
:105DD000FDA120460EF0BCFF0834F8A2F8A1204631
:105DE0000EF0B6FF0834F9A2F9A120460EF0B0FF7C
:105DF0000834F4A2F7A120460EF0AAFF0834F6A258
:105E0000F1A120460EF0A4FF0834ECA2F3A1204635
:105E10000EF09EFF0834EBA2E9A120460EF098FF99
:105E20000834E6A2EDA120460EF092FF0834E7A266
:105E3000E8A120460EF08CFF0834E0A2E4A1204641
:105E40000EF086FF0834DDA2DFA120460EF080FFB1
:105E50000834E1A2DAA120460EF07AFF0834E0A26D
:105E6000DBA120460EF074FF0834D8A2DDA1204645
:105E70000EF06EFF0834DAA2D5A120460EF068FFBE
:105E80000834D0A2D7A120460EF062FF0834CBA27E
:105E9000D5A120460EF05CFF0834C8A2D3A120464D
:105EA0000EF056FF0834CEA2C9A120460EF050FFD6
:105EB0000834C6A2C4A120460EF04AFF0834BFA28F
:105EC000C4A120460EF044FF0834BEA2C0A1204663
:105ED0000EF03EFF0834B9A2C4A120460EF038FFF0
:105EE0000834B6A2BAA120460EF032FF0834C0A290
:105EF000B8A120460EF02CFF0834B2A2B0A1204673
:105F00000EF026FF0834AFA2B1A120460EF020FF0C
:105F10000834AAA2AFA120460EF01AFF0834A7A2A7
:105F2000ABA120460EF014FF0834A6A2A4A120467F
:105F30000EF00EFF0834AFA2A3A120460EF008FF1A
:105F40000834A0A2A2A120460EF002FF08349BA2B2
:105F5000A0A120460EF0FCFE083498A29FA1204686
:105F60000EF0F6FE083495A2A3A120460EF0F0FE36
:105F7000083492A296A120460EF0EAFE08348FA2C1
:105F800094A120460EF0E4FE08348CA28CA1204699
:105F90000EF0DEFE083489A28BA120460EF0D8FE5A
:105FA000083486A28BA120460EF0D2FE083490A2BF
:105FB00087A120460EF0CCFE083489A284A1204699
:105FC0000EF0C6FE083481A286A120460EF0C0FE67
:105FD00008347AA27EA120460EF0BAFE083479A2D7
:105FE00080A120460EF0B4FE083474A27EA12046A3
:105FF0000EF0AEFE083471A27CA120460EF0A8FE81
:10600000083477A272A120460EF0A2FE08346BA2DB
:1060100075A120460EF09CFE083468A26DA12046B2
:106020000EF096FE083465A273A120460EF090FE95
:10603000083462A26DA120460EF08AFE08345FA2E9
:1060400063A120460EF084FE08345CA261A12046C4
:106050000EF07EFE08345BA25BA120460EF078FEB7
:10606000083464A25BA120460EF072FE083455A2EB
:1060700057A120460EF06CFE083450A255A12046D0
:106080000EF066FE08344DA254A120460EF060FECC
:1060900008344AA258A120460EF05AFE083447A2FE
:1060A0004BA120460EF054FE083444A24BA12046DA
:1060B0000EF04EFE083441A241A120460EF048FEEB
:1060C000083440A24DA120460EF042FE083449A2F9
:1060D0003BA120460EF03CFE08343AA23CA12046EB
:1060E0000EF036FE083443A23FA120460EF030FEEB
:1060F000083432A236A120460EF02AFE08342FA220
:1061000039A120460EF024FE083430A235A12046E5
:106110000EF01EFE083429A239A120460EF018FE0A
:10612000083426A237A120460EF012FE083423A21E
:106130002CA120460EF00CFE083422A22AA12046F3
:106140000EF006FE08342AA226A120460EF000FE1C
:10615000083423A22AA120460EF0FAFD08341BA21F
:1061600028A120460EF0F4FD083418A21DA12046F7
:106170000EF0EEFD083424A21BA120460EF0E8FD2F
:1061800008340EA217A120460EF0E2FD083418A232
:106190000FA120460EF0DCFD083411A218A1204604
:1061A0000EF0D6FD083409A216A120460EF0D0FD4F
:1061B000083406A20BA1204628E00000312F32004F
:1061C000365F0000312F310031000000332F3200E4
:1061D0003300000032000000372F3200375F00002C
:1061E000322F31003600000035000000340000007E
:1061F000342F3100332F310030000000355F0000B4
:10620000317E000037000000352F32000EF0A0FD77
:106210000834AFF20C02AFF2300120460EF098FDC8
:106220000834AFF26802AFF2440120460EF090FD50
:106230000834AFF24402AFF2680120460EF088FD48
:106240000834AFF28002AFF2880120460EF080FDE4
:106250000834AFF29002AFF2900120460EF078FDC4
:106260000834AFF2A002AFF2940120460EF070FDA8
:106270000834AFF2A802AFF2A80120460EF068FD84
:106280000834AFF2C802AFF2C00120460EF060FD44
:106290000834AFF2D002AFF2C80120460EF058FD2C
:1062A0000834AFF2B002AFF2D40120460EF050FD38
:1062B0000834AFF2F802AFF2E40120460EF048FDD8
:1062C0000834AFF20812AFF2EC0120460EF040FDA8
:1062D0000834AFF21812AFF2E00120460EF038FD9C
:1062E0000834AFF22812AFF2181120460EF030FD3C
:1062F0000834AFF23812AFF21C1120460EF028FD20
:106300000834AFF24812AFF2481120460EF020FDDB
:106310000834AFF25012AFF21C1120460EF018FDF7
:106320000834AFF23412AFF2681120460EF010FDBF
:106330000834AFF27812AFF2781120460EF008FD63
:106340000834AFF28012AFF2801120460EF000FD4B
:106350000834AFF29812AFF2841120460EF0F8FC28
:106360000834AFF29812AFF2981120460EF0F0FC0C
:106370000834AFF2B812AFF2B01120460EF0E8FCCC
:106380000834AFF2C012AFF2B81120460EF0E0FCB4
:106390000834AFF2A012AFF2C41120460EF0D8FCC0
:1063A0000834AFF2E012AFF2D81120460EF0D0FC64
:1063B0000834AFF2D412AFF2D01120460EF0C8FC70
:1063C0000834AFF20022AFF2F81120460EF0C0FC04
:1063D0000834AFF20822AFF2D41120460EF0B8FC18
:1063E0000834AFF22822AFF2202120460EF0B0FC94
:1063F0000834AFF23822AFF2F41120460EF0A8FCB8
:106400000834AFF24822AFF2242120460EF0A0FC5F
:106410000834AFF25022AFF2302120460EF098FC43
:10642000083408A2AFF2442120460EF091FC083453
:10643000204608F0BBF82846FDF748FF28460BF039
:10644000C3FB70BD372F310070B54FF4C8600BF03F
:10645000CFFB05462C46FEA2FEA120460EF078FC9E
:106460000834FDA2FDA120460EF072FC0834FCA207
:10647000FCA120460EF06CFC0834FBA2FBA12046D8
:106480000EF066FC0834F4A2F2A120460EF060FC87
:106490000834F1A2F3A120460EF05AFC0834ECA215
:1064A000EEA120460EF054FC0834EBA2F0A12046E9
:1064B0000EF04EFC0834EFA2E8A120460EF048FC96
:1064C0000834EDA2E3A120460EF042FC0834E6A217
:1064D000E6A120460EF03CFC0834DDA2DDA12046FA
:1064E0000EF036FC0834DCA2DCA120460EF030FCB5
:1064F0000834DBA2DBA120460EF02AFC0834DAA225
:10650000DAA120460EF024FC0834D3A2D1A1204603
:106510000EF01EFC0834D0A2D2A120460EF018FCCA
:106520000834CBA2D5A120460EF012FC0834CAA232
:10653000CCA120460EF00CFC0834CEA2CFA1204600
:106540000EF006FC0834C2A2CDA120460EF000FCDD
:106550000834C5A2C5A120460EF0FAFB0834C2A239
:10656000BCA120460EF0F4FB0834C6A2C6A120460A
:106570000EF0EEFB0834BCA2BAA120460EF0E8FBF8
:106580000834B5A2BDA120460EF0E2FB0834B2A249
:10659000B4A120460EF0DCFB0834B3A2B7A120461C
:1065A0000EF0D6FB0834B0A2B0A120460EF0D0FB0E
:1065B0000834ADA2AEA120460EF0CAFB0834A4A256
:1065C000AFA120460EF0C4FB0834AAA2ABA120461E
:1065D0000EF0BEFB0834A2A2A2A120460EF0B8FB2A
:1065E00008349DA2A1A120460EF0B2FB08349EA261
:1065F000A2A120460EF0ACFB083497A299A1204638
:106600000EF0A6FB083494A292A120460EF0A0FB47
:1066100008348FA299A120460EF09AFB08348EA26E
:106620008CA120460EF094FB08348BA28DA120464D
:106630000EF08EFB083488A286A120460EF088FB5F
:10664000083483A287A120460EF082FB083482A280
:106650008AA120460EF07CFB083483A28AA1204642
:106660000EF076FB083489A285A120460EF070FB5F
:1066700008347BA282A120460EF06AFB08347AA27D
:106680007AA120460EF064FB083477A280A1204650
:106690000EF05EFB08346EA27EA120460EF058FB81
:1066A000083471A27CA120460EF052FB08346AA285
:1066B0007AA120460EF04CFB083467A274A1204654
:1066C0000EF046FB083464A274A120460EF040FB95
:1066D000083465A26EA120460EF03AFB08345EA293
:1066E0006EA120460EF034FB08345BA25FA1204669
:1066F0000EF02EFB08345CA265A120460EF028FBAC
:10670000083455A265A120460EF022FB083450A2A1
:1067100063A120460EF01CFB083453A25CA1204666
:106720000EF016FB08344CA25EA120460EF010FBC2
:1067300008344BA256A120460EF00AFB08344AA2A8
:106740004AA120460EF004FB083447A250A120467F
:106750000EF0FEFA08343EA24EA120460EF0F8FAE2
:10676000083441A24CA120460EF0F2FA08343AA2B5
:106770004AA120460EF0ECFA083437A244A1204684
:106780000EF0E6FA083434A244A120460EF0E0FAF6
:10679000083435A23EA120460EF0DAFA08342EA2C3
:1067A0003EA120460EF0D4FA08342BA22FA1204699
:1067B0000EF0CEFA08342CA235A120460EF0C8FA0D
:1067C000083425A235A120460EF0C2FA083420A2D2
:1067D00033A120460EF0BCFA08341FA231A1204696
:1067E0000EF0B6FA083420A22DA120460EF0B0FA21
:1067F00008341BA226A120460EF0AAFA08341AA2D9
:106800001AA120460EF0A4FA083417A220A12046AF
:106810000EF09EFA08340EA21EA120460EF098FA41
:10682000083411A21CA120460EF092FA08340AA2E4
:106830001AA120460EF08CFA083407A214A12046B3
:106840000EF086FA083404A214A120462CE00000C1
:10685000322F3200365F0000312F3400375F0000E6
:10686000352F340031000000312F3200300000009D
:10687000355F0000332F3400342F32003200000027
:1068800033000000332F320034000000382F340072
:1068900036000000337E0000327E0000317E0000B2
:1068A00037000000350000000EF052FA0834AFF255
:1068B0004802AFF2240120460EF04AFA0834AFF243
:1068C0006802AFF2280120460EF042FA0834AFF217
:1068D0007802AFF2680120460EF03AFA0834AFF2BF
:1068E0007802AFF2540120460EF032FA0834AFF2CB
:1068F0009802AFF2580120460EF02AFA0834AFF29F
:10690000B002AFF2640120460EF022FA0834AFF272
:10691000A802AFF2840120460EF01AFA0834AFF252
:10692000C802AFF2800120460EF012FA0834AFF22E
:10693000D002AFF2B40120460EF00AFA0834AFF2EA
:10694000D802AFF2D80120460EF002FA0834AFF2B6
:10695000E802AFF2C40120460EF0FAF90834AFF2B3
:10696000EC02AFF2D00120460EF0F2F90834AFF29B
:1069700008122FA120460EF0EBF90834AFF21812DE
:10698000AFF2F00120460EF0E3F90834AFF228121E
:10699000AFF2FC0120460EF0DBF90834AFF23812FA
:1069A000AFF2081120460EF0D3F90834AFF25812B6
:1069B000AFF21C1120460EF0CBF90834AFF24C12A6
:1069C000AFF2341120460EF0C3F90834AFF2801252
:1069D000AFF23C1120460EF0BBF90834AFF278124A
:1069E000AFF2481120460EF0B3F90834AFF27C1232
:1069F000AFF2541120460EF0ABF90834AFF2981202
:106A0000AFF2681120460EF0A3F90834AFF28C12F1
:106A1000AFF2841120460EF09BF90834204607F0AF
:106A2000C5FD2846FDF752FC28460BF0CDF870BD99
:106A3000357E000070B54FF416600BF0D9F80546AE
:106A40002C46FEA2FEA120460EF082F90834FDA2DB
:106A5000FDA120460EF07CF90834FCA2FCA12046E2
:106A60000EF076F90834F7A2FAA120460EF070F97C
:106A70000834F4A2F6A120460EF06AF90834F3A215
:106A8000EFA120460EF064F90834EEA2F2A12046F0
:106A90000EF05EF90834EBA2E9A120460EF058F999
:106AA0000834EAA2EDA120460EF052F90834E5A21E
:106AB000EBA120460EF04CF90834E2A2E6A12046F4
:106AC0000EF046F90834DDA2DDA120460EF040F9B3
:106AD0000834DCA2DEA120460EF03AF90834D9A22F
:106AE000DCA120460EF034F90834D8A2DDA12046FE
:106AF0000EF02EF90834DCA2D3A120460EF028F9BE
:106B00000834D9A2D9A120460EF022F90834D8A21F
:106B1000D4A120460EF01CF90834D5A2D0A12046FD
:106B20000EF016F90834C5A2C5A120460EF010F9E2
:106B30000834C4A2C4A120460EF00AF90834C3A246
:106B4000C3A120460EF004F90834BEA2C1A120461C
:106B50000EF0FEF80834BBA2BDA120460EF0F8F8F6
:106B60000834BAA2B6A120460EF0F2F80834B5A255
:106B7000B9A120460EF0ECF80834B2A2B0A120462C
:106B80000EF0E6F80834B1A2B4A120460EF0E0F809
:106B90000834ACA2B2A120460EF0DAF80834A9A25B
:106BA000B4A120460EF0D4F80834A6A2ABA120462A
:106BB0000EF0CEF80834A3A2A7A120460EF0C8F824
:106BC0000834A0A29EA120460EF0C2F808349DA26F
:106BD000A0A120460EF0BCF808349CA298A1204643
:106BE0000EF0B6F8083499A29BA120460EF0B0F83A
:106BF00008349FA292A120460EF0AAF8083493A26E
:106C000097A120460EF0A4F808348EA291A1204648
:106C10000EF09EF808348BA292A120460EF098F850
:106C2000083488A288A120460EF092F8083485A284
:106C30008CA120460EF08CF8083482A282A1204656
:106C40000EF086F808347DA288A120460EF080F868
:106C500008347CA27CA120460EF07AF8083479A290
:106C600080A120460EF074F8083478A279A120465D
:106C70000EF06EF8083473A271A120460EF068F889
:106C8000083470A274A120460EF062F808346FA296
:106C900072A120460EF05CF808346AA26DA120466D
:106CA0000EF056F8083467A26EA120460EF050F898
:106CB000083464A264A120460EF04AF8083461A2A8
:106CC00068A120460EF044F808345EA25EA120467A
:106CD0000EF03EF808345BA264A120460EF038F8AE
:106CE000083458A258A120460EF032F8083455A2B4
:106CF0005CA120460EF02CF808345BA255A120467A
:106D00000EF026F808345CA24DA120460EF020F8C3
:106D1000083457A24CA120460EF01AF8083449A2B4
:106D20004CA120460EF014F8083446A24DA120468E
:106D30000EF00EF8083443A243A120460EF008F8E6
:106D4000083440A247A120460EF002F808343DA2C4
:106D50003DA120460DF0FCFF083438A243A1204697
:106D60000DF0F6FF083437A237A120460DF0F0FFF2
:106D7000083434A23BA120460DF0EAFF083431A2CA
:106D800034A120460DF0E4FF083437A235A1204697
:106D90000DF0DEFF083434A22EA120460DF0D8FFFE
:106DA000083428A226A120460DF0D2FF083425A2DF
:106DB00029A120460DF0CCFF083424A227A12046AB
:106DC0000DF0C6FF08341FA225A120460DF0C0FF1C
:106DD00008341CA220A120460DF0BAFF083419A2E5
:106DE00017A120460DF0B4FF083416A21AA12046C0
:106DF0000DF0AEFF083413A211A120460DF0A8FF3C
:106E0000083410A210A120460DF0A2FF08340DA2F4
:106E10000BA120460DF09CFF08340AA20EA12046CB
:106E20000DF096FF083407A205A120460DF090FF53
:106E3000083404A208A1204620E00000332F3200CD
:106E400036000000312F3200337E0000322F320036
:106E500037000000317E00003500000033000000E4
:106E600030000000327E0000312F3400357E0000FB
:106E7000342F320032000000332F34000DF068FF51
:106E80000834AFF21402AFF2480120460DF060FF63
:106E90000834AFF24802AFF2380120460DF058FF37
:106EA0000834AFF26002AFF2600120460DF050FFEF
:106EB0000834AFF27002AFF24C0120460DF048FFEB
:106EC0000834AFF28002A6A120460DF041FF08343D
:106ED000AFF29002AFF26C0120460DF039FF08349A
:106EE000AFF2A002AFF2A00120460DF031FF08344E
:106EF000AFF2A802AFF2940120460DF029FF08344A
:106F0000AFF2C002AFF2B40120460DF021FF083409
:106F1000AFF2D002AFF2D80120460DF019FF0834CD
:106F2000AFF2D802AFF2C40120460DF011FF0834D1
:106F3000AFF2F002AFF2CC0120460DF009FF0834A9
:106F4000AFF20812AFF2001120460DF001FF083435
:106F5000AFF21012AFF2F80120460DF0F9FE08343E
:106F6000AFF2FC02AFF2201120460DF0F1FE083422
:106F7000AFF20C12AFF20C1120460DF0E9FE08340E
:106F8000AFF2381276A120460DF0E2FE0834AFF2DF
:106F90004C12AFF2281120460DF0DAFE0834AFF2A1
:106FA0005C12AFF25C1120460DF0D2FE0834AFF255
:106FB0006412AFF2501120460DF0CAFE0834AFF251
:106FC0007C12AFF27C1120460DF0C2FE0834AFF205
:106FD0008C12AFF2681120460DF0BAFE0834AFF201
:106FE0007012AFF29C1120460DF0B2FE0834AFF2E1
:106FF000A412AFF2941120460DF0AAFE0834AFF2AD
:10700000BC12AFF2BC1120460DF0A2FE0834AFF264
:10701000CC12AFF2A81120460DF09AFE0834AFF260
:10702000D4124FA120460DF093FE0834AFF2EC12BB
:10703000AFF2C81120460DF08BFE0834AFF2FC12FF
:10704000AFF2FC1120460DF083FE0834AFF20422AB
:10705000AFF2F01120460DF07BFE0834AFF214229F
:10706000AFF2102120460DF073FE0834AFF2242257
:10707000AFF2242120460DF06BFE0834AFF234222B
:10708000AFF22C2120460DF063FE0834AFF244220B
:10709000AFF2402120460DF05BFE0834AFF25C22D7
:1070A000AFF2642120460DF053FE0834AFF26C229B
:1070B000AFF25C2120460DF04BFE0834AFF2742293
:1070C000AFF2842120460DF043FE0834AFF28C224B
:1070D000AFF2742120460DF03BFE0834AFF29C2243
:1070E000AFF2902120460DF033FE0834AFF2AC220F
:1070F000AFF2A42120460DF02BFE0834AFF2982207
:10710000AFF2B02120460DF023FE0834AFF2A822E2
:10711000AFF2C42120460DF01BFE0834AFF2DC2292
:10712000AFF2E42120460DF013FE0834AFF2EC225A
:10713000AFF2DC2120460DF00BFE083409A2AFF2BD
:10714000003120460DF004FE0834204607F02EFAE8
:107150002846FDF7BBF828460AF036FD70BD000052
:10716000367E0000362F320070B54FF4C8600AF04A
:107170003FFD05462C4614A214A120460DF0E8FD63
:10718000083411A212A120460DF0E2FD08340EA22F
:1071900010A120460DF0DCFD08340BA20EA1204604
:1071A0000DF0D6FD08340DA20DA120460DF0D0FD46
:1071B0000834204607F0FAF92846FDF787F82846F4
:1071C0000AF002FD70BD0000312F320031000000D6
:1071D000320000003300000034000000312F310085
:1071E000350000002DE9FF4704460D461646994636
:1071F00000200390029600278046009002A80CF021
:1072000063FC8DF80C000398C0F30310022800D033
:107210001FE001A9029800F04DF880460299084449
:107220000290DDE9011047180298381A022800DAA6
:107230000FE002A80CF048FC8DF80000009800F068
:107240000100207002A80CF03FFC28704FF00108EC
:1072500000BF404604B0BDE8F0872DE9F84305467D
:107260000C46012600270020206000BF4FF0FF38A9
:10727000781C0746042801DD00BF17E0012168469D
:10728000A8478046B8F1010F00D00FE09DF800102C
:1072900001F07F01206801FB06002060F6019DF8E7
:1072A000000000F080000028E0D100BF3846BDE8B3
:1072B000F883000070B504460D4603480460294673
:1072C0000248FFF7CAFF70BDF401002045A800087E
:1072D00030B50246002300BF0846CD1701EB5565C7
:1072E000ED11A1EBC515ECB2CD1701EB5565E91118
:1072F000002901DD44F0800418465B1C1454002969
:10730000EADC184630BD0000401C802801DA401C31
:107310000AE0B0F5804F01DA801C05E0034988429D
:1073200001DAC01C00E0001D70470000FFFF1F00D5
:107330002DE9FE4305460E461446029500200190B5
:10734000009000274FF0FF38204600F0A5F80746D0
:107350008146FFF7D9FFB04202DD6FF001088FE0F0
:1073600000208DF80400019820F0F000103001900A
:107370009DF8041002A80EF0D5F839460298FFF7E0
:10738000A7FF029908440290207A042808D13EA160
:1073900002A80EF0B3F8042102A80EF0C3F807E02B
:1073A0003BA102A80EF0AAF8032102A80EF0BAF839
:1073B00000208DF80000A17E009861F3410000904C
:1073C000E07E08B1012100E00021009861F3820015
:1073D00000900098C0F3800058B194F83D100098D8
:1073E00061F3C400009094F83C10009861F34510DC
:1073F0000090206C08B9A06C20B1009820F08000AB
:1074000080300090E06C08B9606D20B1009820F0E9
:107410004000403000909DF8001002A80EF082F865
:10742000218B02A80EF084F802A8D4E90423E168B5
:107430000EF096F8E07E58B102A8D4E90A23616AFA
:107440000EF08EF802A8D4E90D23216B0EF088F817
:107450000098C0F3C01028B102A8D4E91123216C10
:107460000EF07EF80098C0F3801028B102A8D4E98D
:107470001423E16C0EF074F80298A0EB050800BF2D
:107480004046BDE8FE8300004D515454000000000A
:107490004D5149736470000070B504460025207A90
:1074A000032801D10C2503E0207A042800D10A2505
:1074B000D4E90412E06800F02AF8801C0544E07E5C
:1074C00068B1D4E90A12606A00F021F8861CD4E998
:1074D0000D12206B00F01BF83044801C0544206C1A
:1074E00008B9A06C30B1D4E91112206C00F00FF88B
:1074F000801C0544E06C08B9606D30B1D4E9141209
:10750000E06C00F004F8801C0544284670BD37B5D7
:107510000024009820B10098FBF7C6FC044600E068
:10752000019C20463EBD00F04FF800F04DF80000F1
:1075300070B5002100230F22C47804B3154C2468D1
:1075400004F4E064C4F5E064210AC1F10403CA4014
:10755000447804FA03F184781440214309010E4C65
:107560000678A155047804F01F050124AC40057885
:107570006D11AD0005F1E025C5F8004109E0047882
:1075800004F01F050124AC40044D0678761145F83F
:10759000264070BD0CED00E000E400E080E100E07A
:1075A00002490143024A1160704700000000FA05D9
:1075B0000CED00E0024A0A400243024B1A60704799
:1075C00080FFFF1F08ED00E00648006800F4E0605F
:1075D00005490843001D03490860BFF3408F00BF01
:1075E000FEE700000CED00E00000FA0510B50E48C3
:1075F0000068C0B90D480068FBF797FA0C490860AD
:10760000084600680B4908600948006800EB400024
:10761000094901EBC00009490860084600680849AB
:107620000860FBF746FA10BD44000020640000200B
:107630004C000020480000205C1D00205400002069
:107640005000002070B5044610464FF0807505606C
:10765000051F28462C606FF00106051F28462E6086
:107660004FF01236051F28462E604FF00336051FD7
:1076700028462E604FF00236051F28462E607610F1
:10768000051F28462E60051F284629604FF0113639
:10769000051F28462E604FF01036051F28462E6025
:1076A0004FF00936051F28462E604FF00836051F9B
:1076B00028462E604FF00736051F28462E604FF0F3
:1076C0000636051F28462E604FF00536051F284652
:1076D0002E604FF00436051F28462E6070BD000056
:1076E00010B5FBF7DFF9044606480078401C054951
:1076F000087005480078054908702046FBF7D6F960
:1077000010BD0000600000204C0000206800002038
:1077100010B5FBF7C7F904460948007820B10848BE
:107720000078401E064908700548007810B92020EE
:10773000044908702046FBF7B9F902F01DFB10BDA3
:10774000600000206800002030B5034602EB4200D4
:10775000084C44F8301002EB420004EBC0004360D8
:107760004FF0004002EB4204024D05EBC404E06020
:10777000002030BD5C1D0020024800880A3001490D
:10778000088070476401002029B1064AD26902438B
:10779000044BDA6104E0034AD2698243014BDA61A7
:1077A000704700000010024029B1064A12690243E6
:1077B000044B1A6104E0034A12698243014B1A61C7
:1077C000704700000010024029B1064A9269024346
:1077D000044B9A6104E0034A92698243014B9A6127
:1077E000704700000010024029B1064AD2680243E7
:1077F000044BDA6004E0034AD2688243014BDA604A
:10780000704700000010024030B500210022002423
:1078100000232D4D6D6805F00C0121B1042905D020
:10782000082923D105E0294D056022E0274D056098
:107830001FE0254D6D6805F47012234D6D6805F449
:107840008034022505EB92421CB9214D5543056059
:107850000BE01D4D6D6805F400351DB11C4D554301
:10786000056002E0194D5543056002E0174D0560C3
:1078700000BF00BF144D6D6805F0F0010909154DFA
:107880006B5C0568DD4045600F4D6D6805F4E06197
:10789000090A104D6B5C4568DD4085600A4D6D68D6
:1078A00005F46051C90A0B4D6B5C4568DD40C5604D
:1078B000054D6D6805F44041890B074D6B5CC5684B
:1078C000B5FBF3F5056130BD0010024000127A00EF
:1078D00000093D00180000202800002000210B4A6C
:1078E00011700A4A203A82F82010012802D0042898
:1078F00008D103E00121054A117004E00521034A83
:10790000117000E000BF00BF70470000201002406F
:1079100070B504460D460F4800780F490968884243
:1079200001D0002070BD0DB90020FBE70BE000BFC7
:1079300080210A4802F04EFB0028F9D02078074940
:10794000091D0880641C2800A5F10101CDB2EED10B
:1079500000BFE7E7C00000204C00002000380140D5
:1079600070B505460E4600240B48008838B100BFAC
:1079700003E000202855601C84B2B442F9DB0024E7
:1079800004E0FDF7A3FA2855601C84B20248008881
:107990000028F6D1204670BDC80000202DE9F04136
:1079A00005460E46002400BF03E000202855601C59
:1079B00084B2B442F9DB002442F2107809E0A8F165
:1079C00001001FFA80F8B8F1000F02D10020BDE8D5
:1079D000F081214800780028F1D020480068002874
:1079E00038D0002400270CE001F024F9FF2804D14E
:1079F00001F034F9FF2800D105E0FDF767FA781CA3
:107A000087B2322FF0DB00BF002410E0FDF75EFAF2
:107A10002855601C84B2B44200D10CE001F00AF990
:107A2000FF2804D101F01AF9FF2800D103E00C4827
:107A300000880028EAD100BF0948008850B900201A
:107A40000849088008490860084908800120084959
:107A5000C1F894012046BAE7CA0000202001214263
:107A6000C8000020C200002094012742C40000206A
:107A70000000274210B586B0044601210420FFF71C
:107A8000A3FE01218803FFF79FFE464802F054FA47
:107A90004FF48070ADF8140004208DF81700032017
:107AA0008DF8160005A94048FDF7A6F84FF480713F
:107AB0003D48FDF77BF94FF40060ADF8140010204D
:107AC0008DF8170003208DF8160005A93648FDF73C
:107AD00093F84FF400613448FDF766F94FF4805095
:107AE000ADF8140010208DF8170003208DF8160053
:107AF00005A92D48FDF780F84FF480512A48FDF77D
:107B000053F94FF40070ADF8140002208DF8160000
:107B100018208DF8170005A92348FDF76DF84FF4DC
:107B20008060ADF8140004208DF8170005A91E48E8
:107B3000FDF762F825208DF8000000208DF8010087
:107B40008DF8020001208DF803006846FFF7F0FC75
:107B500001940020ADF80800ADF80A00ADF80C0063
:107B6000ADF810000C20ADF80E0000210D4802F019
:107B7000D6F90C4802F0E0F901A90A4802F086FAA9
:107B8000012240F22551074802F05BFA012240F23F
:107B90002441044802F055FA0121024802F0BFF9DD
:107BA00006B010BD00380140000801401FB5044672
:107BB0004FF41650FFF75EFF01201F4908601F4970
:107BC000C1F8AC01642005F09BFD1DA103C9CDE9FE
:107BD00002018DF80C401CE0062102A8FFF798FE78
:107BE0004FF4FA7005F08CFD002000900190062102
:107BF0006846FFF7B5FE694613A00CF069F800B1BE
:107C000008E09DF804009DF80C10884200D101E0C6
:107C100000BFE1E700BF0020074908600749C1F83D
:107C2000AC01642005F06CFD4FF4E130FFF722FF5A
:107C3000002004B010BD0000B0012142000021422C
:107C4000C200003A144000004F4B0000202801D22F
:107C50000149087070470000C00000202DE9F0477E
:107C600080460D462621404600F0D6F8064616B955
:107C70000020BDE8F08740F2B450864200DD0646A1
:107C80002821404600F0C8F80746B946C7F30A075E
:107C900010213A48FDF788F8384600F0C3FB182158
:107CA00001EB4811C8B200F0ADFB354800F04DFEC5
:107CB00000F0FF0AB819B0F5006F11DA00240CE0EB
:107CC000002000F09FFB2E4800F03FFE00F0FF0A6E
:107CD00085F800A06D1C601C84B2B442F0DB39E072
:107CE000C7F5006087B200240CE0002000F08AFB9A
:107CF000234800F02AFE00F0FF0A85F800A06D1C62
:107D0000601C84B2BC42F0DB10211C48FDF74EF829
:107D100010211A48FDF748F8002000F083FB1821D5
:107D200001EB4811C8B200F06DFB154800F00DFEE4
:107D300000F0FF0A0CE0002000F064FB104800F0A7
:107D400004FE00F0FF0A85F800A06D1C601C84B2E0
:107D5000B442F0DB10210948FDF728F809EB0600D2
:107D60001FFA80F94A462821404602F00FFC4022C3
:107D70000121404602F0ECFB30467AE70008014062
:107D80000030014070B5044610210D48FDF70CF895
:107D9000204600F047FB012000F034FB094800F0CA
:107DA000D4FDC5B2002000F02DFB064800F0CDFD4B
:107DB000C5B210210248FCF7F9FF284670BD00004B
:107DC000000801400030014070B504460D46102106
:107DD0000F48FCF7E9FF284600F024FB082101EBDF
:107DE0004411C9B241F0010000F00CFB094800F059
:107DF000ACFDC6B2002000F005FB064800F0A5FD72
:107E0000C6B210210248FCF7D1FF304670BD000019
:107E1000000801400030014070B505460E461021B3
:107E20001548FCF7C1FF304600F0FCFA082101EBD1
:107E30004511C9B241F0020000F0E4FA0F4800F029
:107E400084FD0446002000F0DDFA0C4800F07DFDC2
:107E50000446002000F0D6FA4FF6FF7000EA042432
:107E6000064800F072FD204484B210210248FCF75D
:107E70009DFF204670BD0000000801400030014019
:107E800008B501210820FFF79FFC0420ADF8000091
:107E900010208DF8030002208DF802006946044886
:107EA000FCF7AAFE04210248FCF780FF08BD000091
:107EB000000C014009480088401C08490880084619
:107EC00000884000B0F57A7F06DB00200880044877
:107ED0000068401C02490860704700003400002020
:107EE0003000002010B5012002490860FF2000F09A
:107EF000ABF910BD9801224270B505460122002160
:107F0000092000F0EAF9044624B91021284600F0BF
:107F100055F90446FFF7E6FF0CB1012070BD0020C3
:107F2000FCE770B505464FF6FF7401E0601E84B2B1
:107F3000FF2000F089F9A84201D0002CF6D10CB93D
:107F4000FF2070BD0020FCE77FB56846FFF7D4FF37
:107F500010B1002004B070BD9DF8000000F0C0001A
:107F6000402809D19DF809009DF8081000EB012078
:107F7000401C84B2A50220E09DF8050000F00F002F
:107F80009DF80A1000EBD1109DF8091001F00301D3
:107F900000EB4100861C9DF8080080119DF8071039
:107FA00000EB81009DF8061001F0030100EB812039
:107FB000441CA6F1090004FA00F52846CAE70000AF
:107FC000F8B500F021F900F04AF9002504E0FF209F
:107FD00000F03AF9681C85B20A2DF8DB142600BFC0
:107FE00095220021084600F078F90446012C04D0BF
:107FF0003000A6F101018EB2F2D100205149087083
:10800000012C4AD187224FF4D571082000F065F980
:10801000012847D1002506E0FF2000F015F90DF8F2
:108020000500681C85B2042DF6DB9DF802000128CE
:1080300079D19DF80300AA2875D14FF6FE7600BFCE
:1080400001220021372000F048F901229107292060
:1080500000F043F9044624B13000A6F101018EB2CC
:10806000EED1002E5FD0012200213A2000F035F938
:10807000002858D1002506E0FF2000F0E5F80DF8B3
:108080000500681C85B2042DF6DB9DF8000000F0A9
:10809000400018B106202B49087044E0042029490B
:1080A000087040E001220021372000F016F901227B
:1080B0000021292000F011F90446012C17DC0220D0
:1080C000204908704FF6FE7600BF012200213720BC
:1080D00000F003F901220021292000F0FEF80446F7
:1080E000BCB13000A6F101018EB2EED111E0012049
:1080F000144908704FF6FE7600BF01220021104699
:1081000000F0EBF8044624B13000A6F101018EB274
:10811000F3D12EB101225102102000F0DEF810B18F
:10812000002008490870FFF7DDFE00F093F80548CD
:10813000007808B10020F8BD0CB12046FBE7AA206A
:10814000F9E70000F20000202DE9F04106460F4655
:10815000154619480078062800D07F02012D0CD161
:1081600001223946112000F0B8F80446FCB9690232
:10817000304600F023F8044619E001223946122067
:1081800000F0ABF8044600BF4FF40071304600F039
:1081900015F8044606F50076681EC0B2050001D049
:1081A000002CF1D0012200210C2000F096F8FFF7FE
:1081B00099FE2046BDE8F081F200002070B504462B
:1081C0000D46FE20FFF7ADFE08B1012070BD04E0B2
:1081D000FF2000F07FF92070641C2800A5F1010148
:1081E0008DB2F5D1FF2000F02FF8FF2000F02CF821
:1081F0000020EBE710B500F032F8FF2000F024F883
:1082000000F028F810BD000008B501211020FFF78C
:10821000DBFA10208DF8030003208DF802004020C7
:10822000ADF8000069460648FCF7E6FC402104482A
:10823000FCF7BCFD00F004F901200249086008BD0C
:10824000001001409801224210B50446204600F07B
:1082500041F910BD10B5002000F066F910BD10B551
:10826000382000F061F910BD10B500200549086004
:1082700000F06FF808B9002010BDFFF733FE0120B1
:10828000FAE700009801224270B506460D4600F05C
:1082900060F808B1012070BD2846FFF7D5FFFD2D1D
:1082A00019D0002404E0305D00F014F9601C84B2A1
:1082B000B4F5007FF7DBFF20FFF7C6FFFF20FFF7D5
:1082C000C3FFFF20FFF7C0FF044604F01F0005288E
:1082D00001D00220DFE70020DDE72DE9F04105466F
