:020000040800F2
:10280000A82200205D2A0008CB730008694F000849
:10281000C77300081D44000877A7000800000000E7
:102820000000000000000000000000002B900008E5
:102830009946000800000000E72A0008F196000809
:10284000772A0008772A0008772A0008497D0008BF
:10285000772A0008772A0008772A0008772A0008D4
:10286000772A0008772A000857480008772A0008C6
:10287000772A0008772A0008772A0008772A0008B4
:10288000772A0008772A0008772A0008772A0008A4
:10289000772A0008772A0008772A0008772A000894
:1028A000772A0008772A0008772A0008772A000884
:1028B000D99700080598000821980008772A000891
:1028C000772A0008772A0008772A0008772A000864
:1028D000772A0008A5A2000895A30008772A000817
:1028E000772A0008772A0008772A0008772A000844
:1028F000772A0008772A0008772A0008772A000834
:10290000772A0008772A0008772A0008772A000823
:10291000772A0008772A0008772A0008772A000813
:10292000772A0008772A0008772A0008772A000803
:1029300000F002F800F073F80AA090E8000C82445E
:102940008344AAF10107DA4501D100F068F8AFF23B
:10295000090EBAE80F0013F0010F18BFFB1A43F07D
:102960000103184708170100281701000A444FF017
:10297000000C10F8013B13F0070408BF10F8014BDE
:102980001D1108BF10F8015B641E05D010F8016B23
:10299000641E01F8016BF9D113F0080F1EBF10F887
:1029A000014BAD1C0C1B09D16D1E58BF01F801CBAA
:1029B000FAD505E014F8016B01F8016B6D1EF9D52D
:1029C0009142D6D370470000002300240025002642
:1029D000103A28BF78C1FBD8520728BF30C148BF82
:1029E0000B607047662911F01E80642900F0188181
:1029F000752900F01581782900F04E81732900F0C7
:102A00002486002070471FB500F024FE040000203B
:102A1000002110F05FFDE0601FBD10B510BD00F09B
:102A200015FF1146FFF7EFFF0EF01AF900F033FF24
:102A300003B4FFF7F2FF03BC08F0B1F9EFF309802C
:102A4000704780F309887047EFF30880704780F380
:102A50000888704740BA7047C0BA70470948804735
:102A600009480047FEE7FEE7FEE7FEE7FEE7FEE770
:102A7000FEE7FEE7FEE7FEE704480549034A054B8B
:102A8000704700007997000831290008A82000202D
:102A9000A8220020A8200020EFF3108072B6704713
:102AA00080F310887047224C224D25604FF00004BF
:102AB00084F30988204C4FF0010525701F4C4FF01E
:102AC0008055256062B6FEE730B41C4C4FF080554F
:102AD000256030BC704730B4184C4FF080552560ED
:102AE00030BC704700BF72B6EFF3098028B12038C0
:102AF00080E8F00F124909680860124812490A7804
:102B000002700F4811490A680260106890E8F00FDF
:102B1000203080F309884EF0040E62B67047B0FA98
:102B200080F0704790FAA0F04FEA10407047000024
:102B300020ED00E00000FFFF4400002004ED00E075
:102B400050000020480000204C00002054000020CD
:102B5000704700000FB41CB5084B06AA7B446946B9
:102B60000090059800F047FD04460020694600F0FB
:102B700055FD20461CBC5DF814FB0000BD0A00009A
:102B800070B5044685690068C10601D5302600E0AD
:102B90002026C00707D070BDD4E9012130469047F8
:102BA000206A401C20626D1EF6D570BD70B50446CB
:102BB00085690078C00707D170BDD4E901212020C4
:102BC0009047206A401C20626D1EF6D570BD70B51E
:102BD0000C460546012A05D02878800600D5EA690A
:102BE000002302E0012305E05B1C934202D2E05C7B
:102BF0000028F9D1A869E618C01AA861286A184403
:102C000028622846FFF7BCFF04E0D5E9012114F84B
:102C1000010B9047B442F8D32846FFF7C7FF70BDB9
:102C20002DE9F0410646002410687529314616A5A5
:102C300010D0AFF30080002802DA404213A507E06D
:102C400031688A0701D512A502E0490704D511A50C
:102C5000012401E0AFF3008000210A2206F12407DD
:102C600009E0B0FBF2FCB0FBF2F302FB1C003030D9
:102C700078541846491C0028F3D123462A4630468A
:102C8000BDE8F04100F04CBA000000002D0000004B
:102C90002B0000002000000070B504460D462146C0
:102CA0001068AFF300802188090502D50F4A7A44E5
:102CB00002E00E4A7A440E32002104F1240305E0BA
:102CC00000F00F060009965D5E54491C0028F7D1FC
:102CD00020780023000704D5702D02D009B102230B
:102CE00011322046BDE8704000F01ABA3A100100D7
:102CF0002DE9F05F894604464FF0000ADFF824B161
:102D0000FB44C0F820A02046E168884700287DD019
:102D1000252806D0D4E901219047206A401C206272
:102D2000F1E700255F462046E168884720280646EF
:102D300007DB312E05D2B81910F8200C08B1054375
:102D4000F1E7A80701D525F00405C4F81CA0002769
:102D5000C4F818A02A2E09D0304608F019F838B364
:102D600004EB8708303EC8F8186019E059F8041BD6
:102D7000204604EB87029161E1688847012F0646EF
:102D800018D1E069002820DA25F020051DE0D8F8E8
:102D9000180000EB800006EB40003038C8F818003F
:102DA0002046E1688847064607F0F2FF0028EED18A
:102DB000012F0AD02E2E08D12046E16888477F1CBB
:102DC0000646022F45F02005C4DBA069002803DA7F
:102DD000404245F00105A061E80701D025F010054B
:102DE000A6B1A6F14100192802D8203645F40065A5
:102DF0004A463146204625604D46FFF7F3FD60B157
:102E0000012807D0ED1D25F0070000E007E000F1E4
:102E1000080978E705F1040975E730467AE7206A82
:102E2000BDE8F09F10100100401ECAB210F8011F4B
:102E30008A4202D00029F9D10020704740EA0103FC
:102E4000024630B59B0710D14FF0013400E008C2B4
:102E500008C91D1B9D4315EAC41FF8D013F0FF01DC
:102E600002F8011B0DD01B0AF8E711F8013B002BFB
:102E700002F8013B05D011F8013B002B02F8013BA1
:102E8000F3D130BD10B5431C02E010F8011B71B145
:102E90008107FAD14FF0013202C88C1A8C4314EA30
:102EA000C211F9D0C01A0A0603D0C01E10BDC01A44
:102EB00010BD0A0401D0801E10BD0902FCD0401EC6
:102EC00010BD032A40F2308010F0030C00F0158092
:102ED00011F8013BBCF1020F624498BF11F801CB1D
:102EE00000F8013B38BF11F8013BA2F1040298BF82
:102EF00000F801CB38BF00F8013B11F0030300F0EC
:102F00002580083AC0F0088051F8043B083A51F88F
:102F100004CBA0E80810F5E7121D5CBF51F8043B94
:102F200040F8043BAFF30080D20724BF11F8013B07
:102F300011F801CB48BF11F8012B24BF00F8013B69
:102F400000F801CB48BF00F8012B704710B5203ABC
:102F5000C0F00B80B1E81850203AA0E81850B1E852
:102F60001850A0E81850BFF4F5AF5FEA027C24BF08
:102F7000B1E81850A0E8185044BF18C918C0BDE8FF
:102F800010405FEA827C24BF51F8043B40F8043BC8
:102F900008BF7047D20728BF31F8023B48BF11F87D
:102FA000012B28BF20F8023B48BF00F8012B7047D7
:102FB0004FF000020429C0F0128010F0030C00F062
:102FC0001B80CCF1040CBCF1020F18BF00F8012BE0
:102FD000A8BF20F8022BA1EB0C0100F00DB85FEAAE
:102FE000C17C24BF00F8012B00F8012B48BF00F87A
:102FF000012B70474FF0000200B5134694469646E9
:10300000203922BFA0E80C50A0E80C50B1F12001FB
:10301000BFF4F7AF090728BFA0E80C5048BF0CC0A9
:103020005DF804EB890028BF40F8042B08BF704707
:1030300048BF20F8022B11F0804F18BF00F8012B79
:10304000704710B5044610F0030F08BF11F0030FCE
:1030500040F015804FF0013E121FC0F20E8051F873
:10306000043BA3EB0E0C2CEA030C1CEACE1C08BF9D
:1030700040F8043BF0D0A1F1040102F10402521E19
:1030800008DB11F8013B002B00F8013BF7D111469A
:10309000FFF78EFF204610BD4FF0013C50F8042B87
:1030A00051F8043B9A4221D1A2EB0C03934313EA5B
:1030B000CC1317D150F8042B51F8043B9A4215D188
:1030C000A2EB0C03934313EACC130BD150F8042B5F
:1030D00051F8043B9A4209D1A2EB0C03934313EA43
:1030E000CC13DBD04FF00000704700BFD01A01BAFC
:1030F000B1FA81F101F0180122FA01F0CB40C1F1DF
:103100002001DBB2C0B2C01A2CFA01F3D11A9143EC
:1031100011EAC311E6D17047704770477047704796
:103120002DE9F0470D4699469246044600F12408E1
:103130000168880604D5E06921F01001216000E0F3
:103140000120A84201DD471B00E00027A1697A1990
:1031500002EB0900081AA0612078C00602D42046BC
:10316000FFF70EFD002608E0D4E901211AF8060059
:103170009047206A401C761C20624E45F4DB207884
:10318000C0060AD52046FFF7FBFC06E0D4E9012182
:1031900030209047206A401C2062381EA7F10107AA
:1031A000F4DC07E0D4E9012118F805009047206A13
:1031B000401C2062281EA5F10105F3DC2046FFF724
:1031C000F5FC2078000602D50220BDE8F08701203A
:1031D000FBE770472DE9FF4F0C461E464FF0FF37C7
:1031E0008BB0D2E90001DDF860800A908A46C1F315
:1031F0000A5505B93D46002108464FF00000BAF1D6
:10320000000F00F4400005DA00EB80004FF44001AD
:1032100001EA50004FEA9059B9F1010F00DDB946BB
:103220000A9850EA4A000ED044F61050A5F2FF3535
:1032300045432F14B8F1000F1ED07542291E1EDD24
:10324000C9F100021CE0B8F1010F4FF0000001D0FD
:10325000302103E0F24305E02154401CB042FBDB87
:1032600030460022002121540B99C1F80880C1E9A1
:1032700000200FB0BDE8F08FBD1B6D1CDEE74A4695
:1032800000DA694206A800F06FFA06AB93E807007F
:1032900003AB83E8070050460A9900F002FB8DE873
:1032A0000700A0F500501F3800900398002D09DD9D
:1032B00042F21F014A46084403A90390684600F001
:1032C00061FD08E0A0F500504A461F3803A90390AD
:1032D000684600F06BFD8DE807000004000C03D089
:1032E0004FF0FF30410800E01046B8F1000F03D066
:1032F0000022009215461EE0751E05D400F0AEF9BE
:10330000303262556D1EF9D5B3460122084302D012
:1033100000227F1C04E02078302801D100227F1E8B
:10332000002A099786D01DE0112D07DA00F096F9E2
:10333000303262556D1C50EA0102F5D1084302D0CB
:103340000098C8B10EE00021681E05E0235C625CB5
:1033500063542254401E491C8142F7DBAB46A81B34
:10336000401E0990002004F80B000B98099AC0F841
:103370000880C0E9002B7CE711264FF0000859E7D0
:103380002DE9F04F88460446D21D22F0070191B086
:10339000D1E90001CDE90A0107F0E6FC02460B98ED
:1033A000C00F01D02D2007E02068810701D52B2018
:1033B00002E0202101EAC000032A099001D0072A77
:1033C00005DB03464146204600F08EF90BE12078EC
:1033D000800601D5E06900E00620B8F1650F81465E
:1033E00006D0B8F1660F18D0B8F1670F70D131E090
:1033F0000020B9F1110F009001DB112301E009F168
:1034000001030AAA01A90CA8FFF7E4FEDDE90C708C
:10341000002609F10105834647E001204B46009054
:103420004FF000470AAA01A90CA8FFF7D3FEDDE977
:103430000DB00C995D46002610B909F101000D1878
:10344000B9EB050003D4C0F1FF3609F10105A5EB86
:1034500009002BE0B9F1010F01DA4FF0010900205A
:10346000B9F1110F0090484601DD112300E0034639
:103470000AAA01A90CA8FFF7ADFEDDE90C704D46C4
:1034800000268346207800070AD4AB4500DA5D4663
:1034900001A8012D04DD411911F8011C302907D0C4
:1034A0004F4502DA17F1040F04DA012082460FE0DB
:1034B0006D1EEEE7002F02DCED1B3E4403E0781C9E
:1034C000A84200DD7D1CB81B00F1010A4FF0004747
:1034D0002078000703D4AA4501DB4FF0FF3A002112
:1034E000B7F1004F0DF143088DF8431024D00220AE
:1034F0002B23002F01DA7F422D230A21021EA0F187
:10350000010000DC5FB197FBF1FC97FBF1F201FBDE
:103510001C7C17460CF1300C08F801CDEEE7A8F141
:10352000010003702188090501D5452100E06521CE
:10353000A0F1010800F8011C09980FA9A1EB0807E8
:10354000FF1D00B10120411901EBEA70A169384467
:10355000081A401EA0612078C00602D42046FFF75A
:103560000FFB099828B1D4E901219047206A401C3B
:1035700020622078C00622D52046FFF701FB1EE01E
:10358000002E04DBB34502DD01A8805D00E03020A1
:10359000D4E901219047206A401C2062761CAAF1E0
:1035A00001005FEA000A0AD100F054F8C06801681F
:1035B000405CD4E901219047206A401C2062281E0B
:1035C000A5F10105DCDC07E0D4E9012118F8010BC5
:1035D0009047206A401C2062381EA7F10107F3DCE7
:1035E0002046FFF7E3FA032011B043E601694A1CC5
:1035F00002610878704700B58FB0CDE90131002134
:10360000059105497944CDE9031011466846FFF755
:103610006FFB0FB000BD0000E5FFFFFF0A6802F876
:10362000010B0A60704710B5436913B1AFF3008016
:1036300001E0FFF7CCFA012010BD127800F124015F
:103640000A7000224A700122EDE711684FF0FF3244
:10365000E9E70000004870476820002030B5B0F16D
:103660000A024FEA900E71F100034EEA817EB0EB40
:103670000E0061EB91014FEA101E4EEA017E10EB45
:103680000E0041EB11114FEA102E4EEA016E10EBC5
:103690000E0041EB11214FEA104E4EEA014E10EBA5
:1036A0000E0041EB1141401841F100014FEAD000FA
:1036B00040EA41704FEAD10110EB80054FEA8104E6
:1036C00044EA907444EB01046D1944EB0404521B6A
:1036D000A3414FF0000348BF0A3200D530BD401C63
:1036E00041F1000130BD00002DE9F0411F460446C4
:1036F00003260168072A01F4006004DB08B116A55F
:1037000005E016A503E008B115A500E015A521F018
:1037100010002060A069C01EA0610FB1401EA06112
:103720002046FFF72DFA4FB1D4E9012138469047E2
:10373000206A401C2062C01C206206E0206AFAE772
:10374000D4E9012115F8010B9047761EF8D22046E6
:10375000FFF72CFABDE8F0814E414E006E616E001D
:10376000494E4600696E66002DE9F04781461646CF
:103770008AB0334878440DC88DE80D00304878444D
:10378000801C03AC0DC884E80D0041F69B30084452
:10379000372190FBF1F290FBF1F5A5F1800501FBDB
:1037A00012041B3C02D56442012000E00020DFF837
:1037B00090A080460027FA44AAF1BE0A0DE0E00777
:1037C00009D03246684607EB47010AEB810100F059
:1037D000EDFA8DE8070064107F1C002CEFD1184F24
:1037E0007F44AC3F18E0E80714D007EB04100DF15C
:1037F000180A90E80E008AE80E00C068F04201D175
:1038000098190890324606A903A800F0CFFA03AB36
:1038100083E807006D10641C002DE4D13246694630
:10382000B8F1000F03A802D000F0ACFA01E000F0FC
:10383000BDFAC9E90001C9F808200AB0BDE8F0875F
:103840002C06010000487047482000207546FFF70D
:10385000F9FFAE4605006946534620F0070085464D
:1038600018B020B5FFF708F9BDE820404FF000067A
:103870004FF000074FF000084FF0000B21F0070158
:10388000AC46ACE8C009ACE8C009ACE8C009ACE89B
:10389000C0098D4670470446AFF300802046FFF70D
:1038A000C7F85FEA400C08BF91F0000F4FEA8C2385
:1038B0004FEAC12243EA51514FEA1C5018BF00F5AC
:1038C000F0404FEA300018BF41F000415FEA6C5C05
:1038D00000F02980BCF1FF3F08BF40F080407047F6
:1038E000130C06BF12044FF0100C4FF0000C130E17
:1038F00004BF12020CF1080C130F04BF12010CF1EB
:10390000040C930F04BF92000CF1020CD30F04BF00
:1039100052000CF1010C11464FF00002A0F11F0003
:10392000A0EB0C00704711F0004F08BF704731F05A
:1039300000413FF4D5AF0B0C06BF09044FF0100C4B
:103940004FF0000C0B0E04BF09020CF1080C0B0F1A
:1039500004BF09010CF1040C8B0F04BF89000CF1AA
:10396000020CCB0F04BF49000CF1010CCCF1200379
:10397000A0EB0C0022FA03F302FA0CF241EA030175
:1039800000F10100704720F07F4C80EA030023F033
:103990007F47ACEB070303F57C5300F0004003F1D5
:1039A000FF032DE980494FEA154B09B44FEA144350
:1039B00025EA0B4E24EA03480FF2042606EB1327F0
:1039C00049083E785FEA320203FB0667C7F5000745
:1039D00007FB06F64FEA54374FEAD64606F10206D1
:1039E00007FB066CCCF1005C4FEA1C472CEA074C45
:1039F00007FB06F40CFB06F504EB15464FEA96169A
:103A000034BF00204FF000404FEAD13706FB07FCDF
:103A10004FEA1C4C0CFB0BF7D21B03FB0CF761EBC2
:103A200007010CFB0EF7B0EB074072EB17420CFBE3
:103A300008F734BFA2EB0742B2EB074261EB174134
:103A40004FEA0C444FEA910706FB07FC4FEA1C4C77
:103A50000CFB0BF7B0EBC74072EB573203FB0CF7D4
:103A600034BFA2EBC742B2EBC74261EB57310CFB4C
:103A70000EF7B0EBC70072EB57720CFB08F734BFC0
:103A8000A2EBC702B2EBC70261EB5771039F4FEA8B
:103A9000816141EA921104EBCC044FEAD1374FEA3D
:103AA000826206FB07FC42EA90124FEA80604FEA0E
:103AB0001C4C0CFB0BF7D21B03FB0CF761EB070153
:103AC0000CFB0EF7B0EB074072EB17420CFB08F74C
:103AD00034BFA2EB0742B2EB074261EB17414FEA5A
:103AE0008C554FEA910704EB9C2406FB07FC4FEA38
:103AF0001C4C0CFB0BF7B0EBC74072EB573203FBCF
:103B00000CF734BFA2EBC742B2EBC74261EB5731AF
:103B10000CFB0EF7B0EBC70072EB57720CFB08F70B
:103B200034BFA2EBC702B2EBC70261EB577115EBD2
:103B30004C254FEA816141EA92114FEA82624FEAD5
:103B4000D13742EA901206FB07FC44F100044FEA29
:103B500080604FEA1C4C0CFB0BF7D21B03FB0CF7ED
:103B600061EB07010CFB0EF7B0EB074072EB17425D
:103B70000CFB08F734BFA2EB0742B2EB074261EB44
:103B8000174115EB1C154FEA813141EA92414FEA8A
:103B9000823242EA90424FEA80304FEA0C7644F19A
:103BA000000448EA03434EEA0B484FF0000EB2EB24
:103BB000080C71EB030724BF624639464EEB0E0E2C
:103BC0004FF0000B0018524149414BEB0B0BB2EB8D
:103BD000080C71EB03077BF1000B24BF62463946EA
:103BE0004EEB0E0E4FF0000B0018524149414BEBCB
:103BF0000B0BB2EB080C71EB03077BF1000B24BF3E
:103C0000624639464EEB0E0E51EA020718BF46F0E7
:103C1000010616EB0E7655F1000254F1000103D5B2
:103C2000BDE88901BDE80088BDE88901BDE800481C
:103C3000B619524141EB0101A3F1010370478080A5
:103C40007F7E7D7C7B7A79787776767574737271F6
:103C500071706F6E6E6D6C6C6B6A6A6968686766AE
:103C600066656464636362616160605F5F5E5E5D40
:103C70005D5C5C5B5B5A5A595958585757565655B4
:103C800055555454535352525251515050504F4F16
:103C90004F4E4E4D4D4D4C4C4C4B4B4B4A4A4A4966
:103CA00049494848484747474746464645454544A9
:103CB0004444444343434342424242414141002B36
:103CC00026D4770021D01CB54FEA370703B44FF054
:103CD00010004FF010014FF000000FBCBDE8104085
:103CE0000BF1010BBBF1010F08BF5FEA170722BF01
:103CF00012F1010211F101014FF0004143F1000303
:103D000000F0004043EA00007047F9D35708DAE7B3
:103D100046EA064613F1400F4FEA16461FDD13F13F
:103D2000200FDFBF16430A46002120335B42C8D074
:103D3000C3F1200746EA064602FA07F74FEA16469D
:103D400046EA0706C3F1200722FA03F201FA07F751
:103D500021FA03F14FF0000342EA0702B1E746EA15
:103D6000020646EA06464FEA164646EA0106BCBF88
:103D700046EA0646360C4FF000034FF000024FF0C3
:103D800000019EE72DE9C048934630B491E8380021
:103D900007C831EA400C48BF34EA430C03D5FFF7AB
:103DA000F2FDFFF78CFFF0BCBDE800882DE9C048AC
:103DB000934630B491E8380007C810F0804F08BF30
:103DC00013F0804F03D100F005F8FFF778FFF0BC47
:103DD000BDE8008820F07F4780EA030023F07F4C95
:103DE00007EB0C03A3F57C5300F00040A3F1FE03A6
:103DF00092F0000F00F0B38095F0000F00F0778094
:103E00002DE901494FEA11404FEA144621EA0048E2
:103E100000FB06FC24EA064708FB06F607FB08F849
:103E200000FB07F718EB06484CEB164C4FEA124B19
:103E300018EB07484FEA15464CEB174022EA0B4EA9
:103E40000BFB06FC25EA06470EFB06F607FB0EFEFB
:103E50000BFB07F71EEB064E4CEB164C4FF0000623
:103E60001EEB074E4CEB174B18EB0B0840F1000014
:103E700018EB0E0B58EB000840F100008F1A4FF0C2
:103E800000013CBFC943661B14BFB5EB040C002105
:103E90003CBFC943F61B4FEA17444EEA8E0E27EA91
:103EA00004454FEA1C4704FB07622CEA074C05FB5C
:103EB00007F70CFB05F604FB0CFC16EB074642EB80
:103EC000174216EB0C4642EB1C421BEB060658EB66
:103ED0000202414146EA9E0601D5BDE80189B619B4
:103EE000524141EB0101A3F10103BDE801894FEA11
:103EF00014454FEA114724EA054621EA074C05FB21
:103F000007F406FB07F70CFB06F105FB0CFC11EBB5
:103F1000074144EB17444FEA124711EB0C4144EBC5
:103F20001C4422EA074C05FB07F206FB07F70CFBD3
:103F300006F605FB0CFC16EB074642EB174216EBA8
:103F40000C4642EB1C456A1854F1000148BF70470B
:103F5000B619524141EB0101A3F10103704795F0FD
:103F6000000F37D04FEA11424FEA144721EA0246C8
:103F700024EA074C02FB07F106FB07F70CFB06F4EB
:103F800002FB0CFC14EB074441EB17414FEA1547C9
:103F900014EB0C4441EB1C4125EA074C02FB07F5EE
:103FA00006FB07F70CFB06F602FB0CFC16EB0746BC
:103FB00045EB174516EB0C4645EB1C42121951F127
:103FC000000148BF7047B619524141EB0101A3F10E
:103FD000010370474FEA14454FEA114724EA0546AA
:103FE00021EA074C05FB07F106FB07F70CFB06F27D
:103FF0004FF0000605FB0CFC12EB074241EB1741AA
:1040000012EB0C4251EB1C4148BF7047921841EB38
:104010000101A3F10103704710B50BF043FA408C86
:10402000012804D10BF03EFA0021418403E00BF09B
:1040300039FA012141840BF035FA90F822402146EB
:1040400006200BF073FF10BD1CB510A103C9CDE90C
:1040500000010BF027FA808A01280BD100208DF88F
:1040600007000821684601F0EDF90BF01BFA00216A
:1040700081820AE00BF016FA0121818201208DF87D
:1040800007000821684601F0DDF91CBD5AA505822C
:104090001009000008B50121102003F0EBFA4FF4DD
:1040A0000050ADF8000010208DF8030002208DF8BC
:1040B00002006946054800F0E9FC002003F088FB97
:1040C0004FF40051014800F0B9FD08BD0010014057
:1040D00010B5012003F0EEFA002003F0EBFA10BD5A
:1040E00008B501460020009003480090009808445D
:1040F00000900098008808BD006C004008B50022C0
:104100000092044A0092009A02440092009A1160C0
:1041100008BD0000006C00400EB50020009001902A
:10412000029003208DF8000002208DF8010000208D
:104130008DF802008DF8030002208DF804008DF840
:104140000500694603200EF0FFFA0EBD0EB50020F3
:1041500000900190029002208DF800008DF801007F
:1041600000208DF802008DF8030002208DF8040075
:104170008DF80500694603200EF0E6FA0EBD0EB577
:10418000002000900190029004208DF80000022091
:104190008DF8010000208DF802008DF80300022048
:1041A0008DF804008DF80500694603200EF0CCFA66
:1041B0000EBD0EB5002000900190029005208DF8F4
:1041C000000002208DF8010000208DF802008DF81B
:1041D000030002208DF8040001208DF805006946D7
:1041E00003200EF0B1FA0EBD0EB500200090019034
:1041F000029002208DF800008DF8010000208DF85B
:1042000002008DF8030002208DF8040001208DF8D3
:104210000500694603200EF097FA0EBD7FB50546EE
:104220000024384B0FCB8DE80F0037480078012869
:1042300000D17FBD0120344908704FF416700DF095
:10424000D1FA324908600846006800B9F1E74AE04F
:10425000287830383DF8100061002C4A126822F8A6
:10426000110068785F280DD16100284A126832F881
:10427000110000EBD07149106200244B1B6823F839
:10428000121010E068787E280DD160001F4909687F
:1042900031F810004FF6FF7101EA400061001B4A3F
:1042A000126822F81100A8793038082191FBF0F04B
:1042B000012101EB4401154A126822F81100012086
:1042C00000EB44001149096831F8100029793039B0
:1042D0004843012101EB44010C4A126822F8110005
:1042E0000835601C84B228780028B1D1012101EB87
:1042F0004401064A126822F81100054806F0B2FD92
:1043000000BF96E7443A01086C00002070000020CE
:104310001543000810B53A48006800286FD03948A6
:10432000008840003649096831F81000364991FB91
:10433000F0F436480068401C34490860344800688E
:10434000401C3349086064B1601F304909688842E5
:1043500003D201202F49086006E000202D490860A3
:1043600002E000202B4908602648008840002449CC
:10437000096831F81000244991FBF0F023490968DD
:10438000884202D80020214908601E480088012187
:1043900001EB40001A49096831F8100040F2712120
:1043A00048431B490968B1EB001F27D31548008813
:1043B000401C1449088000201549086011480088F5
:1043C000012101EB40000E49096831F81000A8B93D
:1043D00000200C4908800E4908600C490860084814
:1043E00000680DF0EBF900200549086009490860F4
:1043F00009490870AFF2E3000AF0F8F900BF10BDF8
:104400007000002074000020A08601007C000020C5
:1044100078000020B40122426C00002003F024F850
:1044200070B50546002401240AE000F00FFC61008D
:1044300030F81100A84201D1012070BD601C84B287
:1044400000F004FC610030F811000028EDD100BF3D
:10445000F3E70000002000BF04E00021034A1154EC
:10446000411C88B23A28F8DB70470000561D002036
:104470007FB505460C46002600200190029003906F
:104480000090FF208DF804008DF8050028128DF8AB
:104490000600E8B28DF8070001208DF80800002022
:1044A0008DF8090002208DF80A0000208DF80B001D
:1044B0001E208DF80C006A46092101A800F080FC3E
:1044C0009DF800008DF80D009DF801008DF80E009C
:1044D0000B2101A803F0A4F900BF33E0C8200AF0C3
:1044E000C7F99DF80C0000F10901204603F0DCF942
:1044F00030B3A079C11D6A46204600F061FC9DF8EA
:104500000010A079C01D205C814219D19DF80110D6
:10451000A0790830205C814212D1E078A17840EA8D
:104520000120A8420CD120799DF8081041F08001AB
:10453000884205D1207AE17940EA012004B070BDBB
:10454000701CC6B2052EC9DB0A20F7E72DE9F04141
:104550008EB004460D4616461F464FF00008002058
:1045600002900390049005900190FF208DF80800C0
:104570008DF8090020128DF80A00E0B28DF80B00CA
:1045800003208DF80C0000208DF80D0003208DF81D
:104590000E008DF80F508DF810608DF8117001AA83
:1045A0000A2102A800F00CFC9DF804008DF812000E
:1045B0009DF805008DF813000C2102A803F030F9D6
:1045C00000BF3DE0C8200AF053F9182106A803F007
:1045D0006BF980B39DF81E00C11D01AA06A800F06A
:1045E000EFFB9DF804109DF81E00C01D06AA105C8C
:1045F000814221D19DF805109DF81E000830105C05
:10460000814219D19DF81B009DF81A1040EA012043
:10461000A04211D19DF81C009DF80C1041F08001C2
:10462000884209D19DF820009DF81F1040EA012022
:104630000EB0BDE8F081FFE708F101001FFA80F835
:10464000B8F1050FBEDB0A20F2E700002DE9F047C4
:1046500006460F4690461C464FF0004020FA04F5EF
:104660000C480068284010B10120BDE8F0870948D7
:10467000006828430749086000234246394630460F
:1046800002F030FF814622464946304602F0ACFF38
:104690000020EAE76400002002F0E6FE10B50446C0
:1046A000A0B20AF0E5F810BDFEB504460E46154668
:1046B000002000900190029002208DF80000022C52
:1046C00052D1A6B3012D17D101208DF801008DF82C
:1046D0000200694604200EF037F8694602200EF009
:1046E00033F800208DF8010002208DF802006946A1
:1046F00004200EF029F8ADE0022DFCD101208DF848
:10470000010002208DF80200694604200EF01CF81A
:10471000694602200EF018F800208DF801000120F3
:104720008DF80200694604200EF00EF892E0FFE7D3
:1047300000208DF8010001208DF802006946042058
:104740000EF002F8694602200DF0FEFF00208DF801
:10475000010002208DF8020069460DF0F5FF694660
:1047600004200DF0F1FF75E0032C01D0052C51D190
:104770009EB3012D17D101208DF8010003208DF883
:104780000200694604200DF0DFFF694602200DF0AB
:10479000DBFF00208DF8010004208DF8020069463F
:1047A0000DF0D2FF56E0022D54D101208DF801000A
:1047B00004208DF8020069460DF0C6FF694602200C
:1047C0000DF0C2FF00208DF8010003208DF80200DB
:1047D000694604200DF0B8FF3CE0FFE700208DF8AB
:1047E000010004208DF8020069460DF0ADFF694616
:1047F00002200DF0A9FF00208DF8010003208DF8A4
:104800000200694604200DF09FFF694602200DF06A
:104810009BFF1FE0042C1DD176B101208DF8010013
:1048200006208DF80200694604200DF08DFF6946D0
:1048300002200DF089FF0DE000208DF80100062018
:104840008DF80200694604200DF07EFF69460220C3
:104850000DF07AFFFEBD10B5102000F00FF830B15A
:10486000102000F005F81021002005F04DFA10BDD1
:10487000014908607047000014040140014600200F
:104880000022074B1B6803EA0102054B14331B6827
:104890000B4013B10AB1012000E000207047000076
:1048A00000040140002123498279002A3AD00A46B7
:1048B000126803689A430B461A600A1D126803685F
:1048C0009A430B1D1A60027911440A6803681A435F
:1048D0000A60184A0832126803689A43154B083375
:1048E0001A601A1D126803689A43124B0C331A603F
:1048F0004279102A0ED11A1F126803681A430D4B11
:1049000008331A601A1D126803681A43094B0C33E6
:104910001A600DE00749427911440A6803681A4396
:104920000A6005E0027911440A6803689A430A6044
:10493000704700000004014030B5044604254FF4E0
:10494000302000F06FF80546042D17D10C4800699F
:1049500040F002000A49086108464461006940F0DD
:10496000400008614FF4302000F05CF80546044830
:10497000006941F6FD71084001490861284630BDD3
:104980000020024004200B49C96801F0010109B16F
:1049900001200EE00749C96801F0040109B10220B5
:1049A00007E00449C96801F0100109B1032000E0E3
:1049B00004207047002002400348006940F0800056
:1049C00001490861704700000020024070B50446AC
:1049D0000D460426F00200F025F80646042E11D1FB
:1049E0000948006940F00100074908612580F0028C
:1049F00000F018F806460448006941F6FE710840C8
:104A000001490861304670BD002002400248034958
:104A10004860034848607047230167450020024012
:104A2000AB89EFCD00B502460423FFF7ABFF034689
:104A300003E0FFF7A7FF0346521E012B01D1002A16
:104A4000F7D102B90523184600BD000030B5002299
:104A50008B071C0F0F2303FA04F20B4B8C1053F837
:104A600024309343084C8D1044F8253023468C1095
:104A700053F824308C07240F00FA04F42343024C2B
:104A80008D1044F8253030BD080001402DE9F0417B
:104A9000024600250026002000230024002791F86C
:104AA00003C00CF00F0591F803C00CF0100CBCF122
:104AB000000F03D091F802C04CEA050591F800C040
:104AC000BCF1000F31D0146800202BE04FF0010C36
:104AD0000CFA00F3B1F800C00CEA03069E4220D1A4
:104AE00083004FF00F0C0CFA03F7BC4305FA03FCEC
:104AF0004CEA040491F803C0BCF1280F06D14FF032
:104B0000010C0CFA00FCC2F814C00AE091F803C0D2
:104B1000BCF1480F05D14FF0010C0CFA00FCC2F8B3
:104B200010C0401C0828D1D31460B1F800C0BCF1FB
:104B3000FF0F34DD546800202EE000F1080C4FF028
:104B4000010808FA0CF3B1F800C00CEA03069E4213
:104B500021D183004FF00F0C0CFA03F7BC4305FA88
:104B600003FC4CEA040491F803C0BCF1280F05D102
:104B700000F1080C08FA0CF8C2F8148091F803C090
:104B8000BCF1480F07D100F1080C4FF0010808FAFA
:104B90000CF8C2F81080401C0828CED35460BDE841
:104BA000F0810000F0B50A46002300240021002512
:104BB00000F00046B6F1004F02D11D4EF16901E050
:104BC0001B4E7168C0F3034583B200F44016B6F57E
:104BD000401F08D121F07061154E766826F070668E
:104BE000134F7E6012E000F48016B6F5801F06D1E8
:104BF000032606FA05F4A14341F0706106E0460D74
:104C0000360103FA06F6B14341F0706122B1460D58
:104C1000360103FA06F6314300F00046B6F1004FC4
:104C200002D1034EF16101E0014E7160F0BD000060
:104C3000000001400146886880B2704741617047BA
:104C40000161704700487047701F0020004870479E
:104C5000E01D00200246002100BF0DE0012000EB16
:104C600041000A4B13F81000904203D1480033F87A
:104C700010007047481C81B2012000EB4100034B3B
:104C800033F810000028E9D100BFF2E71801002036
:104C900000B502460021012112E0FFF7D7FF4B00CB
:104CA00030F81300904209D1FFF7D0FF012303EB46
:104CB000410330F8130000F47F4000BD481C81B26E
:104CC000FFF7C4FF4B0030F813000028E5D1FF20A8
:104CD000F3E700B50246002100BF10E0FFF7B6FF82
:104CE0004B0030F81300904207D1FFF7AFFF0123CC
:104CF00003EB410310F8130000BD481C81B2FFF71D
:104D0000A5FF4B0030F813000028E7D1FF20F3E7A0
:104D100030B502460B4600210024012114E0FFF7C4
:104D200095FF012505EB410510F81500904209D1CA
:104D30009C4205D1FFF78AFF4D0030F8150030BDC9
:104D4000601C84B2481C81B2FFF780FF012505EB8F
:104D5000410530F815000028E1D100BFEFE7000061
:104D600013490988322904DA1249114A1288885CE9
:104D700005E000210E4A11800E491288885C00214E
:104D80000D4A11600B4A0A4B1B88D1540B49098804
:104D900021B10A490988491E084A11800121064AA1
:104DA000116003490988491C014A118070470000BD
:104DB000C0000020241D002094012742C6000020CE
:104DC000F0B50B46FF24FF2509E010F8016B86EAD9
:104DD0000401074E765C86EA0504064E755C1E00EB
:104DE000A3F10107BBB2F0D114705570F0BD000003
:104DF000AC3A0108AC3B010810B501464A1E034B12
:104E0000985C00234A1E014CA35410BD8000002072
:104E100000B5FFF71BFF008800BD00B5FFF716FFC8
:104E200090F8660100BD00B5FFF710FF00F5B47003
:104E300000BD000010B50446002300BF04E0054893
:104E4000C05CE054581C83B23A2BF8DBFFF702FB3E
:104E5000184610BD561D0020F8B506460C46002524
:104E6000002000900027194806602078FF281CD1F8
:104E70006078FF2819D1A079617940EA0120C01D2E
:104E800085B2382D00DDF8BD6A4629462046FFF779
:104E900097FF605D9DF80010884206D1681C205C79
:104EA0009DF80110884200D1012767B120790528BB
:104EB00003D1204606F04DFA04E00521204606F015
:104EC000A1FA00BF00BF00BFDDE700009001002095
:104ED00010B50AF0E7FAC08B01280ED1012108466F
:104EE0000BF024F8642009F0DFFC002102200BF015
:104EF0001DF8642009F0D8FC21E00AF0D3FAC08B39
:104F000002280ED1002101200BF010F8642009F0D6
:104F1000CBFC012102200BF009F8642009F0C4FC4D
:104F20000DE0002101200BF001F8642009F0BCFC29
:104F3000002102200AF0FAFF642009F0B5FC0AF013
:104F4000B1FA408C012807D1012106200AF0EEFFBA
:104F5000642009F0A9FC06E0002106200AF0E6FF23
:104F6000642009F0A1FC10BD02F07EFA0D48007823
:104F7000642805DA0B480078401C0A4908700FE0E5
:104F8000002008490870084800883C2805DA0648CF
:104F90000088401C0449088002E000200249088083
:104FA000704700000D0200200E0200204CF6CC409D
:104FB00001490860704700000030004010B500F063
:104FC0001DF810BD70B5044607254FF6FF7000EAC6
:104FD00044142046E11704EB11610E1245F25550BE
:104FE00000F020F8284600F011F8304600F014F8E0
:104FF00000F004F8FFF7DAFF70BD00004AF6AA20BF
:1050000001490860704700000030004001494860D5
:105010007047000000300040014988607047000080
:105020000030004001490860704700000030004037
:105030001CB5044609A103C9CDE90001E07960B9B6
:10504000207A052809D1607A0D2806D1A07AC028D7
:1050500003D10621684600F0F5F91CBD5AA503806E
:105060004F0200000146CA1701EB92729210A1EBA9
:10507000820292B9642091FBF0F200FB121050B949
:105080004FF4C87091FBF0F200FB121008B9012038
:1050900070470020FCE70120FAE70020F8E7000055
:1050A00010B5FF248548FFF7C5FD00F00F04ACB92B
:1050B0008348007810BB032082490870824800783A
:1050C000401C8149087008460078502816DB0220F1
:1050D0007C49087001207A4908700FE07A4800780E
:1050E000012806DD78480078502802DA0120754949
:1050F000087000207449087071490870012C15D19E
:105100006F48407810BB03206E4948706E48407865
:10511000401C6D49487008464078502816DB022034
:10512000684948700120664948700FE06648407839
:10513000012806DD64484078502802DA01206149E0
:1051400048700020604948705D494870022C15D1B4
:105150005B48807810BB03205A4988705A48807891
:10516000401C5949887008468078502816DB022078
:10517000544988700120524988700FE05248807865
:10518000012806DD50488078502802DA01204D4978
:10519000887000204C49887049498870032C15D1CB
:1051A0004748C07810BB03204649C8704648C078BD
:1051B000401C4549C8700846C078502816DB0220BC
:1051C0004049C87001203E49C8700FE03E48C07891
:1051D000012806DD3C48C078502802DA0120394910
:1051E000C87000203849C8703549C870042C15D1E2
:1051F0003348007910BB03203249087132480079E6
:10520000401C3149087108460079502816DB0220FD
:105210002C49087101202A4908710FE02A480079B9
:10522000012806DD28480079502802DA01202549A6
:10523000087100202449087121490871052C15D1F5
:105240001F48407910BB03201E4948711E48407911
:10525000401C1D49487108464079502816DB022041
:10526000184948710120164948710FE016484079E5
:10527000012806DD14484079502802DA012011493E
:1052800048710020104948710D4948710D48007857
:1052900070B90C48407858B90A48807840B9094834
:1052A000C07828B90748007910B90648407918B184
:1052B0000121002004F028FD10BD00000010014075
:1052C0008C000020800000208600002038B50121DD
:1052D000102002F0CFF90F20ADF8000048208DF823
:1052E000030003208DF8020069460848FFF7CEFB53
:1052F000074805F0A3FD002405E0611CC8B2FFF7D4
:105300007BFD601CC4B2062CF7DB38BD00100140E9
:10531000A150000810B586B004460121042002F017
:10532000A9F90121082002F0A5F90121480402F0A1
:1053300081F94FF48050ADF8140010208DF817005B
:1053400003208DF8160005A92A48FFF79FFB0420CB
:10535000ADF8140018208DF8170005A92648FFF7AE
:1053600095FB0820ADF8140004208DF8170005A95E
:105370002148FFF78BFB0121480402F06BF9002163
:105380004FF4003002F066F901940020ADF80800F7
:10539000ADF80A00ADF80C00ADF810000C20ADF827
:1053A0000E0001A9154805F0F9F826208DF8000037
:1053B00000208DF8010002208DF8020001208DF8F8
:1053C0000300684602F004F8012240F225510B4820
:1053D00005F0BFF8012240F22441084805F0B9F871
:1053E0000121064805F023F800200549086006B0B1
:1053F00010BD0000000C01400008014000440040C6
:10540000B081214270B505460C460B4806780078FD
:1054100020800A48007801280CD1324608492846E5
:105420000CF0F6F93246002105480CF0FEF9002098
:105430000149087070BD0000920000209300002018
:10544000061D002070B505460E4601200E49086075
:1054500000240CE000BF40210C4805F043F8002870
:10546000F9D0295D094805F00AF9601CC4B2B442BC
:10547000F0DB00BF4021054805F034F80028F9D0E2
:1054800000200149086070BDB08121420044004005
:10549000704700B50AF006F8408C00BD00B5014623
:1054A000052904DA09F0FEFF30F8110000BD0020E4
:1054B000FCE700B5014609F0F5FF418400BD00009E
:1054C00008B50121082002F0D5F80320ADF800004E
:1054D00018208DF8030003208DF8020069463A4831
:1054E000FFF7D4FA0020394908603949C1F8A00112
:1054F0000121082002F0BEF80820ADF800001020BD
:105500008DF8030003208DF8020069462E48FFF74E
:10551000BDFA0121202002F0ADF80420ADF8000012
:1055200010208DF8030003208DF8020069462948F9
:10553000FFF7ACFA0121102002F09CF84FF48060D4
:10554000ADF8000010208DF8030003208DF8020054
:1055500069462148FFF79AFA0121042002F08AF8EF
:105560004FF40040ADF8000010208DF80300032038
:105570008DF8020069461948FFF788FA01210820D2
:1055800002F078F80120ADF8000010208DF803003B
:1055900003208DF802000121042002F06BF80220A4
:1055A000ADF8000010208DF8030003208DF80200F4
:1055B00069460A48FFF76AFA0020094908600BF0BB
:1055C00037F90AF07FFC08BD000C01409C01224223
:1055D0000000224200140140001001400008014078
:1055E0008C81214270B50024FFF730FB0546C822AC
:1055F00029461D4803F0DEFB00BF0EE0FFF726FB47
:1056000030F814004FF6FF71884204D1FFF71EFBFB
:10561000002120F81410601C84B2C82CEEDB00249A
:1056200017E004F0010090B1FFF710FB00EB44011C
:1056300008780880FFF70AFB10F8140038B1FFF76C
:1056400005FB00EB4401088840F400600880601C02
:1056500084B2642CE5DBFFF7F9FA811C408840F442
:105660008070088070BD000028FC03087CB5002411
:1056700000200090019009F015FF808BADF800002C
:1056800009F010FFC08BADF8020009F00BFF008C91
:10569000ADF8040009F006FF408CADF8060009F0F3
:1056A00001FF054614222946124803F083FB00BF80
:1056B0000EE009F0F7FE30F814004FF6FF71884253
:1056C00004D109F0EFFE002120F81410601C84B210
:1056D000142CEEDB09F0E6FEBDF80010818309F022
:1056E000E1FEBDF80210C18309F0DCFEBDF8041034
:1056F00001847CBD00FC03081CB5002000900190D3
:1057000006220F490F480CF083F80D49891D062227
:1057100068460CF07DF8002008E00A49095C1DF895
:1057200000201144074A1154411CC8B20628F4DB7A
:105730000448007800F0FE00024908701CBD00001B
:10574000E8F7FF1FFA00002070B54FF4C8600CF0B6
:1057500049F805462C4614A214A120460DF0E1F8A4
:10576000083411A212A120460DF0DBF808340EA275
:1057700010A120460DF0D5F808340BA20EA120464A
:105780000DF0CFF808340DA20DA120460DF0C9F898
:105790000834204609F0A0FF2846FEF73FFD2846C2
:1057A0000CF00CF870BD0000312F32003500000005
:1057B000340000003300000032000000312F3100BF
:1057C0003100000070B54FF4C8600CF00BF80546CE
:1057D0002C46FEA2FEA120460DF0A3F80834FDA23F
:1057E000FDA120460DF09DF80834FCA2FCA1204646
:1057F0000DF097F80834FBA2FBA120460DF091F8BC
:105800000834F6A2F9A120460DF08BF80834F1A275
:10581000F3A120460DF085F80834F0A2EEA1204651
:105820000DF07FF80834EDA2EDA120460DF079F8D7
:105830000834EAA2E8A120460DF073F80834E3A288
:10584000E9A120460DF06DF80834E9A2E9A120464F
:105850000DF067F80834DDA2DDA120460DF061F8F7
:105860000834DCA2DCA120460DF05BF80834DBA292
:10587000DBA120460DF055F80834DAA2DAA1204663
:105880000DF04FF80834D5A2D8A120460DF049F804
:105890000834D2A2D2A120460DF043F80834CBA29E
:1058A000CDA120460DF03DF80834CEA2C8A1204677
:1058B0000DF037F80834C5A2C7A120460DF031F825
:1058C0000834C8A2C8A120460DF02BF80834BFA2A6
:1058D000BFA120460DF025F80834BCA2C2A1204685
:1058E0000DF01FF80834BDA2BBA120460DF019F839
:1058F0000834BAA2BAA120460DF013F80834B9A2B0
:10590000B5A120460DF00DF80834B0A2B7A120468D
:105910000DF007F80834ADA2B1A120460DF001F852
:105920000834ACA2ACA120460CF0FBFF0834A7A2BF
:10593000ADA120460CF0F5FF0834ADA2ADA1204684
:105940000CF0EFFF0834A1A2A1A120460CF0E9FF62
:1059500008349EA2A4A120460CF0E3FF08349BA2C9
:105960009BA120460CF0DDFF083498A2A2A120469E
:105970000CF0D7FF083495A29BA120460CF0D1FF74
:10598000083492A29CA120460CF0CBFF08348FA2D1
:105990009AA120460CF0C5FF083492A298A1204697
:1059A0000CF0BFFF083497A293A120460CF0B9FF7A
:1059B00008348AA28CA120460CF0B3FF083489A2D7
:1059C00083A120460CF0ADFF083480A286A12046BA
:1059D0000CF0A7FF08347FA287A120460CF0A1FF9E
:1059E00008347EA281A120460CF09BFF083486A2D9
:1059F0007DA120460CF095FF083478A280A12046B6
:105A00000CF08FFF083475A27CA120460CF089FFB2
:105A1000083472A278A120460CF083FF08346FA2EC
:105A20006BA120460CF07DFF08346CA277A12046C4
:105A30000CF077FF083465A265A120460CF071FFD9
:105A4000083466A268A120460CF06BFF083465A2FA
:105A500065A120460CF065FF083460A262A12046D3
:105A60000CF05FFF08345FA259A120460CF059FFEB
:105A700008345AA25CA120460CF053FF083453A20C
:105A80005DA120460CF04DFF083450A250A12046E5
:105A90000CF047FF083451A254A120460CF041FFFE
:105AA00008344EA250A120460CF03BFF083447A218
:105AB00049A120460CF035FF083444A248A12046F5
:105AC0000CF02FFF083441A243A120460CF029FF1F
:105AD00008344FA244A120460CF023FF08343FA213
:105AE00041A120460CF01DFF08343EA238A12046FB
:105AF0000CF017FF083435A23BA120460CF011FF33
:105B0000083434A23CA120460CF00BFF083433A229
:105B100036A120460CF005FF083430A232A1204601
:105B20000CF0FFFE08342DA235A120460CF0F9FE42
:105B300008342AA231A120460CF0F3FE083427A233
:105B40002DA120460CF0EDFE083424A220A1204611
:105B50000CF0E7FE083421A22CA120460CF0E1FE57
:105B600008341AA21AA120460CF0DBFE083420A249
:105B70001DA120460CF0D5FE083418A21AA120461B
:105B80000CF0CFFE083417A211A120460CF0C9FE7C
:105B9000083412A214A120460CF0C3FE08340BA254
:105BA0001CA120460CF0BDFE08340AA214A1204618
:105BB0000CF0B7FE083409A216A120460CF0B1FE85
:105BC000083408A20DA1204626E00000312F310044
:105BD00036000000332F320032000000312F320037
:105BE00031000000322F310033000000300000008F
:105BF000352F3200365F000037000000317E000094
:105C0000327E0000362F3100312F33003500000086
:105C1000332F3100337E00000CF083FE0834AFF2E6
:105C20005402AFF22C0120460CF07BFE0834AFF298
:105C30002C02AFF2640120460CF073FE08342046BB
:105C400009F04AFD2846FEF7E9FA28460BF0B6FDB2
:105C500070BD000070B54FF4C8600BF0C3FD054681
:105C60002C46FEA2FEA120460CF05BFE0834FDA2ED
:105C7000FDA120460CF055FE0834F8A2F8A12046FC
:105C80000CF04FFE0834F9A2F9A120460CF049FEB1
:105C90000834F4A2F7A120460CF043FE0834F6A223
:105CA000F1A120460CF03DFE0834ECA2F3A1204601
:105CB0000CF037FE0834EBA2E9A120460CF031FECF
:105CC0000834E6A2EDA120460CF02BFE0834E7A232
:105CD000E8A120460CF025FE0834E0A2E4A120460D
:105CE0000CF01FFE0834DDA2DFA120460CF019FEE7
:105CF0000834E1A2DAA120460CF013FE0834E0A239
:105D0000DBA120460CF00DFE0834D8A2DDA1204610
:105D10000CF007FE0834DAA2D5A120460CF001FEF3
:105D20000834D0A2D7A120460CF0FBFD0834CBA24A
:105D3000D5A120460CF0F5FD0834C8A2D3A1204619
:105D40000CF0EFFD0834CEA2C9A120460CF0E9FD0D
:105D50000834C6A2C4A120460CF0E3FD0834BFA25B
:105D6000C4A120460CF0DDFD0834BEA2C0A120462F
:105D70000CF0D7FD0834B9A2C4A120460CF0D1FD27
:105D80000834B6A2BAA120460CF0CBFD0834C0A25C
:105D9000B8A120460CF0C5FD0834B2A2B0A120463F
:105DA0000CF0BFFD0834AFA2B1A120460CF0B9FD44
:105DB0000834AAA2AFA120460CF0B3FD0834A7A274
:105DC000ABA120460CF0ADFD0834A6A2A4A120464C
:105DD0000CF0A7FD0834AFA2A3A120460CF0A1FD52
:105DE0000834A0A2A2A120460CF09BFD08349BA27F
:105DF000A0A120460CF095FD083498A29FA1204652
:105E00000CF08FFD083495A2A3A120460CF089FD6B
:105E1000083492A296A120460CF083FD08348FA28C
:105E200094A120460CF07DFD08348CA28CA1204664
:105E30000CF077FD083489A28BA120460CF071FD8F
:105E4000083486A28BA120460CF06BFD083490A28A
:105E500087A120460CF065FD083489A284A1204664
:105E60000CF05FFD083481A286A120460CF059FD9C
:105E700008347AA27EA120460CF053FD083479A2A2
:105E800080A120460CF04DFD083474A27EA120466E
:105E90000CF047FD083471A27CA120460CF041FDB6
:105EA000083477A272A120460CF03BFD08346BA2A7
:105EB00075A120460CF035FD083468A26DA120467E
:105EC0000CF02FFD083465A273A120460CF029FDCB
:105ED000083462A26DA120460CF023FD08345FA2B5
:105EE00063A120460CF01DFD08345CA261A1204690
:105EF0000CF017FD08345BA25BA120460CF011FDED
:105F0000083464A25BA120460CF00BFD083455A2B6
:105F100057A120460CF005FD083450A255A120469B
:105F20000CF0FFFC08344DA254A120460CF0F9FC03
:105F300008344AA258A120460CF0F3FC083447A2CA
:105F40004BA120460CF0EDFC083444A24BA12046A6
:105F50000CF0E7FC083441A241A120460CF0E1FC22
:105F6000083440A24DA120460CF0DBFC083449A2C5
:105F70003BA120460CF0D5FC08343AA23CA12046B7
:105F80000CF0CFFC083443A23FA120460CF0C9FC22
:105F9000083432A236A120460CF0C3FC08342FA2EC
:105FA00039A120460CF0BDFC083430A235A12046B2
:105FB0000CF0B7FC083429A239A120460CF0B1FC42
:105FC000083426A237A120460CF0ABFC083423A2EB
:105FD0002CA120460CF0A5FC083422A22AA12046C0
:105FE0000CF09FFC08342AA226A120460CF099FC54
:105FF000083423A22AA120460CF093FC08341BA2EB
:1060000028A120460CF08DFC083418A21DA12046C2
:106010000CF087FC083424A21BA120460CF081FC64
:1060200008340EA217A120460CF07BFC083418A2FD
:106030000FA120460CF075FC083411A218A12046CF
:106040000CF06FFC083409A216A120460CF069FC84
:10605000083406A20BA1204628E00000312F3200B0
:10606000365F0000312F310031000000332F320045
:106070003300000032000000372F3200375F00008D
:10608000322F3100360000003500000034000000DF
:10609000342F3100332F310030000000355F000015
:1060A000317E000037000000352F32000CF039FC43
:1060B0000834AFF20C02AFF2300120460CF031FC94
:1060C0000834AFF26802AFF2440120460CF029FC1C
:1060D0000834AFF24402AFF2680120460CF021FC14
:1060E0000834AFF28002AFF2880120460CF019FCB0
:1060F0000834AFF29002AFF2900120460CF011FC90
:106100000834AFF2A002AFF2940120460CF009FC73
:106110000834AFF2A802AFF2A80120460CF001FC4F
:106120000834AFF2C802AFF2C00120460CF0F9FB10
:106130000834AFF2D002AFF2C80120460CF0F1FBF8
:106140000834AFF2B002AFF2D40120460CF0E9FB04
:106150000834AFF2F802AFF2E40120460CF0E1FBA4
:106160000834AFF20812AFF2EC0120460CF0D9FB74
:106170000834AFF21812AFF2E00120460CF0D1FB68
:106180000834AFF22812AFF2181120460CF0C9FB08
:106190000834AFF23812AFF21C1120460CF0C1FBEC
:1061A0000834AFF24812AFF2481120460CF0B9FBA8
:1061B0000834AFF25012AFF21C1120460CF0B1FBC4
:1061C0000834AFF23412AFF2681120460CF0A9FB8C
:1061D0000834AFF27812AFF2781120460CF0A1FB30
:1061E0000834AFF28012AFF2801120460CF099FB18
:1061F0000834AFF29812AFF2841120460CF091FBF4
:106200000834AFF29812AFF2981120460CF089FBD7
:106210000834AFF2B812AFF2B01120460CF081FB97
:106220000834AFF2C012AFF2B81120460CF079FB7F
:106230000834AFF2A012AFF2C41120460CF071FB8B
:106240000834AFF2E012AFF2D81120460CF069FB2F
:106250000834AFF2D412AFF2D01120460CF061FB3B
:106260000834AFF20022AFF2F81120460CF059FBCF
:106270000834AFF20822AFF2D41120460CF051FBE3
:106280000834AFF22822AFF2202120460CF049FB5F
:106290000834AFF23822AFF2F41120460CF041FB83
:1062A0000834AFF24822AFF2242120460CF039FB2B
:1062B0000834AFF25022AFF2302120460CF031FB0F
:1062C000083408A2AFF2442120460CF02AFB08341F
:1062D000204609F001FA2846FDF7A0FF28460BF0FA
:1062E0006DFA70BD372F310070B54FF4C8600BF0F8
:1062F00079FA05462C46FEA2FEA120460CF011FBC1
:106300000834FDA2FDA120460CF00BFB0834FCA2D2
:10631000FCA120460CF005FB0834FBA2FBA12046A3
:106320000CF0FFFA0834F4A2F2A120460CF0F9FABE
:106330000834F1A2F3A120460CF0F3FA0834ECA2E1
:10634000EEA120460CF0EDFA0834EBA2F0A12046B5
:106350000CF0E7FA0834EFA2E8A120460CF0E1FACD
:106360000834EDA2E3A120460CF0DBFA0834E6A2E3
:10637000E6A120460CF0D5FA0834DDA2DDA12046C6
:106380000CF0CFFA0834DCA2DCA120460CF0C9FAEC
:106390000834DBA2DBA120460CF0C3FA0834DAA2F1
:1063A000DAA120460CF0BDFA0834D3A2D1A12046D0
:1063B0000CF0B7FA0834D0A2D2A120460CF0B1FA02
:1063C0000834CBA2D5A120460CF0ABFA0834CAA2FF
:1063D000CCA120460CF0A5FA0834CEA2CFA12046CD
:1063E0000CF09FFA0834C2A2CDA120460CF099FA15
:1063F0000834C5A2C5A120460CF093FA0834C2A205
:10640000BCA120460CF08DFA0834C6A2C6A12046D5
:106410000CF087FA0834BCA2BAA120460CF081FA2D
:106420000834B5A2BDA120460CF07BFA0834B2A214
:10643000B4A120460CF075FA0834B3A2B7A12046E7
:106440000CF06FFA0834B0A2B0A120460CF069FA43
:106450000834ADA2AEA120460CF063FA0834A4A221
:10646000AFA120460CF05DFA0834AAA2ABA12046E9
:106470000CF057FA0834A2A2A2A120460CF051FA5F
:1064800008349DA2A1A120460CF04BFA08349EA22C
:10649000A2A120460CF045FA083497A299A1204603
:1064A0000CF03FFA083494A292A120460CF039FA7D
:1064B00008348FA299A120460CF033FA08348EA23A
:1064C0008CA120460CF02DFA08348BA28DA1204619
:1064D0000CF027FA083488A286A120460CF021FA95
:1064E000083483A287A120460CF01BFA083482A24C
:1064F0008AA120460CF015FA083483A28AA120460E
:106500000CF00FFA083489A285A120460CF009FA94
:1065100008347BA282A120460CF003FA08347AA248
:106520007AA120460CF0FDF9083477A280A120461C
:106530000CF0F7F908346EA27EA120460CF0F1F9B8
:10654000083471A27CA120460CF0EBF908346AA251
:106550007AA120460CF0E5F9083467A274A1204620
:106560000CF0DFF9083464A274A120460CF0D9F9CC
:10657000083465A26EA120460CF0D3F908345EA25F
:106580006EA120460CF0CDF908345BA25FA1204635
:106590000CF0C7F908345CA265A120460CF0C1F9E3
:1065A000083455A265A120460CF0BBF9083450A26E
:1065B00063A120460CF0B5F9083453A25CA1204633
:1065C0000CF0AFF908344CA25EA120460CF0A9F9FA
:1065D00008344BA256A120460CF0A3F908344AA275
:1065E0004AA120460CF09DF9083447A250A120464C
:1065F0000CF097F908343EA24EA120460CF091F918
:10660000083441A24CA120460CF08BF908343AA280
:106610004AA120460CF085F9083437A244A120464F
:106620000CF07FF9083434A244A120460CF079F92B
:10663000083435A23EA120460CF073F908342EA28E
:106640003EA120460CF06DF908342BA22FA1204664
:106650000CF067F908342CA235A120460CF061F942
:10666000083425A235A120460CF05BF9083420A29D
:1066700033A120460CF055F908341FA231A1204661
:106680000CF04FF9083420A22DA120460CF049F956
:1066900008341BA226A120460CF043F908341AA2A4
:1066A0001AA120460CF03DF9083417A220A120467B
:1066B0000CF037F908340EA21EA120460CF031F977
:1066C000083411A21CA120460CF02BF908340AA2B0
:1066D0001AA120460CF025F9083407A214A120467F
:1066E0000CF01FF9083404A214A120462CE000008D
:1066F000322F3200365F0000312F3400375F000048
:10670000352F340031000000312F320030000000FE
:10671000355F0000332F3400342F32003200000088
:1067200033000000332F320034000000382F3400D3
:1067300036000000337E0000327E0000317E000013
:1067400037000000350000000CF0EBF80834AFF221
:106750004802AFF2240120460CF0E3F80834AFF20F
:106760006802AFF2280120460CF0DBF80834AFF2E3
:106770007802AFF2680120460CF0D3F80834AFF28B
:106780007802AFF2540120460CF0CBF80834AFF297
:106790009802AFF2580120460CF0C3F80834AFF26B
:1067A000B002AFF2640120460CF0BBF80834AFF23F
:1067B000A802AFF2840120460CF0B3F80834AFF21F
:1067C000C802AFF2800120460CF0ABF80834AFF2FB
:1067D000D002AFF2B40120460CF0A3F80834AFF2B7
:1067E000D802AFF2D80120460CF09BF80834AFF283
:1067F000E802AFF2C40120460CF093F80834AFF27F
:10680000EC02AFF2D00120460CF08BF80834AFF266
:1068100008122FA120460CF084F80834AFF21812A9
:10682000AFF2F00120460CF07CF80834AFF22812E9
:10683000AFF2FC0120460CF074F80834AFF23812C5
:10684000AFF2081120460CF06CF80834AFF2581281
:10685000AFF21C1120460CF064F80834AFF24C1271
:10686000AFF2341120460CF05CF80834AFF280121D
:10687000AFF23C1120460CF054F80834AFF2781215
:10688000AFF2481120460CF04CF80834AFF27C12FD
:10689000AFF2541120460CF044F80834AFF29812CD
:1068A000AFF2681120460CF03CF80834AFF28C12BD
:1068B000AFF2841120460CF034F80834204608F07A
:1068C0000BFF2846FDF7AAFC28460AF077FF70BDAB
:1068D000357E000070B54FF416600AF083FF054660
:1068E0002C46FEA2FEA120460CF01BF80834FDA2A7
:1068F000FDA120460CF015F80834FCA2FCA12046AE
:106900000CF00FF80834F7A2FAA120460CF009F8B1
:106910000834F4A2F6A120460CF003F80834F3A2E0
:10692000EFA120460BF0FDFF0834EEA2F2A12046B5
:106930000BF0F7FF0834EBA2E9A120460BF0F1FFC2
:106940000834EAA2EDA120460BF0EBFF0834E5A2E3
:10695000EBA120460BF0E5FF0834E2A2E6A12046B9
:106960000BF0DFFF0834DDA2DDA120460BF0D9FFDC
:106970000834DCA2DEA120460BF0D3FF0834D9A2F4
:10698000DCA120460BF0CDFF0834D8A2DDA12046C3
:106990000BF0C7FF0834DCA2D3A120460BF0C1FFE7
:1069A0000834D9A2D9A120460BF0BBFF0834D8A2E5
:1069B000D4A120460BF0B5FF0834D5A2D0A12046C3
:1069C0000BF0AFFF0834C5A2C5A120460BF0A9FF0C
:1069D0000834C4A2C4A120460BF0A3FF0834C3A20C
:1069E000C3A120460BF09DFF0834BEA2C1A12046E2
:1069F0000BF097FF0834BBA2BDA120460BF091FF1E
:106A00000834BAA2B6A120460BF08BFF0834B5A219
:106A1000B9A120460BF085FF0834B2A2B0A12046F0
:106A20000BF07FFF0834B1A2B4A120460BF079FF30
:106A30000834ACA2B2A120460BF073FF0834A9A21F
:106A4000B4A120460BF06DFF0834A6A2ABA12046EE
:106A50000BF067FF0834A3A2A7A120460BF061FF4B
:106A60000834A0A29EA120460BF05BFF08349DA233
:106A7000A0A120460BF055FF08349CA298A1204607
:106A80000BF04FFF083499A29BA120460BF049FF61
:106A900008349FA292A120460BF043FF083493A232
:106AA00097A120460BF03DFF08348EA291A120460D
:106AB0000BF037FF08348BA292A120460BF031FF78
:106AC000083488A288A120460BF02BFF083485A249
:106AD0008CA120460BF025FF083482A282A120461B
:106AE0000BF01FFF08347DA288A120460BF019FF90
:106AF00008347CA27CA120460BF013FF083479A255
:106B000080A120460BF00DFF083478A279A1204621
:106B10000BF007FF083473A271A120460BF001FFB0
:106B2000083470A274A120460BF0FBFE08346FA25B
:106B300072A120460BF0F5FE08346AA26DA1204632
:106B40000BF0EFFE083467A26EA120460BF0E9FEC1
:106B5000083464A264A120460BF0E3FE083461A26D
:106B600068A120460BF0DDFE08345EA25EA120463F
:106B70000BF0D7FE08345BA264A120460BF0D1FED7
:106B8000083458A258A120460BF0CBFE083455A279
:106B90005CA120460BF0C5FE08345BA255A120463F
:106BA0000BF0BFFE08345CA24DA120460BF0B9FEED
:106BB000083457A24CA120460BF0B3FE083449A27A
:106BC0004CA120460BF0ADFE083446A24DA1204654
:106BD0000BF0A7FE083443A243A120460BF0A1FE10
:106BE000083440A247A120460BF09BFE08343DA28A
:106BF0003DA120460BF095FE083438A243A1204663
:106C00000BF08FFE083437A237A120460BF089FE27
:106C1000083434A23BA120460BF083FE083431A295
:106C200034A120460BF07DFE083437A235A1204662
:106C30000BF077FE083434A22EA120460BF071FE33
:106C4000083428A226A120460BF06BFE083425A2AA
:106C500029A120460BF065FE083424A227A1204676
:106C60000BF05FFE08341FA225A120460BF059FE51
:106C700008341CA220A120460BF053FE083419A2B0
:106C800017A120460BF04DFE083416A21AA120468B
:106C90000BF047FE083413A211A120460BF041FE71
:106CA000083410A210A120460BF03BFE08340DA2C0
:106CB0000BA120460BF035FE08340AA20EA1204697
:106CC0000BF02FFE083407A205A120460BF029FE89
:106CD000083404A208A1204620E00000332F32002F
:106CE00036000000312F3200337E0000322F320098
:106CF00037000000317E0000350000003300000046
:106D000030000000327E0000312F3400357E00005C
:106D1000342F320032000000332F34000BF001FE1C
:106D20000834AFF21402AFF2480120460BF0F9FD2F
:106D30000834AFF24802AFF2380120460BF0F1FD03
:106D40000834AFF26002AFF2600120460BF0E9FDBB
:106D50000834AFF27002AFF24C0120460BF0E1FDB7
:106D60000834AFF28002A6A120460BF0DAFD083409
:106D7000AFF29002AFF26C0120460BF0D2FD083466
:106D8000AFF2A002AFF2A00120460BF0CAFD08341A
:106D9000AFF2A802AFF2940120460BF0C2FD083416
:106DA000AFF2C002AFF2B40120460BF0BAFD0834D6
:106DB000AFF2D002AFF2D80120460BF0B2FD08349A
:106DC000AFF2D802AFF2C40120460BF0AAFD08349E
:106DD000AFF2F002AFF2CC0120460BF0A2FD083476
:106DE000AFF20812AFF2001120460BF09AFD083402
:106DF000AFF21012AFF2F80120460BF092FD08340A
:106E0000AFF2FC02AFF2201120460BF08AFD0834ED
:106E1000AFF20C12AFF20C1120460BF082FD0834D9
:106E2000AFF2381276A120460BF07BFD0834AFF2AA
:106E30004C12AFF2281120460BF073FD0834AFF26C
:106E40005C12AFF25C1120460BF06BFD0834AFF220
:106E50006412AFF2501120460BF063FD0834AFF21C
:106E60007C12AFF27C1120460BF05BFD0834AFF2D0
:106E70008C12AFF2681120460BF053FD0834AFF2CC
:106E80007012AFF29C1120460BF04BFD0834AFF2AC
:106E9000A412AFF2941120460BF043FD0834AFF278
:106EA000BC12AFF2BC1120460BF03BFD0834AFF230
:106EB000CC12AFF2A81120460BF033FD0834AFF22C
:106EC000D4124FA120460BF02CFD0834AFF2EC1287
:106ED000AFF2C81120460BF024FD0834AFF2FC12CB
:106EE000AFF2FC1120460BF01CFD0834AFF2042277
:106EF000AFF2F01120460BF014FD0834AFF214226B
:106F0000AFF2102120460BF00CFD0834AFF2242222
:106F1000AFF2242120460BF004FD0834AFF23422F6
:106F2000AFF22C2120460BF0FCFC0834AFF24422D7
:106F3000AFF2402120460BF0F4FC0834AFF25C22A3
:106F4000AFF2642120460BF0ECFC0834AFF26C2267
:106F5000AFF25C2120460BF0E4FC0834AFF274225F
:106F6000AFF2842120460BF0DCFC0834AFF28C2217
:106F7000AFF2742120460BF0D4FC0834AFF29C220F
:106F8000AFF2902120460BF0CCFC0834AFF2AC22DB
:106F9000AFF2A42120460BF0C4FC0834AFF29822D3
:106FA000AFF2B02120460BF0BCFC0834AFF2A822AF
:106FB000AFF2C42120460BF0B4FC0834AFF2DC225F
:106FC000AFF2E42120460BF0ACFC0834AFF2EC2227
:106FD000AFF2DC2120460BF0A4FC083409A2AFF28A
:106FE000003120460BF09DFC0834204608F074FB6D
:106FF0002846FDF713F928460AF0E0FB70BD0000B3
:10700000367E0000362F320070B54FF4C8600AF0AB
:10701000E9FB05462C4614A214A120460BF081FC86
:10702000083411A212A120460BF07BFC08340EA2FA
:1070300010A120460BF075FC08340BA20EA12046CF
:107040000BF06FFC08340DA20DA120460BF069FC7B
:107050000834204608F040FB2846FDF7DFF82846B4
:107060000AF0ACFB70BD0000312F3200310000008F
:10707000320000003300000034000000312F3100E6
:10708000350000002DE9FF4704460D461646994697
:1070900000200390029600278046009002A80AF084
:1070A000F7FE8DF80C000398C0F30310022800D0FF
:1070B0001FE001A9029800F04DF8804602990844AB
:1070C0000290DDE9011047180298381A022800DA08
:1070D0000FE002A80AF0DCFE8DF80000009800F036
:1070E0000100207002A80AF0D3FE28704FF00108BA
:1070F00000BF404604B0BDE8F0872DE9F8430546DF
:107100000C46012600270020206000BF4FF0FF380A
:10711000781C0746042801DD00BF17E001216846FE
:10712000A8478046B8F1010F00D00FE09DF800108D
:1071300001F07F01206801FB06002060F6019DF848
:10714000000000F080000028E0D100BF3846BDE814
:10715000F883000070B504460D46034804602946D4
:107160000248FFF7CAFF70BD140200208DAE000870
:1071700030B50246002300BF0846CD1701EB556528
:10718000ED11A1EBC515ECB2CD1701EB5565E91179
:10719000002901DD44F0800418465B1C14540029CA
:1071A000EADC184630BD0000401C802801DA401C93
:1071B0000AE0B0F5804F01DA801C05E003498842FF
:1071C00001DAC01C00E0001D70470000FFFF1F0037
:1071D0002DE9FE4305460E46144602950020019017
:1071E000009000274FF0FF38204600F0A5F8074632
:1071F0008146FFF7D9FFB04202DD6FF001088FE052
:1072000000208DF80400019820F0F000103001906B
:107210009DF8041002A80BF062FF39460298FFF7B0
:10722000A7FF029908440290207A042808D13EA1C1
:1072300002A80BF040FF042102A80BF050FF07E06A
:107240003BA102A80BF037FF032102A80BF047FF78
:1072500000208DF80000A17E009861F341000090AD
:10726000E07E08B1012100E00021009861F3820076
:1072700000900098C0F3800058B194F83D10009839
:1072800061F3C400009094F83C10009861F345103D
:107290000090206C08B9A06C20B1009820F080000C
:1072A00080300090E06C08B9606D20B1009820F04B
:1072B0004000403000909DF8001002A80BF00FFF36
:1072C000218B02A80BF011FF02A8D4E90423E16886
:1072D0000BF023FFE07E58B102A8D4E90A23616ACB
:1072E0000BF01BFF02A8D4E90D23216B0BF015FF57
:1072F0000098C0F3C01028B102A8D4E91123216C72
:107300000BF00BFF0098C0F3801028B102A8D4E95D
:107310001423E16C0BF001FF0298A0EB050800BFFD
:107320004046BDE8FE8300004D515454000000006B
:107330004D5149736470000070B504460025207AF1
:10734000032801D10C2503E0207A042800D10A2566
:10735000D4E90412E06800F02AF8801C0544E07EBD
:1073600068B1D4E90A12606A00F021F8861CD4E9F9
:107370000D12206B00F01BF83044801C0544206C7B
:1073800008B9A06C30B1D4E91112206C00F00FF8EC
:10739000801C0544E06C08B9606D30B1D4E914126A
:1073A000E06C00F004F8801C0544284670BD37B539
:1073B0000024009820B10098FBF764FD044600E02B
:1073C000019C20463EBD00F04FF800F04DF8000053
:1073D00070B5002100230F22C47804B3154C246833
:1073E00004F4E064C4F5E064210AC1F10403CA4076
:1073F000447804FA03F184781440214309010E4CC7
:107400000678A155047804F01F050124AC400578E6
:107410006D11AD0005F1E025C5F8004109E00478E3
:1074200004F01F050124AC40044D0678761145F8A0
:10743000264070BD0CED00E000E400E080E100E0DB
:1074400002490143024A1160704700000000FA053A
:107450000CED00E0024A0A400243024B1A607047FA
:1074600080FFFF1F08ED00E00648006800F4E060C0
:1074700005490843001D03490860BFF3408F00BF62
:10748000FEE700000CED00E00000FA0510B50E4824
:107490000068C0B90D480068FBF741FB0C49086063
:1074A000084600680B4908600948006800EB400086
:1074B000094901EBC000094908600846006808490D
:1074C0000860FBF7F0FA10BD4400002064000020C3
:1074D0004C00002048000020FC190020540000202F
:1074E0005000002070B5044610464FF080750560CE
:1074F000051F28462C606FF00106051F28462E60E8
:107500004FF01236051F28462E604FF00336051F38
:1075100028462E604FF00236051F28462E60761052
:10752000051F28462E60051F284629604FF011369A
:10753000051F28462E604FF01036051F28462E6086
:107540004FF00936051F28462E604FF00836051FFC
:1075500028462E604FF00736051F28462E604FF054
:107560000636051F28462E604FF00536051F2846B3
:107570002E604FF00436051F28462E6070BD0000B7
:1075800010B5FBF789FA044606480078401C054907
:10759000087005480078054908702046FBF780FA16
:1075A00010BD0000600000204C000020680000209A
:1075B00010B5FBF771FA04460948007820B1084875
:1075C0000078401E064908700548007810B9202050
:1075D000044908702046FBF763FA02F035FE10BD3F
:1075E000600000206800002030B5034602EB420036
:1075F000084C44F8301002EB420004EBC00043603A
:107600004FF0004002EB4204024D05EBC404E06081
:10761000002030BDFC1900200149086270470000BD
:1076200000000E42024800880A3001490880704775
:107630007001002029B1064AD2690243044BDA6185
:1076400004E0034AD2698243014BDA6170470000CB
:107650000010024029B1064A12690243044B1A6124
:1076600004E0034A12698243014B1A61704700002B
:107670000010024029B1064A92690243044B9A6104
:1076800004E0034A92698243014B9A61704700000B
:107690000010024029B1064AD2680243044BDA6066
:1076A00004E0034AD2688243014BDA60704700006D
:1076B0000010024001490860704700004004424247
:1076C00030B500210022002400232D4D6D6805F007
:1076D0000C0121B1042905D0082923D105E0294D49
:1076E000056022E0274D05601FE0254D6D6805F41B
:1076F0007012234D6D6805F48034022505EB92422B
:107700001CB9214D554305600BE01D4D6D6805F416
:1077100000351DB11C4D5543056002E0194D554320
:10772000056002E0174D056000BF00BF144D6D6895
:1077300005F0F0010909154D6B5C0568DD404560F9
:107740000F4D6D6805F4E061090A104D6B5C4568EA
:10775000DD4085600A4D6D6805F46051C90A0B4D26
:107760006B5C4568DD40C560054D6D6805F44041C2
:10777000890B074D6B5CC568B5FBF3F5056130BD42
:107780000010024000127A0000093D00180000209D
:107790002800002010B501460022002300204A11D5
:1077A000012A02D1094C236806E0022A02D1074CC3
:1077B000236A01E0054C636A01F01F020124944032
:1077C0001C400CB1012000E0002010BD0010024060
:1077D00000210B4A11700A4A203A82F82010012831
:1077E00002D0042808D103E00121054A117004E009
:1077F0000521034A117000E000BF00BF7047000080
:107800002010024001490860704700003C044242D9
:107810000249096A0143014A11627047001002409F
:1078200070B504460D4602F037FD0E4909688842DE
:1078300001D0002070BD0DB90020FBE70BE000BFB8
:107840008021094802F04EFE0028F9D02078064930
:10785000091D0880641C2800A5F10101CDB2EED1FC
:1078600000BFE7E74C0000200038014070B5054636
:107870000E4600240B48008838B100BF03E000200A
:107880002855601C84B2B442F9DB002404E0FDF703
:1078900067FA2855601C84B2024800880028F6D197
:1078A000204670BDC60000202DE9F04105460E4679
:1078B000002400BF03E000202855601C84B2B442BD
:1078C000F9DB002442F2107809E0A8F101001FFA68
:1078D00080F8B8F1000F02D10020BDE8F081214806
:1078E00000780028F1D020480068002838D0002413
:1078F00000270CE001F0B2FBFF2804D101F0C2FB2D
:10790000FF2800D105E0FDF72BFA781C87B2322F53
:10791000F0DB00BF002410E0FDF722FA2855601CC0
:1079200084B2B44200D10CE001F098FBFF2804D1EE
:1079300001F0A8FBFF2800D103E00C4800880028D4
:10794000EAD100BF0948008850B9002008490880E2
:10795000084908600849088001200849C1F89401D5
:107960002046BAE7C800002020012142C6000020BE
:10797000C000002094012742C200002000002742DE
:1079800010B586B0044601210420FFF773FE0121E3
:107990008803FFF76FFE464802F056FD4FF48070F3
:1079A000ADF8140004208DF8170003208DF81600A0
:1079B00005A94048FDF76AF84FF480713D48FDF78E
:1079C0003FF94FF40060ADF8140010208DF8170057
:1079D00003208DF8160005A93648FDF757F84FF437
:1079E00000613448FDF72AF94FF48050ADF81400D7
:1079F00010208DF8170003208DF8160005A92D48DA
:107A0000FDF744F84FF480512A48FDF717F94FF479
:107A10000070ADF8140002208DF8160018208DF8C3
:107A2000170005A92348FDF731F84FF48060ADF841
:107A3000140004208DF8170005A91E48FDF726F84C
:107A400025208DF8000000208DF801008DF802003F
:107A500001208DF803006846FFF7BAFC019400206E
:107A6000ADF80800ADF80A00ADF80C00ADF8100054
:107A70000C20ADF80E0000210D4802F0D8FC0C4897
:107A800002F0E2FC01A90A4802F088FD012240F25E
:107A90002551074802F05DFD012240F224410448CF
:107AA00002F057FD0121024802F0C1FC06B010BDF2
:107AB00000380140000801401FB504464FF416503D
:107AC000FFF75EFF01201F4908601F49C1F8AC01A4
:107AD000642006F0CDFE1DA103C9CDE902018DF899
:107AE0000C401CE0062102A8FFF79AFE4FF4FA7042
:107AF00006F0BEFE00200090019006216846FFF7C8
:107B0000B5FE694613A00AF008FE00B108E09DF832
:107B100004009DF80C10884200D101E000BFE1E7AD
:107B200000BF0020074908600749C1F8AC01642084
:107B300006F09EFE4FF4E130FFF722FF002004B074
:107B400010BD0000B001214200002142C200003AF5
:107B5000144000004F4B0000024909888143014A4C
:107B600011807047042800400348008840F010004E
:107B7000014908807047000004280040034800883D
:107B80004FF6EF7108400149088070470428004013
:107B900070B500260024002500F07AF80646384823
:107BA000B6FBF0F437480088A0423CD035490C8041
:107BB00040F2B27510E02846FDF754FA40B1B4F532
:107BC000B77F02D3A4F5B77404E0681C85B206E061
:107BD000A4F26D14681C85B2B4F5B67FEBD800BF73
:107BE00029488580002516E027498888FDF73AFA5C
:107BF00030B1012D04D11D2C01D31D3C09E00CE056
:107C00002248405DA04203D82048405D241A00E08D
:107C100003E0681C85B21C2CE6D200BF681C1A4920
:107C20008871601CC8711648B6FBF0F100FB116446
:107C30004FF46160B4FBF0F0134908704FF46160D9
:107C4000B4FBF0F100FB11403C21B0FBF1F00E4918
:107C500048704FF46160B4FBF0F100FB11403C212F
:107C6000B0FBF1F201FB1200074988700B46DA798C
:107C70009979988800F02CF803490872002070BDAB
:107C8000805101006A000020FC1C0020363A0108E7
:107C9000002103480188001F008841EA0040704726
:107CA0001C28004001460020064A12880A40D0B233
:107CB000044A121F12880A4012B108B1012000E0E4
:107CC000002070470428004000487047FC1C00203A
:107CD000F0B503460C461546642093FBF0F0C6B29F
:107CE000642093FBF0F700FB1730C1B2132E02DDC6
:107CF00001F16400C1B20846CF1701EB977701EBA1
:107D0000A707BAB2072092FBF0F700FB172082B258
:107D10005719601EDFF82CC01CF80000384482B2EE
:107D2000CF1701EB9777BF10A1EB87071FB9032C83
:107D300001DA501E82B2072092FBF0F700FB1720F9
:107D4000C0B2F0BD2A3A010810B50120FFF7AAFF22
:107D500008B1FFF71DFF0220FFF7A4FF10B10220BA
:107D6000FFF7FAFE0520FFF7F7FE00F015F910BD4A
:107D700029B1064A12880243044B1A8004E0034AE0
:107D800012888243014B1A8070470000002800408F
:107D90001CB500240420FCF7A3F945F250018842E9
:107DA00047D001214FF0C050FFF744FC0120FFF7FE
:107DB00033FCFCF78DF90120FFF70AFD04E0601C9D
:107DC000C4B20A2006F070FD4120FFF7E3FC002852
:107DD000F5D0FA2C01DB01201CBD4FF48070FFF7B9
:107DE00017FD0120FFF70EFD00F0D6F800F0DEF8D9
:107DF00001210846FFF7BCFF00F0CEF8FFF7B4FE04
:107E000047F6FF7000F0A6F800F0C6F83720002112
:107E10000A230222CDE900100C2140F2D97000F0B3
:107E200027F8FFF7ABFE45F250010420FCF766F996
:107E300007E000F0BBF801210846FFF799FF00F0CA
:107E4000ABF800F004F8FFF7A3FE0020C4E708B584
:107E500003208DF8000001208DF8010003208DF82B
:107E6000020001208DF803006846FFF7B1FA08BD53
:107E70002DE9F05F06460F4690469946DDE90AABCC
:107E8000002440F2B270864203DB40F633008642A3
:107E900002DD0120BDE8F09F40F2B2750AE02846FD
:107EA000FDF7E0F810B12048044401E01F48044405
:107EB000681C85B2B542F2DB781EC7B2002510E01F
:107EC0001B48405D40F2A321484304EBC0143046F8
:107ED000FDF7C8F818B1012D01D116480444681CFB
:107EE00085B2BD42ECDBA8F1010040F2A32148437A
:107EF00004EBC014C9EB4910C0EB092004EB0014DB
:107F0000CAEB0A1004EB80045C4401214FF0C0501E
:107F1000FFF790FB0120FFF77FFB204600F00CF8F5
:107F200000F03AF80020B5E70085E2018033E10176
:107F3000363A01088051010000B50246FFF714FEF1
:107F4000100C03490880091D0A80FFF717FE00BDC9
:107F50001828004000B50246FFF706FEC2F30340B2
:107F600003490880091D0A80FFF708FE00BD0000D4
:107F70000828004010B5044601214FF0C050FFF71B
:107F800059FB0120FFF748FB2046FFF7D5FF00F023
:107F900003F8002010BD000000BF0348008800F077
:107FA00020000028F9D070470428004007480088C6
:107FB0004FF6F77108400549088000BF0348008864
:107FC00000F008000028F9D07047000004280040A5
:107FD0002DE9F04780460D462621404600F0D6F8B0
:107FE000064616B90020BDE8F08740F2B45086423C
:107FF00000DD06462821404600F0C8F80746B9468D
:10800000C7F30A0710213A48FCF718FE384600F07B
:108010001BFC182101EB4811C8B200F005FC3548E3
:1080200000F0A5FE00F0FF0AB819B0F5006F11DAF4
:1080300000240CE0002000F0F7FB2E4800F097FE33
:1080400000F0FF0A85F800A06D1C601C84B2B442E9
:10805000F0DB39E0C7F5006087B200240CE00020B7
:1080600000F0E2FB234800F082FE00F0FF0A85F8F2
:1080700000A06D1C601C84B2BC42F0DB10211C48C7
:10808000FCF7DEFD10211A48FCF7D8FD002000F0B7
:10809000DBFB182101EB4811C8B200F0C5FB154805
:1080A00000F065FE00F0FF0A0CE0002000F0BCFBD1
:1080B000104800F05CFE00F0FF0A85F800A06D1C7F
:1080C000601C84B2B442F0DB10210948FCF7B8FD13
:1080D00009EB06001FFA80F94A462821404602F0C3
:1080E000D9FD40220121404602F0B6FD30467AE734
:1080F000000801400030014070B5044610210D48D1
:10810000FCF79CFD204600F09FFB012000F08CFB5B
:10811000094800F02CFEC5B2002000F085FB06489F
:1081200000F025FEC5B210210248FCF789FD284663
:1081300070BD0000000801400030014070B50446E9
:108140000D4610210F48FCF779FD284600F07CFB16
:10815000082101EB4411C9B241F0010000F064FBB9
:10816000094800F004FEC6B2002000F05DFB06489E
:1081700000F0FDFDC6B210210248FCF761FD30465B
:1081800070BD0000000801400030014070B5054698
:108190000E4610211548FCF751FD304600F054FB07
:1081A000082101EB4511C9B241F0020000F03CFB8F
:1081B0000F4800F0DCFD0446002000F035FB0C48C1
:1081C00000F0D5FD0446002000F02EFB4FF6FF70B6
:1081D00000EA0424064800F0CAFD204484B21021BD
:1081E0000248FCF72DFD204670BD0000000801404C
:1081F0000030014008B501210820FFF73BFA0420B8
:10820000ADF8000010208DF8030002208DF8020068
:1082100069460448FCF73AFC04210248FCF710FDCB
:1082200008BD0000000C014009480088401C0849B6
:108230000880084600884000B0F57A7F06DB002001
:10824000088004480068401C02490860704700002C
:10825000340000203000002010B5012002490860E1
:10826000FF2000F0ABF910BD9801224270B5054621
:1082700001220021092000F0EAF9044624B9102166
:10828000284600F055F90446FFF7E6FF0CB101203F
:1082900070BD0020FCE770B505464FF6FF7401E0A5
:1082A000601E84B2FF2000F089F9A84201D0002CA2
:1082B000F6D10CB9FF2070BD0020FCE77FB5684601
:1082C000FFF7D4FF10B1002004B070BD9DF800008E
:1082D00000F0C000402809D19DF809009DF8081061
