:020000040800F2
:10280000F0250020692A00089F7400085D50000828
:102810009B740008D1440008639F0008000000007A
:10282000000000000000000000000000FF88000819
:102830004547000800000000F32A0008498F0008FF
:10284000832A0008832A0008832A0008832A0008B4
:10285000832A0008832A0008832A0008832A0008A4
:10286000832A0008832A000805490008832A0008F3
:10287000832A0008832A0008832A0008832A000884
:10288000832A0008832A0008832A0008832A000874
:10289000832A0008832A0008832A0008832A000864
:1028A000832A0008832A0008832A0008832A000854
:1028B000399000086590000881900008832A00087C
:1028C000832A0008832A0008832A0008832A000834
:1028D000832A0008C59A0008A19B0008832A0008E3
:1028E000832A0008832A0008832A0008832A000814
:1028F000832A0008832A0008832A0008832A000804
:10290000832A0008832A0008832A0008832A0008F3
:10291000832A0008832A0008832A0008832A0008E3
:10292000832A0008832A0008832A0008832A0008D3
:1029300000F002F800F079F80AA090E8000C824458
:102940008344AAF10107DA4501D100F06EF8AFF235
:10295000090EBAE80F0013F0010F18BFFB1A43F07D
:102960000103184720300100403001000A444FF0B5
:10297000000C10F8013B13F0070408BF10F8014BDE
:102980001D1108BF10F8015B641E05D010F8016B23
:10299000641E01F8016BF9D113F0080F1EBF10F887
:1029A000014BAD1C0C1B09D16D1E58BF01F801CBAA
:1029B000FAD505E014F8016B01F8016B6D1EF9D52D
:1029C0009142D6D370470000002300240025002642
:1029D000103A28BF78C1FBD8520728BF30C148BF82
:1029E0000B607047662912F0BE84652912F0BB8423
:1029F000642900F02781782900F06081732900F0B4
:102A00009686002070471FB500F096FE0400002057
:102A1000002111F0A3FC401C60600020002111F097
:102A2000B3FCE0601FBD10B510BD00F085FF11467E
:102A3000FFF7E9FF0CF0C6FA00F0A3FF03B4FFF7BD
:102A4000F2FF03BC07F01BFDEFF30980704780F332
:102A500009887047EFF30880704780F30888704753
:102A600040BA7047C0BA70470948804709480047D4
:102A7000FEE7FEE7FEE7FEE7FEE7FEE7FEE7FEE72E
:102A8000FEE7FEE704480549034A054B704700008E
:102A9000D98F000831290008F0230020F0250020FC
:102AA000F0230020EFF3108072B6704780F3108897
:102AB0007047224C224D25604FF0000484F30988B2
:102AC000204C4FF0010525701F4C4FF080552560BC
:102AD00062B6FEE730B41C4C4FF08055256030BC28
:102AE000704730B4184C4FF08055256030BC7047AB
:102AF00000BF72B6EFF3098028B1203880E8F00FEC
:102B0000124909680860124812490A7802700F4891
:102B100011490A680260106890E8F00F203080F3D5
:102B200009884EF0040E62B67047B0FA80F0704724
:102B300090FAA0F04FEA10407047000020ED00E04E
:102B40000000FFFF4400002004ED00E050000020E2
:102B5000480000204C00002054000020704710B5B1
:102B6000044600F03BFB0068005DC00602D504F19E
:102B7000200010BD204610BD0FB41CB5084B06AA9E
:102B80007B4469460090059800F0A7FD04460020AC
:102B9000694600F0B5FD20461CBC5DF814FB000042
:102BA0007D0B000070B5044685690068C10601D53B
:102BB000302600E02026C00707D070BDD4E90121EF
:102BC00030469047206A401C20626D1EF6D570BDCD
:102BD00070B5044685690078C00707D170BDD4E997
:102BE000012120209047206A401C20626D1EF6D5EE
:102BF00070BD70B50C460546012A05D028788006C0
:102C000000D5EA69002302E0012305E05B1C934242
:102C100002D2E05C0028F9D1A869E618C01AA861C0
:102C2000286A184428622846FFF7BCFF04E0D5E96B
:102C3000012114F8010B9047B442F8D32846FFF75E
:102C4000C7FF70BD2DE9F0410646002410687529C4
:102C5000314616A510D0AFF30080002802DA4042BA
:102C600013A507E031688A0701D512A502E04907DC
:102C700004D511A5012401E0AFF3008000210A2250
:102C800006F1240709E0B0FBF2FCB0FBF2F302FB13
:102C90001C00303078541846491C0028F3D12346D4
:102CA0002A463046BDE8F04100F0ABBA0000000013
:102CB0002D0000002B0000002000000070B504462D
:102CC0000D4621461068AFF300802188090502D522
:102CD0000F4A7A4402E00E4A7A440E32002104F18F
:102CE000240305E000F00F060009965D5E54491CC0
:102CF0000028F7D120780023000704D5702D02D0DA
:102D000009B1022311322046BDE8704000F079BAC3
:102D10006D2A01002DE9F05F894604464FF0000A54
:102D2000DFF824B1FB44C0F820A02046E1688847C2
:102D300000287DD0252806D0D4E901219047206ABB
:102D4000401C2062F1E700255F462046E168884785
:102D50002028064607DB312E05D2B81910F8200CC2
:102D600008B10543F1E7A80701D525F00405C4F82B
:102D70001CA00027C4F818A02A2E09D0304607F05E
:102D800077FB38B304EB8708303EC8F8186019E0C9
:102D900059F8041B204604EB87029161E1688847DB
:102DA000012F064618D1E069002820DA25F0200519
:102DB0001DE0D8F8180000EB800006EB400030382A
:102DC000C8F818002046E1688847064607F050FB1F
:102DD0000028EED1012F0AD02E2E08D12046E1681E
:102DE00088477F1C0646022F45F02005C4DBA069FA
:102DF000002803DA404245F00105A061E80701D050
:102E000025F01005A6B1A6F14100192802D82036F8
:102E100045F400654A463146204625604D46FFF799
:102E2000E1FD60B1012807D0ED1D25F0070000E0AD
:102E300007E000F1080978E705F1040975E7304675
:102E40007AE7206ABDE8F09F432A0100401ECAB21B
:102E500010F8011F8A4202D00029F9D100207047E2
:102E600040EA0103024630B59B0710D14FF0013410
:102E700000E008C208C91D1B9D4315EAC41FF8D015
:102E800013F0FF0102F8011B0DD01B0AF8E711F83F
:102E9000013B002B02F8013B05D011F8013B002B50
:102EA00002F8013BF3D130BD10B5431C02E010F82D
:102EB000011B71B18107FAD14FF0013202C88C1A9F
:102EC0008C4314EAC211F9D0C01A0A0603D0C01EFE
:102ED00010BDC01A10BD0A0401D0801E10BD090229
:102EE000FCD0401E10BD40EA010370B59B072ED1F7
:102EF0004FF00136042A2AD308C810C99D1B9D43F0
:102F0000121F15EAC61517D0D8B2E1B2401A50EA1E
:102F1000056110D198B2A1B2401A50EA05410AD118
:102F200023F07F4024F07F41401A50EA052102D16E
:102F3000180EA0EB146070BDA342DBD018BA21BA02
:102F4000884201D9012070BD4FF0FF3070BD0AB931
:102F5000002070BD10F8013B11F8014B63B1A34292
:102F60000AD1521E08D010F8013B11F8014B1BB1D9
:102F7000A34201D1521EEDD1181B70BD032A40F2AD
:102F8000308010F0030C00F0158011F8013BBCF10B
:102F9000020F624498BF11F801CB00F8013B38BF23
:102FA00011F8013BA2F1040298BF00F801CB38BF31
:102FB00000F8013B11F0030300F02580083AC0F04F
:102FC000088051F8043B083A51F804CBA0E80810F7
:102FD000F5E7121D5CBF51F8043B40F8043BAFF32A
:102FE0000080D20724BF11F8013B11F801CB48BF84
:102FF00011F8012B24BF00F8013B00F801CB48BFBA
:1030000000F8012B704710B5203AC0F00B80B1E8F2
:103010001850203AA0E81850B1E81850A0E818500D
:10302000BFF4F5AF5FEA027C24BFB1E81850A0E816
:10303000185044BF18C918C0BDE810405FEA827C30
:1030400024BF51F8043B40F8043B08BF7047D20747
:1030500028BF31F8023B48BF11F8012B28BF20F8E8
:10306000023B48BF00F8012B70474FF000020429D3
:10307000C0F0128010F0030C00F01B80CCF1040CA7
:10308000BCF1020F18BF00F8012BA8BF20F8022BDB
:10309000A1EB0C0100F00DB85FEAC17C24BF00F881
:1030A000012B00F8012B48BF00F8012B70474FF0AF
:1030B000000200B5134694469646203922BFA0E888
:1030C0000C50A0E80C50B1F12001BFF4F7AF090794
:1030D00028BFA0E80C5048BF0CC05DF804EB890085
:1030E00028BF40F8042B08BF704748BF20F8022BC8
:1030F00011F0804F18BF00F8012B704710B504463F
:1031000010F0030F08BF11F0030F40F015804FF0CF
:10311000013E121FC0F20E8051F8043BA3EB0E0CCF
:103120002CEA030C1CEACE1C08BF40F8043BF0D08C
:10313000A1F1040102F10402521E08DB11F8013B67
:10314000002B00F8013BF7D11146FFF78EFF204618
:1031500010BD00004FF0013C50F8042B51F8043B27
:103160009A4221D1A2EB0C03934313EACC1317D15B
:1031700050F8042B51F8043B9A4215D1A2EB0C03F2
:10318000934313EACC130BD150F8042B51F8043BB2
:103190009A4209D1A2EB0C03934313EACC13DBD080
:1031A0004FF00000704700BFD01A01BAB1FA81F1A8
:1031B00001F0180122FA01F0CB40C1F12001DBB28D
:1031C000C0B2C01A2CFA01F3D11A914311EAC3110B
:1031D000E6D17047704770477047704710B500F0F0
:1031E000ABFA001D10BD00BF7511010010B500F055
:1031F000A7FA006810BD10B5044600F0A1FA0460FB
:1032000010BD2DE9F0470D4699469246044600F15F
:1032100024080168880604D5E06921F010012160C6
:1032200000E00120A84201DD471B00E00027A16962
:103230007A1902EB0900081AA0612078C00602D4AE
:103240002046FFF7AFFC002608E0D4E901211AF878
:1032500006009047206A401C761C20624E45F4DB35
:103260002078C0060AD52046FFF79CFC06E0D4E98A
:10327000012130209047206A401C2062381EA7F1AF
:103280000107F4DC07E0D4E9012118F805009047B4
:10329000206A401C2062281EA5F10105F3DC2046AF
:1032A000FFF796FC2078000602D50220BDE8F087E3
:1032B0000120FBE770472DE9FF4F0C461E464FF0FB
:1032C000FF378BB0D2E90001DDF860800A908A46B2
:1032D000C1F30A5505B93D46002108464FF00000EC
:1032E000BAF1000F00F4400005DA00EB80004FF463
:1032F000400101EA50004FEA9059B9F1010F00DD99
:10330000B9460A9850EA4A000ED044F61050A5F289
:10331000FF3545432F14B8F1000F1ED07542291E0A
:103320001EDDC9F100021CE0B8F1010F4FF00000F2
:1033300001D0302103E0F24305E02154401CB042AB
:10334000FBDB30460022002121540B99C1F8088094
:10335000C1E900200FB0BDE8F08FBD1B6D1CDEE79A
:103360004A4600DA694206A800F074FA06AB93E810
:10337000070003AB83E8070050460A9900F007FBFB
:103380008DE80700A0F500501F3800900398002D2D
:1033900009DD42F21F014A46084403A9039068462A
:1033A00000F066FD08E0A0F500504A461F3803A96A
:1033B0000390684600F070FD8DE807000004000CE3
:1033C00003D04FF0FF30410800E01046B8F1000F85
:1033D00003D00022009215461EE0751E05D400F0B1
:1033E000B3F9303262556D1EF9D5B3460122084358
:1033F00002D000227F1C04E02078302801D1002276
:103400007F1E002A099786D01DE0112D07DA00F0F3
:103410009BF9303262556D1C50EA0102F5D1084328
:1034200002D00098C8B10EE00021681E05E0235CC0
:10343000625C63542254401E491C8142F7DBAB4658
:10344000A81B401E0990002004F80B000B98099A55
:10345000C0F80880C0E9002B7CE711264FF0000877
:1034600059E72DE9F04F88460446D21D22F00701A6
:1034700091B0D1E90001CDE90A0106F06FFF0246E3
:103480000B98C00F01D02D2007E02068810701D5DF
:103490002B2002E0202101EAC000032A099001D07C
:1034A000072A05DB03464146204600F093F90BE16D
:1034B0002078800601D5E06900E00620B8F1650FAC
:1034C000814606D0B8F1660F18D0B8F1670F70D1F9
:1034D00031E00020B9F1110F009001DB112301E070
:1034E00009F101030AAA01A90CA8FFF7E4FEDDE92E
:1034F0000C70002609F10105834647E001204B4688
:1035000000904FF000470AAA01A90CA8FFF7D3FECC
:10351000DDE90DB00C995D46002610B909F10100F6
:103520000D18B9EB050003D4C0F1FF3609F1010510
:10353000A5EB09002BE0B9F1010F01DA4FF0010909
:103540000020B9F1110F0090484601DD112300E081
:1035500003460AAA01A90CA8FFF7ADFEDDE90C702D
:103560004D4600268346207800070AD4AB4500DA92
:103570005D4601A8012D04DD411911F8011C302917
:1035800007D04F4502DA17F1040F04DA0120824612
:103590000FE06D1EEEE7002F02DCED1B3E4403E062
:1035A000781CA84200DD7D1CB81B00F1010A4FF019
:1035B00000472078000703D4AA4501DB4FF0FF3A0B
:1035C0000021B7F1004F0DF143088DF8431024D0CE
:1035D00002202B23002F01DA7F422D230A21021E15
:1035E000A0F1010000DC5FB197FBF1FC97FBF1F269
:1035F00001FB1C7C17460CF1300C08F801CDEEE7FE
:10360000A8F1010003702188090501D5452100E0DA
:103610006521A0F1010800F8011C09980FA9A1EB90
:103620000807FF1D00B10120411901EBEA70A169F3
:103630003844081A401EA0612078C00602D42046F3
:10364000FFF7B0FA099828B1D4E901219047206A20
:10365000401C20622078C00622D52046FFF7A2FA3F
:103660001EE0002E04DBB34502DD01A8805D00E012
:103670003020D4E901219047206A401C2062761C4A
:10368000AAF101005FEA000A0AD100F055F8C0680B
:103690000168405CD4E901219047206A401C206207
:1036A000281EA5F10105DCDC07E0D4E9012118F8AA
:1036B000010B9047206A401C2062381EA7F10107C9
:1036C000F3DC2046FFF784FA032011B043E6000044
:1036D00001694A1C02610878704700B58FB0CDE9D6
:1036E00001310021059105497944CDE903101146C6
:1036F0006846FFF70FFB0FB000BD0000E5FFFFFFBE
:103700000A6802F8010B0A60704710B5436913B1EB
:10371000AFF3008001E0FFF76CFA012010BD1278D2
:1037200000F124010A7000224A700122EDE71168BD
:103730004FF0FF32E9E7000000487047AC2300205B
:10374000004870478C23002030B5B0F10A024FEAE0
:10375000900E71F100034EEA817EB0EB0E0061EB3A
:1037600091014FEA101E4EEA017E10EB0E0041EB74
:1037700011114FEA102E4EEA016E10EB0E0041EBD4
:1037800011214FEA104E4EEA014E10EB0E0041EBB4
:103790001141401841F100014FEAD00040EA417068
:1037A0004FEAD10110EB80054FEA810444EA90749E
:1037B00044EB01046D1944EB0404521BA3414FF088
:1037C000000348BF0A3200D530BD401C41F1000162
:1037D00030BD00002DE9F0411F4604460326016874
:1037E000072A01F4006004DB08B116A505E016A560
:1037F00003E008B115A500E015A521F01000206038
:10380000A069C01EA0610FB1401EA0612046FFF755
:10381000C9F94FB1D4E9012138469047206A401CCC
:103820002062C01C206206E0206AFAE7D4E9012188
:1038300015F8010B9047761EF8D22046FFF7C8F91D
:10384000BDE8F0814E414E006E616E00494E46006B
:10385000696E66002DE9F047814616468AB0334806
:1038600078440DC88DE80D0030487844801C03ACC6
:103870000DC884E80D0041F69B300844372190FBC9
:10388000F1F290FBF1F5A5F1800501FB12041B3C60
:1038900002D56442012000E00020DFF890A08046BD
:1038A0000027FA44AAF1BE0A0DE0E00709D032462B
:1038B000684607EB47010AEB810100F0EDFA8DE85D
:1038C000070064107F1C002CEFD1184F7F44AC3FE1
:1038D00018E0E80714D007EB04100DF1180A90E87F
:1038E0000E008AE80E00C068F04201D198190890D5
:1038F000324606A903A800F0CFFA03AB83E807001D
:103900006D10641C002DE4D132466946B8F1000FF9
:1039100003A802D000F0ACFA01E000F0BDFAC9E95A
:103920000001C9F808200AB0BDE8F087282001008E
:10393000004870478C2300207546FFF7F9FFAE461C
:1039400005006946534620F00700854618B020B5AB
:10395000FFF798F8BDE820404FF000064FF0000751
:103960004FF000084FF0000B21F00701AC46ACE827
:10397000C009ACE8C009ACE8C009ACE8C0098D4694
:1039800070470446AFF300802046FFF757F85FEA20
:10399000400C08BF91F0000F4FEA8C234FEAC12280
:1039A00043EA51514FEA1C5018BF00F5F0404FEA6E
:1039B000300018BF41F000415FEA6C5C00F02980E4
:1039C000BCF1FF3F08BF40F080407047130C06BFBA
:1039D00012044FF0100C4FF0000C130E04BF120233
:1039E0000CF1080C130F04BF12010CF1040C930F1F
:1039F00004BF92000CF1020CD30F04BF52000CF173
:103A0000010C11464FF00002A0F11F00A0EB0C00CA
:103A1000704711F0004F08BF704731F000413FF48C
:103A2000D5AF0B0C06BF09044FF0100C4FF0000C83
:103A30000B0E04BF09020CF1080C0B0F04BF0901A7
:103A40000CF1040C8B0F04BF89000CF1020CCB0F9E
:103A500004BF49000CF1010CCCF12003A0EB0C00D9
:103A600022FA03F302FA0CF241EA030100F1010029
:103A7000704720F07F4C80EA030023F07F47ACEBD7
:103A8000070303F57C5300F0004003F1FF032DE929
:103A900080494FEA154B09B44FEA144325EA0B4E0F
:103AA00024EA03480FF2042606EB132749083E7860
:103AB0005FEA320203FB0667C7F5000707FB06F65D
:103AC0004FEA54374FEAD64606F1020607FB066C6A
:103AD000CCF1005C4FEA1C472CEA074C07FB06F4CC
:103AE0000CFB06F504EB15464FEA961634BF002092
:103AF0004FF000404FEAD13706FB07FC4FEA1C4C61
:103B00000CFB0BF7D21B03FB0CF761EB07010CFB63
:103B10000EF7B0EB074072EB17420CFB08F734BF0F
:103B2000A2EB0742B2EB074261EB17414FEA0C44AC
:103B30004FEA910706FB07FC4FEA1C4C0CFB0BF706
:103B4000B0EBC74072EB573203FB0CF734BFA2EB6C
:103B5000C742B2EBC74261EB57310CFB0EF7B0EB3B
:103B6000C70072EB57720CFB08F734BFA2EBC70219
:103B7000B2EBC70261EB5771039F4FEA816141EAE3
:103B8000921104EBCC044FEAD1374FEA826206FB74
:103B900007FC42EA90124FEA80604FEA1C4C0CFB93
:103BA0000BF7D21B03FB0CF761EB07010CFB0EF7C5
:103BB000B0EB074072EB17420CFB08F734BFA2EBE7
:103BC0000742B2EB074261EB17414FEA8C554FEACF
:103BD000910704EB9C2406FB07FC4FEA1C4C0CFBF2
:103BE0000BF7B0EBC74072EB573203FB0CF734BF57
:103BF000A2EBC742B2EBC74261EB57310CFB0EF7A9
:103C0000B0EBC70072EB57720CFB08F734BFA2EBA6
:103C1000C702B2EBC70261EB577115EB4C254FEAB7
:103C2000816141EA92114FEA82624FEAD13742EA5A
:103C3000901206FB07FC44F100044FEA80604FEA53
:103C40001C4C0CFB0BF7D21B03FB0CF761EB0701C1
:103C50000CFB0EF7B0EB074072EB17420CFB08F7BA
:103C600034BFA2EB0742B2EB074261EB174115EB01
:103C70001C154FEA813141EA92414FEA823242EA11
:103C800090424FEA80304FEA0C7644F1000448EA53
:103C900003434EEA0B484FF0000EB2EB080C71EBF9
:103CA000030724BF624639464EEB0E0E4FF0000B61
:103CB0000018524149414BEB0B0BB2EB080C71EB76
:103CC00003077BF1000B24BF624639464EEB0E0E14
:103CD0004FF0000B0018524149414BEB0B0BB2EB7C
:103CE000080C71EB03077BF1000B24BF62463946D9
:103CF0004EEB0E0E51EA020718BF46F0010616EB16
:103D00000E7655F1000254F1000103D5BDE889019A
:103D1000BDE80088BDE88901BDE80048B6195241F8
:103D200041EB0101A3F10103704780807F7E7D7C20
:103D30007B7A7978777676757473727171706F6E3D
:103D40006E6D6C6C6B6A6A696868676666656464E8
:103D5000636362616160605F5F5E5E5D5D5C5C5B72
:103D60005B5A5A59595858575756565555555454E1
:103D7000535352525251515050504F4F4F4E4E4D3F
:103D80004D4D4C4C4C4B4B4B4A4A4A49494948488B
:103D900048474747474646464545454444444443CB
:103DA00043434342424242414141002B26D47700E3
:103DB00021D01CB54FEA370703B44FF010004FF085
:103DC00010014FF000000FBCBDE810400BF1010BDB
:103DD000BBF1010F08BF5FEA170722BF12F1010212
:103DE00011F101014FF0004143F1000300F00040E8
:103DF00043EA00007047F9D35708DAE746EA064677
:103E000013F1400F4FEA16461FDD13F1200FDFBFFD
:103E100016430A46002120335B42C8D0C3F1200775
:103E200046EA064602FA07F74FEA164646EA07064A
:103E3000C3F1200722FA03F201FA07F721FA03F18E
:103E40004FF0000342EA0702B1E746EA020646EAFB
:103E500006464FEA164646EA0106BCBF46EA064653
:103E6000360C4FF000034FF000024FF000019EE7C8
:103E70002DE9C048934630B491E8380007C831EACC
:103E8000400C48BF34EA430C03D5FFF7F2FDFFF7BF
:103E90008CFFF0BCBDE800882DE9C048934630B4E3
:103EA00091E8380007C810F0804F08BF13F0804F2A
:103EB00003D100F005F8FFF778FFF0BCBDE80088FB
:103EC00020F07F4780EA030023F07F4C07EB0C03D0
:103ED000A3F57C5300F00040A3F1FE0392F0000F25
:103EE00000F0B38095F0000F00F077802DE90149D4
:103EF0004FEA11404FEA144621EA004800FB06FC55
:103F000024EA064708FB06F607FB08F800FB07F75C
:103F100018EB06484CEB164C4FEA124B18EB0748CF
:103F20004FEA15464CEB174022EA0B4E0BFB06FC02
:103F300025EA06470EFB06F607FB0EFE0BFB07F70E
:103F40001EEB064E4CEB164C4FF000061EEB074ED8
:103F50004CEB174B18EB0B0840F1000018EB0E0B65
:103F600058EB000840F100008F1A4FF000013CBFF1
:103F7000C943661B14BFB5EB040C00213CBFC94309
:103F8000F61B4FEA17444EEA8E0E27EA04454FEA25
:103F90001C4704FB07622CEA074C05FB07F70CFBE8
:103FA00005F604FB0CFC16EB074642EB174216EB3A
:103FB0000C4642EB1C421BEB060658EB0202414149
:103FC00046EA9E0601D5BDE80189B619524141EB8A
:103FD0000101A3F10103BDE801894FEA14454FEA4D
:103FE000114724EA054621EA074C05FB07F406FBC6
:103FF00007F70CFB06F105FB0CFC11EB074144EB4A
:1040000017444FEA124711EB0C4144EB1C4422EADF
:10401000074C05FB07F206FB07F70CFB06F605FB52
:104020000CFC16EB074642EB174216EB0C4642EB34
:104030001C456A1854F1000148BF7047B619524137
:1040400041EB0101A3F10103704795F0000F37D058
:104050004FEA11424FEA144721EA024624EA074C8C
:1040600002FB07F106FB07F70CFB06F402FB0CFC56
:1040700014EB074441EB17414FEA154714EB0C448E
:1040800041EB1C4125EA074C02FB07F506FB07F74D
:104090000CFB06F602FB0CFC16EB074645EB17453E
:1040A00016EB0C4645EB1C42121951F1000148BFBA
:1040B0007047B619524141EB0101A3F1010370476A
:1040C0004FEA14454FEA114724EA054621EA074C16
:1040D00005FB07F106FB07F70CFB06F24FF00006A5
:1040E00005FB0CFC12EB074241EB174112EB0C42B3
:1040F00051EB1C4148BF7047921841EB0101A3F1FD
:104100000103704710B509F0A3F8408C012804D1D1
:1041100009F09EF80021418403E009F099F801219B
:10412000418409F095F890F82240214606200AF0D3
:104130003DF910BD1CB510A103C9CDE9000109F07E
:1041400087F8808A01280BD100208DF8070008210C
:10415000684601F05DF909F07BF8002181820AE0F0
:1041600009F076F80121818201208DF807000821ED
:10417000684601F04DF91CBD5AA5058210090000E2
:1041800008B50121102003F0D9FA4FF40050ADF822
:10419000000010208DF8030002208DF8020069460F
:1041A000074800F029FD002003F052FB4FF40051B6
:1041B000034800F0F9FD034806F07AF908BD000055
:1041C00000100140C54300080EB50020009001908A
:1041D000029003208DF8000002208DF801000020DD
:1041E0008DF802008DF8030002208DF804008DF890
:1041F0000500694605200FF021FA0EBD0EB500201E
:1042000000900190029002208DF800008DF80100CE
:1042100000208DF802008DF8030002208DF80400C4
:104220008DF80500694605200FF008FA0EBD0EB5A1
:10423000002000900190029004208DF800000220E0
:104240008DF8010000208DF802008DF80300022097
:104250008DF804008DF80500694605200FF0EEF991
:104260000EBD0EB5002000900190029005208DF843
:10427000000002208DF8010000208DF802008DF86A
:10428000030002208DF8040001208DF80500694626
:1042900005200FF0D3F90EBD0EB50020009001905F
:1042A000029002208DF800008DF8010000208DF8AA
:1042B00002008DF8030002208DF8040001208DF823
:1042C0000500694605200FF0B9F90EBD7FB505461A
:1042D0000024394B0FCB8DE80F00384800780128B7
:1042E00000D17FBD0120354908704FF416700CF0E5
:1042F00055FB334908600846006800B9F1E74AE019
:10430000287830383DF8100061002D4A126822F8F4
:10431000110068785F280DD16100294A126832F8CF
:10432000110000EBD07149106200254B1B6823F887
:10433000121010E068787E280DD1600020490968CD
:1043400031F810004FF6FF7101EA400061001C4A8D
:10435000126822F81100A8793038082191FBF0F09A
:10436000012101EB4401164A126822F811000120D4
:1043700000EB44001249096831F8100029793039FE
:104380004843012101EB44010D4A126822F8110053
:104390000835601C84B228780028B1D1012101EBD6
:1043A0004401074A126822F811000121880704F02D
:1043B00080FF00BF95E700005C5401086C000020FE
:1043C0007000002010B53B480068002870D03A48C3
:1043D000008840003749096831F81000374991FBDF
:1043E000F0F437480068401C3549086035480068DB
:1043F000401C3449086064B1601F31490968884233
:1044000003D201203049086006E000202E490860F0
:1044100002E000202C490860274800884000254918
:10442000096831F81000254991FBF0F0244909682A
:10443000884202D80020224908601F4800880121D4
:1044400001EB40001B49096831F8100040F271216E
:1044500048431C490968B1EB001F28D3164800885F
:10446000401C154908800020164908601248008841
:10447000012101EB40000F49096831F81000B0B983
:1044800000200D4908800F4908600D49086009485F
:1044900000680CF06FFA0020064908600A490860BD
:1044A0000A49087000214FF0804004F002FF00BF6D
:1044B00010BD00007000002074000020A0860100E4
:1044C0007C00002078000020B40122426C00002013
:1044D00003F034F870B50546002401240AE000F02A
:1044E0006BFC610030F81100A84201D1012070BDC1
:1044F000601C84B200F060FC610030F811000028FC
:10450000EDD100BFF3E70000002000BF04E0002170
:10451000034A1154411C88B23A28F8DB7047000066
:10452000942000207FB505460C460026002001900F
:10453000029003900090FF208DF804008DF8050094
:1045400028128DF80600E8B28DF8070001208DF8DA
:10455000080000208DF8090002208DF80A000020D4
:104560008DF80B0010208DF80C006A46092101A877
:1045700000F0DCFC9DF800008DF80D009DF80100B6
:104580008DF80E000B2101A803F07CF900BF30E08C
:10459000C82007F0EDFF1921204603F0B9F930B328
:1045A000A079C11D6A46204600F0C0FC9DF80010AD
:1045B000A079C01D205C814219D19DF80110A0791D
:1045C0000830205C814212D1E078A17840EA0120D5
:1045D000A8420CD120799DF8081041F08001884252
:1045E00005D1207AE17940EA012004B070BD701C49
:1045F000C6B2052ECCDB0A20F7E72DE9F0418EB0DC
:1046000004460D4616461F464FF000080020029053
:104610000390049005900190FF208DF808008DF81C
:10462000090020128DF80A00E0B28DF80B0003207B
:104630008DF80C0000208DF80D0003208DF80E0081
:104640008DF80F508DF810608DF8117001AA0A21B5
:1046500002A800F06BFC9DF804008DF812009DF894
:1046600005008DF813000C2102A803F00BF900BF20
:104670003DE0C82007F07CFF182106A803F048F9A8
:1046800080B39DF81E00C11D01AA06A800F04EFCD3
:104690009DF804109DF81E00C01D06AA105C814202
:1046A00021D19DF805109DF81E000830105C814254
:1046B00019D19DF81B009DF81A1040EA0120A04274
:1046C00011D19DF81C009DF80C1041F0800188422A
:1046D00009D19DF820009DF81F1040EA01200EB07E
:1046E000BDE8F081FFE708F101001FFA80F8B8F19A
:1046F000050FBEDB0A20F2E72DE9F04706460F461C
:1047000090461C464FF0004020FA04F50C48006823
:10471000284010B10120BDE8F0870948006828430F
:1047200007490860002342463946304602F044FFFC
:10473000814622464946304602F0C0FF0020EAE7A3
:104740006400002002F0FAFE10B50446A0B207F0A3
:104750000FFF10BDFEB504460E4615460020009022
:104760000190029002208DF80000022C52D1A6B3D5
:10477000012D17D101208DF801008DF80200694646
:1047800004200EF05BFF694602200EF057FF002068
:104790008DF8010002208DF80200694604200EF019
:1047A0004DFFADE0022DFCD101208DF8010002206B
:1047B0008DF80200694604200EF040FF6946022091
:1047C0000EF03CFF00208DF8010001208DF8020062
:1047D000694604200EF032FF92E0FFE700208DF8DA
:1047E000010001208DF80200694604200EF026FF2A
:1047F000694602200EF022FF00208DF80100022001
:104800008DF8020069460EF019FF694604200EF08B
:1048100015FF75E0032C01D0052C51D19EB3012D5D
:1048200017D101208DF8010003208DF802006946A0
:1048300004200EF003FF694602200EF0FFFE002068
:104840008DF8010004208DF8020069460EF0F6FE96
:1048500056E0022D54D101208DF8010004208DF87E
:10486000020069460EF0EAFE694602200EF0E6FEFE
:1048700000208DF8010003208DF802006946042015
:104880000EF0DCFE3CE0FFE700208DF80100042084
:104890008DF8020069460EF0D1FE694602200EF046
:1048A000CDFE00208DF8010003208DF8020069463E
:1048B00004200EF0C3FE694602200EF0BFFE1FE08A
:1048C000042C1DD176B101208DF8010006208DF851
:1048D0000200694604200EF0B1FE694602200EF087
:1048E000ADFE0DE000208DF8010006208DF80200DD
:1048F000694604200EF0A2FE694602200EF09EFEDC
:10490000FEBD000070B500240025102000F06CF8FA
:1049100000285ED0102000F061F800BF152003F0E1
:10492000EBF9044604F0F001152005F05FFC29487E
:104930000078204327490870172003F0DDF904466A
:1049400004F0010090B10221002003F0F7F90546C0
:104950002A460221002005F079FC1F4800782843F0
:104960001D4908700121072004F0ECFD04F002004D
:10497000022812D10221012003F0E0F905462A465F
:104980000221012005F062FC1348407828431249B7
:1049900048700121072004F0D5FD04F0040004282C
:1049A00012D10221084603F0C9F905462A46022120
:1049B000084605F04BFC0848807828430649887073
:1049C0000121072004F0BEFD172003F095F900280F
:1049D000A4D170BD00010020010100200149086040
:1049E0007047000014040140014600200022074BDC
:1049F0001B6803EA0102054B14331B680B4013B11B
:104A00000AB1012000E000207047000000040140CE
:104A1000002123498279002A3AD00A4612680368A5
:104A20009A430B461A600A1D126803689A430B1DCD
:104A30001A60027911440A6803681A430A60184A26
:104A40000832126803689A43154B08331A601A1D1E
:104A5000126803689A43124B0C331A604279102A89
:104A60000ED11A1F126803681A430D4B08331A60DF
:104A70001A1D126803681A43094B0C331A600DE0C3
:104A80000749427911440A6803681A430A6005E03D
:104A9000027911440A6803689A430A60704700006B
:104AA0000004014030B5044604254FF4302000F0E6
:104AB0006FF80546042D17D10C48006940F002003C
:104AC0000A49086108464461006940F040000861F5
:104AD0004FF4302000F05CF805460448006941F6C8
:104AE000FD71084001490861284630BD00200240A0
:104AF00004200B49C96801F0010109B101200EE051
:104B00000749C96801F0040109B1022007E004491E
:104B1000C96801F0100109B1032000E004207047CA
:104B2000002002400348006940F08000014908610C
:104B3000704700000020024070B504460D46042670
:104B4000F00200F025F80646042E11D1094800694C
:104B500040F00100074908612580F00200F018F8D4
:104B600006460448006941F6FE71084001490861A3
:104B7000304670BD002002400248034948600348A7
:104B8000486070472301674500200240AB89EFCDA4
:104B900000B502460423FFF7ABFF034603E0FFF72F
:104BA000A7FF0346521E012B01D1002AF7D102B9FB
:104BB0000523184600BD000030B500228B071C0FEE
:104BC0000F2303FA04F20B4B8C1053F82430934359
:104BD000084C8D1044F8253023468C1053F82430AF
:104BE0008C07240F00FA04F42343024C8D1044F880
:104BF000253030BD080001402DE9F0410246002576
:104C00000026002000230024002791F803C00CF0A8
:104C10000F0591F803C00CF0100CBCF1000F03D08D
:104C200091F802C04CEA050591F800C0BCF1000FF4
:104C300031D0146800202BE04FF0010C0CFA00F387
:104C4000B1F800C00CEA03069E4220D183004FF069
:104C50000F0C0CFA03F7BC4305FA03FC4CEA0404FE
:104C600091F803C0BCF1280F06D14FF0010C0CFAEB
:104C700000FCC2F814C00AE091F803C0BCF1480F70
:104C800005D14FF0010C0CFA00FCC2F810C0401C1A
:104C90000828D1D31460B1F800C0BCF1FF0F34DD97
:104CA000546800202EE000F1080C4FF0010808FACB
:104CB0000CF3B1F800C00CEA03069E4221D1830038
:104CC0004FF00F0C0CFA03F7BC4305FA03FC4CEA57
:104CD000040491F803C0BCF1280F05D100F1080CC1
:104CE00008FA0CF8C2F8148091F803C0BCF1480F20
:104CF00007D100F1080C4FF0010808FA0CF8C2F8CF
:104D00001080401C0828CED35460BDE8F08100001C
:104D1000F0B50A46002300240021002500F00046DB
:104D2000B6F1004F02D11D4EF16901E01B4E7168D2
:104D3000C0F3034583B200F44016B6F5401F08D116
:104D400021F07061154E766826F07066134F7E6014
:104D500012E000F48016B6F5801F06D1032606FA8D
:104D600005F4A14341F0706106E0460D360103FAF7
:104D700006F6B14341F0706122B1460D360103FAE7
:104D800006F6314300F00046B6F1004F02D1034E63
:104D9000F16101E0014E7160F0BD000000000140D2
:104DA0000146886880B27047416170470161704771
:104DB00000487047B02200200048704720210020A2
:104DC0000246002100BF0DE0012000EB41000A4B2C
:104DD00013F81000904203D1480033F810007047D8
:104DE000481C81B2012000EB4100034B33F8100056
:104DF0000028E9D100BFF2E70E01002000B502460D
:104E00000021012112E0FFF7D7FF4B0030F813001B
:104E1000904209D1FFF7D0FF012303EB410330F8A3
:104E2000130000F47F4000BD481C81B2FFF7C4FFAF
:104E30004B0030F813000028E5D1FF20F3E700B560
:104E40000246002100BF10E0FFF7B6FF4B0030F82C
:104E50001300904207D1FFF7AFFF012303EB41039B
:104E600010F8130000BD481C81B2FFF7A5FF4B00EE
:104E700030F813000028E7D1FF20F3E730B50246F1
:104E80000B4600210024012114E0FFF795FF0125C6
:104E900005EB410510F81500904209D19C4205D15F
:104EA000FFF78AFF4D0030F8150030BD601C84B25A
:104EB000481C81B2FFF780FF012505EB410530F862
:104EC00015000028E1D100BFEFE700001349098871
:104ED000322904DA1249114A1288885C05E000215F
:104EE0000E4A11800E491288885C00210D4A11601B
:104EF0000B4A0A4B1B88D1540B49098821B10A4936
:104F00000988491E084A11800121064A1160034997
:104F10000988491C014A118070470000C200002026
:104F20006220002094012742C8000020F0B50B4603
:104F3000FF24FF2509E010F8016B86EA0401074E03
:104F4000765C86EA0504064E755C1E00A3F1010737
:104F5000BBB2F0D114705570F0BD0000C45401080C
:104F6000C455010810B501464A1E034B985C002346
:104F70004A1E014CA35410BD8000002000B5FFF76D
:104F80001BFF008800BD00B5FFF716FF90F8660113
:104F900000BD00B5FFF710FF00F5B47000BD0000C4
:104FA00010B50446002300BF04E00548C05CE0548F
:104FB000581C83B23A2BF8DBFFF7A6FA184610BD4F
:104FC0009420002010B508F043F9C08B01280ED1C1
:104FD0000121084609F0EAF9642007F0E5FA00210A
:104FE000022009F0E3F9642007F0DEFA21E008F07E
:104FF0002FF9C08B02280ED10021012009F0D6F92B
:10500000642007F0D1FA0121022009F0CFF96420D1
:1050100007F0CAFA0DE00021012009F0C7F9642069
:1050200007F0C2FA0021022009F0C0F9642007F05D
:10503000BBFA08F00DF9408C012807D101210620A8
:1050400009F0B4F9642007F0AFFA06E00021062069
:1050500009F0ACF9642007F0A7FA10BD02F06EFA6F
:105060001CB5044609A103C9CDE90001E07960B986
:10507000207A052809D1607A0D2806D1A07AC028A7
:1050800003D10621684600F0C3F91CBD5AA5038070
:105090004F02000010B5FF247C48FFF781FE00F0AE
:1050A0000F04ACB97A48007810BB03207949087026
:1050B00079480078401C78490870084600785028E4
:1050C00016DB0220734908700120714908700FE057
:1050D00071480078012806DD6F480078502802DA10
:1050E00001206C49087000206B49087068490870FD
:1050F000012C15D16648407810BB032065494870E3
:1051000065484078401C64494870084640785028FB
:1051100016DB02205F49487001205D4948700FE0AE
:105120005D484078012806DD5B484078502802DA67
:105130000120584948700020574948705449487028
:10514000022C15D15248807810BB03205149887039
:1051500051488078401C5049887008468078502813
:1051600016DB02204B4988700120494988700FE006
:1051700049488078012806DD47488078502802DABF
:105180000120444988700020434988704049887054
:10519000032C15D13E48C07810BB03203D49C87090
:1051A0003D48C078401C3C49C8700846C07850282B
:1051B00016DB02203749C87001203549C8700FE05E
:1051C0003548C078012806DD3348C078502802DA17
:1051D00001203049C87000202F49C8702C49C87080
:1051E000042C15D12A48007910BB032029490871E5
:1051F00029480079401C2849087108460079502840
:1052000016DB0220234908710120214908710FE0B3
:1052100021480079012806DD1F480079502802DA6C
:1052200001201C49087100201B49087118490871A8
:10523000052C15D11648407910BB0320154948713B
:1052400015484079401C1449487108464079502857
:1052500016DB02200F49487101200D4948710FE00B
:105260000D484079012806DD0B484079502802DAC4
:1052700001200849487100200749487104494871D4
:105280000121084604F05EF910BD00000010014045
:105290008C000020800000208600002008B501213D
:1052A000102002F04BFA0121102002F047FA0F20E3
:1052B000ADF8000048208DF8030003208DF80200AF
:1052C00069460548FFF798FC0121084602F036FAC6
:1052D000024805F0D9F808BD0010014095500008BB
:1052E00010B586B004460121042002F027FA0121FE
:1052F000082002F023FA0121480402F0FFF94FF4DC
:105300008050ADF8140010208DF8170003208DF8A0
:10531000160005A92A48FFF76FFC0420ADF8140019
:1053200018208DF8170005A92648FFF765FC08200E
:10533000ADF8140004208DF8170005A92148FFF7E7
:105340005BFC0121480402F0E9F900214FF4003030
:1053500002F0E4F901940020ADF80800ADF80A006D
:10536000ADF80C00ADF810000C20ADF80E0001A94E
:10537000154804F009FD26208DF8000000208DF866
:10538000010002208DF8020001208DF8030068461C
:1053900002F088F8012240F225510B4804F0CFFCBE
:1053A000012240F22441084804F0C9FC01210648CA
:1053B00004F033FC00200549086006B010BD000071
:1053C000000C01400008014000440040B08121422F
:1053D00030B503460C4C2278002000240C800A4C87
:1053E0002478A2420FD172B100BF04E0074C245CC4
:1053F0001C54441CE0B29042F8DB034C24780C802F
:105400000024014D2C7030BD93000020442000206A
:1054100070B505460E4601200F49086000240CE0D7
:1054200000BF40210D4804F053FC0028F9D0295D4D
:105430000A4804F01AFD601CC4B2B442F0DB00BF9D
:105440004021064804F044FC0028F9D0002004491B
:1054500008700149086070BDB081214200440040DD
:1054600093000020202801D20149087070470000F5
:105470009200002000B587B00020049005900690AF
:1054800001900290039003208DF8100001208DF808
:1054900011003F208DF8120000208DF8130001202C
:1054A0008DF8140000208DF8150001208DF80400FF
:1054B00005208DF805003F208DF8060001A9012088
:1054C0000EF0BCF802208DF8040000208DF80500D5
:1054D00005208DF8060001A904200EF0AFF804A9FC
:1054E00002200EF0ABF807B000BD00B587B0002079
:1054F00004900590069001900290039003208DF88F
:10550000100001208DF8110000208DF812008DF898
:10551000130001208DF8140000208DF815000120E3
:105520008DF8040005208DF8050000208DF8060098
:1055300001A901200EF082F802208DF8040001205C
:105540008DF8050005208DF8060001A904200EF055
:1055500075F804A902200EF071F807B000BD00B57F
:1055600007F076FE408C00BD00B50146052904DA3F
:1055700007F06EFE30F8110000BD0020FCE700B51A
:10558000014607F065FE418400BD00B50246052ACC
:1055900003DA07F05DFE20F81210002000BD0000C5
:1055A00008B50121082002F0C9F80320ADF8000079
:1055B00018208DF8030003208DF8020069463A4850
:1055C000FFF71AFB0020394908603949C1F8A001EA
:1055D0000121082002F0B2F80820ADF800001020E8
:1055E0008DF8030003208DF8020069462E48FFF76E
:1055F00003FB0121202002F0A1F80420ADF80000F7
:1056000010208DF8030003208DF802006946294818
:10561000FFF7F2FA0121102002F090F84FF48060B9
:10562000ADF8000010208DF8030003208DF8020073
:1056300069462148FFF7E0FA0121042002F07EF8D4
:105640004FF40040ADF8000010208DF80300032057
:105650008DF8020069461948FFF7CEFA01210820AB
:1056600002F06CF80120ADF8000010208DF8030066
:1056700003208DF802000121042002F05FF80220CF
:10568000ADF8000010208DF8030003208DF8020013
:1056900069460A48FFF7B0FA00200949086009F096
:1056A000BBFA08F04FFE08BD000C01409C012242ED
:1056B0000000224200140140001001400008014097
:1056C0008C81214270B50024FFF776FB0546C82285
:1056D00029461A4802F0DAFF00BF24E0FFF76CFB0E
:1056E00030F814004FF6FF71884204D1FFF764FBD5
:1056F000002120F8141004F0010090B1FFF75CFBCA
:1057000000EB440108780880FFF756FB10F81400FE
:1057100038B1FFF751FB00EB4401088840F400600A
:105720000880601C84B2C82CD8DBFFF745FB811CC5
:10573000408840F48070088070BD000028FC030899
:105740007CB5002400200090019007F081FD808B43
:10575000ADF8000007F07CFDC08BADF8020007F04B
:1057600077FD008CADF8040007F072FD408CADF8B9
:10577000060007F06DFD054614222946124802F086
:1057800085FF00BF0EE007F063FD30F814004FF610
:10579000FF71884204D107F05BFD002120F814104E
:1057A000601C84B2142CEEDB07F052FDBDF8001033
:1057B000818307F04DFDBDF80210C18307F048FD5D
:1057C000BDF8041001847CBD00FC03081CB500205A
:1057D0000090019006220F490F480BF0F5F80D4993
:1057E000891D062268460BF0EFF8002008E00A4900
:1057F000095C1DF800201144074A1154411CC8B22D
:105800000628F4DB0448007800F0FE000249087026
:105810001CBD0000E8F7FF1FFA00002070B54FF430
:10582000C8600BF0BBF805462C4614A214A1204614
:105830000EF03AF9083411A212A120460EF034F904
:1058400008340EA210A120460EF02EF908340BA247
:105850000EA120460EF028F908340DA20DA1204615
:105860000EF022F90834204607F004FE2846FEF721
:105870002DFD28460BF07EF870BD0000312F320060
:10588000350000003400000033000000320000004A
:10589000312F31003100000070B54FF4C8600BF0BB
:1058A0007DF805462C46FEA2FEA120460EF0FCF82F
:1058B0000834FDA2FDA120460EF0F6F80834FCA243
:1058C000FCA120460EF0F0F80834FBA2FBA1204614
:1058D0000EF0EAF80834F6A2F9A120460EF0E4F83A
:1058E0000834F1A2F3A120460EF0DEF80834F0A24D
:1058F000EEA120460EF0D8F80834EDA2EDA1204626
:105900000EF0D2F80834EAA2E8A120460EF0CCF856
:105910000834E3A2E9A120460EF0C6F80834E9A253
:10592000E9A120460EF0C0F80834DDA2DDA1204632
:105930000EF0BAF80834DCA2DCA120460EF0B4F870
:105940000834DBA2DBA120460EF0AEF80834DAA260
:10595000DAA120460EF0A8F80834D5A2D8A1204636
:105960000EF0A2F80834D2A2D2A120460EF09CF884
:105970000834CBA2CDA120460EF096F80834CEA272
:10598000C8A120460EF090F80834C5A2C7A1204651
:105990000EF08AF80834C8A2C8A120460EF084F898
:1059A0000834BFA2BFA120460EF07EF80834BCA286
:1059B000C2A120460EF078F80834BDA2BBA1204653
:1059C0000EF072F80834BAA2BAA120460EF06CF8B4
:1059D0000834B9A2B5A120460EF066F80834B0A28A
:1059E000B7A120460EF060F80834ADA2B1A1204660
:1059F0000EF05AF80834ACA2ACA120460EF054F8D0
:105A00000834A7A2ADA120460EF04EF80834ADA28E
:105A1000ADA120460EF048F80834A1A2A1A120466D
:105A20000EF042F808349EA2A4A120460EF03CF8E5
:105A300008349BA29BA120460EF036F8083498A2A9
:105A4000A2A120460EF030F8083495A29BA1204672
:105A50000EF02AF8083492A29CA120460EF024F8F9
:105A600008348FA29AA120460EF01EF8083492A2A4
:105A700098A120460EF018F8083497A293A120466A
:105A80000EF012F808348AA28CA120460EF00CF811
:105A9000083489A283A120460EF006F8083480A2BB
:105AA00086A120460EF000F808347FA287A1204688
:105AB0000DF0FAFF08347EA281A120460DF0F4FF1C
:105AC000083486A27DA120460DF0EEFF083478A2AE
:105AD00080A120460DF0E8FF083475A27CA1204685
:105AE0000DF0E2FF083472A278A120460DF0DCFF31
:105AF00008346FA26BA120460DF0D6FF08346CA2CB
:105B000077A120460DF0D0FF083465A265A120469C
:105B10000DF0CAFF083466A268A120460DF0C4FF4C
:105B2000083465A265A120460DF0BEFF083460A2CE
:105B300062A120460DF0B8FF08345FA259A12046AB
:105B40000DF0B2FF08345AA25CA120460DF0ACFF64
:105B5000083453A25DA120460DF0A6FF083450A2E0
:105B600050A120460DF0A0FF083451A254A12046B8
:105B70000DF09AFF08344EA250A120460DF094FF7C
:105B8000083447A249A120460DF08EFF083444A2F4
:105B900048A120460DF088FF083441A243A12046C9
:105BA0000DF082FF08344FA244A120460DF07CFF87
:105BB00008343FA241A120460DF076FF08343EA2F2
:105BC00038A120460DF070FF083435A23BA12046D5
:105BD0000DF06AFF083434A23CA120460DF064FFAA
:105BE000083433A236A120460DF05EFF083430A2FF
:105BF00032A120460DF058FF08342DA235A12046D1
:105C00000DF052FF08342AA231A120460DF04CFFBE
:105C1000083427A22DA120460DF046FF083424A207
:105C200020A120460DF040FF083421A22CA12046DF
:105C30000DF03AFF08341AA21AA120460DF034FFE5
:105C4000083420A21DA120460DF02EFF083418A212
:105C50001AA120460DF028FF083417A211A12046F2
:105C60000DF022FF083412A214A120460DF01CFFF3
:105C700008340BA21CA120460DF016FF08340AA21E
:105C800014A120460DF010FF083409A216A12046E9
:105C90000DF00AFF083408A20DA1204626E00000FE
:105CA000312F310036000000332F32003200000067
:105CB000312F320031000000322F3100330000005C
:105CC00030000000352F3200365F00003700000042
:105CD000317E0000327E0000362F3100312F33003C
:105CE00035000000332F3100337E00000DF0DCFE64
:105CF0000834AFF25402AFF22C0120460DF0D4FE6E
:105D00000834AFF22C02AFF2640120460DF0CCFE55
:105D10000834204607F0AEFB2846FEF7D7FA28469F
:105D20000AF028FE70BD000070B54FF4C8600AF09C
:105D300035FE05462C46FEA2FEA120460DF0B4FE1F
:105D40000834FDA2FDA120460DF0AEFE0834F8A2F5
:105D5000F8A120460DF0A8FE0834F9A2F9A12046CA
:105D60000DF0A2FE0834F4A2F7A120460DF09CFE2F
:105D70000834F6A2F1A120460DF096FE0834ECA2FC
:105D8000F3A120460DF090FE0834EBA2E9A12046D5
:105D90000DF08AFE0834E6A2EDA120460DF084FE47
:105DA0000834E7A2E8A120460DF07EFE0834E0A208
:105DB000E4A120460DF078FE0834DDA2DFA12046E4
:105DC0000DF072FE0834E1A2DAA120460DF06CFE5F
:105DD0000834E0A2DBA120460DF066FE0834D8A20C
:105DE000DDA120460DF060FE0834DAA2D5A12046E0
:105DF0000DF05AFE0834D0A2D7A120460DF054FE73
:105E00000834CBA2D5A120460DF04EFE0834C8A21E
:105E1000D3A120460DF048FE0834CEA2C9A12046E9
:105E20000DF042FE0834C6A2C4A120460DF03CFE8F
:105E30000834BFA2C4A120460DF036FE0834BEA22D
:105E4000C0A120460DF030FE0834B9A2C4A12046FE
:105E50000DF02AFE0834B6A2BAA120460DF024FEA9
:105E60000834C0A2B8A120460DF01EFE0834B2A22C
:105E7000B0A120460DF018FE0834AFA2B1A1204613
:105E80000DF012FE0834AAA2AFA120460DF00CFEC0
:105E90000834A7A2ABA120460DF006FE0834A6A246
:105EA000A4A120460DF000FE0834AFA2A3A1204615
:105EB0000DF0FAFD0834A0A2A2A120460DF0F4FDD9
:105EC00008349BA2A0A120460DF0EEFD083498A254
:105ED0009FA120460DF0E8FD083495A2A3A120461D
:105EE0000DF0E2FD083492A296A120460DF0DCFDF3
:105EF00008348FA294A120460DF0D6FD08348CA260
:105F00008CA120460DF0D0FD083489A28BA120463B
:105F10000DF0CAFD083486A28BA120460DF0C4FD09
:105F2000083490A287A120460DF0BEFD083489A256
:105F300084A120460DF0B8FD083481A286A1204638
:105F40000DF0B2FD08347AA27EA120460DF0ACFD22
:105F5000083479A280A120460DF0A6FD083474A271
:105F60007EA120460DF0A0FD083471A27CA1204640
:105F70000DF09AFD083477A272A120460DF094FD31
:105F800008346BA275A120460DF08EFD083468A27E
:105F90006DA120460DF088FD083465A273A120464E
:105FA0000DF082FD083462A26DA120460DF07CFD4B
:105FB00008345FA263A120460DF076FD08345CA290
:105FC00061A120460DF070FD08345BA25BA1204664
:105FD0000DF06AFD083464A25BA120460DF064FD5B
:105FE000083455A257A120460DF05EFD083450A29A
:105FF00055A120460DF058FD08344DA254A120466D
:106000000DF052FD08344AA258A120460DF04CFD77
:10601000083447A24BA120460DF046FD083444A2A7
:106020004BA120460DF040FD083441A241A120467D
:106030000DF03AFD083440A24DA120460DF034FD8C
:10604000083449A23BA120460DF02EFD08343AA2A7
:106050003CA120460DF028FD083443A23FA1204674
:106060000DF022FD083432A236A120460DF01CFDB1
:1060700008342FA239A120460DF016FD083430A2B5
:1060800035A120460DF010FD083429A239A1204683
:106090000DF00AFD083426A237A120460DF004FDBC
:1060A000083423A22CA120460DF0FEFC083422A2C5
:1060B0002AA120460DF0F8FC08342AA226A1204689
:1060C0000DF0F2FC083423A22AA120460DF0ECFCCE
:1060D00008341BA228A120460DF0E6FC083418A2C3
:1060E0001DA120460DF0E0FC083424A21BA120468F
:1060F0000DF0DAFC08340EA217A120460DF0D4FCF6
:10610000083418A20FA120460DF0CEFC083411A2CD
:1061100018A120460DF0C8FC083409A216A120469B
:106120000DF0C2FC083406A20BA1204628E00000B6
:10613000312F3200365F0000312F31003100000076
:10614000332F32003300000032000000372F3200BE
:10615000375F0000322F31003600000035000000AC
:1061600034000000342F3100332F310030000000A4
:10617000355F0000317E000037000000352F32000F
:106180000DF092FC0834AFF20C02AFF23001204661
:106190000DF08AFC0834AFF26802AFF244012046E9
:1061A0000DF082FC0834AFF24402AFF268012046E1
:1061B0000DF07AFC0834AFF28002AFF2880120467D
:1061C0000DF072FC0834AFF29002AFF2900120465D
:1061D0000DF06AFC0834AFF2A002AFF29401204641
:1061E0000DF062FC0834AFF2A802AFF2A80120461D
:1061F0000DF05AFC0834AFF2C802AFF2C0012046DD
:106200000DF052FC0834AFF2D002AFF2C8012046C4
:106210000DF04AFC0834AFF2B002AFF2D4012046D0
:106220000DF042FC0834AFF2F802AFF2E401204670
:106230000DF03AFC0834AFF20812AFF2EC01204640
:106240000DF032FC0834AFF21812AFF2E001204634
:106250000DF02AFC0834AFF22812AFF218112046D4
:106260000DF022FC0834AFF23812AFF21C112046B8
:106270000DF01AFC0834AFF24812AFF24811204674
:106280000DF012FC0834AFF25012AFF21C11204690
:106290000DF00AFC0834AFF23412AFF26811204658
:1062A0000DF002FC0834AFF27812AFF278112046FC
:1062B0000DF0FAFB0834AFF28012AFF280112046E5
:1062C0000DF0F2FB0834AFF29812AFF284112046C1
:1062D0000DF0EAFB0834AFF29812AFF298112046A5
:1062E0000DF0E2FB0834AFF2B812AFF2B011204665
:1062F0000DF0DAFB0834AFF2C012AFF2B81120464D
:106300000DF0D2FB0834AFF2A012AFF2C411204658
:106310000DF0CAFB0834AFF2E012AFF2D8112046FC
:106320000DF0C2FB0834AFF2D412AFF2D011204608
:106330000DF0BAFB0834AFF20022AFF2F81120469C
:106340000DF0B2FB0834AFF20822AFF2D4112046B0
:106350000DF0AAFB0834AFF22822AFF2202120462C
:106360000DF0A2FB0834AFF23822AFF2F411204650
:106370000DF09AFB0834AFF24822AFF224212046F8
:106380000DF092FB0834AFF25022AFF230212046DC
:106390000DF08AFB083408A2AFF2442120460DF02C
:1063A00083FB0834204607F065F82846FDF78EFF8A
:1063B00028460AF0DFFA70BD372F310070B54FF470
:1063C000C8600AF0EBFA05462C46FEA2FEA1204664
:1063D0000DF06AFB0834FDA2FDA120460DF064FB20
:1063E0000834FCA2FCA120460DF05EFB0834FBA2A1
:1063F000FBA120460DF058FB0834F4A2F2A1204680
:106400000DF052FB0834F1A2F3A120460DF04CFB35
:106410000834ECA2EEA120460DF046FB0834EBA2B6
:10642000F0A120460DF040FB0834EFA2E8A1204681
:106430000DF03AFB0834EDA2E3A120460DF034FB49
:106440000834E6A2E6A120460DF02EFB0834DDA2BA
:10645000DDA120460DF028FB0834DCA2DCA120469B
:106460000DF022FB0834DBA2DBA120460DF01CFB63
:106470000834DAA2DAA120460DF016FB0834D3A2C4
:10648000D1A120460DF010FB0834D0A2D2A12046A5
:106490000DF00AFB0834CBA2D5A120460DF004FB79
:1064A0000834CAA2CCA120460DF0FEFA0834CEA2D0
:1064B000CFA120460DF0F8FA0834C2A2CDA12046A3
:1064C0000DF0F2FA0834C5A2C5A120460DF0ECFA91
:1064D0000834C2A2BCA120460DF0E6FA0834C6A2D8
:1064E000C6A120460DF0E0FA0834BCA2BAA12046AD
:1064F0000DF0DAFA0834B5A2BDA120460DF0D4FAA9
:106500000834B2A2B4A120460DF0CEFA0834B3A2EA
:10651000B7A120460DF0C8FA0834B0A2B0A12046B9
:106520000DF0C2FA0834ADA2AEA120460DF0BCFABF
:106530000834A4A2AFA120460DF0B6FA0834AAA2EE
:10654000ABA120460DF0B0FA0834A2A2A2A12046C9
:106550000DF0AAFA08349DA2A1A120460DF0A4FADC
:1065600008349EA2A2A120460DF09EFA083497A2FC
:1065700099A120460DF098FA083494A292A12046E1
:106580000DF092FA08348FA299A120460DF08CFAF2
:1065900008348EA28CA120460DF086FA08348BA216
:1065A0008DA120460DF080FA083488A286A12046ED
:1065B0000DF07AFA083483A287A120460DF074FA10
:1065C000083482A28AA120460DF06EFA083483A214
:1065D0008AA120460DF068FA083489A285A12046D8
:1065E0000DF062FA08347BA282A120460DF05CFA1D
:1065F00008347AA27AA120460DF056FA083477A220
:1066000080A120460DF050FA08346EA27EA12046EB
:106610000DF04AFA083471A27CA120460DF044FA2C
:1066200008346AA27AA120460DF03EFA083467A227
:1066300074A120460DF038FA083464A274A12046F3
:106640000DF032FA083465A26EA120460DF02CFA46
:1066500008345EA26EA120460DF026FA08345BA233
:106660005FA120460DF020FA08345CA265A1204607
:106670000DF01AFA083455A265A120460DF014FA5F
:10668000083450A263A120460DF00EFA083453A23C
:106690005CA120460DF008FA08344CA25EA1204609
:1066A0000DF002FA08344BA256A120460DF0FCF979
:1066B00008344AA24AA120460DF0F6F9083447A250
:1066C00050A120460DF0F0F908343EA24EA120461C
:1066D0000DF0EAF9083441A24CA120460DF0E4F98E
:1066E00008343AA24AA120460DF0DEF9083437A258
:1066F00044A120460DF0D8F9083434A244A1204624
:106700000DF0D2F9083435A23EA120460DF0CCF9A7
:1067100008342EA23EA120460DF0C6F908342BA263
:106720002FA120460DF0C0F908342CA235A1204637
:106730000DF0BAF9083425A235A120460DF0B4F9C0
:10674000083420A233A120460DF0AEF908341FA270
:1067500031A120460DF0A8F9083420A22DA1204631
:106760000DF0A2F908341BA226A120460DF09CF9D9
:1067700008341AA21AA120460DF096F9083417A27F
:1067800020A120460DF090F908340EA21EA120464B
:106790000DF08AF9083411A21CA120460DF084F9ED
:1067A00008340AA21AA120460DF07EF9083407A287
:1067B00014A120460DF078F9083404A214A1204653
:1067C0002CE00000322F3200365F0000312F340001
:1067D000375F0000352F340031000000312F3200C8
:1067E00030000000355F0000332F3400342F3200BA
:1067F0003200000033000000332F3200340000006C
:10680000382F340036000000337E0000327E000056
:10681000317E000037000000350000000DF044F923
:106820000834AFF24802AFF2240120460DF03CF9E3
:106830000834AFF26802AFF2280120460DF034F9B7
:106840000834AFF27802AFF2680120460DF02CF95F
:106850000834AFF27802AFF2540120460DF024F96B
:106860000834AFF29802AFF2580120460DF01CF93F
:106870000834AFF2B002AFF2640120460DF014F913
:106880000834AFF2A802AFF2840120460DF00CF9F3
:106890000834AFF2C802AFF2800120460DF004F9CF
:1068A0000834AFF2D002AFF2B40120460DF0FCF88C
:1068B0000834AFF2D802AFF2D80120460DF0F4F858
:1068C0000834AFF2E802AFF2C40120460DF0ECF854
:1068D0000834AFF2EC02AFF2D00120460DF0E4F83C
:1068E0000834AFF208122FA120460DF0DDF808346D
:1068F000AFF21812AFF2F00120460DF0D5F80834CF
:10690000AFF22812AFF2FC0120460DF0CDF80834AA
:10691000AFF23812AFF2081120460DF0C5F8083476
:10692000AFF25812AFF21C1120460DF0BDF808343A
:10693000AFF24C12AFF2341120460DF0B5F8083426
:10694000AFF28012AFF23C1120460DF0ADF80834E2
:10695000AFF27812AFF2481120460DF0A5F80834D6
:10696000AFF27C12AFF2541120460DF09DF80834BE
:10697000AFF29812AFF2681120460DF095F8083486
:10698000AFF28C12AFF2841120460DF08DF808346E
:10699000204606F06FFD2846FDF798FC284609F0D2
:1069A000E9FF70BD357E000070B54FF4166009F048
:1069B000F5FF05462C46FEA2FEA120460DF074F818
:1069C0000834FDA2FDA120460DF06EF80834FCA2AB
:1069D000FCA120460DF068F80834F7A2FAA1204681
:1069E0000DF062F80834F4A2F6A120460DF05CF830
:1069F0000834F3A2EFA120460DF056F80834EEA2B9
:106A0000F2A120460DF050F80834EBA2E9A120468F
:106A10000DF04AF80834EAA2EDA120460DF044F842
:106A20000834E5A2EBA120460DF03EF80834E2A2BE
:106A3000E6A120460DF038F80834DDA2DDA120469D
:106A40000DF032F80834DCA2DEA120460DF02CF85F
:106A50000834D9A2DCA120460DF026F80834D8A2CB
:106A6000DDA120460DF020F80834DCA2D3A1204699
:106A70000DF01AF80834D9A2D9A120460DF014F867
:106A80000834D8A2D4A120460DF00EF80834D5A2BF
:106A9000D0A120460DF008F80834C5A2C5A12046B3
:106AA0000DF002F80834C4A2C4A120460CF0FCFF8B
:106AB0000834C3A2C3A120460CF0F6FF0834BEA2DE
:106AC000C1A120460CF0F0FF0834BBA2BDA12046B6
:106AD0000CF0EAFF0834BAA2B6A120460CF0E4FF9D
:106AE0000834B5A2B9A120460CF0DEFF0834B2A2EA
:106AF000B0A120460CF0D8FF0834B1A2B4A12046C2
:106B00000CF0D2FF0834ACA2B2A120460CF0CCFFAE
:106B10000834A9A2B4A120460CF0C6FF0834A6A2EE
:106B2000ABA120460CF0C0FF0834A3A2A7A12046C9
:106B30000CF0BAFF0834A0A29EA120460CF0B4FFCE
:106B400008349DA2A0A120460CF0AEFF08349CA200
:106B500098A120460CF0A8FF083499A29BA12046DA
:106B60000CF0A2FF08349FA292A120460CF09CFFDB
:106B7000083493A297A120460CF096FF08348EA209
:106B800091A120460CF090FF08348BA292A12046E0
:106B90000CF08AFF083488A288A120460CF084FFFC
:106BA000083485A28CA120460CF07EFF083482A216
:106BB00082A120460CF078FF08347DA288A12046EF
:106BC0000CF072FF08347CA27CA120460CF06CFF14
:106BD000083479A280A120460CF066FF083478A220
:106BE00079A120460CF060FF083473A271A1204601
:106BF0000CF05AFF083470A274A120460CF054FF28
:106C000008346FA272A120460CF04EFF08346AA22D
:106C10006DA120460CF048FF083467A26EA1204603
:106C20000CF042FF083464A264A120460CF03CFF43
:106C3000083461A268A120460CF036FF08345EA239
:106C40005EA120460CF030FF08345BA264A1204610
:106C50000CF02AFF083458A258A120460CF024FF5B
:106C6000083455A25CA120460CF01EFF08345BA23C
:106C700055A120460CF018FF08345CA24DA1204617
:106C80000CF012FF083457A24CA120460CF00CFF68
:106C9000083449A24CA120460CF006FF083446A255
:106CA0004DA120460CF000FF083443A243A120462A
:106CB0000CF0FAFE083440A247A120460CF0F4FE86
:106CC00008343DA23DA120460CF0EEFE083438A267
:106CD00043A120460CF0E8FE083437A237A1204635
:106CE0000CF0E2FE083434A23BA120460CF0DCFE9E
:106CF000083431A234A120460CF0D6FE083437A265
:106D000035A120460CF0D0FE083434A22EA1204636
:106D10000CF0CAFE083428A226A120460CF0C4FEBE
:106D2000083425A229A120460CF0BEFE083424A276
:106D300027A120460CF0B8FE08341FA225A120464A
:106D40000CF0B2FE08341CA220A120460CF0ACFED0
:106D5000083419A217A120460CF0A6FE083416A28A
:106D60001AA120460CF0A0FE083413A211A120465F
:106D70000CF09AFE083410A210A120460CF094FEEC
:106D800008340DA20BA120460CF08EFE08340AA296
:106D90000EA120460CF088FE083407A205A120466B
:106DA0000CF082FE083404A208A1204620E0000076
:106DB000332F320036000000312F3200337E0000C6
:106DC000322F320037000000317E00003500000015
:106DD0003300000030000000327E0000312F34000C
:106DE000357E0000342F320032000000332F340093
:106DF0000CF05AFE0834AFF21402AFF248012046FC
:106E00000CF052FE0834AFF24802AFF238012046CF
:106E10000CF04AFE0834AFF26002AFF26001204687
:106E20000CF042FE0834AFF27002AFF24C01204683
:106E30000CF03AFE0834AFF28002A6A120460CF016
:106E400033FE0834AFF29002AFF26C0120460CF032
:106E50002BFE0834AFF2A002AFF2A00120460CF0E6
:106E600023FE0834AFF2A802AFF2940120460CF0E2
:106E70001BFE0834AFF2C002AFF2B40120460CF0A2
:106E800013FE0834AFF2D002AFF2D80120460CF066
:106E90000BFE0834AFF2D802AFF2C40120460CF06A
:106EA00003FE0834AFF2F002AFF2CC0120460CF042
:106EB000FBFD0834AFF20812AFF2001120460CF0CF
:106EC000F3FD0834AFF21012AFF2F80120460CF0D7
:106ED000EBFD0834AFF2FC02AFF2201120460CF0BB
:106EE000E3FD0834AFF20C12AFF20C1120460CF0A7
:106EF000DBFD0834AFF2381276A120460CF0D4FD49
:106F00000834AFF24C12AFF2281120460CF0CCFD41
:106F10000834AFF25C12AFF25C1120460CF0C4FDF5
:106F20000834AFF26412AFF2501120460CF0BCFDF1
:106F30000834AFF27C12AFF27C1120460CF0B4FDA5
:106F40000834AFF28C12AFF2681120460CF0ACFDA1
:106F50000834AFF27012AFF29C1120460CF0A4FD81
:106F60000834AFF2A412AFF2941120460CF09CFD4D
:106F70000834AFF2BC12AFF2BC1120460CF094FD05
:106F80000834AFF2CC12AFF2A81120460CF08CFD01
:106F90000834AFF2D4124FA120460CF085FD08341E
:106FA000AFF2EC12AFF2C81120460CF07DFD0834B0
:106FB000AFF2FC12AFF2FC1120460CF075FD083464
:106FC000AFF20422AFF2F01120460CF06DFD083450
:106FD000AFF21422AFF2102120460CF065FD083408
:106FE000AFF22422AFF2242120460CF05DFD0834DC
:106FF000AFF23422AFF22C2120460CF055FD0834BC
:10700000AFF24422AFF2402120460CF04DFD08348F
:10701000AFF25C22AFF2642120460CF045FD08344B
:10702000AFF26C22AFF25C2120460CF03DFD08343B
:10703000AFF27422AFF2842120460CF035FD083403
:10704000AFF28C22AFF2742120460CF02DFD0834F3
:10705000AFF29C22AFF2902120460CF025FD0834BF
:10706000AFF2AC22AFF2A42120460CF01DFD083493
:10707000AFF29822AFF2B02120460CF015FD083493
:10708000AFF2A822AFF2C42120460CF00DFD083467
:10709000AFF2DC22AFF2E42120460CF005FD08340B
:1070A000AFF2EC22AFF2DC2120460CF0FDFC0834FC
:1070B00009A2AFF2003120460CF0F6FC083420465D
:1070C00006F0D8F92846FDF701F9284609F052FCE8
:1070D00070BD0000367E0000362F320070B54FF4D0
:1070E000C86009F05BFC05462C4614A214A120469A
:1070F0000CF0DAFC083411A212A120460CF0D4FCEA
:1071000008340EA210A120460CF0CEFC08340BA2CD
:107110000EA120460CF0C8FC08340DA20DA120469B
:107120000CF0C2FC0834204606F0A4F92846FDF70E
:10713000CDF8284609F01EFC70BD0000312F32004A
:107140003100000032000000330000003400000075
:10715000312F3100350000002DE9FF4704460D4670
:10716000164699460020039002960027804600901C
:1071700002A80BF07FFB8DF80C000398C0F30310FE
:10718000022800D01FE001A9029800F04DF88046C7
:10719000029908440290DDE9011047180298381A54
:1071A000022800DA0FE002A80BF064FB8DF8000063
:1071B000009800F00100207002A80BF05BFB287023
:1071C0004FF0010800BF404604B0BDE8F0872DE94C
:1071D000F84305460C46012600270020206000BF2A
:1071E0004FF0FF38781C0746042801DD00BF17E088
:1071F00001216846A8478046B8F1010F00D00FE092
:107200009DF8001001F07F01206801FB060020605E
:10721000F6019DF8000000F080000028E0D100BFDA
:107220003846BDE8F883000070B504460D460348B3
:10723000046029460248FFF7CAFF70BDDC01002048
:10724000D9A4000830B50246002300BF0846CD1778
:1072500001EB5565ED11A1EBC515ECB2CD1701EBB6
:107260005565E911002901DD44F0800418465B1CD6
:1072700014540029EADC184630BD0000401C802868
:1072800001DA401C0AE0B0F5804F01DA801C05E00D
:107290000349884201DAC01C00E0001D704700006D
:1072A000FFFF1F002DE9FE4305460E4614460295DA
:1072B00000200190009000274FF0FF38204600F09A
:1072C000A5F807468146FFF7D9FFB04202DD6FF00F
:1072D00001088FE000208DF80400019820F0F000F4
:1072E000103001909DF8041002A80CF0B1FF39464F
:1072F0000298FFF7A7FF029908440290207A042819
:1073000008D13EA102A80CF08FFF042102A80CF0C6
:107310009FFF07E03BA102A80CF086FF032102A813
:107320000CF096FF00208DF80000A17E009861F31C
:1073300041000090E07E08B1012100E000210098AA
:1073400061F3820000900098C0F3800058B194F877
:107350003D10009861F3C400009094F83C10009830
:1073600061F345100090206C08B9A06C20B1009822
:1073700020F0800080300090E06C08B9606D20B192
:10738000009820F04000403000909DF8001002A8C6
:107390000CF05EFF218B02A80CF060FF02A8D4E97C
:1073A0000423E1680CF072FFE07E58B102A8D4E932
:1073B0000A23616A0CF06AFF02A8D4E90D23216B4D
:1073C0000CF064FF0098C0F3C01028B102A8D4E903
:1073D0001123216C0CF05AFF0098C0F3801028B1E3
:1073E00002A8D4E91423E16C0CF050FF0298A0EB42
:1073F000050800BF4046BDE8FE8300004D515454CF
:10740000000000004D5149736470000070B50446DF
:107410000025207A032801D10C2503E0207A0428D6
:1074200000D10A25D4E90412E06800F02AF8801C93
:107430000544E07E68B1D4E90A12606A00F021F8E0
:10744000861CD4E90D12206B00F01BF83044801C20
:107450000544206C08B9A06C30B1D4E91112206C3D
:1074600000F00FF8801C0544E06C08B9606D30B185
:10747000D4E91412E06C00F004F8801C054428469E
:1074800070BD37B50024009820B10098FBF70CFDC3
:10749000044600E0019C20463EBD00F04FF800F09D
:1074A0004DF8000070B5002100230F22C47804B30A
:1074B000154C246804F4E064C4F5E064210AC1F1C9
:1074C0000403CA40447804FA03F184781440214349
:1074D00009010E4C0678A155047804F01F0501241B
:1074E000AC4005786D11AD0005F1E025C5F800410F
:1074F00009E0047804F01F050124AC40044D06782F
:10750000761145F8264070BD0CED00E000E400E087
:1075100080E100E002490143024A11607047000027
:107520000000FA050CED00E0024A0A400243024B5B
:107530001A60704780FFFF1F08ED00E006480068F2
:1075400000F4E06005490843001D03490860BFF3EB
:10755000408F00BFFEE700000CED00E00000FA05E0
:1075600010B50E480068C0B90D480068FBF7DDFA99
:107570000C490860084600680B4908600948006823
:1075800000EB4000094901EBC000094908600846CA
:10759000006808490860FBF78CFA10BD4400002021
:1075A000640000204C00002048000020441D002002
:1075B000540000205000002070B5044610464FF0E3
:1075C00080750560051F28462C606FF00106051FB9
:1075D00028462E604FF01236051F28462E604FF0C9
:1075E0000336051F28462E604FF00236051F284639
:1075F0002E607610051F28462E60051F284629603C
:107600004FF01136051F28462E604FF01036051F2B
:1076100028462E604FF00936051F28462E604FF091
:107620000836051F28462E604FF00736051F2846EE
:107630002E604FF00636051F28462E604FF00536A7
:10764000051F28462E604FF00436051F28462E6081
:1076500070BD000010B5FBF725FA04460648007817
:10766000401C054908700548007805490870204607
:10767000FBF71CFA10BD0000600000204C00002049
:107680006800002010B5FBF70DFA044609480078A1
:1076900020B108480078401E064908700548007867
:1076A00010B92020044908702046FBF7FFF902F0CA
:1076B000E1F910BD600000206800002030B50346ED
:1076C00002EB4200084C44F8301002EB420004EB9D
:1076D000C00043604FF0004002EB4204024D05EB56
:1076E000C404E060002030BD441D00200248008832
:1076F0000A300149088070476401002029B1064A18
:10770000D2690243044BDA6104E0034AD26982433E
:10771000014BDA61704700000010024029B1064AAF
:1077200012690243044B1A6104E0034A126982435E
:10773000014B1A61704700000010024029B1064A4F
:1077400092690243044B9A6104E0034A92698243BE
:10775000014B9A61704700000010024029B1064AAF
:10776000D2680243044BDA6004E0034AD2688243E1
:10777000014BDA60704700000010024030B5002174
:107780000022002400232D4D6D6805F00C0121B16D
:10779000042905D0082923D105E0294D056022E000
:1077A000274D05601FE0254D6D6805F47012234DCF
:1077B0006D6805F48034022505EB92421CB9214D19
:1077C000554305600BE01D4D6D6805F400351DB196
:1077D0001C4D5543056002E0194D5543056002E01C
:1077E000174D056000BF00BF144D6D6805F0F00136
:1077F0000909154D6B5C0568DD4045600F4D6D68EE
:1078000005F4E061090A104D6B5C4568DD40856058
:107810000A4D6D6805F46051C90A0B4D6B5C4568F3
:10782000DD40C560054D6D6805F44041890B074D8D
:107830006B5CC568B5FBF3F5056130BD0010024017
:1078400000127A0000093D001800002028000020E6
:1078500000210B4A11700A4A203A82F820100128B0
:1078600002D0042808D103E00121054A117004E088
:107870000521034A117000E000BF00BF70470000FF
:107880002010024070B504460D460F4800780F499D
:107890000968884201D0002070BD0DB90020FBE7C7
:1078A0000BE000BF80210A4802F012FA0028F9D04C
:1078B00020780749091D0880641C2800A5F10101F2
:1078C000CDB2EED100BFE7E7C00000204C000020A1
:1078D0000038014070B505460E4600240B4800886C
:1078E00038B100BF03E000202855601C84B2B442C8
:1078F000F9DB002404E0FDF7E9FA2855601C84B2A6
:10790000024800880028F6D1204670BDC80000203B
:107910002DE9F04105460E46002400BF03E000209B
:107920002855601C84B2B442F9DB002442F210787E
:1079300009E0A8F101001FFA80F8B8F1000F02D1A8
:107940000020BDE8F081214800780028F1D02048CF
:107950000068002838D0002400270CE000F0E8FF81
:10796000FF2804D100F0F8FFFF2800D105E0FDF763
:10797000ADFA781C87B2322FF0DB00BF002410E094
:10798000FDF7A4FA2855601C84B2B44200D10CE083
:1079900000F0CEFFFF2804D100F0DEFFFF2800D169
:1079A00003E00C4800880028EAD100BF094800889D
:1079B00050B9002008490880084908600849088033
:1079C00001200849C1F894012046BAE7CA00002006
:1079D00020012142C8000020C2000020940127425B
:1079E000C40000200000274210B586B004460121E3
:1079F0000420FFF7A3FE01218803FFF79FFE4648FE
:107A000002F018F94FF48070ADF8140004208DF8DE
:107A1000170003208DF8160005A94048FDF7ECF883
:107A20004FF480713D48FDF7C1F94FF40060ADF8A7
:107A3000140010208DF8170003208DF8160005A9FA
:107A40003648FDF7D9F84FF400613448FDF7ACF93A
:107A50004FF48050ADF8140010208DF8170003206B
:107A60008DF8160005A92D48FDF7C6F84FF4805192
:107A70002A48FDF799F94FF40070ADF81400022080
:107A80008DF8160018208DF8170005A92348FDF77A
:107A9000B3F84FF48060ADF8140004208DF817009F
:107AA00005A91E48FDF7A8F825208DF80000002044
:107AB0008DF801008DF8020001208DF80300684662
:107AC000FFF7F0FC01940020ADF80800ADF80A00C3
:107AD000ADF80C00ADF810000C20ADF80E00002140
:107AE0000D4802F09AF80C4802F0A4F801A90A48DF
:107AF00002F04AF9012240F22551074802F01FF92D
:107B0000012240F22441044802F019F901210248FF
:107B100002F083F806B010BD0038014000080140B3
:107B20001FB504464FF41650FFF75EFF01201F49B2
:107B300008601F49C1F8AC01642004F019FD1DA1C3
:107B400003C9CDE902018DF80C401CE0062102A812
:107B5000FFF798FE4FF4FA7004F00AFD0020009041
:107B6000019006216846FFF7B5FE694613A00AF0AA
:107B700085FF00B108E09DF804009DF80C108842D4
:107B800000D101E000BFE1E700BF00200749086025
:107B90000749C1F8AC01642004F0EAFC4FF4E1307D
:107BA000FFF722FF002004B010BD0000B001214209
:107BB00000002142C200003A144000004F4B000078
:107BC000202801D20149087070470000C000002041
:107BD0002DE9F04780460D462621404600F0D6F8B4
:107BE000064616B90020BDE8F08740F2B450864240
:107BF00000DD06462821404600F0C8F80746B94691
:107C0000C7F30A0710213A48FDF7CEF8384600F0CE
:107C1000C3FB182101EB4811C8B200F0ADFB354899
:107C200000F011FD00F0FF0AB819B0F5006F11DA8D
:107C300000240CE0002000F09FFB2E4800F003FD24
:107C400000F0FF0A85F800A06D1C601C84B2B442ED
:107C5000F0DB39E0C7F5006087B200240CE00020BB
:107C600000F08AFB234800F0EEFC00F0FF0A85F8E4
:107C700000A06D1C601C84B2BC42F0DB10211C48CB
:107C8000FDF794F810211A48FDF78EF8002000F057
:107C900083FB182101EB4811C8B200F06DFB1548B9
:107CA00000F0D1FC00F0FF0A0CE0002000F064FBC3
:107CB000104800F0C8FC00F0FF0A85F800A06D1C19
:107CC000601C84B2B442F0DB10210948FDF76EF865
:107CD00009EB06001FFA80F94A462821404602F0C7
:107CE000D3FA40220121404602F0B0FA30467AE74A
:107CF000000801400030014070B5044610210D48D5
:107D0000FDF752F8204600F047FB012000F034FB5D
:107D1000094800F098FCC5B2002000F02DFB064891
:107D200000F091FCC5B210210248FDF73FF828464B
:107D300070BD0000000801400030014070B50446ED
:107D40000D4610210F48FDF72FF8284600F024FBC0
:107D5000082101EB4411C9B241F0010000F00CFB15
:107D6000094800F070FCC6B2002000F005FB064890
:107D700000F069FCC6B210210248FDF717F8304642
:107D800070BD0000000801400030014070B505469C
:107D90000E4610211548FDF707F8304600F0FCFAB2
:107DA000082101EB4511C9B241F0020000F0E4FAEC
:107DB0000F4800F048FC0446002000F0DDFA0C48B3
:107DC00000F041FC0446002000F0D6FA4FF6FF70A8
:107DD00000EA0424064800F036FC204484B2102156
:107DE0000248FCF7E3FF204670BD00000008014098
:107DF0000030014008B501210820FFF79FFC042056
:107E0000ADF8000010208DF8030002208DF802006C
:107E100069460448FCF7F0FE04210248FCF7C6FF5F
:107E200008BD0000000C014009480088401C0849BA
:107E30000880084600884000B0F57A7F06DB002005
:107E4000088004480068401C024908607047000030
:107E5000340000203000002010B5012002490860E5
:107E6000FF2000F0ABF910BD9801224270B5054625
:107E700001220021092000F0EAF9044624B910216A
:107E8000284600F055F90446FFF7E6FF0CB1012043
:107E900070BD0020FCE770B505464FF6FF7401E0A9
:107EA000601E84B2FF2000F089F9A84201D0002CA6
:107EB000F6D10CB9FF2070BD0020FCE77FB5684605
:107EC000FFF7D4FF10B1002004B070BD9DF8000092
:107ED00000F0C000402809D19DF809009DF8081065
:107EE00000EB0120401C84B2A50220E09DF80500B3
:107EF00000F00F009DF80A1000EBD1109DF809105A
:107F000001F0030100EB4100861C9DF80800801180
:107F10009DF8071000EB81009DF8061001F00301A9
:107F200000EB8120441CA6F1090004FA00F5284664
:107F3000CAE70000F8B500F021F900F04AF9002581
:107F400004E0FF2000F03AF9681C85B20A2DF8DB46
:107F5000142600BF95220021084600F078F9044657
:107F6000012C04D03000A6F101018EB2F2D1002024
:107F700051490870012C4AD187224FF4D57108204D
:107F800000F065F9012847D1002506E0FF2000F048
:107F900015F90DF80500681C85B2042DF6DB9DF877
:107FA0000200012879D19DF80300AA2875D14FF667
:107FB000FE7600BF01220021372000F048F901229F
:107FC0009107292000F043F9044624B13000A6F1BE
:107FD00001018EB2EED1002E5FD0012200213A20A5
:107FE00000F035F9002858D1002506E0FF2000F008
:107FF000E5F80DF80500681C85B2042DF6DB9DF848
:10800000000000F0400018B106202B49087044E041
:1080100004202949087040E001220021372000F0A7
:1080200016F901220021292000F011F90446012C43
:1080300017DC0220204908704FF6FE7600BF0122AF
:108040000021372000F003F901220021292000F04F
:10805000FEF80446BCB13000A6F101018EB2EED1AB
:1080600011E00120144908704FF6FE7600BF01228E
:108070000021104600F0EBF8044624B13000A6F1D0
:1080800001018EB2F3D12EB101225102102000F075
:10809000DEF810B1002008490870FFF7DDFE00F09F
:1080A00093F80548007808B10020F8BD0CB12046CF
:1080B000FBE7AA20F9E70000F20000202DE9F041DB
:1080C00006460F46154619480078062800D07F025C
:1080D000012D0CD101223946112000F0B8F80446D8
:1080E000FCB96902304600F023F8044619E0012289
:1080F0003946122000F0ABF8044600BF4FF400717F
:10810000304600F015F8044606F50076681EC0B249
:10811000050001D0002CF1D0012200210C2000F03C
:1081200096F8FFF799FE2046BDE8F081F2000020A6
:1081300070B504460D46FE20FFF7ADFE08B10120E4
:1081400070BD04E0FF2000F07FF92070641C28005F
:10815000A5F101018DB2F5D1FF2000F02FF8FF202D
:1081600000F02CF80020EBE710B500F032F8FF200B
:1081700000F024F800F028F810BD000008B5012137
:108180001020FFF7DBFA10208DF8030003208DF894
:1081900002004020ADF8000069460648FCF72CFDBF
:1081A00040210448FCF702FE00F004F901200249D6
:1081B000086008BD001001409801224210B5044635
:1081C000204600F041F910BD10B5002000F066F91E
:1081D00010BD10B5382000F061F910BD10B50020B9
:1081E0000549086000F06FF808B9002010BDFFF7DE
:1081F00033FE0120FAE700009801224270B50646DE
:108200000D4600F060F808B1012070BD2846FFF768
:10821000D5FFFD2D19D0002404E0305D00F014F9E5
:10822000601C84B2B4F5007FF7DBFF20FFF7C6FFC8
:10823000FF20FFF7C3FFFF20FFF7C0FF044604F055
:108240001F00052801D00220DFE70020DDE72DE92F
:10825000F04105460C4617464FF00008FFF7FCFDBD
:10826000FFF7BCFF10B1FF20BDE8F08145F04000F2
:10827000FFF7A4FF200EFFF7A1FFC4F30740FFF7AD
:108280009DFFC4F30720FFF799FFE0B2FFF796FFC9
:108290003846FFF793FF0C2D02D1FF20FFF78EFF2A
:1082A0004FF01F0800BFFF20FFF788FF064606F0CB
:1082B000800030B15FEA0800A8F1010101F0FF0879
:1082C000F1D13046D0E710B5002400BFFF20FFF702
:1082D00075FFFF2801D1002010BD641C6FF07F40A6
