:020000040800F2
:10280000C8270020712A000857750008A151000848
:102810005375000821450008DFA7000800000000EC
:102820000000000000000000000000000F91000800
:102830009547000800000000FB2A0008C597000823
:102840008B2A00088B2A00088B2A0008DD7E0008EE
:102850008B2A00088B2A00088B2A00088B2A000884
:102860008B2A00088B2A0008554900088B2A00088B
:102870008B2A00088B2A00088B2A00088B2A000864
:102880008B2A00088B2A00088B2A00088B2A000854
:102890008B2A00088B2A00088B2A00088B2A000844
:1028A0008B2A00088B2A00088B2A00088B2A000834
:1028B000A5980008D1980008ED9800088B2A000818
:1028C0008B2A00088B2A00088B2A00088B2A000814
:1028D0008B2A00081DA30008F9A300088B2A000812
:1028E0008B2A00088B2A00088B2A00088B2A0008F4
:1028F0008B2A00088B2A00088B2A00088B2A0008E4
:102900008B2A00088B2A00088B2A00088B2A0008D3
:102910008B2A00088B2A00088B2A00088B2A0008C3
:102920008B2A00088B2A00088B2A00088B2A0008B3
:1029300000F002F800F07CF80AA090E8000C824455
:102940008344AAF10107DA4501D100F071F8AFF232
:10295000090EBAE80F0013F0010F18BFFB1A43F07D
:102960000103184718540100385401000A444FF07D
:10297000000C10F8013B13F0070408BF10F8014BDE
:102980001D1108BF10F8015B641E05D010F8016B23
:10299000641E01F8016BF9D113F0080F1EBF10F887
:1029A000014BAD1C0C1B09D16D1E58BF01F801CBAA
:1029B000FAD505E014F8016B01F8016B6D1EF9D52D
:1029C0009142D6D370470000002300240025002642
:1029D000103A28BF78C1FBD8520728BF30C148BF82
:1029E0000B607047662914F08A86652914F0878683
:1029F000642900F02B81752900F02881782900F0E6
:102A00006181732900F09786002070471FB500F0A0
:102A100097FE04000020002113F04CFE401C606073
:102A20000020002113F05CFEE0601FBD10B510BD5A
:102A300000F086FF1146FFF7E9FF0EF0EFFB00F014
:102A4000A4FF03B4FFF7F2FF03BC08F056F900003F
:102A5000EFF30980704780F309887047EFF308802F
:102A6000704780F30888704740BA7047C0BA704713
:102A70000948804709480047FEE7FEE7FEE7FEE712
:102A8000FEE7FEE7FEE7FEE7FEE7FEE7044805494E
:102A9000034A054B7047000045980008312900089B
:102AA000C8250020C8270020C8250020EFF310808B
:102AB00072B6704780F310887047224C224D256013
:102AC0004FF0000484F30988204C4FF00105257075
:102AD0001F4C4FF08055256062B6FEE730B41C4CA9
:102AE0004FF08055256030BC704730B4184C4FF023
:102AF0008055256030BC704700BF72B6EFF3098087
:102B000028B1203880E8F00F12490968086012489F
:102B100012490A7802700F4811490A680260106869
:102B200090E8F00F203080F309884EF0040E62B672
:102B30007047B0FA80F0704790FAA0F04FEA10406A
:102B40007047000020ED00E00000FFFF440000207F
:102B500004ED00E050000020480000204C00002060
:102B600054000020704710B5044600F03BFB00689D
:102B7000005DC00602D504F1200010BD204610BD46
:102B80000FB41CB5084B06AA7B4469460090059813
:102B900000F0A7FD04460020694600F0B5FD204680
:102BA0001CBC5DF814FB00007D0B000070B50446F2
:102BB00085690068C10601D5302600E02026C007DF
:102BC00007D070BDD4E9012130469047206A401CEF
:102BD00020626D1EF6D570BD70B50446856900781B
:102BE000C00707D170BDD4E9012120209047206A99
:102BF000401C20626D1EF6D570BD70B50C460546B2
:102C0000012A05D02878800600D5EA69002302E071
:102C1000012305E05B1C934202D2E05C0028F9D15D
:102C2000A869E618C01AA861286A184428622846CC
:102C3000FFF7BCFF04E0D5E9012114F8010B904730
:102C4000B442F8D32846FFF7C7FF70BD2DE9F04125
:102C50000646002410687529314616A510D0AFF33A
:102C60000080002802DA404213A507E031688A0795
:102C700001D512A502E0490704D511A5012401E000
:102C8000AFF3008000210A2206F1240709E0B0FB1F
:102C9000F2FCB0FBF2F302FB1C0030307854184613
:102CA000491C0028F3D123462A463046BDE8F041AE
:102CB00000F0ABBA000000002D0000002B00000067
:102CC0002000000070B504460D4621461068AFF3A1
:102CD00000802188090502D50F4A7A4402E00E4A95
:102CE0007A440E32002104F1240305E000F00F06BF
:102CF0000009965D5E54491C0028F7D12078002316
:102D0000000704D5702D02D009B1022311322046EC
:102D1000BDE8704000F079BA154E01002DE9F05F72
:102D2000894604464FF0000ADFF824B1FB44C0F89E
:102D300020A02046E168884700287DD0252806D0BD
:102D4000D4E901219047206A401C2062F1E7002568
:102D50005F462046E16888472028064607DB312E7B
:102D600005D2B81910F8200C08B10543F1E7A807FF
:102D700001D525F00405C4F81CA00027C4F818A04C
:102D80002A2E09D0304607F0B1FF38B304EB87088C
:102D9000303EC8F8186019E059F8041B204604EBCF
:102DA00087029161E1688847012F064618D1E069E2
:102DB000002820DA25F020051DE0D8F8180000EBE7
:102DC000800006EB40003038C8F818002046E16863
:102DD0008847064607F08AFF0028EED1012F0AD067
:102DE0002E2E08D12046E16888477F1C0646022F18
:102DF00045F02005C4DBA069002803DA404245F015
:102E00000105A061E80701D025F01005A6B1A6F1E3
:102E10004100192802D8203645F400654A4631465B
:102E2000204625604D46FFF7DDFD60B1012807D043
:102E3000ED1D25F0070000E007E000F1080978E744
:102E400005F1040975E730467AE7206ABDE8F09F8E
:102E5000EB4D0100401ECAB210F8011F8A4202D099
:102E60000029F9D10020704740EA0103024630B53D
:102E70009B0710D14FF0013400E008C208C91D1BA8
:102E80009D4315EAC41FF8D013F0FF0102F8011B9F
:102E90000DD01B0AF8E711F8013B002B02F8013BAB
:102EA00005D011F8013B002B02F8013BF3D130BDF6
:102EB00010B5431C02E010F8011B71B18107FAD173
:102EC0004FF0013202C88C1A8C4314EAC211F9D0B7
:102ED000C01A0A0603D0C01E10BDC01A10BD0A04D5
:102EE00001D0801E10BD0902FCD0401E10BD40EA7A
:102EF000010370B59B072ED14FF00136042A2AD367
:102F000008C810C99D1B9D43121F15EAC61517D08E
:102F1000D8B2E1B2401A50EA056110D198B2A1B21C
:102F2000401A50EA05410AD123F07F4024F07F4146
:102F3000401A50EA052102D1180EA0EB146070BDB2
:102F4000A342DBD018BA21BA884201D9012070BD52
:102F50004FF0FF3070BD0AB9002070BD10F8013B82
:102F600011F8014B63B1A3420AD1521E08D010F8E8
:102F7000013B11F8014B1BB1A34201D1521EEDD10F
:102F8000181B70BD032A40F2308010F0030C00F0D3
:102F9000158011F8013BBCF1020F624498BF11F893
:102FA00001CB00F8013B38BF11F8013BA2F104024C
:102FB00098BF00F801CB38BF00F8013B11F00303C4
:102FC00000F02580083AC0F0088051F8043B083A28
:102FD00051F804CBA0E80810F5E7121D5CBF51F8CA
:102FE000043B40F8043BAFF30080D20724BF11F844
:102FF000013B11F801CB48BF11F8012B24BF00F8A9
:10300000013B00F801CB48BF00F8012B704710B519
:10301000203AC0F00B80B1E81850203AA0E81850D0
:10302000B1E81850A0E81850BFF4F5AF5FEA027C91
:1030300024BFB1E81850A0E8185044BF18C918C000
:10304000BDE810405FEA827C24BF51F8043B40F8A1
:10305000043B08BF7047D20728BF31F8023B48BF86
:1030600011F8012B28BF20F8023B48BF00F8012BC4
:1030700070474FF000020429C0F0128010F0030CDA
:1030800000F01B80CCF1040CBCF1020F18BF00F85B
:10309000012BA8BF20F8022BA1EB0C0100F00DB80A
:1030A0005FEAC17C24BF00F8012B00F8012B48BF68
:1030B00000F8012B70474FF0000200B5134694460C
:1030C0009646203922BFA0E80C50A0E80C50B1F180
:1030D0002001BFF4F7AF090728BFA0E80C5048BF94
:1030E0000CC05DF804EB890028BF40F8042B08BF32
:1030F000704748BF20F8022B11F0804F18BF00F82E
:10310000012B704710B5044610F0030F08BF11F0F3
:10311000030F40F015804FF0013E121FC0F20E80E9
:1031200051F8043BA3EB0E0C2CEA030C1CEACE1C5A
:1031300008BF40F8043BF0D0A1F1040102F1040201
:10314000521E08DB11F8013B002B00F8013BF7D1C0
:103150001146FFF78EFF204610BD00004FF0013CE6
:1031600050F8042B51F8043B9A4221D1A2EB0C03F6
:10317000934313EACC1317D150F8042B51F8043BB6
:103180009A4215D1A2EB0C03934313EACC130BD153
:1031900050F8042B51F8043B9A4209D1A2EB0C03DE
:1031A000934313EACC13DBD04FF00000704700BF0D
:1031B000D01A01BAB1FA81F101F0180122FA01F036
:1031C000CB40C1F12001DBB2C0B2C01A2CFA01F32E
:1031D000D11A914311EAC311E6D170477047704785
:1031E0007047704710B500F0ABFA001D10BD00BF6E
:1031F000C534010010B500F0A7FA006810BD10B585
:10320000044600F0A1FA046010BD2DE9F0470D4618
:1032100099469246044600F124080168880604D5C0
:10322000E06921F01001216000E00120A84201DDE9
:10323000471B00E00027A1697A1902EB0900081A70
:10324000A0612078C00602D42046FFF7AFFC00261C
:1032500008E0D4E901211AF806009047206A401CD2
:10326000761C20624E45F4DB2078C0060AD5204645
:10327000FFF79CFC06E0D4E9012130209047206A4A
:10328000401C2062381EA7F10107F4DC07E0D4E9F6
:10329000012118F805009047206A401C2062281E72
:1032A000A5F10105F3DC2046FFF796FC2078000627
:1032B00002D50220BDE8F0870120FBE770472DE929
:1032C000FF4F0C461E464FF0FF378BB0D2E900018E
:1032D000DDF860800A908A46C1F30A5505B93D467B
:1032E000002108464FF00000BAF1000F00F4400042
:1032F00005DA00EB80004FF4400101EA50004FEA8C
:103300009059B9F1010F00DDB9460A9850EA4A0018
:103310000ED044F61050A5F2FF3545432F14B8F1F6
:10332000000F1ED07542291E1EDDC9F100021CE0EF
:10333000B8F1010F4FF0000001D0302103E0F2435B
:1033400005E02154401CB042FBDB30460022002146
:1033500021540B99C1F80880C1E900200FB0BDE8E5
:10336000F08FBD1B6D1CDEE74A4600DA694206A8F5
:1033700000F074FA06AB93E8070003AB83E807009C
:1033800050460A9900F007FB8DE80700A0F50050B1
:103390001F3800900398002D09DD42F21F014A46B4
:1033A000084403A90390684600F066FD08E0A0F514
:1033B00000504A461F3803A90390684600F070FD8C
:1033C0008DE807000004000C03D04FF0FF304108E7
:1033D00000E01046B8F1000F03D00022009215461D
:1033E0001EE0751E05D400F0B3F9303262556D1E33
:1033F000F9D5B3460122084302D000227F1C04E025
:103400002078302801D100227F1E002A099786D01B
:103410001DE0112D07DA00F09BF9303262556D1C6A
:1034200050EA0102F5D1084302D00098C8B10EE07D
:103430000021681E05E0235C625C63542254401E38
:10344000491C8142F7DBAB46A81B401E09900020B7
:1034500004F80B000B98099AC0F80880C0E9002B0B
:103460007CE711264FF0000859E72DE9F04F884618
:103470000446D21D22F0070191B0D1E90001CDE947
:103480000A0107F0A9FB02460B98C00F01D02D20BE
:1034900007E02068810701D52B2002E0202101EA06
:1034A000C000032A099001D0072A05DB03464146E4
:1034B000204600F093F90BE12078800601D5E06901
:1034C00000E00620B8F1650F814606D0B8F1660F1E
:1034D00018D0B8F1670F70D131E00020B9F1110FA9
:1034E000009001DB112301E009F101030AAA01A9FF
:1034F0000CA8FFF7E4FEDDE90C70002609F10105D8
:10350000834647E001204B4600904FF000470AAA4F
:1035100001A90CA8FFF7D3FEDDE90DB00C995D46BB
:10352000002610B909F101000D18B9EB050003D40C
:10353000C0F1FF3609F10105A5EB09002BE0B9F157
:10354000010F01DA4FF001090020B9F1110F0090CD
:10355000484601DD112300E003460AAA01A90CA890
:10356000FFF7ADFEDDE90C704D460026834620785E
:1035700000070AD4AB4500DA5D4601A8012D04DD41
:10358000411911F8011C302907D04F4502DA17F113
:10359000040F04DA012082460FE06D1EEEE7002FD3
:1035A00002DCED1B3E4403E0781CA84200DD7D1CDC
:1035B000B81B00F1010A4FF000472078000703D440
:1035C000AA4501DB4FF0FF3A0021B7F1004F0DF1A2
:1035D00043088DF8431024D002202B23002F01DA5A
:1035E0007F422D230A21021EA0F1010000DC5FB101
:1035F00097FBF1FC97FBF1F201FB1C7C17460CF1E9
:10360000300C08F801CDEEE7A8F101000370218825
:10361000090501D5452100E06521A0F1010800F868
:10362000011C09980FA9A1EB0807FF1D00B101209B
:10363000411901EBEA70A1693844081A401EA061E3
:103640002078C00602D42046FFF7B0FA099828B1C6
:10365000D4E901219047206A401C20622078C006EE
:1036600022D52046FFF7A2FA1EE0002E04DBB34568
:1036700002DD01A8805D00E03020D4E901219047FF
:10368000206A401C2062761CAAF101005FEA000A51
:103690000AD100F055F8C0680168405CD4E9012106
:1036A0009047206A401C2062281EA5F10105DCDC41
:1036B00007E0D4E9012118F8010B9047206A401C6B
:1036C0002062381EA7F10107F3DC2046FFF784FAD9
:1036D000032011B043E6000001694A1C026108782A
:1036E000704700B58FB0CDE9013100210591054942
:1036F0007944CDE9031011466846FFF70FFB0FB080
:1037000000BD0000E5FFFFFF0A6802F8010B0A6038
:10371000704710B5436913B1AFF3008001E0FFF7C4
:103720006CFA012010BD127800F124010A70002209
:103730004A700122EDE711684FF0FF32E9E700001F
:103740000048704784250020004870476425002009
:1037500030B5B0F10A024FEA900E71F100034EEA63
:10376000817EB0EB0E0061EB91014FEA101E4EEA34
:10377000017E10EB0E0041EB11114FEA102E4EEAC4
:10378000016E10EB0E0041EB11214FEA104E4EEA94
:10379000014E10EB0E0041EB1141401841F10001C8
:1037A0004FEAD00040EA41704FEAD10110EB8005AA
:1037B0004FEA810444EA907444EB01046D1944EB30
:1037C0000404521BA3414FF0000348BF0A3200D546
:1037D00030BD401C41F1000130BD00002DE9F04139
:1037E0001F46044603260168072A01F4006004DB33
:1037F00008B116A505E016A503E008B115A500E07F
:1038000015A521F010002060A069C01EA0610FB1B5
:10381000401EA0612046FFF7C9F94FB1D4E901214C
:1038200038469047206A401C2062C01C206206E097
:10383000206AFAE7D4E9012115F8010B9047761EBA
:10384000F8D22046FFF7C8F9BDE8F0814E414E009E
:103850006E616E00494E4600696E66002DE9F047C4
:10386000814616468AB0334878440DC88DE80D006D
:1038700030487844801C03AC0DC884E80D0041F644
:103880009B300844372190FBF1F290FBF1F5A5F154
:10389000800501FB12041B3C02D56442012000E0BC
:1038A0000020DFF890A080460027FA44AAF1BE0A63
:1038B0000DE0E00709D03246684607EB47010AEB06
:1038C000810100F0EDFA8DE8070064107F1C002CE8
:1038D000EFD1184F7F44AC3F18E0E80714D007EB56
:1038E00004100DF1180A90E80E008AE80E00C06876
:1038F000F04201D198190890324606A903A800F0B9
:10390000CFFA03AB83E807006D10641C002DE4D1EF
:1039100032466946B8F1000F03A802D000F0ACFAB5
:1039200001E000F0BDFAC9E90001C9F808200AB0B9
:10393000BDE8F087D04301000048704764250020AF
:103940007546FFF7F9FFAE4605006946534620F07D
:103950000700854618B020B5FFF798F8BDE820406D
:103960004FF000064FF000074FF000084FF0000B3B
:1039700021F00701AC46ACE8C009ACE8C009ACE8EE
:10398000C009ACE8C0098D4670470446AFF300801B
:103990002046FFF756F85FEA400C08BF91F0000F91
:1039A0004FEA8C234FEAC12243EA51514FEA1C509F
:1039B00018BF00F5F0404FEA300018BF41F0004159
:1039C0005FEA6C5C00F02980BCF1FF3F08BF40F06B
:1039D00080407047130C06BF12044FF0100C4FF0DC
:1039E000000C130E04BF12020CF1080C130F04BFDD
:1039F00012010CF1040C930F04BF92000CF1020CA5
:103A0000D30F04BF52000CF1010C11464FF000021D
:103A1000A0F11F00A0EB0C00704711F0004F08BF91
:103A2000704731F000413FF4D5AF0B0C06BF0904DD
:103A30004FF0100C4FF0000C0B0E04BF09020CF1FC
:103A4000080C0B0F04BF09010CF1040C8B0F04BF11
:103A500089000CF1020CCB0F04BF49000CF1010CE2
:103A6000CCF12003A0EB0C0022FA03F302FA0CF2D3
:103A700041EA030100F10100704720F07F4C80EA29
:103A8000030023F07F47ACEB070303F57C5300F002
:103A9000004003F1FF032DE980494FEA154B09B4BB
:103AA0004FEA144325EA0B4E24EA03480FF204269A
:103AB00006EB132749083E785FEA320203FB0667EC
:103AC000C7F5000707FB06F64FEA54374FEAD6461C
:103AD00006F1020607FB066CCCF1005C4FEA1C47BE
:103AE0002CEA074C07FB06F40CFB06F504EB154625
:103AF0004FEA961634BF00204FF000404FEAD1370E
:103B000006FB07FC4FEA1C4C0CFB0BF7D21B03FB1C
:103B10000CF761EB07010CFB0EF7B0EB074072EB03
:103B200017420CFB08F734BFA2EB0742B2EB074287
:103B300061EB17414FEA0C444FEA910706FB07FC83
:103B40004FEA1C4C0CFB0BF7B0EBC74072EB573243
:103B500003FB0CF734BFA2EBC742B2EBC74261EBE9
:103B600057310CFB0EF7B0EBC70072EB57720CFB32
:103B700008F734BFA2EBC702B2EBC70261EB577183
:103B8000039F4FEA816141EA921104EBCC044FEAB2
:103B9000D1374FEA826206FB07FC42EA90124FEAF5
:103BA00080604FEA1C4C0CFB0BF7D21B03FB0CF79D
:103BB00061EB07010CFB0EF7B0EB074072EB17420D
:103BC0000CFB08F734BFA2EB0742B2EB074261EBF4
:103BD00017414FEA8C554FEA910704EB9C2406FBF2
:103BE00007FC4FEA1C4C0CFB0BF7B0EBC74072EB29
:103BF000573203FB0CF734BFA2EBC742B2EBC7420C
:103C000061EB57310CFB0EF7B0EBC70072EB57724C
:103C10000CFB08F734BFA2EBC702B2EBC70261EBA3
:103C2000577115EB4C254FEA816141EA92114FEA39
:103C300082624FEAD13742EA901206FB07FC44F158
:103C400000044FEA80604FEA1C4C0CFB0BF7D21BC0
:103C500003FB0CF761EB07010CFB0EF7B0EB074021
:103C600072EB17420CFB08F734BFA2EB0742B2EB32
:103C7000074261EB174115EB1C154FEA813141EA10
:103C800092414FEA823242EA90424FEA80304FEA54
:103C90000C7644F1000448EA03434EEA0B484FF027
:103CA000000EB2EB080C71EB030724BF62463946E5
:103CB0004EEB0E0E4FF0000B0018524149414BEBFA
:103CC0000B0BB2EB080C71EB03077BF1000B24BF6D
:103CD000624639464EEB0E0E4FF0000B0018524173
:103CE00049414BEB0B0BB2EB080C71EB03077BF17B
:103CF000000B24BF624639464EEB0E0E51EA020716
:103D000018BF46F0010616EB0E7655F1000254F18D
:103D1000000103D5BDE88901BDE80088BDE889013F
:103D2000BDE80048B619524141EB0101A3F101037E
:103D3000704780807F7E7D7C7B7A79787776767518
:103D40007473727171706F6E6E6D6C6C6B6A6A6990
:103D50006868676666656464636362616160605F2A
:103D60005F5E5E5D5D5C5C5B5B5A5A5959585857A3
:103D7000575656555555545453535252525151500B
:103D800050504F4F4F4E4E4D4D4D4C4C4C4B4B4B5E
:103D90004A4A4A49494948484847474747464646A4
:103DA00045454544444444434343434242424241DF
:103DB0004141002B26D4770021D01CB54FEA3707AC
:103DC00003B44FF010004FF010014FF000000FBC93
:103DD000BDE810400BF1010BBBF1010F08BF5FEA1A
:103DE000170722BF12F1010211F101014FF000414A
:103DF00043F1000300F0004043EA00007047F9D3AC
:103E00005708DAE746EA064613F1400F4FEA16462E
:103E10001FDD13F1200FDFBF16430A4600212033B8
:103E20005B42C8D0C3F1200746EA064602FA07F70C
:103E30004FEA164646EA0706C3F1200722FA03F2C4
:103E400001FA07F721FA03F14FF0000342EA0702F3
:103E5000B1E746EA020646EA06464FEA164646EA51
:103E60000106BCBF46EA0646360C4FF000034FF091
:103E700000024FF000019EE72DE9C048934630B4A0
:103E800091E8380007C831EA400C48BF34EA430CD7
:103E900003D5FFF7F2FDFFF78CFFF0BCBDE800880B
:103EA0002DE9C048934630B491E8380007C810F0B7
:103EB000804F08BF13F0804F03D100F005F8FFF7E3
:103EC00078FFF0BCBDE8008820F07F4780EA03005F
:103ED00023F07F4C07EB0C03A3F57C5300F000406C
:103EE000A3F1FE0392F0000F00F0B38095F0000FF5
:103EF00000F077802DE901494FEA11404FEA14465E
:103F000021EA004800FB06FC24EA064708FB06F607
:103F100007FB08F800FB07F718EB06484CEB164CBC
:103F20004FEA124B18EB07484FEA15464CEB174087
:103F300022EA0B4E0BFB06FC25EA06470EFB06F6B3
:103F400007FB0EFE0BFB07F71EEB064E4CEB164C69
:103F50004FF000061EEB074E4CEB174B18EB0B080F
:103F600040F1000018EB0E0B58EB000840F1000088
:103F70008F1A4FF000013CBFC943661B14BFB5EB5D
:103F8000040C00213CBFC943F61B4FEA17444EEA1C
:103F90008E0E27EA04454FEA1C4704FB07622CEA11
:103FA000074C05FB07F70CFB05F604FB0CFC16EBB6
:103FB000074642EB174216EB0C4642EB1C421BEB4A
:103FC000060658EB0202414146EA9E0601D5BDE8CD
:103FD0000189B619524141EB0101A3F10103BDE88A
:103FE00001894FEA14454FEA114724EA054621EAC0
:103FF000074C05FB07F406FB07F70CFB06F105FB76
:104000000CFC11EB074144EB17444FEA124711EB4C
:104010000C4144EB1C4422EA074C05FB07F206FB6B
:1040200007F70CFB06F605FB0CFC16EB074642EB0C
:10403000174216EB0C4642EB1C456A1854F100017E
:1040400048BF7047B619524141EB0101A3F101038A
:10405000704795F0000F37D04FEA11424FEA1447EE
:1040600021EA024624EA074C02FB07F106FB07F7A8
:104070000CFB06F402FB0CFC14EB074441EB17416C
:104080004FEA154714EB0C4441EB1C4125EA074C61
:1040900002FB07F506FB07F70CFB06F602FB0CFC20
:1040A00016EB074645EB174516EB0C4645EB1C4255
:1040B000121951F1000148BF7047B619524141EB46
:1040C0000101A3F1010370474FEA14454FEA11477C
:1040D00024EA054621EA074C05FB07F106FB07F732
:1040E0000CFB06F24FF0000605FB0CFC12EB07423E
:1040F00041EB174112EB0C4251EB1C4148BF70479A
:10410000921841EB0101A3F10103704710B50BF0C8
:1041100099FA408C012804D10BF094FA00214184D3
:1041200003E00BF08FFA012141840BF08BFA90F839
:104130002240214606200CF0DFF910BD1CB510A16D
:1041400003C9CDE900010BF07DFA808A01280BD16B
:1041500000208DF807000821684601F069FA0BF08D
:1041600071FA002181820AE00BF06CFA0121818250
:1041700001208DF807000821684601F059FA1CBD9E
:104180005AA505821009000008B50121102003F08E
:1041900031FB4FF40050ADF8000010208DF8030003
:1041A00002208DF802006946074800F04DFD00200E
:1041B00003F0CEFB4FF40051034800F019FE034812
:1041C00006F0E8FD08BD000000100140154400089D
:1041D00010B5012003F02EFB002003F02BFB10BDD7
:1041E00008B501460020009003480090009808445C
:1041F00000900098008808BD006C004008B50022BF
:104200000092044A0092009A02440092009A1160BF
:1042100008BD0000006C00400EB500200090019029
:10422000029003208DF8000002208DF8010000208C
:104230008DF802008DF8030002208DF804008DF83F
:1042400005006946052011F051FA0EBD0EB500209B
:1042500000900190029002208DF800008DF801007E
:1042600000208DF802008DF8030002208DF8040074
:104270008DF805006946052011F038FA0EBD0EB51F
:10428000002000900190029004208DF80000022090
:104290008DF8010000208DF802008DF80300022047
:1042A0008DF804008DF805006946052011F01EFA0E
:1042B0000EBD0EB5002000900190029005208DF8F3
:1042C000000002208DF8010000208DF802008DF81A
:1042D000030002208DF8040001208DF805006946D6
:1042E000052011F003FA0EBD0EB5002000900190DC
:1042F000029002208DF800008DF8010000208DF85A
:1043000002008DF8030002208DF8040001208DF8D2
:1043100005006946052011F0E9F90EBD7FB5054697
:104320000024394B0FCB8DE80F0038480078012866
:1043300000D17FBD0120354908704FF416700EF092
:10434000C1FA334908600846006800B9F1E74AE05D
:10435000287830383DF8100061002D4A126822F8A4
:10436000110068785F280DD16100294A126832F87F
:10437000110000EBD07149106200254B1B6823F837
:10438000121010E068787E280DD16000204909687D
:1043900031F810004FF6FF7101EA400061001C4A3D
:1043A000126822F81100A8793038082191FBF0F04A
:1043B000012101EB4401164A126822F81100012084
:1043C00000EB44001249096831F8100029793039AE
:1043D0004843012101EB44010D4A126822F8110003
:1043E0000835601C84B228780028B1D1012101EB86
:1043F0004401074A126822F811000121880705F0DC
:104400008EFB00BF95E700000C78010870000020CB
:104410007400002010B53B480068002870D03A486E
:10442000008840003749096831F81000374991FB8E
:10443000F0F437480068401C35490860354800688A
:10444000401C3449086064B1601F314909688842E2
:1044500003D201203049086006E000202E490860A0
:1044600002E000202C4908602748008840002549C8
:10447000096831F81000254991FBF0F024490968DA
:10448000884202D80020224908601F480088012184
:1044900001EB40001B49096831F8100040F271211E
:1044A00048431C490968B1EB001F28D3164800880F
:1044B000401C1549088000201649086012480088F1
:1044C000012101EB40000F49096831F81000B0B933
:1044D00000200D4908800F4908600D49086009480F
:1044E00000680EF0DBF90020064908600A49086000
:1044F0000A49087000214FF0804005F010FB00BF12
:1045000010BD00007400002078000020A08601008B
:10451000800000207C000020B401224270000020B6
:1045200003F068F870B50546002401240AE000F0A5
:1045300067FC610030F81100A84201D1012070BD74
:10454000601C84B200F05CFC610030F811000028AF
:10455000EDD100BFF3E70000002000BF04E0002120
:10456000034A1154411C88B23A28F8DB7047000016
:104570006E2200207FB505460C46002600200190E3
:10458000029003900090FF208DF804008DF8050044
:1045900028128DF80600E8B28DF8070001208DF88A
:1045A000080000208DF8090002208DF80A00002084
:1045B0008DF80B0010208DF80C006A46092101A827
:1045C00000F0D8FC9DF800008DF80D009DF801006A
:1045D0008DF80E000B2101A803F0E2F900BF30E0D6
:1045E000C8200AF0A3F91921204603F01FFA30B3BE
:1045F000A079C11D6A46204600F0BCFC9DF8001061
:10460000A079C01D205C814219D19DF80110A079CC
:104610000830205C814212D1E078A17840EA012084
:10462000A8420CD120799DF8081041F08001884201
:1046300005D1207AE17940EA012004B070BD701CF8
:10464000C6B2052ECCDB0A20F7E72DE9F0418EB08B
:1046500004460D4616461F464FF000080020029003
:104660000390049005900190FF208DF808008DF8CC
:10467000090020128DF80A00E0B28DF80B0003202B
:104680008DF80C0000208DF80D0003208DF80E0031
:104690008DF80F508DF810608DF8117001AA0A2165
:1046A00002A800F067FC9DF804008DF812009DF848
:1046B00005008DF813000C2102A803F071F900BF6A
:1046C0003DE0C8200AF032F9182106A803F0AEF93F
:1046D00080B39DF81E00C11D01AA06A800F04AFC87
:1046E0009DF804109DF81E00C01D06AA105C8142B2
:1046F00021D19DF805109DF81E000830105C814204
:1047000019D19DF81B009DF81A1040EA0120A04223
:1047100011D19DF81C009DF80C1041F080018842D9
:1047200009D19DF820009DF81F1040EA01200EB02D
:10473000BDE8F081FFE708F101001FFA80F8B8F149
:10474000050FBEDB0A20F2E72DE9F04706460F46CB
:1047500090461C464FF0004020FA04F50C480068D3
:10476000284010B10120BDE8F087094800682843BF
:1047700007490860002342463946304602F076FF7A
:10478000814622464946304602F0F2FF0020EAE721
:104790006800002002F02EFF10B50446A0B20AF017
:1047A000C5F810BDFEB504460E4615460020009023
:1047B0000190029002208DF80000022C52D1A6B385
:1047C000012D17D101208DF801008DF802006946F6
:1047D000042010F08BFF6946022010F087FF0020B4
:1047E0008DF8010002208DF802006946042010F0C7
:1047F0007DFFADE0022DFCD101208DF801000220EB
:104800008DF802006946042010F070FF694602200E
:1048100010F06CFF00208DF8010001208DF80200DF
:104820006946042010F062FF92E0FFE700208DF857
:10483000010001208DF802006946042010F056FFA7
:104840006946022010F052FF00208DF8010002207E
:104850008DF80200694610F049FF6946042010F007
:1048600045FF75E0032C01D0052C51D19EB3012DDD
:1048700017D101208DF8010003208DF80200694650
:10488000042010F033FF6946022010F02FFF0020B3
:104890008DF8010004208DF80200694610F026FF13
:1048A00056E0022D54D101208DF8010004208DF82E
:1048B0000200694610F01AFF6946022010F016FF48
:1048C00000208DF8010003208DF8020069460420C5
:1048D00010F00CFF3CE0FFE700208DF80100042001
:1048E0008DF80200694610F001FF6946022010F0C1
:1048F000FDFE00208DF8010003208DF802006946BE
:10490000042010F0F3FE6946022010F0EFFE1FE0D5
:10491000042C1DD176B101208DF8010006208DF800
:1049200002006946042010F0E1FE6946022010F002
:10493000DDFE0DE000208DF8010006208DF802005C
:104940006946042010F0D2FE6946022010F0CEFE27
:10495000FEBD000070B500240025102000F06CF8AA
:1049600000285ED0102000F061F800BF152003F091
:104970008DFC044604F0F001152006F075F8294876
:104980000078204327490870172003F07FFC044675
:1049900004F0010090B10221002003F099FC0546CB
:1049A0002A460221002006F08FF81F48007828438D
:1049B0001D4908700121072005F006FA04F00200E5
:1049C000022812D10221012003F082FC05462A466A
:1049D0000221012006F078F8134840782843124954
:1049E00048700121072005F0EFF904F004000428C5
:1049F00012D10221084603F06BFC05462A4602212B
:104A0000084606F061F8084880782843064988700F
:104A10000121072005F0D8F9172003F037FC002802
:104A2000A4D170BDFC000020FD00002001490860F9
:104A30007047000014040140014600200022074B8B
:104A40001B6803EA0102054B14331B680B4013B1CA
:104A50000AB1012000E0002070470000000401407E
:104A6000002123498279002A3AD00A461268036855
:104A70009A430B461A600A1D126803689A430B1D7D
:104A80001A60027911440A6803681A430A60184AD6
:104A90000832126803689A43154B08331A601A1DCE
:104AA000126803689A43124B0C331A604279102A39
:104AB0000ED11A1F126803681A430D4B08331A608F
:104AC0001A1D126803681A43094B0C331A600DE073
:104AD0000749427911440A6803681A430A6005E0ED
:104AE000027911440A6803689A430A60704700001B
:104AF0000004014030B5044604254FF4302000F096
:104B00006FF80546042D17D10C48006940F00200EB
:104B10000A49086108464461006940F040000861A4
:104B20004FF4302000F05CF805460448006941F677
:104B3000FD71084001490861284630BD002002404F
:104B400004200B49C96801F0010109B101200EE000
:104B50000749C96801F0040109B1022007E00449CE
:104B6000C96801F0100109B1032000E0042070477A
:104B7000002002400348006940F0800001490861BC
:104B8000704700000020024070B504460D46042620
:104B9000F00200F025F80646042E11D109480069FC
:104BA00040F00100074908612580F00200F018F884
:104BB00006460448006941F6FE7108400149086153
:104BC000304670BD00200240024803494860034857
:104BD000486070472301674500200240AB89EFCD54
:104BE00000B502460423FFF7ABFF034603E0FFF7DF
:104BF000A7FF0346521E012B01D1002AF7D102B9AB
:104C00000523184600BD000030B500228B071C0F9D
:104C10000F2303FA04F20B4B8C1053F82430934308
:104C2000084C8D1044F8253023468C1053F824305E
:104C30008C07240F00FA04F42343024C8D1044F82F
:104C4000253030BD080001402DE9F0410246002525
:104C50000026002000230024002791F803C00CF058
:104C60000F0591F803C00CF0100CBCF1000F03D03D
:104C700091F802C04CEA050591F800C0BCF1000FA4
:104C800031D0146800202BE04FF0010C0CFA00F337
:104C9000B1F800C00CEA03069E4220D183004FF019
:104CA0000F0C0CFA03F7BC4305FA03FC4CEA0404AE
:104CB00091F803C0BCF1280F06D14FF0010C0CFA9B
:104CC00000FCC2F814C00AE091F803C0BCF1480F20
:104CD00005D14FF0010C0CFA00FCC2F810C0401CCA
:104CE0000828D1D31460B1F800C0BCF1FF0F34DD47
:104CF000546800202EE000F1080C4FF0010808FA7B
:104D00000CF3B1F800C00CEA03069E4221D18300E7
:104D10004FF00F0C0CFA03F7BC4305FA03FC4CEA06
:104D2000040491F803C0BCF1280F05D100F1080C70
:104D300008FA0CF8C2F8148091F803C0BCF1480FCF
:104D400007D100F1080C4FF0010808FA0CF8C2F87E
:104D50001080401C0828CED35460BDE8F0810000CC
:104D6000F0B50A46002300240021002500F000468B
:104D7000B6F1004F02D11D4EF16901E01B4E716882
:104D8000C0F3034583B200F44016B6F5401F08D1C6
:104D900021F07061154E766826F07066134F7E60C4
:104DA00012E000F48016B6F5801F06D1032606FA3D
:104DB00005F4A14341F0706106E0460D360103FAA7
:104DC00006F6B14341F0706122B1460D360103FA97
:104DD00006F6314300F00046B6F1004F02D1034E13
:104DE000F16101E0014E7160F0BD00000000014082
:104DF0004161704701617047004870478824002076
:104E000000487047F82200200246002100BF0DE054
:104E1000012000EB41000A4B13F81000904203D12F
:104E2000480033F810007047481C81B2012000EBA5
:104E30004100034B33F810000028E9D100BFF2E72E
:104E40000A01002000B502460021012112E0FFF70F
:104E5000D7FF4B0030F81300904209D1FFF7D0FF85
:104E6000012303EB410330F8130000F47F4000BD41
:104E7000481C81B2FFF7C4FF4B0030F81300002834
:104E8000E5D1FF20F3E700B50246002100BF10E0A6
:104E9000FFF7B6FF4B0030F81300904207D1FFF741
:104EA000AFFF012303EB410310F8130000BD481CC2
:104EB00081B2FFF7A5FF4B0030F813000028E7D1BF
:104EC000FF20F3E730B502460B4600210024012104
:104ED00014E0FFF795FF012505EB410510F81500DB
:104EE000904209D19C4205D1FFF78AFF4D0030F86E
:104EF000150030BD601C84B2481C81B2FFF780FFF2
:104F0000012505EB410530F815000028E1D100BF6F
:104F1000EFE7000013490988322904DA1249114ADF
:104F20001288885C05E000210E4A11800E49128823
:104F3000885C00210D4A11600B4A0A4B1B88D15432
:104F40000B49098821B10A490988491E084A11807C
:104F50000121064A116003490988491C014A118050
:104F600070470000BE0000203C2200209401274230
:104F7000C4000020F0B50B46FF24FF2509E010F81F
:104F8000016B86EA0401074E765C86EA0504064E4C
:104F9000755C1E00A3F10107BBB2F0D1147055700F
:104FA000F0BD0000747801087479010810B501465D
:104FB0004A1E034B985C00234A1E014CA35410BDAB
:104FC0008400002000B5FFF71BFF008800BD00B57E
:104FD000FFF716FF90F8660100BD00B5FFF710FF60
:104FE00000F5B47000BD000010B50446002300BFFA
:104FF00004E00548C05CE054581C83B23A2BF8DB4F
:10500000FFF7AAFA184610BD6E220020F8B5064632
:105010000C460025002000900027194806602078E3
:10502000FF281CD16078FF2819D1A079617940EA66
:105030000120C01D85B2382D00DDF8BD6A46294625
:105040002046FFF797FF605D9DF80010884206D16B
:10505000681C205C9DF80110884200D1012767B1CF
:105060002079052803D1204606F025FA04E0052121
:10507000204606F079FA00BF00BF00BFDDE7000060
:10508000840100200146002000BF04E0034A125CB6
:105090000A54421C90B20628F8DB70479A000020A0
:1050A00010B50023154C2360002020E030B9C0F17A
:1050B0000603134CE35CDB43DAB203E0C0F1060302
:1050C0000F4CE25C00210FE000230C4C241D2360F8
:1050D000C1F1070342FA03F30A4CC4F880310123FB
:1050E000064C241D2360491C0829EDDB401C0728C1
:1050F000DCDB0123014C236010BD0000880122424B
:105100009A0000200000224210B50AF09BFAC08BE2
:1051100001280ED1012108460BF0EEF9642009F0B8
:105120001FFC002102200BF0E7F9642009F018FCB5
:1051300021E00AF087FAC08B02280ED1002101205D
:105140000BF0DAF9642009F00BFC012102200BF0CE
:10515000D3F9642009F004FC0DE0002101200BF0DC
:10516000CBF9642009F0FCFB002102200BF0C4F90C
:10517000642009F0F5FB0AF065FA408C012807D19C
:10518000012106200BF0B8F9642009F0E9FB06E0E4
:10519000002106200BF0B0F9642009F0E1FB10BDFE
:1051A00002F028FA4CF6CC40014908607047000034
:1051B0000030004010B500F01DF810BD70B5044679
:1051C00007254FF6FF7000EA44142046E11704EB70
:1051D00011610E1245F2555000F020F8284600F0FB
:1051E00011F8304600F014F800F004F8FFF7DAFF89
:1051F00070BD00004AF6AA2001490860704700000F
:105200000030004001494860704700000030004015
:105210000149886070470000003000400149086083
:1052200070470000003000401CB5044609A103C9C6
:10523000CDE90001E07960B9207A052809D1607ACA
:105240000D2806D1A07AC02803D10621684600F0B7
:10525000EFF91CBD5AA503804F0200000146CA1792
:1052600001EB92729210A1EB820292B9642091FB41
:10527000F0F200FB121050B94FF4C87091FBF0F23D
:1052800000FB121008B9012070470020FCE7012044
:10529000FAE70020F8E7000010B5FF247E48006818
:1052A000A8B97E48007810BB03207D4908707D486E
:1052B0000078401C7B49087008460078502816DBAF
:1052C0000220774908700120744908700FE0754882
:1052D0000078012806DD73480078502802DA0120A2
:1052E0006F49087000206F4908706C4908706E485B
:1052F0000068A8B96948407810BB03206849487025
:1053000068484078401C67494870084640785028F3
:1053100016DB0220624948700120604948700FE0A6
:1053200060484078012806DD5E484078502802DA5F
:1053300001205B49487000205A494870574948701D
:105340005548001D0068A8B95448807810BB032058
:105350005349887053488078401C524988700846E9
:105360008078502816DB02204D49887001204B4977
:1053700088700FE04B488078012806DD4948807826
:10538000502802DA0120464988700020454988707B
:105390004249887045480068A8B94048C07810BBA9
:1053A00003203F49C8703F48C078401C3D49C87041
:1053B0000846C078502816DB02203949C870012001
:1053C0003649C8700FE03748C078012806DD3548F7
:1053D000C078502802DA01203149C87000203149D4
:1053E000C8702E49C8702C4808300068A8B92B48EE
:1053F000007910BB03202A4908712A480079401C13
:105400002849087108460079502816DB02202449F3
:1054100008710120214908710FE022480079012814
:1054200006DD20480079502802DA01201C49087165
:1054300000201C490871194908711C48001F0068A8
:10544000A8B91648407910BB032015494871154882
:105450004079401C1349487108464079502816DBB2
:1054600002200F49487101200C4948710FE00D4896
:105470004079012806DD0B484079502802DA0120E6
:1054800007494871002007494871044948710121C2
:10549000084604F099FC10BD1C0122429000002037
:1054A000840000208A000020000121422481214242
:1054B00010B50121042002F09DF90121082002F01D
:1054C00099F90121102002F095F90121084602F016
:1054D00091F9024805F04AFC10BD000099520008FD
:1054E00010B586B004460121042002F083F90121A1
:1054F000082002F07FF90121480402F05BF94FF423
:105500008050ADF8140010208DF8170003208DF89E
:10551000160005A92A48FFF797FB0420ADF81400F0
:1055200018208DF8170005A92648FFF78DFB0820E5
:10553000ADF8140004208DF8170005A92148FFF7E5
:1055400083FB0121480402F045F900214FF40030AB
:1055500002F040F901940020ADF80800ADF80A000F
:10556000ADF80C00ADF810000C20ADF80E0001A94C
:10557000154805F047F826208DF8000000208DF82A
:10558000010002208DF8020001208DF8030068461A
:1055900001F0E4FF012240F225510B4805F00DF81F
:1055A000012240F22441084805F007F8012106488D
:1055B00004F071FF00200549086006B010BD00002E
:1055C000000C01400008014000440040B08121422D
:1055D0002DE9F04105460C461048067800270020CA
:1055E00020800F480078012816D100200D4908605E
:1055F0000A480078208032460B4928460DF078F999
:105600003246002108480DF080F900200349087057
:1056100001200649C1F89401BDE8F08197000020FF
:1056200098000020948108427621002000800842E2
:1056300070B505460E4601200E49086000240CE0B6
:1056400000BF40210C4804F081FF0028F9D0295DFB
:10565000094805F048F8601CC4B2B442F0DB00BF52
:105660004021054804F072FF0028F9D000200149CC
:10567000086070BDB081214200440040202801D262
:1056800001490870704700009600002000B509F03D
:10569000D9FF408C00BD00B50146052904DA09F0A8
:1056A000D1FF30F8110000BD0020FCE700B5014635
:1056B00009F0C8FF418400BD00B50246052A03DA9F
:1056C00009F0C0FF20F81210002000BD08B501212C
:1056D000102002F08FF80F20ADF8000010208DF898
:1056E000030003208DF8020069461B48FFF7ACFA5F
:1056F00000201A4908601A49C1F8A00101210820B8
:1057000002F078F80120ADF8000010208DF80300B9
:1057100003208DF8020069461248FFF795FA01212F
:10572000042002F067F80220ADF8000010208DF888
:10573000030003208DF8020069460B48FFF784FA46
:1057400000200A490860FFF7ABFC00200449C1F8BB
:1057500084010BF05DFB08BD001001409C0122425A
:1057600000002242000C01400008014080812142DB
:1057700070B50024FFF744FB0546C82229461D48A2
:1057800003F08AFB00BF0EE0FFF73AFB30F814008D
:105790004FF6FF71884204D1FFF732FB002120F859
:1057A0001410601C84B2C82CEEDB002417E004F057
:1057B000010090B1FFF724FB00EB4401087808805A
:1057C000FFF71EFB10F8140038B1FFF719FB00EBD0
:1057D0004401088840F400600880601C84B2642C96
:1057E000E5DBFFF70DFB811C408840F480700880EA
:1057F00070BD000028FC03087CB500240020009048
:10580000019009F01FFF808BADF8000009F01AFF2E
:10581000C08BADF8020009F015FF008CADF8040054
:1058200009F010FF408CADF8060009F00BFF0546AB
:1058300014222946124803F02FFB00BF0EE009F0A6
:1058400001FF30F814004FF6FF71884204D109F0CF
:10585000F9FE002120F81410601C84B2142CEEDB39
:1058600009F0F0FEBDF80010818309F0EBFEBDF8F1
:105870000210C18309F0E6FEBDF8041001847CBD6E
:1058800000FC03081CB500200090019006220F497F
:105890000F480DF02DF80D49891D062268460DF0C0
:1058A00027F8002008E00A49095C1DF8002011448F
:1058B000074A1154411CC8B20628F4DB044800789A
:1058C00000F0FE00024908701CBD0000E8F7FF1F51
:1058D000F600002070B54FF4C8600CF0F3FF0546E9
:1058E0002C4614A214A1204610F0D6F8083411A2B8
:1058F00012A1204610F0D0F808340EA210A12046C4
:1059000010F0CAF808340BA20EA1204610F0C4F81B
:1059100008340DA20DA1204610F0BEF80834204630
:1059200009F0CAFF2846FEF7F9FC28460CF0B6FF3E
:1059300070BD0000312F320035000000340000003F
:105940003300000032000000312F31003100000030
:1059500070B54FF4C8600CF0B5FF05462C46FEA2AA
:10596000FEA1204610F098F80834FDA2FDA12046C3
:1059700010F092F80834FCA2FCA1204610F08CF83C
:105980000834FBA2FBA1204610F086F80834F6A2EA
:10599000F9A1204610F080F80834F1A2F3A12046C6
:1059A00010F07AF80834F0A2EEA1204610F074F856
:1059B0000834EDA2EDA1204610F06EF80834EAA2FA
:1059C000E8A1204610F068F80834E3A2E9A12046D7
:1059D00010F062F80834E9A2E9A1204610F05CF862
:1059E0000834DDA2DDA1204610F056F80834DCA210
:1059F000DCA1204610F050F80834DBA2DBA12046E1
:105A000010F04AF80834DAA2DAA1204610F044F87F
:105A10000834D5A2D8A1204610F03EF80834D2A20E
:105A2000D2A1204610F038F80834CBA2CDA12046F0
:105A300010F032F80834CEA2C8A1204610F02CF89D
:105A40000834C5A2C7A1204610F026F80834C8A221
:105A5000C8A1204610F020F80834BFA2BFA12046FC
:105A600010F01AF80834BCA2C2A1204610F014F8B5
:105A70000834BDA2BBA1204610F00EF80834BAA22B
:105A8000BAA1204610F008F80834B9A2B5A1204602
:105A900010F002F80834B0A2B7A120460FF0FCFFC6
:105AA0000834ADA2B1A120460FF0F6FF0834ACA235
:105AB000ACA120460FF0F0FF0834A7A2ADA120460C
:105AC0000FF0EAFF0834ADA2ADA120460FF0E4FFCD
:105AD0000834A1A2A1A120460FF0DEFF08349EA247
:105AE000A4A120460FF0D8FF08349BA29BA120461A
:105AF0000FF0D2FF083498A2A2A120460FF0CCFFED
:105B0000083495A29BA120460FF0C6FF083492A24C
:105B10009CA120460FF0C0FF08348FA29AA1204616
:105B20000FF0BAFF083492A298A120460FF0B4FFFC
:105B3000083497A293A120460FF0AEFF08348AA242
:105B40008CA120460FF0A8FF083489A283A120462B
:105B50000FF0A2FF083480A286A120460FF09CFF20
:105B600008347FA287A120460FF096FF08347EA25A
:105B700081A120460FF090FF083486A27DA1204627
:105B80000FF08AFF083478A280A120460FF084FF2E
:105B9000083475A27CA120460FF07EFF083472A263
:105BA00078A120460FF078FF08346FA26BA1204641
:105BB0000FF072FF08346CA277A120460FF06CFF43
:105BC000083465A265A120460FF066FF083466A27E
:105BD00068A120460FF060FF083465A265A1204649
:105BE0000FF05AFF083460A262A120460FF054FF64
:105BF00008345FA259A120460FF04EFF08345AA284
:105C00005CA120460FF048FF083453A25DA1204656
:105C10000FF042FF083450A250A120460FF03CFF85
:105C2000083451A254A120460FF036FF08344EA28A
:105C300050A120460FF030FF083447A249A120466A
:105C40000FF02AFF083444A248A120460FF024FF99
:105C5000083441A243A120460FF01EFF08344FA292
:105C600044A120460FF018FF08343FA241A120466E
:105C70000FF012FF08343EA238A120460FF00CFFAF
:105C8000083435A23BA120460FF006FF083434A2A9
:105C90003CA120460FF000FF083433A236A1204675
:105CA0000FF0FAFE083430A232A120460FF0F4FEC5
:105CB00008342DA235A120460FF0EEFE08342AA2AA
:105CC00031A120460FF0E8FE083427A22DA120467E
:105CD0000FF0E2FE083424A220A120460FF0DCFEE3
:105CE000083421A22CA120460FF0D6FE08341AA2B7
:105CF0001AA120460FF0D0FE083420A21DA1204694
:105D00000FF0CAFE083418A21AA120460FF0C4FEF4
:105D1000083417A211A120460FF0BEFE083412A2CB
:105D200014A120460FF0B8FE08340BA21CA1204697
:105D30000FF0B2FE08340AA214A120460FF0ACFE08
:105D4000083409A216A120460FF0A6FE083408A2C6
:105D50000DA1204626E00000312F31003600000062
:105D6000332F320032000000312F320031000000AA
:105D7000322F31003300000030000000352F320098
:105D8000365F000037000000317E0000327E0000E8
:105D9000362F3100312F330035000000332F310012
:105DA000337E00000FF078FE0834AFF25402AFF2F9
:105DB0002C0120460FF070FE0834AFF22C02AFF237
:105DC000640120460FF068FE0834204609F074FD97
:105DD0002846FEF7A3FA28460CF060FD70BD0000CF
:105DE00070B54FF4C8600CF06DFD05462C46FEA260
:105DF000FEA120460FF050FE0834FDA2FDA1204672
:105E00000FF04AFE0834F8A2F8A120460FF044FE35
:105E10000834F9A2F9A120460FF03EFE0834F4A29E
:105E2000F7A120460FF038FE0834F6A2F1A1204673
:105E30000FF032FE0834ECA2F3A120460FF02CFE46
:105E40000834EBA2E9A120460FF026FE0834E6A2B2
:105E5000EDA120460FF020FE0834E7A2E8A120467D
:105E60000FF01AFE0834E0A2E4A120460FF014FE61
:105E70000834DDA2DFA120460FF00EFE0834E1A2B7
:105E8000DAA120460FF008FE0834E0A2DBA120468C
:105E90000FF002FE0834D8A2DDA120460FF0FCFD71
:105EA0000834DAA2D5A120460FF0F6FD0834D0A2BE
:105EB000D7A120460FF0F0FD0834CBA2D5A1204693
:105EC0000FF0EAFD0834C8A2D3A120460FF0E4FD8C
:105ED0000834CEA2C9A120460FF0DEFD0834C6A2C8
:105EE000C4A120460FF0D8FD0834BFA2C4A12046AB
:105EF0000FF0D2FD0834BEA2C0A120460FF0CCFDA9
:105F00000834B9A2C4A120460FF0C6FD0834B6A2D9
:105F1000BAA120460FF0C0FD0834C0A2B8A12046A7
:105F20000FF0BAFD0834B2A2B0A120460FF0B4FDC4
:105F30000834AFA2B1A120460FF0AEFD0834AAA2EA
:105F4000AFA120460FF0A8FD0834A7A2ABA12046C0
:105F50000FF0A2FD0834A6A2A4A120460FF09CFDDC
:105F60000834AFA2A3A120460FF096FD0834A0A2EA
:105F7000A2A120460FF090FD08349BA2A0A12046CC
:105F80000FF08AFD083498A29FA120460FF084FDEF
:105F9000083495A2A3A120460FF07EFD083492A2FA
:105FA00096A120460FF078FD08348FA294A12046D8
:105FB0000FF072FD08348CA28CA120460FF06CFD0E
:105FC000083489A28BA120460FF066FD083486A212
:105FD0008BA120460FF060FD083490A287A12046D7
:105FE0000FF05AFD083489A284A120460FF054FD19
:105FF000083481A286A120460FF04EFD08347AA213
:106000007EA120460FF048FD083479A280A12046E9
:106010000FF042FD083474A27EA120460FF03CFD33
:10602000083471A27CA120460FF036FD083477A217
:1060300072A120460FF030FD08346BA275A12046F6
:106040000FF02AFD083468A26DA120460FF024FD50
:10605000083465A273A120460FF01EFD083462A229
:106060006DA120460FF018FD08345FA263A1204601
:106070000FF012FD08345CA261A120460FF00CFD68
:1060800008345BA25BA120460FF006FD083464A231
:106090005BA120460FF000FD083455A257A1204611
:1060A0000FF0FAFC083450A255A120460FF0F4FC82
:1060B00008344DA254A120460FF0EEFC08344AA249
:1060C00058A120460FF0E8FC083447A24BA1204617
:1060D0000FF0E2FC083444A24BA120460FF0DCFC98
:1060E000083441A241A120460FF0D6FC083440A25A
:1060F0004DA120460FF0D0FC083449A23BA1204618
:106100000FF0CAFC08343AA23CA120460FF0C4FCB0
:10611000083443A23FA120460FF0BEFC083432A24F
:1061200036A120460FF0B8FC08342FA239A1204632
:106130000FF0B2FC083430A235A120460FF0ACFCC1
:10614000083429A239A120460FF0A6FC083426A263
:1061500037A120460FF0A0FC083423A22CA1204632
:106160000FF09AFC083422A22AA120460FF094FCDA
:1061700008342AA226A120460FF08EFC083423A260
:106180002AA120460FF088FC08341BA228A1204633
:106190000FF082FC083418A21DA120460FF07CFCF1
:1061A000083424A21BA120460FF076FC08340EA26E
:1061B00017A120460FF070FC083418A20FA120464A
:1061C0000FF06AFC083411A218A120460FF064FCFD
:1061D000083409A216A120460FF05EFC083406A27E
:1061E0000BA1204628E00000312F3200365F00006E
:1061F000312F310031000000332F32003300000016
:1062000032000000372F3200375F0000322F31009C
:10621000360000003500000034000000342F31004B
:10622000332F310030000000355F0000317E000068
:1062300037000000352F32000FF02EFC0834AFF28B
:106240000C02AFF2300120460FF026FC0834AFF20A
:106250006802AFF2440120460FF01EFC0834AFF292
:106260004402AFF2680120460FF016FC0834AFF28A
:106270008002AFF2880120460FF00EFC0834AFF226
:106280009002AFF2900120460FF006FC0834AFF206
:10629000A002AFF2940120460FF0FEFB0834AFF2EB
:1062A000A802AFF2A80120460FF0F6FB0834AFF2C7
:1062B000C802AFF2C00120460FF0EEFB0834AFF287
:1062C000D002AFF2C80120460FF0E6FB0834AFF26F
:1062D000B002AFF2D40120460FF0DEFB0834AFF27B
:1062E000F802AFF2E40120460FF0D6FB0834AFF21B
:1062F0000812AFF2EC0120460FF0CEFB0834AFF2EB
:106300001812AFF2E00120460FF0C6FB0834AFF2DE
:106310002812AFF2181120460FF0BEFB0834AFF27E
:106320003812AFF21C1120460FF0B6FB0834AFF262
:106330004812AFF2481120460FF0AEFB0834AFF21E
:106340005012AFF21C1120460FF0A6FB0834AFF23A
:106350003412AFF2681120460FF09EFB0834AFF202
:106360007812AFF2781120460FF096FB0834AFF2A6
:106370008012AFF2801120460FF08EFB0834AFF28E
:106380009812AFF2841120460FF086FB0834AFF26A
:106390009812AFF2981120460FF07EFB0834AFF24E
:1063A000B812AFF2B01120460FF076FB0834AFF20E
:1063B000C012AFF2B81120460FF06EFB0834AFF2F6
:1063C000A012AFF2C41120460FF066FB0834AFF202
:1063D000E012AFF2D81120460FF05EFB0834AFF2A6
:1063E000D412AFF2D01120460FF056FB0834AFF2B2
:1063F0000022AFF2F81120460FF04EFB0834AFF246
:106400000822AFF2D41120460FF046FB0834AFF259
:106410002822AFF2202120460FF03EFB0834AFF2D5
:106420003822AFF2F41120460FF036FB0834AFF2F9
:106430004822AFF2242120460FF02EFB0834AFF2A1
:106440005022AFF2302120460FF026FB083408A27C
:10645000AFF2442120460FF01FFB0834204609F01C
:106460002BFA2846FDF75AFF28460CF017FA70BDA4
:10647000372F310070B54FF4C8600CF023FA054691
:106480002C46FEA2FEA120460FF006FB0834FDA21A
:10649000FDA120460FF000FB0834FCA2FCA1204621
:1064A0000FF0FAFA0834FBA2FBA120460FF0F4FA31
:1064B0000834F4A2F2A120460FF0EEFA0834F1A25B
:1064C000F3A120460FF0E8FA0834ECA2EEA1204632
:1064D0000FF0E2FA0834EBA2F0A120460FF0DCFA4C
:1064E0000834EFA2E8A120460FF0D6FA0834EDA256
:1064F000E3A120460FF0D0FA0834E6A2E6A1204638
:106500000FF0CAFA0834DDA2DDA120460FF0C4FA6C
:106510000834DCA2DCA120460FF0BEFA0834DBA26E
:10652000DBA120460FF0B8FA0834DAA2DAA120463F
:106530000FF0B2FA0834D3A2D1A120460FF0ACFA82
:106540000834D0A2D2A120460FF0A6FA0834CBA27C
:10655000D5A120460FF0A0FA0834CAA2CCA120464B
:106560000FF09AFA0834CEA2CFA120460FF094FA89
:106570000834C2A2CDA120460FF08EFA0834C5A27D
:10658000C5A120460FF088FA0834C2A2BCA120465B
:106590000FF082FA0834C6A2C6A120460FF07CFA9A
:1065A0000834BCA2BAA120460FF076FA0834B5A28E
:1065B000BDA120460FF070FA0834B2A2B4A1204663
:1065C0000FF06AFA0834B3A2B7A120460FF064FABC
:1065D0000834B0A2B0A120460FF05EFA0834ADA294
:1065E000AEA120460FF058FA0834A4A2AFA120466D
:1065F0000FF052FA0834AAA2ABA120460FF04CFAD1
:106600000834A2A2A2A120460FF046FA08349DA2A7
:10661000A1A120460FF040FA08349EA2A2A1204674
:106620000FF03AFA083497A299A120460FF034FAF5
:10663000083494A292A120460FF02EFA08348FA2BB
:1066400099A120460FF028FA08348EA28CA120468A
:106650000FF022FA08348BA28DA120460FF01CFA0D
:10666000083488A286A120460FF016FA083483A2C7
:1066700087A120460FF010FA083482A28AA1204692
:106680000FF00AFA083483A28AA120460FF004FA18
:10669000083489A285A120460FF0FEF908347BA2B8
:1066A00082A120460FF0F8F908347AA27AA1204698
:1066B0000FF0F2F9083477A280A120460FF0ECF930
:1066C00008346EA27EA120460FF0E6F9083471A2CC
:1066D0007CA120460FF0E0F908346AA27AA1204696
:1066E0000FF0DAF9083467A274A120460FF0D4F94C
:1066F000083464A274A120460FF0CEF9083465A2D4
:106700006EA120460FF0C8F908345EA26EA12046A3
:106710000FF0C2F908345BA25FA120460FF0BCF96C
:1067200008345CA265A120460FF0B6F9083455A2E2
:1067300065A120460FF0B0F9083450A263A12046AD
:106740000FF0AAF9083453A25CA120460FF0A4F977
:1067500008344CA25EA120460FF09EF908344BA2EB
:1067600056A120460FF098F908344AA24AA12046C3
:106770000FF092F9083447A250A120460FF08CF98F
:1067800008343EA24EA120460FF086F9083441A2FB
:106790004CA120460FF080F908343AA24AA12046C5
:1067A0000FF07AF9083437A244A120460FF074F9AB
:1067B000083434A244A120460FF06EF9083435A203
:1067C0003EA120460FF068F908342EA23EA12046D3
:1067D0000FF062F908342BA22FA120460FF05CF9CC
:1067E00008342CA235A120460FF056F9083425A212
:1067F00035A120460FF050F9083420A233A12046DD
:106800000FF04AF908341FA231A120460FF044F9D5
:10681000083420A22DA120460FF03EF908341BA217
:1068200026A120460FF038F908341AA21AA12046F2
:106830000FF032F9083417A220A120460FF02CF9EE
:1068400008340EA21EA120460FF026F9083411A22A
:106850001CA120460FF020F908340AA21AA12046F4
:106860000FF01AF9083407A214A120460FF014F90A
:10687000083404A214A120462CE00000322F32007C
:10688000365F0000312F3400375F0000352F3400B1
:1068900031000000312F320030000000355F000071
:1068A000332F3400342F3200320000003300000058
:1068B000332F320034000000382F3400360000003F
:1068C000337E0000327E0000317E00003700000081
:1068D000350000000FF0E0F80834AFF24802AFF2E4
:1068E000240120460FF0D8F80834AFF26802AFF266
:1068F000280120460FF0D0F80834AFF27802AFF24A
:10690000680120460FF0C8F80834AFF27802AFF201
:10691000540120460FF0C0F80834AFF29802AFF2ED
:10692000580120460FF0B8F80834AFF2B002AFF2C9
:10693000640120460FF0B0F80834AFF2A802AFF2BD
:10694000840120460FF0A8F80834AFF2C802AFF275
:10695000800120460FF0A0F80834AFF2D002AFF269
:10696000B40120460FF098F80834AFF2D802AFF225
:10697000D80120460FF090F80834AFF2E802AFF2E9
:10698000C40120460FF088F80834AFF2EC02AFF2F1
:10699000D00120460FF080F80834AFF208122FA182
:1069A00020460FF079F80834AFF21812AFF2F00178
:1069B00020460FF071F80834AFF22812AFF2FC0154
:1069C00020460FF069F80834AFF23812AFF2081120
:1069D00020460FF061F80834AFF25812AFF21C11E4
:1069E00020460FF059F80834AFF24C12AFF23411D0
:1069F00020460FF051F80834AFF28012AFF23C118C
:106A000020460FF049F80834AFF27812AFF248117F
:106A100020460FF041F80834AFF27C12AFF2541167
:106A200020460FF039F80834AFF29812AFF268112F
:106A300020460FF031F80834AFF28C12AFF2841117
:106A400020460FF029F80834204608F035FF284684
:106A5000FDF764FC28460BF021FF70BD357E000079
:106A600070B54FF416600BF02DFF05462C46FEA2C4
:106A7000FEA120460FF010F80834FDA2FDA120462B
:106A80000FF00AF80834FCA2FCA120460FF004F82D
:106A90000834F7A2FAA120460EF0FEFF0834F4A253
:106AA000F6A120460EF0F8FF0834F3A2EFA120462D
:106AB0000EF0F2FF0834EEA2F2A120460EF0ECFF39
:106AC0000834EBA2E9A120460EF0E6FF0834EAA262
:106AD000EDA120460EF0E0FF0834E5A2EBA1204630
:106AE0000EF0DAFF0834E2A2E6A120460EF0D4FF51
:106AF0000834DDA2DDA120460EF0CEFF0834DCA272
:106B0000DEA120460EF0C8FF0834D9A2DCA1204641
:106B10000EF0C2FF0834D8A2DDA120460EF0BCFF63
:106B20000834DCA2D3A120460EF0B6FF0834D9A267
:106B3000D9A120460EF0B0FF0834D8A2D4A1204637
:106B40000EF0AAFF0834D5A2D0A120460EF0A4FF73
:106B50000834C5A2C5A120460EF09EFF0834C4A289
:106B6000C4A120460EF098FF0834C3A2C3A120465A
:106B70000EF092FF0834BEA2C1A120460EF08CFF99
:106B80000834BBA2BDA120460EF086FF0834BAA28D
:106B9000B6A120460EF080FF0834B5A2B9A1204668
:106BA0000EF07AFF0834B2A2B0A120460EF074FFB6
:106BB0000834B1A2B4A120460EF06EFF0834ACA296
:106BC000B2A120460EF068FF0834A9A2B4A1204665
:106BD0000EF062FF0834A6A2ABA120460EF05CFFC7
:106BE0000834A3A2A7A120460EF056FF0834A0A2A5
:106BF0009EA120460EF050FF08349DA2A0A1204681
:106C00000EF04AFF08349CA298A120460EF044FFE3
:106C1000083499A29BA120460EF03EFF08349FA2A3
:106C200092A120460EF038FF083493A297A1204687
:106C30000EF032FF08348EA291A120460EF02CFFF8
:106C400008348BA292A120460EF026FF083488A2B9
:106C500088A120460EF020FF083485A28CA1204692
:106C60000EF01AFF083482A282A120460EF014FF13
:106C700008347DA288A120460EF00EFF08347CA2C5
:106C80007CA120460EF008FF083479A280A120469E
:106C90000EF002FF083478A279A120460EF0FCFE27
:106CA000083473A271A120460EF0F6FE083470A2DB
:106CB00074A120460EF0F0FE08346FA272A12046A7
:106CC0000EF0EAFE08346AA26DA120460EF0E4FE42
:106CD000083467A26EA120460EF0DEFE083464A2DE
:106CE00064A120460EF0D8FE083461A268A12046B7
:106CF0000EF0D2FE08345EA25EA120460EF0CCFE5D
:106D000008345BA264A120460EF0C6FE083458A2E7
:106D100058A120460EF0C0FE083455A25CA12046C2
:106D20000EF0BAFE08345BA255A120460EF0B4FE68
:106D300008345CA24DA120460EF0AEFE083457A2E6
:106D40004CA120460EF0A8FE083449A24CA12046D2
:106D50000EF0A2FE083446A24DA120460EF09CFE85
:106D6000083443A243A120460EF096FE083440A208
:106D700047A120460EF090FE08343DA23DA12046DA
:106D80000EF08AFE083438A243A120460EF084FE9D
:106D9000083437A237A120460EF07EFE083434A214
:106DA0003BA120460EF078FE083431A234A12046E3
:106DB0000EF072FE083437A235A120460EF06CFEAC
:106DC000083434A22EA120460EF066FE083428A214
:106DD00026A120460EF060FE083425A229A12046F7
:106DE0000EF05AFE083424A227A120460EF054FECD
:106DF00008341FA225A120460EF04EFE08341CA226
:106E000020A120460EF048FE083419A217A1204602
:106E10000EF042FE083416A21AA120460EF03CFEE7
:106E2000083413A211A120460EF036FE083410A239
:106E300010A120460EF030FE08340DA20BA1204612
:106E40000EF02AFE08340AA20EA120460EF024FEFF
:106E5000083407A205A120460EF01EFE083404A245
:106E600008A1204620E00000332F32003600000049
:106E7000312F3200337E0000322F32003700000005
:106E8000317E0000350000003300000030000000BB
:106E9000327E0000312F3400357E0000342F320066
:106EA00032000000332F34000EF0F6FD0834AFF24C
:106EB0001402AFF2480120460EF0EEFD0834AFF2A6
:106EC0004802AFF2380120460EF0E6FD0834AFF27A
:106ED0006002AFF2600120460EF0DEFD0834AFF232
:106EE0007002AFF24C0120460EF0D6FD0834AFF22E
:106EF0008002A6A120460EF0CFFD0834AFF290022A
:106F0000AFF26C0120460EF0C7FD0834AFF2A002CC
:106F1000AFF2A00120460EF0BFFD0834AFF2A80288
:106F2000AFF2940120460EF0B7FD0834AFF2C00274
:106F3000AFF2B40120460EF0AFFD0834AFF2D0023C
:106F4000AFF2D80120460EF0A7FD0834AFF2D80208
:106F5000AFF2C40120460EF09FFD0834AFF2F002FC
:106F6000AFF2CC0120460EF097FD0834AFF20812C4
:106F7000AFF2001120460EF08FFD0834AFF2101270
:106F8000AFF2F80120460EF087FD0834AFF2FC02A4
:106F9000AFF2201120460EF07FFD0834AFF20C1244
:106FA000AFF20C1120460EF077FD0834AFF2381224
:106FB00076A120460EF070FD0834AFF24C12AFF20D
:106FC000281120460EF068FD0834AFF25C12AFF2D3
:106FD0005C1120460EF060FD0834AFF26412AFF28F
:106FE000501120460EF058FD0834AFF27C12AFF27B
:106FF0007C1120460EF050FD0834AFF28C12AFF237
:10700000681120460EF048FD0834AFF27012AFF25E
:107010009C1120460EF040FD0834AFF2A412AFF2EE
:10702000941120460EF038FD0834AFF2BC12AFF2D6
:10703000BC1120460EF030FD0834AFF2CC12AFF296
:10704000A81120460EF028FD0834AFF2D4124FA14B
:1070500020460EF021FD0834AFF2EC12AFF2C81159
:1070600020460EF019FD0834AFF2FC12AFF2FC110D
:1070700020460EF011FD0834AFF20422AFF2F011F9
:1070800020460EF009FD0834AFF21422AFF21021B1
:1070900020460EF001FD0834AFF22422AFF2242185
:1070A00020460EF0F9FC0834AFF23422AFF22C2166
:1070B00020460EF0F1FC0834AFF24422AFF240213A
:1070C00020460EF0E9FC0834AFF25C22AFF26421F6
:1070D00020460EF0E1FC0834AFF26C22AFF25C21E6
:1070E00020460EF0D9FC0834AFF27422AFF28421AE
:1070F00020460EF0D1FC0834AFF28C22AFF274219E
:1071000020460EF0C9FC0834AFF29C22AFF2902169
:1071100020460EF0C1FC0834AFF2AC22AFF2A4213D
:1071200020460EF0B9FC0834AFF29822AFF2B0213D
:1071300020460EF0B1FC0834AFF2A822AFF2C42111
:1071400020460EF0A9FC0834AFF2DC22AFF2E421B5
:1071500020460EF0A1FC0834AFF2EC22AFF2DC21A5
:1071600020460EF099FC083409A2AFF20031204607
:107170000EF092FC0834204608F09EFB2846FDF7EE
:10718000CDF828460BF08AFB70BD0000367E00006B
:10719000362F320070B54FF4C8600BF093FB0546F4
:1071A0002C4614A214A120460EF076FC083411A23D
:1071B00012A120460EF070FC08340EA210A1204649
:1071C0000EF06AFC08340BA20EA120460EF064FCFF
:1071D00008340DA20DA120460EF05EFC08342046B6
:1071E00008F06AFB2846FDF799F828460BF056FB95
:1071F00070BD0000312F320031000000320000006D
:107200003300000034000000312F31003500000051
:107210002DE9FF4704460D46164699460020039087
:10722000029600278046009002A80DF053FB8DF8CF
:107230000C000398C0F30310022800D01FE001A93E
:10724000029800F04DF88046029908440290DDE96A
:10725000011047180298381A022800DA0FE002A835
:107260000DF038FB8DF80000009800F00100207050
:1072700002A80DF02FFB28704FF0010800BF404618
:1072800004B0BDE8F0872DE9F84305460C46012619
:1072900000270020206000BF4FF0FF38781C074611
:1072A000042801DD00BF17E001216846A847804699
:1072B000B8F1010F00D00FE09DF8001001F07F0140
:1072C000206801FB06002060F6019DF8000000F038
:1072D00080000028E0D100BF3846BDE8F8830000F8
:1072E00070B504460D460348046029460248FFF77E
:1072F000CAFF70BD04020020BDAD000830B50246D3
:10730000002300BF0846CD1701EB5565ED11A1EB39
:10731000C515ECB2CD1701EB5565E911002901DD6A
:1073200044F0800418465B1C14540029EADC18461B
:1073300030BD0000401C802801DA401C0AE0B0F596
:10734000804F01DA801C05E00349884201DAC01C45
:1073500000E0001D70470000FFFF1F002DE9FE4305
:1073600005460E4614460295002001900090002725
:107370004FF0FF38204600F0A5F807468146FFF79A
:10738000D9FFB04202DD6FF001088FE000208DF8D8
:107390000400019820F0F000103001909DF80410D6
:1073A00002A80EF08BFF39460298FFF7A7FF02995B
:1073B00008440290207A042808D13EA102A80EF0C9
:1073C00069FF042102A80EF079FF07E03BA102A8A3
:1073D0000EF060FF032102A80EF070FF00208DF870
:1073E0000000A17E009861F341000090E07E08B1AA
:1073F000012100E00021009861F3820000900098D4
:10740000C0F3800058B194F83D10009861F3C400B7
:10741000009094F83C10009861F345100090206CA7
:1074200008B9A06C20B1009820F080008030009056
:10743000E06C08B9606D20B1009820F04000403049
:1074400000909DF8001002A80EF038FF218B02A8D2
:107450000EF03AFF02A8D4E90423E1680EF04CFFD5
:10746000E07E58B102A8D4E90A23616A0EF044FF15
:1074700002A8D4E90D23216B0EF03EFF0098C0F363
:10748000C01028B102A8D4E91123216C0EF034FFFA
:107490000098C0F3801028B102A8D4E91423E16C4D
:1074A0000EF02AFF0298A0EB050800BF4046BDE899
:1074B000FE8300004D515454000000004D514973AB
:1074C0006470000070B504460025207A032801D1BD
:1074D0000C2503E0207A042800D10A25D4E90412FF
:1074E000E06800F02AF8801C0544E07E68B1D4E929
:1074F0000A12606A00F021F8861CD4E90D12206B94
:1075000000F01BF83044801C0544206C08B9A06CC6
:1075100030B1D4E91112206C00F00FF8801C054442
:10752000E06C08B9606D30B1D4E91412E06C00F081
:1075300004F8801C0544284670BD37B50024009827
:1075400020B10098FBF7B4FC044600E0019C204603
:107550003EBD00F04FF800F04DF8000070B500217E
:1075600000230F22C47804B3154C246804F4E064AB
:10757000C4F5E064210AC1F10403CA40447804FA66
:1075800003F184781440214309010E4C0678A1557B
:10759000047804F01F050124AC4005786D11AD009E
:1075A00005F1E025C5F8004109E0047804F01F0565
:1075B0000124AC40044D0678761145F8264070BD94
:1075C0000CED00E000E400E080E100E0024901434E
:1075D000024A1160704700000000FA050CED00E05F
:1075E000024A0A400243024B1A60704780FFFF1FA5
:1075F00008ED00E00648006800F4E0600549084333
:10760000001D03490860BFF3408F00BFFEE7000084
:107610000CED00E00000FA0510B50D480068B0B9A7
:107620000C480068FBF785FA0B49086008460068BB
:107630000A4908600A480849096800EB41100949ED
:1076400008600846006808490860FBF736FA10BD74
:1076500044000020680000204C000020480000206A
:107660006C1D0020540000205000002070B504461E
:1076700010464FF080750560051F28462C606FF09E
:107680000106051F28462E604FF01236051F2846BA
:107690002E604FF00336051F28462E604FF002364D
:1076A000051F28462E607610051F28462E60051FF0
:1076B000284629604FF01136051F28462E604FF0EE
:1076C0001036051F28462E604FF00936051F284644
:1076D0002E604FF00836051F28462E604FF0073603
:1076E000051F28462E604FF00636051F28462E60DF
:1076F0004FF00536051F28462E604FF00436051F53
:1077000028462E6070BD000010B5FBF7CFF9044687
:1077100006480078401C054908700548007805496E
:1077200008702046FBF7C6F910BD00006400002079
:107730004C0000206C00002010B5FBF7B7F90446A0
:107740000948007820B108480078401E06490870B2
:107750000548007810B92020044908702046FBF73E
:10776000A9F902F0B5FD10BD640000206C000020F6
:1077700010B50346074800EB42100160054800EBD6
:10778000421043604FF00040024C04EB4214E060B2
:10779000002010BD6C1D00200149086270470000E8
:1077A00000000E42024800880A30014908807047F4
:1077B0006401002029B1064AD2690243044BDA6110
:1077C00004E0034AD2698243014BDA61704700004A
:1077D0000010024029B1064A12690243044B1A61A3
:1077E00004E0034A12698243014B1A6170470000AA
:1077F0000010024029B1064A92690243044B9A6183
:1078000004E0034A92698243014B9A617047000089
:107810000010024029B1064AD2680243044BDA60E4
:1078200004E0034AD2688243014BDA6070470000EB
:1078300000100240014908607047000040044242C5
:1078400030B500210022002400232D4D6D6805F085
:107850000C0121B1042905D0082923D105E0294DC7
:10786000056022E0274D05601FE0254D6D6805F499
:107870007012234D6D6805F48034022505EB9242A9
:107880001CB9214D554305600BE01D4D6D6805F495
:1078900000351DB11C4D5543056002E0194D55439F
:1078A000056002E0174D056000BF00BF144D6D6814
:1078B00005F0F0010909154D6B5C0568DD40456078
:1078C0000F4D6D6805F4E061090A104D6B5C456869
:1078D000DD4085600A4D6D6805F46051C90A0B4DA5
:1078E0006B5C4568DD40C560054D6D6805F4404141
:1078F000890B074D6B5CC568B5FBF3F5056130BDC1
:107900000010024000127A0000093D00180000201B
:107910002800002010B501460022002300204A1153
:10792000012A02D1094C236806E0022A02D1074C41
:10793000236A01E0054C636A01F01F0201249440B0
:107940001C400CB1012000E0002010BD00100240DE
:1079500000210B4A11700A4A203A82F820100128AF
:1079600002D0042808D103E00121054A117004E087
:107970000521034A117000E000BF00BF70470000FE
:107980002010024001490860704700003C04424258
:107990000249096A0143014A11627047001002401E
:1079A00070B504460D460F4800780F4909688842B3
:1079B00001D0002070BD0DB90020FBE70BE000BF37
:1079C00080210A4802F0C2FD0028F9D0207807493A
:1079D000091D0880641C2800A5F10101CDB2EED17B
:1079E00000BFE7E7BC0000204C0000200038014049
:1079F00070B505460E4600240B48008838B100BF1C
:107A000003E000202855601C84B2B442F9DB002456
:107A100004E0FDF77FFA2855601C84B20248008814
:107A20000028F6D1204670BDC40000202DE9F041A9
:107A300005460E46002400BF03E000202855601CC8
:107A400084B2B442F9DB002442F2107809E0A8F1D4
:107A500001001FFA80F8B8F1000F02D10020BDE844
:107A6000F081214800780028F1D0204800680028E3
:107A700038D0002400270CE001F062FBFF2804D17D
:107A800001F072FBFF2800D105E0FDF743FA781CF6
:107A900087B2322FF0DB00BF002410E0FDF73AFA86
:107AA0002855601C84B2B44200D10CE001F048FBC0
:107AB000FF2804D101F058FBFF2800D103E00C4857
:107AC00000880028EAD100BF0948008850B900208A
:107AD00008490880084908600849088001200849C9
:107AE000C1F894012046BAE7C600002020012142D7
:107AF000C4000020BE00002094012742C0000020E6
:107B00000000274210B586B0044601210420FFF78B
:107B100071FE01218803FFF76DFE464802F0C8FCA4
:107B20004FF48070ADF8140004208DF81700032086
:107B30008DF8160005A94048FDF786F84FF48071CE
:107B40003D48FDF757F94FF40060ADF814001020E0
:107B50008DF8170003208DF8160005A93648FDF7AB
:107B600073F84FF400613448FDF742F94FF4805048
:107B7000ADF8140010208DF8170003208DF81600C2
:107B800005A92D48FDF760F84FF480512A48FDF70C
:107B90002FF94FF40070ADF8140002208DF8160094
:107BA00018208DF8170005A92348FDF74DF84FF46C
:107BB0008060ADF8140004208DF8170005A91E4858
:107BC000FDF742F825208DF8000000208DF8010017
:107BD0008DF8020001208DF803006846FFF7BEFC17
:107BE00001940020ADF80800ADF80A00ADF80C00D3
:107BF000ADF810000C20ADF80E0000210D4802F089
:107C00004AFC0C4802F054FC01A90A4802F0FAFCB4
:107C1000012240F22551074802F0CFFC012240F238
:107C20002441044802F0C9FC0121024802F033FC5F
:107C300006B010BD00380140000801401FB50446E1
:107C40004FF41650FFF75EFF01201F4908601F49DF
:107C5000C1F8AC01642006F069FE1DA103C9CDE99D
:107C600002018DF80C401CE0062102A8FFF798FEE7
:107C70004FF4FA7006F05AFE0020009001900621A1
:107C80006846FFF7B5FE694613A00CF027FF00B168
:107C900008E09DF804009DF80C10884200D101E036
:107CA00000BFE1E700BF0020074908600749C1F8AD
:107CB000AC01642006F03AFE4FF4E130FFF722FFFA
:107CC000002004B010BD0000B0012142000021429C
:107CD000C200003A144000004F4B0000202801D29F
:107CE0000149087070470000BC0000200249098863
:107CF0008143014A118070470428004003480088EE
:107D000040F010000149088070470000042800403E
:107D1000034800884FF6EF7108400149088070471A
:107D20000428004070B500260024002500F07AF8F1
:107D300006463848B6FBF0F437480088A0423CD0ED
:107D400035490C8040F2B27510E02846FDF786FAFE
:107D500040B1B4F5B77F02D3A4F5B77404E0681C52
:107D600085B206E0A4F26D14681C85B2B4F5B67F46
:107D7000EBD800BF29488580002516E02749888870
:107D8000FDF76CFA30B1012D04D11D2C01D31D3C3F
:107D900009E00CE02248405DA04203D82048405D45
:107DA000241A00E003E0681C85B21C2CE6D200BF58
:107DB000681C1A498871601CC8711648B6FBF0F13E
:107DC00000FB11644FF46160B4FBF0F013490870DC
:107DD0004FF46160B4FBF0F100FB11403C21B0FBBB
:107DE000F1F00E4948704FF46160B4FBF0F100FB14
:107DF00011403C21B0FBF1F201FB120007498870F1
:107E00000B46DA799979988800F02CF803490872C2
:107E1000002070BD805101006E0000206C21002008
:107E2000FE770108002103480188001F008841EA0D
:107E3000004070471C28004001460020064A128876
:107E40000A40D0B2044A121F12880A4012B108B187
:107E5000012000E0002070470428004000487047DF
:107E60006C210020F0B503460C461546642093FBB8
:107E7000F0F0C6B2642093FBF0F700FB1730C1B2FC
:107E8000132E02DD01F16400C1B20846CF1701EBE9
:107E9000977701EBA707BAB2072092FBF0F700FB38
:107EA000172082B25719601EDFF82CC01CF80000A2
:107EB000384482B2CF1701EB9777BF10A1EB870749
:107EC0001FB9032C01DA501E82B2072092FBF0F793
:107ED00000FB1720C0B2F0BDF277010810B50120F9
:107EE000FFF7AAFF08B1FFF71DFF0220FFF7A4FF6D
:107EF00010B10220FFF7FAFE0520FFF7F7FE00F0B1
:107F000015F910BD29B1064A12880243044B1A80A4
:107F100004E0034A12888243014B1A807047000034
:107F2000002800401CB500240420FCF759F945F254
:107F30005001884247D001214FF0C050FFF73AFC72
:107F40000120FFF729FCFCF743F90120FFF700FDB2
:107F500004E0601CC4B20A2006F002FD4120FFF7D5
:107F6000D9FC0028F5D0FA2C01DB01201CBD4FF410
:107F70008070FFF70DFD0120FFF704FD00F0D6F83B
:107F800000F0DEF801210846FFF7BCFF00F0CEF854
:107F9000FFF7B4FE47F6FF7000F0A6F800F0C6F851
:107FA000372000210A230222CDE900100C2140F2E3
:107FB000D97000F027F8FFF7ABFE45F2500104201E
:107FC000FCF71CF907E000F0BBF801210846FFF7B9
:107FD00099FF00F0ABF800F004F8FFF7A3FE0020D3
:107FE000C4E708B503208DF8000001208DF80100DA
:107FF00003208DF8020001208DF803006846FFF78A
:10800000ADFA08BD2DE9F05F06460F469046994649
:10801000DDE90AAB002440F2B270864203DB40F691
:108020003300864202DD0120BDE8F09F40F2B275C8
:108030000AE02846FDF712F910B12048044401E097
:108040001F480444681C85B2B542F2DB781EC7B2F3
:10805000002510E01B48405D40F2A321484304EB9B
:10806000C0143046FDF7FAF818B1012D01D11648B9
:108070000444681C85B2BD42ECDBA8F1010040F26B
:10808000A321484304EBC014C9EB4910C0EB0920FD
:1080900004EB0014CAEB0A1004EB80045C440121D9
:1080A0004FF0C050FFF786FB0120FFF775FB20461D
:1080B00000F00CF800F03AF80020B5E70085E20186
:1080C0008033E101FE7701088051010000B50246CE
:1080D000FFF714FE100C03490880091D0A80FFF702
:1080E00017FE00BD1828004000B50246FFF706FE47
:1080F000C2F3034003490880091D0A80FFF708FE08
:1081000000BD00000828004010B5044601214FF0D2
:10811000C050FFF74FFB0120FFF73EFB2046FFF763
:10812000D5FF00F003F8002010BD000000BF034899
:10813000008800F020000028F9D070470428004093
:10814000074800884FF6F77108400549088000BFCE
:108150000348008800F008000028F9D070470000AC
:10816000042800402DE9F04780460D462621404670
:1081700000F0D6F8064616B90020BDE8F08740F2B8
:10818000B450864200DD06462821404600F0C8F87B
:108190000746B946C7F30A0710213A48FCF728FEFC
:1081A000384600F0C3FB182101EB4811C8B200F0BB
:1081B000ADFB354800F04DFE00F0FF0AB819B0F5F0
:1081C000006F11DA00240CE0002000F09FFB2E4825
:1081D00000F03FFE00F0FF0A85F800A06D1C601C57
:1081E00084B2B442F0DB39E0C7F5006087B2002406
:1081F0000CE0002000F08AFB234800F02AFE00F08B
:10820000FF0A85F800A06D1C601C84B2BC42F0DB44
:1082100010211C48FCF7EEFD10211A48FCF7E8FD80
:10822000002000F083FB182101EB4811C8B200F0D8
:108230006DFB154800F00DFE00F0FF0A0CE0002079
:1082400000F064FB104800F004FE00F0FF0A85F81F
:1082500000A06D1C601C84B2B442F0DB1021094800
:10826000FCF7C8FD09EB06001FFA80F94A462821F1
:10827000404602F047FC40220121404602F024FC27
:1082800030467AE7000801400030014070B50446EE
:1082900010210D48FCF7ACFD204600F047FB012003
:1082A00000F034FB094800F0D4FDC5B2002000F016
:1082B0002DFB064800F0CDFDC5B210210248FCF7A9
:1082C00099FD284670BD00000008014000300140C3
:1082D00070B504460D4610210F48FCF789FD28466D
