:020000040800F2
:10280000D8270020712A0008737500082551000898
:102810006F75000821450008DFA7000800000000D0
:102820000000000000000000000000002B910008E4
:102830009547000800000000FB2A0008C597000823
:102840008B2A00088B2A00088B2A0008F97E0008D2
:102850008B2A00088B2A00088B2A00088B2A000884
:102860008B2A00088B2A0008554900088B2A00088B
:102870008B2A00088B2A00088B2A00088B2A000864
:102880008B2A00088B2A00088B2A00088B2A000854
:102890008B2A00088B2A00088B2A00088B2A000844
:1028A0008B2A00088B2A00088B2A00088B2A000834
:1028B000A5980008D1980008ED9800088B2A000818
:1028C0008B2A00088B2A00088B2A00088B2A000814
:1028D0008B2A00081DA30008F9A300088B2A000812
:1028E0008B2A00088B2A00088B2A00088B2A0008F4
:1028F0008B2A00088B2A00088B2A00088B2A0008E4
:102900008B2A00088B2A00088B2A00088B2A0008D3
:102910008B2A00088B2A00088B2A00088B2A0008C3
:102920008B2A00088B2A00088B2A00088B2A0008B3
:1029300000F002F800F07CF80AA090E8000C824455
:102940008344AAF10107DA4501D100F071F8AFF232
:10295000090EBAE80F0013F0010F18BFFB1A43F07D
:102960000103184708580100285801000A444FF095
:10297000000C10F8013B13F0070408BF10F8014BDE
:102980001D1108BF10F8015B641E05D010F8016B23
:10299000641E01F8016BF9D113F0080F1EBF10F887
:1029A000014BAD1C0C1B09D16D1E58BF01F801CBAA
:1029B000FAD505E014F8016B01F8016B6D1EF9D52D
:1029C0009142D6D370470000002300240025002642
:1029D000103A28BF78C1FBD8520728BF30C148BF82
:1029E0000B607047662915F08480652915F0818099
:1029F000642900F02B81752900F02881782900F0E6
:102A00006181732900F09786002070471FB500F0A0
:102A100097FE04000020002113F0C4FF401C6060FA
:102A20000020002113F0D4FFE0601FBD10B510BDE1
:102A300000F086FF1146FFF7E9FF0EF07DFD00F084
:102A4000A4FF03B4FFF7F2FF03BC08F056F900003F
:102A5000EFF30980704780F309887047EFF308802F
:102A6000704780F30888704740BA7047C0BA704713
:102A70000948804709480047FEE7FEE7FEE7FEE712
:102A8000FEE7FEE7FEE7FEE7FEE7FEE7044805494E
:102A9000034A054B7047000045980008312900089B
:102AA000D8250020D8270020D8250020EFF310805B
:102AB00072B6704780F310887047224C224D256013
:102AC0004FF0000484F30988204C4FF00105257075
:102AD0001F4C4FF08055256062B6FEE730B41C4CA9
:102AE0004FF08055256030BC704730B4184C4FF023
:102AF0008055256030BC704700BF72B6EFF3098087
:102B000028B1203880E8F00F12490968086012489F
:102B100012490A7802700F4811490A680260106869
:102B200090E8F00F203080F309884EF0040E62B672
:102B30007047B0FA80F0704790FAA0F04FEA10406A
:102B40007047000020ED00E00000FFFF440000207F
:102B500004ED00E050000020480000204C00002060
:102B600054000020704710B5044600F03BFB00689D
:102B7000005DC00602D504F1200010BD204610BD46
:102B80000FB41CB5084B06AA7B4469460090059813
:102B900000F0A7FD04460020694600F0B5FD204680
:102BA0001CBC5DF814FB00007D0B000070B50446F2
:102BB00085690068C10601D5302600E02026C007DF
:102BC00007D070BDD4E9012130469047206A401CEF
:102BD00020626D1EF6D570BD70B50446856900781B
:102BE000C00707D170BDD4E9012120209047206A99
:102BF000401C20626D1EF6D570BD70B50C460546B2
:102C0000012A05D02878800600D5EA69002302E071
:102C1000012305E05B1C934202D2E05C0028F9D15D
:102C2000A869E618C01AA861286A184428622846CC
:102C3000FFF7BCFF04E0D5E9012114F8010B904730
:102C4000B442F8D32846FFF7C7FF70BD2DE9F04125
:102C50000646002410687529314616A510D0AFF33A
:102C60000080002802DA404213A507E031688A0795
:102C700001D512A502E0490704D511A5012401E000
:102C8000AFF3008000210A2206F1240709E0B0FB1F
:102C9000F2FCB0FBF2F302FB1C0030307854184613
:102CA000491C0028F3D123462A463046BDE8F041AE
:102CB00000F0ABBA000000002D0000002B00000067
:102CC0002000000070B504460D4621461068AFF3A1
:102CD00000802188090502D50F4A7A4402E00E4A95
:102CE0007A440E32002104F1240305E000F00F06BF
:102CF0000009965D5E54491C0028F7D12078002316
:102D0000000704D5702D02D009B1022311322046EC
:102D1000BDE8704000F079BA095201002DE9F05F7A
:102D2000894604464FF0000ADFF824B1FB44C0F89E
:102D300020A02046E168884700287DD0252806D0BD
:102D4000D4E901219047206A401C2062F1E7002568
:102D50005F462046E16888472028064607DB312E7B
:102D600005D2B81910F8200C08B10543F1E7A807FF
:102D700001D525F00405C4F81CA00027C4F818A04C
:102D80002A2E09D0304607F0B1FF38B304EB87088C
:102D9000303EC8F8186019E059F8041B204604EBCF
:102DA00087029161E1688847012F064618D1E069E2
:102DB000002820DA25F020051DE0D8F8180000EBE7
:102DC000800006EB40003038C8F818002046E16863
:102DD0008847064607F08AFF0028EED1012F0AD067
:102DE0002E2E08D12046E16888477F1C0646022F18
:102DF00045F02005C4DBA069002803DA404245F015
:102E00000105A061E80701D025F01005A6B1A6F1E3
:102E10004100192802D8203645F400654A4631465B
:102E2000204625604D46FFF7DDFD60B1012807D043
:102E3000ED1D25F0070000E007E000F1080978E744
:102E400005F1040975E730467AE7206ABDE8F09F8E
:102E5000DF510100401ECAB210F8011F8A4202D0A1
:102E60000029F9D10020704740EA0103024630B53D
:102E70009B0710D14FF0013400E008C208C91D1BA8
:102E80009D4315EAC41FF8D013F0FF0102F8011B9F
:102E90000DD01B0AF8E711F8013B002B02F8013BAB
:102EA00005D011F8013B002B02F8013BF3D130BDF6
:102EB00010B5431C02E010F8011B71B18107FAD173
:102EC0004FF0013202C88C1A8C4314EAC211F9D0B7
:102ED000C01A0A0603D0C01E10BDC01A10BD0A04D5
:102EE00001D0801E10BD0902FCD0401E10BD40EA7A
:102EF000010370B59B072ED14FF00136042A2AD367
:102F000008C810C99D1B9D43121F15EAC61517D08E
:102F1000D8B2E1B2401A50EA056110D198B2A1B21C
:102F2000401A50EA05410AD123F07F4024F07F4146
:102F3000401A50EA052102D1180EA0EB146070BDB2
:102F4000A342DBD018BA21BA884201D9012070BD52
:102F50004FF0FF3070BD0AB9002070BD10F8013B82
:102F600011F8014B63B1A3420AD1521E08D010F8E8
:102F7000013B11F8014B1BB1A34201D1521EEDD10F
:102F8000181B70BD032A40F2308010F0030C00F0D3
:102F9000158011F8013BBCF1020F624498BF11F893
:102FA00001CB00F8013B38BF11F8013BA2F104024C
:102FB00098BF00F801CB38BF00F8013B11F00303C4
:102FC00000F02580083AC0F0088051F8043B083A28
:102FD00051F804CBA0E80810F5E7121D5CBF51F8CA
:102FE000043B40F8043BAFF30080D20724BF11F844
:102FF000013B11F801CB48BF11F8012B24BF00F8A9
:10300000013B00F801CB48BF00F8012B704710B519
:10301000203AC0F00B80B1E81850203AA0E81850D0
:10302000B1E81850A0E81850BFF4F5AF5FEA027C91
:1030300024BFB1E81850A0E8185044BF18C918C000
:10304000BDE810405FEA827C24BF51F8043B40F8A1
:10305000043B08BF7047D20728BF31F8023B48BF86
:1030600011F8012B28BF20F8023B48BF00F8012BC4
:1030700070474FF000020429C0F0128010F0030CDA
:1030800000F01B80CCF1040CBCF1020F18BF00F85B
:10309000012BA8BF20F8022BA1EB0C0100F00DB80A
:1030A0005FEAC17C24BF00F8012B00F8012B48BF68
:1030B00000F8012B70474FF0000200B5134694460C
:1030C0009646203922BFA0E80C50A0E80C50B1F180
:1030D0002001BFF4F7AF090728BFA0E80C5048BF94
:1030E0000CC05DF804EB890028BF40F8042B08BF32
:1030F000704748BF20F8022B11F0804F18BF00F82E
:10310000012B704710B5044610F0030F08BF11F0F3
:10311000030F40F015804FF0013E121FC0F20E80E9
:1031200051F8043BA3EB0E0C2CEA030C1CEACE1C5A
:1031300008BF40F8043BF0D0A1F1040102F1040201
:10314000521E08DB11F8013B002B00F8013BF7D1C0
:103150001146FFF78EFF204610BD00004FF0013CE6
:1031600050F8042B51F8043B9A4221D1A2EB0C03F6
:10317000934313EACC1317D150F8042B51F8043BB6
:103180009A4215D1A2EB0C03934313EACC130BD153
:1031900050F8042B51F8043B9A4209D1A2EB0C03DE
:1031A000934313EACC13DBD04FF00000704700BF0D
:1031B000D01A01BAB1FA81F101F0180122FA01F036
:1031C000CB40C1F12001DBB2C0B2C01A2CFA01F32E
:1031D000D11A914311EAC311E6D170477047704785
:1031E0007047704710B500F0ABFA001D10BD00BF6E
:1031F000B537010010B500F0A7FA006810BD10B592
:10320000044600F0A1FA046010BD2DE9F0470D4618
:1032100099469246044600F124080168880604D5C0
:10322000E06921F01001216000E00120A84201DDE9
:10323000471B00E00027A1697A1902EB0900081A70
:10324000A0612078C00602D42046FFF7AFFC00261C
:1032500008E0D4E901211AF806009047206A401CD2
:10326000761C20624E45F4DB2078C0060AD5204645
:10327000FFF79CFC06E0D4E9012130209047206A4A
:10328000401C2062381EA7F10107F4DC07E0D4E9F6
:10329000012118F805009047206A401C2062281E72
:1032A000A5F10105F3DC2046FFF796FC2078000627
:1032B00002D50220BDE8F0870120FBE770472DE929
:1032C000FF4F0C461E464FF0FF378BB0D2E900018E
:1032D000DDF860800A908A46C1F30A5505B93D467B
:1032E000002108464FF00000BAF1000F00F4400042
:1032F00005DA00EB80004FF4400101EA50004FEA8C
:103300009059B9F1010F00DDB9460A9850EA4A0018
:103310000ED044F61050A5F2FF3545432F14B8F1F6
:10332000000F1ED07542291E1EDDC9F100021CE0EF
:10333000B8F1010F4FF0000001D0302103E0F2435B
:1033400005E02154401CB042FBDB30460022002146
:1033500021540B99C1F80880C1E900200FB0BDE8E5
:10336000F08FBD1B6D1CDEE74A4600DA694206A8F5
:1033700000F074FA06AB93E8070003AB83E807009C
:1033800050460A9900F007FB8DE80700A0F50050B1
:103390001F3800900398002D09DD42F21F014A46B4
:1033A000084403A90390684600F066FD08E0A0F514
:1033B00000504A461F3803A90390684600F070FD8C
:1033C0008DE807000004000C03D04FF0FF304108E7
:1033D00000E01046B8F1000F03D00022009215461D
:1033E0001EE0751E05D400F0B3F9303262556D1E33
:1033F000F9D5B3460122084302D000227F1C04E025
:103400002078302801D100227F1E002A099786D01B
:103410001DE0112D07DA00F09BF9303262556D1C6A
:1034200050EA0102F5D1084302D00098C8B10EE07D
:103430000021681E05E0235C625C63542254401E38
:10344000491C8142F7DBAB46A81B401E09900020B7
:1034500004F80B000B98099AC0F80880C0E9002B0B
:103460007CE711264FF0000859E72DE9F04F884618
:103470000446D21D22F0070191B0D1E90001CDE947
:103480000A0107F0A9FB02460B98C00F01D02D20BE
:1034900007E02068810701D52B2002E0202101EA06
:1034A000C000032A099001D0072A05DB03464146E4
:1034B000204600F093F90BE12078800601D5E06901
:1034C00000E00620B8F1650F814606D0B8F1660F1E
:1034D00018D0B8F1670F70D131E00020B9F1110FA9
:1034E000009001DB112301E009F101030AAA01A9FF
:1034F0000CA8FFF7E4FEDDE90C70002609F10105D8
:10350000834647E001204B4600904FF000470AAA4F
:1035100001A90CA8FFF7D3FEDDE90DB00C995D46BB
:10352000002610B909F101000D18B9EB050003D40C
:10353000C0F1FF3609F10105A5EB09002BE0B9F157
:10354000010F01DA4FF001090020B9F1110F0090CD
:10355000484601DD112300E003460AAA01A90CA890
:10356000FFF7ADFEDDE90C704D460026834620785E
:1035700000070AD4AB4500DA5D4601A8012D04DD41
:10358000411911F8011C302907D04F4502DA17F113
:10359000040F04DA012082460FE06D1EEEE7002FD3
:1035A00002DCED1B3E4403E0781CA84200DD7D1CDC
:1035B000B81B00F1010A4FF000472078000703D440
:1035C000AA4501DB4FF0FF3A0021B7F1004F0DF1A2
:1035D00043088DF8431024D002202B23002F01DA5A
:1035E0007F422D230A21021EA0F1010000DC5FB101
:1035F00097FBF1FC97FBF1F201FB1C7C17460CF1E9
:10360000300C08F801CDEEE7A8F101000370218825
:10361000090501D5452100E06521A0F1010800F868
:10362000011C09980FA9A1EB0807FF1D00B101209B
:10363000411901EBEA70A1693844081A401EA061E3
:103640002078C00602D42046FFF7B0FA099828B1C6
:10365000D4E901219047206A401C20622078C006EE
:1036600022D52046FFF7A2FA1EE0002E04DBB34568
:1036700002DD01A8805D00E03020D4E901219047FF
:10368000206A401C2062761CAAF101005FEA000A51
:103690000AD100F055F8C0680168405CD4E9012106
:1036A0009047206A401C2062281EA5F10105DCDC41
:1036B00007E0D4E9012118F8010B9047206A401C6B
:1036C0002062381EA7F10107F3DC2046FFF784FAD9
:1036D000032011B043E6000001694A1C026108782A
:1036E000704700B58FB0CDE9013100210591054942
:1036F0007944CDE9031011466846FFF70FFB0FB080
:1037000000BD0000E5FFFFFF0A6802F8010B0A6038
:10371000704710B5436913B1AFF3008001E0FFF7C4
:103720006CFA012010BD127800F124010A70002209
:103730004A700122EDE711684FF0FF32E9E700001F
:1037400000487047942500200048704774250020E9
:1037500030B5B0F10A024FEA900E71F100034EEA63
:10376000817EB0EB0E0061EB91014FEA101E4EEA34
:10377000017E10EB0E0041EB11114FEA102E4EEAC4
:10378000016E10EB0E0041EB11214FEA104E4EEA94
:10379000014E10EB0E0041EB1141401841F10001C8
:1037A0004FEAD00040EA41704FEAD10110EB8005AA
:1037B0004FEA810444EA907444EB01046D1944EB30
:1037C0000404521BA3414FF0000348BF0A3200D546
:1037D00030BD401C41F1000130BD00002DE9F04139
:1037E0001F46044603260168072A01F4006004DB33
:1037F00008B116A505E016A503E008B115A500E07F
:1038000015A521F010002060A069C01EA0610FB1B5
:10381000401EA0612046FFF7C9F94FB1D4E901214C
:1038200038469047206A401C2062C01C206206E097
:10383000206AFAE7D4E9012115F8010B9047761EBA
:10384000F8D22046FFF7C8F9BDE8F0814E414E009E
:103850006E616E00494E4600696E66002DE9F047C4
:10386000814616468AB0334878440DC88DE80D006D
:1038700030487844801C03AC0DC884E80D0041F644
:103880009B300844372190FBF1F290FBF1F5A5F154
:10389000800501FB12041B3C02D56442012000E0BC
:1038A0000020DFF890A080460027FA44AAF1BE0A63
:1038B0000DE0E00709D03246684607EB47010AEB06
:1038C000810100F0EDFA8DE8070064107F1C002CE8
:1038D000EFD1184F7F44AC3F18E0E80714D007EB56
:1038E00004100DF1180A90E80E008AE80E00C06876
:1038F000F04201D198190890324606A903A800F0B9
:10390000CFFA03AB83E807006D10641C002DE4D1EF
:1039100032466946B8F1000F03A802D000F0ACFAB5
:1039200001E000F0BDFAC9E90001C9F808200AB0B9
:10393000BDE8F087C04701000048704774250020AB
:103940007546FFF7F9FFAE4605006946534620F07D
:103950000700854618B020B5FFF798F8BDE820406D
:103960004FF000064FF000074FF000084FF0000B3B
:1039700021F00701AC46ACE8C009ACE8C009ACE8EE
:10398000C009ACE8C0098D4670470446AFF300801B
:103990002046FFF756F85FEA400C08BF91F0000F91
:1039A0004FEA8C234FEAC12243EA51514FEA1C509F
:1039B00018BF00F5F0404FEA300018BF41F0004159
:1039C0005FEA6C5C00F02980BCF1FF3F08BF40F06B
:1039D00080407047130C06BF12044FF0100C4FF0DC
:1039E000000C130E04BF12020CF1080C130F04BFDD
:1039F00012010CF1040C930F04BF92000CF1020CA5
:103A0000D30F04BF52000CF1010C11464FF000021D
:103A1000A0F11F00A0EB0C00704711F0004F08BF91
:103A2000704731F000413FF4D5AF0B0C06BF0904DD
:103A30004FF0100C4FF0000C0B0E04BF09020CF1FC
:103A4000080C0B0F04BF09010CF1040C8B0F04BF11
:103A500089000CF1020CCB0F04BF49000CF1010CE2
:103A6000CCF12003A0EB0C0022FA03F302FA0CF2D3
:103A700041EA030100F10100704720F07F4C80EA29
:103A8000030023F07F47ACEB070303F57C5300F002
:103A9000004003F1FF032DE980494FEA154B09B4BB
:103AA0004FEA144325EA0B4E24EA03480FF204269A
:103AB00006EB132749083E785FEA320203FB0667EC
:103AC000C7F5000707FB06F64FEA54374FEAD6461C
:103AD00006F1020607FB066CCCF1005C4FEA1C47BE
:103AE0002CEA074C07FB06F40CFB06F504EB154625
:103AF0004FEA961634BF00204FF000404FEAD1370E
:103B000006FB07FC4FEA1C4C0CFB0BF7D21B03FB1C
:103B10000CF761EB07010CFB0EF7B0EB074072EB03
:103B200017420CFB08F734BFA2EB0742B2EB074287
:103B300061EB17414FEA0C444FEA910706FB07FC83
:103B40004FEA1C4C0CFB0BF7B0EBC74072EB573243
:103B500003FB0CF734BFA2EBC742B2EBC74261EBE9
:103B600057310CFB0EF7B0EBC70072EB57720CFB32
:103B700008F734BFA2EBC702B2EBC70261EB577183
:103B8000039F4FEA816141EA921104EBCC044FEAB2
:103B9000D1374FEA826206FB07FC42EA90124FEAF5
:103BA00080604FEA1C4C0CFB0BF7D21B03FB0CF79D
:103BB00061EB07010CFB0EF7B0EB074072EB17420D
:103BC0000CFB08F734BFA2EB0742B2EB074261EBF4
:103BD00017414FEA8C554FEA910704EB9C2406FBF2
:103BE00007FC4FEA1C4C0CFB0BF7B0EBC74072EB29
:103BF000573203FB0CF734BFA2EBC742B2EBC7420C
:103C000061EB57310CFB0EF7B0EBC70072EB57724C
:103C10000CFB08F734BFA2EBC702B2EBC70261EBA3
:103C2000577115EB4C254FEA816141EA92114FEA39
:103C300082624FEAD13742EA901206FB07FC44F158
:103C400000044FEA80604FEA1C4C0CFB0BF7D21BC0
:103C500003FB0CF761EB07010CFB0EF7B0EB074021
:103C600072EB17420CFB08F734BFA2EB0742B2EB32
:103C7000074261EB174115EB1C154FEA813141EA10
:103C800092414FEA823242EA90424FEA80304FEA54
:103C90000C7644F1000448EA03434EEA0B484FF027
:103CA000000EB2EB080C71EB030724BF62463946E5
:103CB0004EEB0E0E4FF0000B0018524149414BEBFA
:103CC0000B0BB2EB080C71EB03077BF1000B24BF6D
:103CD000624639464EEB0E0E4FF0000B0018524173
:103CE00049414BEB0B0BB2EB080C71EB03077BF17B
:103CF000000B24BF624639464EEB0E0E51EA020716
:103D000018BF46F0010616EB0E7655F1000254F18D
:103D1000000103D5BDE88901BDE80088BDE889013F
:103D2000BDE80048B619524141EB0101A3F101037E
:103D3000704780807F7E7D7C7B7A79787776767518
:103D40007473727171706F6E6E6D6C6C6B6A6A6990
:103D50006868676666656464636362616160605F2A
:103D60005F5E5E5D5D5C5C5B5B5A5A5959585857A3
:103D7000575656555555545453535252525151500B
:103D800050504F4F4F4E4E4D4D4D4C4C4C4B4B4B5E
:103D90004A4A4A49494948484847474747464646A4
:103DA00045454544444444434343434242424241DF
:103DB0004141002B26D4770021D01CB54FEA3707AC
:103DC00003B44FF010004FF010014FF000000FBC93
:103DD000BDE810400BF1010BBBF1010F08BF5FEA1A
:103DE000170722BF12F1010211F101014FF000414A
:103DF00043F1000300F0004043EA00007047F9D3AC
:103E00005708DAE746EA064613F1400F4FEA16462E
:103E10001FDD13F1200FDFBF16430A4600212033B8
:103E20005B42C8D0C3F1200746EA064602FA07F70C
:103E30004FEA164646EA0706C3F1200722FA03F2C4
:103E400001FA07F721FA03F14FF0000342EA0702F3
:103E5000B1E746EA020646EA06464FEA164646EA51
:103E60000106BCBF46EA0646360C4FF000034FF091
:103E700000024FF000019EE72DE9C048934630B4A0
:103E800091E8380007C831EA400C48BF34EA430CD7
:103E900003D5FFF7F2FDFFF78CFFF0BCBDE800880B
:103EA0002DE9C048934630B491E8380007C810F0B7
:103EB000804F08BF13F0804F03D100F005F8FFF7E3
:103EC00078FFF0BCBDE8008820F07F4780EA03005F
:103ED00023F07F4C07EB0C03A3F57C5300F000406C
:103EE000A3F1FE0392F0000F00F0B38095F0000FF5
:103EF00000F077802DE901494FEA11404FEA14465E
:103F000021EA004800FB06FC24EA064708FB06F607
:103F100007FB08F800FB07F718EB06484CEB164CBC
:103F20004FEA124B18EB07484FEA15464CEB174087
:103F300022EA0B4E0BFB06FC25EA06470EFB06F6B3
:103F400007FB0EFE0BFB07F71EEB064E4CEB164C69
:103F50004FF000061EEB074E4CEB174B18EB0B080F
:103F600040F1000018EB0E0B58EB000840F1000088
:103F70008F1A4FF000013CBFC943661B14BFB5EB5D
:103F8000040C00213CBFC943F61B4FEA17444EEA1C
:103F90008E0E27EA04454FEA1C4704FB07622CEA11
:103FA000074C05FB07F70CFB05F604FB0CFC16EBB6
:103FB000074642EB174216EB0C4642EB1C421BEB4A
:103FC000060658EB0202414146EA9E0601D5BDE8CD
:103FD0000189B619524141EB0101A3F10103BDE88A
:103FE00001894FEA14454FEA114724EA054621EAC0
:103FF000074C05FB07F406FB07F70CFB06F105FB76
:104000000CFC11EB074144EB17444FEA124711EB4C
:104010000C4144EB1C4422EA074C05FB07F206FB6B
:1040200007F70CFB06F605FB0CFC16EB074642EB0C
:10403000174216EB0C4642EB1C456A1854F100017E
:1040400048BF7047B619524141EB0101A3F101038A
:10405000704795F0000F37D04FEA11424FEA1447EE
:1040600021EA024624EA074C02FB07F106FB07F7A8
:104070000CFB06F402FB0CFC14EB074441EB17416C
:104080004FEA154714EB0C4441EB1C4125EA074C61
:1040900002FB07F506FB07F70CFB06F602FB0CFC20
:1040A00016EB074645EB174516EB0C4645EB1C4255
:1040B000121951F1000148BF7047B619524141EB46
:1040C0000101A3F1010370474FEA14454FEA11477C
:1040D00024EA054621EA074C05FB07F106FB07F732
:1040E0000CFB06F24FF0000605FB0CFC12EB07423E
:1040F00041EB174112EB0C4251EB1C4148BF70479A
:10410000921841EB0101A3F10103704710B50BF0C8
:1041100099FA408C012804D10BF094FA00214184D3
:1041200003E00BF08FFA012141840BF08BFA90F839
:104130002240214606200CF05BFB10BD1CB510A1EF
:1041400003C9CDE900010BF07DFA808A01280BD16B
:1041500000208DF807000821684601F037FA0BF0BF
:1041600071FA002181820AE00BF06CFA0121818250
:1041700001208DF807000821684601F027FA1CBDD0
:104180005AA505821009000008B50121102003F08E
:104190003FFB4FF40050ADF8000010208DF80300F5
:1041A00002208DF802006946074800F04DFD00200E
:1041B00003F0DCFB4FF40051034800F01DFE034800
:1041C00006F0E8FD08BD000000100140154400089D
:1041D00010B5012003F03CFB002003F039FB10BDBB
:1041E00008B501460020009003480090009808445C
:1041F00000900098008808BD006C004008B50022BF
:104200000092044A0092009A02440092009A1160BF
:1042100008BD0000006C00400EB500200090019029
:10422000029003208DF8000002208DF8010000208C
:104230008DF802008DF8030002208DF804008DF83F
:1042400005006946052011F0C9FB0EBD0EB5002022
:1042500000900190029002208DF800008DF801007E
:1042600000208DF802008DF8030002208DF8040074
:104270008DF805006946052011F0B0FB0EBD0EB5A6
:10428000002000900190029004208DF80000022090
:104290008DF8010000208DF802008DF80300022047
:1042A0008DF804008DF805006946052011F096FB95
:1042B0000EBD0EB5002000900190029005208DF8F3
:1042C000000002208DF8010000208DF802008DF81A
:1042D000030002208DF8040001208DF805006946D6
:1042E000052011F07BFB0EBD0EB500200090019063
:1042F000029002208DF800008DF8010000208DF85A
:1043000002008DF8030002208DF8040001208DF8D2
:1043100005006946052011F061FB0EBD7FB505461D
:104320000024394B0FCB8DE80F0038480078012866
:1043300000D17FBD0120354908704FF416700EF092
:1043400053FC334908600846006800B9F1E74AE0C9
:10435000287830383DF8100061002D4A126822F8A4
:10436000110068785F280DD16100294A126832F87F
:10437000110000EBD07149106200254B1B6823F837
:10438000121010E068787E280DD16000204909687D
:1043900031F810004FF6FF7101EA400061001C4A3D
:1043A000126822F81100A8793038082191FBF0F04A
:1043B000012101EB4401164A126822F81100012084
:1043C00000EB44001249096831F8100029793039AE
:1043D0004843012101EB44010D4A126822F8110003
:1043E0000835601C84B228780028B1D1012101EB86
:1043F0004401074A126822F811000121880705F0DC
:104400008EFB00BF95E70000007C010870000020D3
:104410007400002010B53B480068002870D03A486E
:10442000008840003749096831F81000374991FB8E
:10443000F0F437480068401C35490860354800688A
:10444000401C3449086064B1601F314909688842E2
:1044500003D201203049086006E000202E490860A0
:1044600002E000202C4908602748008840002549C8
:10447000096831F81000254991FBF0F024490968DA
:10448000884202D80020224908601F480088012184
:1044900001EB40001B49096831F8100040F271211E
:1044A00048431C490968B1EB001F28D3164800880F
:1044B000401C1549088000201649086012480088F1
:1044C000012101EB40000F49096831F81000B0B933
:1044D00000200D4908800F4908600D49086009480F
:1044E00000680EF06DFB0020064908600A4908606C
:1044F0000A49087000214FF0804005F010FB00BF12
:1045000010BD00007400002078000020A08601008B
:10451000800000207C000020B401224270000020B6
:1045200003F076F870B50546002401240AE000F097
:104530006BFC610030F81100A84201D1012070BD70
:10454000601C84B200F060FC610030F811000028AB
:10455000EDD100BFF3E70000002000BF04E0002120
:10456000034A1154411C88B23A28F8DB7047000016
:104570007E2200207FB505460C46002600200190D3
:10458000029003900090FF208DF804008DF8050044
:1045900028128DF80600E8B28DF8070001208DF88A
:1045A000080000208DF8090002208DF80A00002084
:1045B0008DF80B0010208DF80C006A46092101A827
:1045C00000F0DCFC9DF800008DF80D009DF8010066
:1045D0008DF80E000B2101A803F0F0F900BF30E0C8
:1045E000C8200AF0A3F91921204603F02DFA30B3B0
:1045F000A079C11D6A46204600F0C0FC9DF800105D
:10460000A079C01D205C814219D19DF80110A079CC
:104610000830205C814212D1E078A17840EA012084
:10462000A8420CD120799DF8081041F08001884201
:1046300005D1207AE17940EA012004B070BD701CF8
:10464000C6B2052ECCDB0A20F7E72DE9F0418EB08B
:1046500004460D4616461F464FF000080020029003
:104660000390049005900190FF208DF808008DF8CC
:10467000090020128DF80A00E0B28DF80B0003202B
:104680008DF80C0000208DF80D0003208DF80E0031
:104690008DF80F508DF810608DF8117001AA0A2165
:1046A00002A800F06BFC9DF804008DF812009DF844
:1046B00005008DF813000C2102A803F07FF900BF5C
:1046C0003DE0C8200AF032F9182106A803F0BCF931
:1046D00080B39DF81E00C11D01AA06A800F04EFC83
:1046E0009DF804109DF81E00C01D06AA105C8142B2
:1046F00021D19DF805109DF81E000830105C814204
:1047000019D19DF81B009DF81A1040EA0120A04223
:1047100011D19DF81C009DF80C1041F080018842D9
:1047200009D19DF820009DF81F1040EA01200EB02D
:10473000BDE8F081FFE708F101001FFA80F8B8F149
:10474000050FBEDB0A20F2E72DE9F04706460F46CB
:1047500090461C464FF0004020FA04F50C480068D3
:10476000284010B10120BDE8F087094800682843BF
:1047700007490860002342463946304602F084FF6C
:10478000814622464946304603F000F80020EAE719
:104790006800002002F03CFF10B50446A0B20AF009
:1047A000C5F810BDFEB504460E4615460020009023
:1047B0000190029002208DF80000022C52D1A6B385
:1047C000012D17D101208DF801008DF802006946F6
:1047D000042011F003F96946022011F0FFF80020CF
:1047E0008DF8010002208DF802006946042011F0C6
:1047F000F5F8ADE0022DFCD101208DF8010002207A
:104800008DF802006946042011F0E8F8694602209C
:1048100011F0E4F800208DF8010001208DF802006D
:104820006946042011F0DAF892E0FFE700208DF8E5
:10483000010001208DF802006946042011F0CEF835
:104840006946022011F0CAF800208DF8010002200C
:104850008DF80200694611F0C1F86946042011F094
:10486000BDF875E0032C01D0052C51D19EB3012D6C
:1048700017D101208DF8010003208DF80200694650
:10488000042011F0ABF86946022011F0A7F80020CF
:104890008DF8010004208DF80200694611F09EF8A1
:1048A00056E0022D54D101208DF8010004208DF82E
:1048B0000200694611F092F86946022011F08EF864
:1048C00000208DF8010003208DF8020069460420C5
:1048D00011F084F83CE0FFE700208DF8010004208F
:1048E0008DF80200694611F079F86946022011F04E
:1048F00075F800208DF8010003208DF8020069464C
:10490000042011F06BF86946022011F067F81FE0EF
:10491000042C1DD176B101208DF8010006208DF800
:1049200002006946042011F059F86946022011F08E
:1049300055F80DE000208DF8010006208DF80200EA
:104940006946042011F04AF86946022011F046F841
:10495000FEBD000070B500240025102000F06CF8AA
:1049600000285ED0102000F061F800BF152003F091
:104970009BFC044604F0F001152006F075F8294868
:104980000078204327490870172003F08DFC044667
:1049900004F0010090B10221002003F0A7FC0546BD
:1049A0002A460221002006F08FF81F48007828438D
:1049B0001D4908700121072005F006FA04F00200E5
:1049C000022812D10221012003F090FC05462A465C
:1049D0000221012006F078F8134840782843124954
:1049E00048700121072005F0EFF904F004000428C5
:1049F00012D10221084603F079FC05462A4602211D
:104A0000084606F061F8084880782843064988700F
:104A10000121072005F0D8F9172003F045FC0028F4
:104A2000A4D170BD080100200901002001490860DF
:104A30007047000014040140014600200022074B8B
:104A40001B6803EA0102054B14331B680B4013B1CA
:104A50000AB1012000E0002070470000000401407E
:104A6000002123498279002A3AD00A461268036855
:104A70009A430B461A600A1D126803689A430B1D7D
:104A80001A60027911440A6803681A430A60184AD6
:104A90000832126803689A43154B08331A601A1DCE
:104AA000126803689A43124B0C331A604279102A39
:104AB0000ED11A1F126803681A430D4B08331A608F
:104AC0001A1D126803681A43094B0C331A600DE073
:104AD0000749427911440A6803681A430A6005E0ED
:104AE000027911440A6803689A430A60704700001B
:104AF0000004014030B5044604254FF4302000F096
:104B00006FF80546042D17D10C48006940F00200EB
:104B10000A49086108464461006940F040000861A4
:104B20004FF4302000F05CF805460448006941F677
:104B3000FD71084001490861284630BD002002404F
:104B400004200B49C96801F0010109B101200EE000
:104B50000749C96801F0040109B1022007E00449CE
:104B6000C96801F0100109B1032000E0042070477A
:104B7000002002400348006940F0800001490861BC
:104B8000704700000020024070B504460D46042620
:104B9000F00200F025F80646042E11D109480069FC
:104BA00040F00100074908612580F00200F018F884
:104BB00006460448006941F6FE7108400149086153
:104BC000304670BD00200240024803494860034857
:104BD000486070472301674500200240AB89EFCD54
:104BE00000B502460423FFF7ABFF034603E0FFF7DF
:104BF000A7FF0346521E012B01D1002AF7D102B9AB
:104C00000523184600BD000030B500228B071C0F9D
:104C10000F2303FA04F20B4B8C1053F82430934308
:104C2000084C8D1044F8253023468C1053F824305E
:104C30008C07240F00FA04F42343024C8D1044F82F
:104C4000253030BD080001402DE9F0410246002525
:104C50000026002000230024002791F803C00CF058
:104C60000F0591F803C00CF0100CBCF1000F03D03D
:104C700091F802C04CEA050591F800C0BCF1000FA4
:104C800031D0146800202BE04FF0010C0CFA00F337
:104C9000B1F800C00CEA03069E4220D183004FF019
:104CA0000F0C0CFA03F7BC4305FA03FC4CEA0404AE
:104CB00091F803C0BCF1280F06D14FF0010C0CFA9B
:104CC00000FCC2F814C00AE091F803C0BCF1480F20
:104CD00005D14FF0010C0CFA00FCC2F810C0401CCA
:104CE0000828D1D31460B1F800C0BCF1FF0F34DD47
:104CF000546800202EE000F1080C4FF0010808FA7B
:104D00000CF3B1F800C00CEA03069E4221D18300E7
:104D10004FF00F0C0CFA03F7BC4305FA03FC4CEA06
:104D2000040491F803C0BCF1280F05D100F1080C70
:104D300008FA0CF8C2F8148091F803C0BCF1480FCF
:104D400007D100F1080C4FF0010808FA0CF8C2F87E
:104D50001080401C0828CED35460BDE8F0810000CC
:104D6000F0B50A46002300240021002500F000468B
:104D7000B6F1004F02D11D4EF16901E01B4E716882
:104D8000C0F3034583B200F44016B6F5401F08D1C6
:104D900021F07061154E766826F07066134F7E60C4
:104DA00012E000F48016B6F5801F06D1032606FA3D
:104DB00005F4A14341F0706106E0460D360103FAA7
:104DC00006F6B14341F0706122B1460D360103FA97
:104DD00006F6314300F00046B6F1004F02D1034E13
:104DE000F16101E0014E7160F0BD00000000014082
:104DF0000146886880B27047416170470161704721
:104E0000004870479824002000487047082300207D
:104E10000246002100BF0DE0012000EB41000A4BDB
:104E200013F81000904203D1480033F81000704787
:104E3000481C81B2012000EB4100034B33F8100005
:104E40000028E9D100BFF2E71601002000B50246B4
:104E50000021012112E0FFF7D7FF4B0030F81300CB
:104E6000904209D1FFF7D0FF012303EB410330F853
:104E7000130000F47F4000BD481C81B2FFF7C4FF5F
:104E80004B0030F813000028E5D1FF20F3E700B510
:104E90000246002100BF10E0FFF7B6FF4B0030F8DC
:104EA0001300904207D1FFF7AFFF012303EB41034B
:104EB00010F8130000BD481C81B2FFF7A5FF4B009E
:104EC00030F813000028E7D1FF20F3E730B50246A1
:104ED0000B4600210024012114E0FFF795FF012576
:104EE00005EB410510F81500904209D19C4205D10F
:104EF000FFF78AFF4D0030F8150030BD601C84B20A
:104F0000481C81B2FFF780FF012505EB410530F811
:104F100015000028E1D100BFEFE700001349098820
:104F2000322904DA1249114A1288885C05E000210E
:104F30000E4A11800E491288885C00210D4A1160CA
:104F40000B4A0A4B1B88D1540B49098821B10A49E5
:104F50000988491E084A11800121064A1160034947
:104F60000988491C014A118070470000CA000020CE
:104F70004C22002094012742D0000020F0B50B46BF
:104F8000FF24FF2509E010F8016B86EA0401074EB3
:104F9000765C86EA0504064E755C1E00A3F10107E7
:104FA000BBB2F0D114705570F0BD0000687C0108F0
:104FB000687D010810B501464A1E034B985C00232A
:104FC0004A1E014CA35410BD8400002000B5FFF719
:104FD0001BFF008800BD00B5FFF716FF90F86601C3
:104FE00000BD00B5FFF710FF00F5B47000BD000074
:104FF00010B50446002300BF04E00548C05CE0543F
:10500000581C83B23A2BF8DBFFF7A6FA184610BDFE
:105010007E220020F8B506460C46002500200090B0
:105020000027194806602078FF281CD16078FF28E7
:1050300019D1A079617940EA0120C01D85B2382DCF
:1050400000DDF8BD6A4629462046FFF797FF605D00
:105050009DF80010884206D1681C205C9DF8011064
:10506000884200D1012767B12079052803D1204665
:1050700006F021FA04E00521204606F075FA00BF8B
:1050800000BF00BFDDE700009001002010B50AF06E
:10509000D9FAC08B01280ED1012108460BF0A8FBDC
:1050A000642009F05DFC002102200BF0A1FB6420CC
:1050B00009F056FC21E00AF0C5FAC08B02280ED197
:1050C000002101200BF094FB642009F049FC012130
:1050D00002200BF08DFB642009F042FC0DE0002162
:1050E00001200BF085FB642009F03AFC002102202E
:1050F0000BF07EFB642009F033FC0AF0A3FA408C2D
:10510000012807D1012106200BF072FB642009F071
:1051100027FC06E0002106200BF06AFB642009F062
:105120001FFC10BD02F074FA4CF6CC400149086037
:10513000704700000030004010B500F01DF810BDB1
:1051400070B5044607254FF6FF7000EA4414204668
:10515000E11704EB11610E1245F2555000F020F8F2
:10516000284600F011F8304600F014F800F004F87A
:10517000FFF7DAFF70BD00004AF6AA200149086077
:10518000704700000030004001494860704700004F
:105190000030004001498860704700000030004046
:1051A0000149086070470000003000401CB504460B
:1051B00009A103C9CDE90001E07960B9207A052889
:1051C00009D1607A0D2806D1A07AC02803D1062122
:1051D000684600F0FBF91CBD5AA503804F02000091
:1051E0000146CA1701EB92729210A1EB820292B9AA
:1051F000642091FBF0F200FB121050B94FF4C8701C
:1052000091FBF0F200FB121008B90120704700205A
:10521000FCE70120FAE70020F8E7000010B5FF24C2
:105220008548FFF7E5FD00F00F04ACB9834800782E
:1052300010BB03208249087082480078401C8149D5
:10524000087008460078502816DB02207C49087058
:1052500001207A4908700FE07A480078012806DDBD
:1052600078480078502802DA01207549087000203B
:105270007449087071490870012C15D16F48407845
:1052800010BB03206E4948706E484078401C6D4941
:10529000487008464078502816DB0220684948705C
:1052A0000120664948700FE066484078012806DD15
:1052B00064484078502802DA012061494870002093
:1052C000604948705D494870022C15D15B48807870
:1052D00010BB03205A4988705A488078401C5949AD
:1052E000887008468078502816DB02205449887060
:1052F0000120524988700FE052488078012806DD6D
:1053000050488078502802DA01204D4988700020EA
:105310004C49887049498870032C15D14748C0789A
:1053200010BB03204649C8704648C078401C454918
:10533000C8700846C078502816DB02204049C87063
:1053400001203E49C8700FE03E48C078012806DDC4
:105350003C48C078502802DA01203949C870002042
:105360003849C8703549C870042C15D133480079C4
:1053700010BB03203249087132480079401C314982
:10538000087108460079502816DB02202C49087164
:1053900001202A4908710FE02A480079012806DD1A
:1053A00028480079502802DA012025490871002098
:1053B0002449087121490871052C15D11F484079ED
:1053C00010BB03201E4948711E484079401C1D49EE
:1053D000487108464079502816DB02201849487168
:1053E0000120164948710FE016484079012806DD72
:1053F00014484079502802DA0120114948710020F0
:10540000104948710D4948710D48007870B90C4831
:10541000407858B90A48807840B90948C07828B916
:105420000748007910B90648407918B101210846AB
:1054300004F0CAFC10BD00000010014090000020E4
:10544000840000208A00002008B50121102002F00D
:10545000DFF90F20ADF8000048208DF8030003208D
:105460008DF8020069460348FFF7EEFB024805F09D
:105470007DFC08BD001001401D52000810B586B02B
:1054800004460121042002F0C3F90121082002F0A2
:10549000BFF90121480402F09BF94FF48050ADF8A8
:1054A000140010208DF8170003208DF8160005A9B0
:1054B0002A48FFF7C9FB0420ADF8140018208DF826
:1054C000170005A92648FFF7BFFB0820ADF8140018
:1054D00004208DF8170005A92148FFF7B5FB01212D
:1054E000480402F085F900214FF4003002F080F901
:1054F00001940020ADF80800ADF80A00ADF80C00EA
:10550000ADF810000C20ADF80E0001A9154805F00B
:1055100079F826208DF8000000208DF80100022087
:105520008DF8020001208DF80300684602F024F88F
:10553000012240F225510B4805F03FF8012240F2CC
:105540002441084805F039F80121064804F0A3FF7A
:1055500000200549086006B010BD0000000C0140A5
:105560000008014000440040B08121422DE9F04193
:1055700005460C46104806780027002020800F487A
:105580000078012816D100200D4908600A480078EB
:10559000208032460B4928460DF03CFB3246002164
:1055A00008480DF044FB002003490870012006491B
:1055B000C1F89401BDE8F081970000209800002018
:1055C00094810842862100200080084270B505467B
:1055D0000E4601200E49086000240CE000BF402167
:1055E0000C4804F0B3FF0028F9D0295D094805F004
:1055F0007AF8601CC4B2B442F0DB00BF4021054819
:1056000004F0A4FF0028F9D000200149086070BD13
:10561000B081214200440040202801D20149087095
:10562000704700009600002000B50AF00BF8408C8F
:1056300000BD00B50146052904DA0AF003F830F888
:10564000110000BD0020FCE700B5014609F0FAFF9B
:10565000418400BD00B50246052A03DA09F0F2FFD5
:1056600020F81210002000BD08B50121082002F02A
:10567000CFF80320ADF8000018208DF803000320B8
:105680008DF8020069463A48FFF7DEFA00203949F2
:1056900008603949C1F8A0010121082002F0B8F8DA
:1056A0000820ADF8000010208DF8030003208DF8CD
:1056B000020069462E48FFF7C7FA0121202002F0B8
:1056C000A7F80420ADF8000010208DF80300032097
:1056D0008DF8020069462948FFF7B6FA012110202B
:1056E00002F096F84FF48060ADF8000010208DF8BD
:1056F000030003208DF8020069462148FFF7A4FA51
:105700000121042002F084F84FF40040ADF80000BD
:1057100010208DF8030003208DF802006946194817
:10572000FFF792FA0121082002F072F80120ADF88B
:10573000000010208DF8030003208DF802000121E5
:10574000042002F065F80220ADF8000010208DF86A
:10575000030003208DF8020069460A48FFF774FA37
:105760000020094908600BF0CFFC0BF00DF808BDD4
:10577000000C01409C012242000022420014014022
:1057800000100140000801408C81214270B50024C6
:10579000FFF73AFB0546C82229461D4803F08AFB5D
:1057A00000BF0EE0FFF730FB30F814004FF6FF713A
:1057B000884204D1FFF728FB002120F81410601C58
:1057C00084B2C82CEEDB002417E004F0010090B195
:1057D000FFF71AFB00EB440108780880FFF714FB81
:1057E00010F8140038B1FFF70FFB00EB44010888F4
:1057F00040F400600880601C84B2642CE5DBFFF795
:1058000003FB811C408840F48070088070BD00005C
:1058100028FC03087CB5002400200090019009F0CA
:1058200011FF808BADF8000009F00CFFC08BADF8C4
:10583000020009F007FF008CADF8040009F002FF38
:10584000408CADF8060009F0FDFE054614222946FD
:10585000124803F02FFB00BF0EE009F0F3FE30F812
:1058600014004FF6FF71884204D109F0EBFE0021CD
:1058700020F81410601C84B2142CEEDB09F0E2FE58
:10588000BDF80010818309F0DDFEBDF80210C18370
:1058900009F0D8FEBDF8041001847CBD00FC0308AB
:1058A0001CB500200090019006220F490F480DF012
:1058B000B1F90D49891D062268460DF0ABF90020AB
:1058C00008E00A49095C1DF800201144074A1154F8
:1058D000411CC8B20628F4DB0448007800F0FE0042
:1058E000024908701CBD0000E8F7FF1F02010020FC
:1058F00070B54FF4C8600DF077F905462C4614A238
:1059000014A1204610F040FA083411A212A120463A
:1059100010F03AFA08340EA210A1204610F034FA22
:1059200008340BA20EA1204610F02EFA08340DA266
:105930000DA1204610F028FA0834204609F0BCFFDB
:105940002846FEF7EBFC28460DF03AF970BD000042
:10595000312F320035000000340000003300000019
:1059600032000000312F31003100000070B54FF4DB
:10597000C8600DF039F905462C46FEA2FEA120466E
:1059800010F002FA0834FDA2FDA1204610F0FCF947
:105990000834FCA2FCA1204610F0F6F90834FBA262
:1059A000FBA1204610F0F0F90834F6A2F9A1204638
:1059B00010F0EAF90834F1A2F3A1204610F0E4F95E
:1059C0000834F0A2EEA1204610F0DEF90834EDA272
:1059D000EDA1204610F0D8F90834EAA2E8A120464B
:1059E00010F0D2F90834E3A2E9A1204610F0CCF976
:1059F0000834E9A2E9A1204610F0C6F90834DDA276
:105A0000DDA1204610F0C0F90834DCA2DCA120465C
:105A100010F0BAF90834DBA2DBA1204610F0B4F98B
:105A20000834DAA2DAA1204610F0AEF90834D5A283
:105A3000D8A1204610F0A8F90834D2A2D2A120465D
:105A400010F0A2F90834CBA2CDA1204610F09CF9A9
:105A50000834CEA2C8A1204610F096F90834C5A299
:105A6000C7A1204610F090F90834C8A2C8A120466A
:105A700010F08AF90834BFA2BFA1204610F084F9C3
:105A80000834BCA2C2A1204610F07EF90834BDA2A1
:105A9000BBA1204610F078F90834BAA2BAA120467A
:105AA00010F072F90834B9A2B5A1204610F06CF9D3
:105AB0000834B0A2B7A1204610F066F90834ADA2B0
:105AC000B1A1204610F060F90834ACA2ACA1204688
:105AD00010F05AF90834A7A2ADA1204610F054F9ED
:105AE0000834ADA2ADA1204610F04EF90834A1A2B1
:105AF000A1A1204610F048F908349EA2A4A1204696
:105B000010F042F908349BA29BA1204610F03CF90A
:105B1000083498A2A2A1204610F036F9083495A2C4
:105B20009BA1204610F030F9083492A29CA1204697
:105B300010F02AF908348FA29AA1204610F024F917
:105B4000083492A298A1204610F01EF9083497A2BA
:105B500093A1204610F018F908348AA28CA120469F
:105B600010F012F9083489A283A1204610F00CF934
:105B7000083480A286A1204610F006F908347FA2DE
:105B800087A1204610F000F908347EA281A12046AA
:105B900010F0FAF8083486A27DA1204610F0F4F83F
:105BA000083478A280A1204610F0EEF8083475A2DF
:105BB0007CA1204610F0E8F8083472A278A12046B3
:105BC00010F0E2F808346FA26BA1204610F0DCF868
:105BD00008346CA277A1204610F0D6F8083465A2EC
:105BE00065A1204610F0D0F8083466A268A12046CE
:105BF00010F0CAF8083465A265A1204610F0C4F878
:105C0000083460A262A1204610F0BEF808345FA2FA
:105C100059A1204610F0B8F808345AA25CA12046D9
:105C200010F0B2F8083453A25DA1204610F0ACF891
:105C3000083450A250A1204610F0A6F8083451A212
:105C400054A1204610F0A0F808344EA250A12046DE
:105C500010F09AF8083447A249A1204610F094F8B1
:105C6000083444A248A1204610F08EF8083441A21E
:105C700043A1204610F088F808344FA244A12046E2
:105C800010F082F808343FA241A1204610F07CF8C1
:105C900008343EA238A1204610F076F8083435A228
:105CA0003BA1204610F070F8083434A23CA12046F5
:105CB00010F06AF8083433A236A1204610F064F8D8
:105CC000083430A232A1204610F05EF808342DA22C
:105CD00035A1204610F058F808342AA231A12046F8
:105CE00010F052F8083427A22DA1204610F04CF8ED
:105CF000083424A220A1204610F046F8083421A23E
:105D00002CA1204610F040F808341AA21AA120460F
:105D100010F03AF8083420A21DA1204610F034F803
:105D2000083418A21AA1204610F02EF8083417A241
:105D300011A1204610F028F8083412A214A1204620
:105D400010F022F808340BA21CA1204610F01CF819
:105D500008340AA214A1204610F016F8083409A24B
:105D600016A1204610F010F8083408A20DA1204614
:105D700026E00000312F310036000000332F3200C2
:105D800032000000312F320031000000322F31008C
:105D90003300000030000000352F3200365F000075
:105DA00037000000317E0000327E0000362F3100C7
:105DB000312F330035000000332F3100337E0000D7
:105DC0000FF0E2FF0834AFF25402AFF22C0120468C
:105DD0000FF0DAFF0834AFF22C02AFF26401204674
:105DE0000FF0D2FF0834204609F066FD2846FEF782
:105DF00095FA28460CF0E4FE70BD000070B54FF433
:105E0000C8600CF0F1FE05462C46FEA2FEA120461D
:105E10000FF0BAFF0834FDA2FDA120460FF0B4FF39
:105E20000834F8A2F8A120460FF0AEFF0834F9A21A
:105E3000F9A120460FF0A8FF0834F4A2F7A12046EC
:105E40000FF0A2FF0834F6A2F1A120460FF09CFF4C
:105E50000834ECA2F3A120460FF096FF0834EBA221
:105E6000E9A120460FF090FF0834E6A2EDA12046FC
:105E70000FF08AFF0834E7A2E8A120460FF084FF64
:105E80000834E0A2E4A120460FF07EFF0834DDA232
:105E9000DFA120460FF078FF0834E1A2DAA1204606
:105EA0000FF072FF0834E0A2DBA120460FF06CFF78
:105EB0000834D8A2DDA120460FF066FF0834DAA22C
:105EC000D5A120460FF060FF0834D0A2D7A120460C
:105ED0000FF05AFF0834CBA2D5A120460FF054FF93
:105EE0000834C8A2D3A120460FF04EFF0834CEA23A
:105EF000C9A120460FF048FF0834C6A2C4A120461D
:105F00000FF042FF0834BFA2C4A120460FF03CFFAF
:105F10000834BEA2C0A120460FF036FF0834B9A253
:105F2000C4A120460FF030FF0834B6A2BAA1204623
:105F30000FF02AFF0834C0A2B8A120460FF024FFBA
:105F40000834B2A2B0A120460FF01EFF0834AFA261
:105F5000B1A120460FF018FF0834AAA2AFA1204635
:105F60000FF012FF0834A7A2ABA120460FF00CFFE0
:105F70000834A6A2A4A120460FF006FF0834AFA261
:105F8000A3A120460FF000FF0834A0A2A2A1204642
:105F90000FF0FAFE08349BA2A0A120460FF0F4FEF9
:105FA000083498A29FA120460FF0EEFE083495A277
:105FB000A3A120460FF0E8FE083492A296A1204645
:105FC0000FF0E2FE08348FA294A120460FF0DCFE11
:105FD00008348CA28CA120460FF0D6FE083489A28A
:105FE0008BA120460FF0D0FE083486A28BA120465C
:105FF0000FF0CAFE083490A287A120460FF0C4FE1D
:10600000083489A284A120460FF0BEFE083481A284
:1060100086A120460FF0B8FE08347AA27EA1204661
:106020000FF0B2FE083479A280A120460FF0ACFE3A
:10603000083474A27EA120460FF0A6FE083471A297
:106040007CA120460FF0A0FE083477A272A1204662
:106050000FF09AFE08346BA275A120460FF094FE53
:10606000083468A26DA120460FF08EFE083465A2A8
:1060700073A120460FF088FE083462A26DA120466D
:106080000FF082FE08345FA263A120460FF07CFE71
:1060900008345CA261A120460FF076FE08345BA2B2
:1060A0005BA120460FF070FE083464A25BA120467D
:1060B0000FF06AFE083455A257A120460FF064FE87
:1060C000083450A255A120460FF05EFE08344DA2C0
:1060D00054A120460FF058FE08344AA258A1204689
:1060E0000FF052FE083447A24BA120460FF04CFEA1
:1060F000083444A24BA120460FF046FE083441A2CA
:1061000041A120460FF040FE083440A24DA1204698
:106110000FF03AFE083449A23BA120460FF034FEAE
:1061200008343AA23CA120460FF02EFE083443A2C8
:106130003FA120460FF028FE083432A236A12046A7
:106140000FF022FE08342FA239A120460FF01CFECA
:10615000083430A235A120460FF016FE083429A2DB
:1061600039A120460FF010FE083426A237A12046A0
:106170000FF00AFE083423A22CA120460FF004FEE3
:10618000083422A22AA120460FF0FEFD08342AA2DC
:1061900026A120460FF0F8FD083423A22AA12046AC
:1061A0000FF0F2FD08341BA228A120460FF0ECFDF1
:1061B000083418A21DA120460FF0E6FD083424A2E1
:1061C0001BA120460FF0E0FD08340EA217A12046C7
:1061D0000FF0DAFD083418A20FA120460FF0D4FD0D
:1061E000083411A218A120460FF0CEFD083409A2F0
:1061F00016A120460FF0C8FD083406A20BA12046C8
:1062000028E00000312F3200365F0000312F3100CE
:1062100031000000332F3200330000003200000054
:10622000372F3200375F0000322F31003600000078
:106230003500000034000000342F3100332F3100CE
:1062400030000000355F0000317E000037000000A4
:10625000352F32000FF098FD0834AFF20C02AFF288
:10626000300120460FF090FD0834AFF26802AFF223
:10627000440120460FF088FD0834AFF24402AFF22B
:10628000680120460FF080FD0834AFF28002AFF2C3
:10629000880120460FF078FD0834AFF29002AFF28B
:1062A000900120460FF070FD0834AFF2A002AFF26B
:1062B000940120460FF068FD0834AFF2A802AFF257
:1062C000A80120460FF060FD0834AFF2C802AFF21B
:1062D000C00120460FF058FD0834AFF2D002AFF2F3
:1062E000C80120460FF050FD0834AFF2B002AFF203
:1062F000D40120460FF048FD0834AFF2F802AFF2A7
:10630000E40120460FF040FD0834AFF20812AFF26E
:10631000EC0120460FF038FD0834AFF21812AFF24E
:10632000E00120460FF030FD0834AFF22812AFF242
:10633000181120460FF028FD0834AFF23812AFF2E2
:106340001C1120460FF020FD0834AFF24812AFF2C6
:10635000481120460FF018FD0834AFF25012AFF28A
:106360001C1120460FF010FD0834AFF23412AFF2CA
:10637000681120460FF008FD0834AFF27812AFF232
:10638000781120460FF000FD0834AFF28012AFF212
:10639000801120460FF0F8FC0834AFF29812AFF2EB
:1063A000841120460FF0F0FC0834AFF29812AFF2DF
:1063B000981120460FF0E8FC0834AFF2B812AFF2A3
:1063C000B01120460FF0E0FC0834AFF2C012AFF27B
:1063D000B81120460FF0D8FC0834AFF2A012AFF28B
:1063E000C41120460FF0D0FC0834AFF2E012AFF237
:1063F000D81120460FF0C8FC0834AFF2D412AFF227
:10640000D01120460FF0C0FC0834AFF20022AFF2EA
:10641000F81120460FF0B8FC0834AFF20822AFF2B2
:10642000D41120460FF0B0FC0834AFF22822AFF2AE
:10643000202120460FF0A8FC0834AFF23822AFF23A
:10644000F41120460FF0A0FC0834AFF24822AFF25E
:10645000242120460FF098FC0834AFF25022AFF20E
:10646000302120460FF090FC083408A2AFF24421FE
:1064700020460FF089FC0834204609F01DFA284612
:10648000FDF74CFF28460CF09BFB70BD372F310009
:1064900070B54FF4C8600CF0A7FB05462C46FEA271
:1064A000FEA120460FF070FC0834FDA2FDA120469D
:1064B0000FF06AFC0834FCA2FCA120460FF064FC3B
:1064C0000834FBA2FBA120460FF05EFC0834F4A2C6
:1064D000F2A120460FF058FC0834F1A2F3A12046A7
:1064E0000FF052FC0834ECA2EEA120460FF04CFC59
:1064F0000834EBA2F0A120460FF046FC0834EFA2CE
:10650000E8A120460FF040FC0834EDA2E3A12046AC
:106510000FF03AFC0834E6A2E6A120460FF034FC66
:106520000834DDA2DDA120460FF02EFC0834DCA2E9
:10653000DCA120460FF028FC0834DBA2DBA12046BA
:106540000FF022FC0834DAA2DAA120460FF01CFC7E
:106550000834D3A2D1A120460FF016FC0834D0A2F3
:10656000D2A120460FF010FC0834CBA2D5A12046C2
:106570000FF00AFC0834CAA2CCA120460FF004FC9C
:106580000834CEA2CFA120460FF0FEFB0834C2A2F1
:10659000CDA120460FF0F8FB0834C5A2C5A12046C6
:1065A0000FF0F2FB0834C2A2BCA120460FF0ECFBB6
:1065B0000834C6A2C6A120460FF0E6FB0834BCA2F0
:1065C000BAA120460FF0E0FB0834B5A2BDA12046D9
:1065D0000FF0DAFB0834B2A2B4A120460FF0D4FBCE
:1065E0000834B3A2B7A120460FF0CEFB0834B0A206
:1065F000B0A120460FF0C8FB0834ADA2AEA12046E2
:106600000FF0C2FB0834A4A2AFA120460FF0BCFBE0
:106610000834AAA2ABA120460FF0B6FB0834A2A210
:10662000A2A120460FF0B0FB08349DA2A1A12046F4
:106630000FF0AAFB08349EA2A2A120460FF0A4FBF3
:10664000083497A299A120460FF09EFB083494A22B
:1066500092A120460FF098FB08348FA299A1204602
:106660000FF092FB08348EA28CA120460FF08CFB19
:1066700008348BA28DA120460FF086FB083488A237
:1066800086A120460FF080FB083483A287A1204614
:106690000FF07AFB083482A28AA120460FF074FB27
:1066A000083483A28AA120460FF06EFB083489A229
:1066B00085A120460FF068FB08347BA282A120460A
:1066C0000FF062FB08347AA27AA120460FF05CFB3F
:1066D000083477A280A120460FF056FB08346EA242
:1066E0007EA120460FF050FB083471A27CA1204609
:1066F0000FF04AFB08346AA27AA120460FF044FB4F
:10670000083467A274A120460FF03EFB083464A24F
:1067100074A120460FF038FB083465A26EA1204614
:106720000FF032FB08345EA26EA120460FF02CFB66
:1067300008345BA25FA120460FF026FB08345CA260
:1067400065A120460FF020FB083455A265A1204624
:106750000FF01AFB083450A263A120460FF014FB7F
:10676000083453A25CA120460FF00EFB08344CA263
:106770005EA120460FF008FB08344BA256A120462C
:106780000FF002FB08344AA24AA120460FF0FCFA9F
:10679000083447A250A120460FF0F6FA08343EA272
:1067A0004EA120460FF0F0FA083441A24CA1204639
:1067B0000FF0EAFA08343AA24AA120460FF0E4FAB0
:1067C000083437A244A120460FF0DEFA083434A280
:1067D00044A120460FF0D8FA083435A23EA1204645
:1067E0000FF0D2FA08342EA23EA120460FF0CCFAC8
:1067F00008342BA22FA120460FF0C6FA08342CA291
:1068000035A120460FF0C0FA083425A235A1204654
:106810000FF0BAFA083420A233A120460FF0B4FAE0
:1068200008341FA231A120460FF0AEFA083420A28E
:106830002DA120460FF0A8FA08341BA226A120465D
:106840000FF0A2FA08341AA21AA120460FF09CFAFF
:10685000083417A220A120460FF096FA08340EA2A1
:106860001EA120460FF090FA083411A21CA1204668
:106870000FF08AFA08340AA21AA120460FF084FA0F
:10688000083407A214A120460FF07EFA083404A2AF
:1068900014A120462CE00000322F3200365F0000A9
:1068A000312F3400375F0000352F340031000000F5
:1068B000312F320030000000355F0000332F3400EC
:1068C000342F32003200000033000000332F32003A
:1068D00034000000382F340036000000337E000002
:1068E000327E0000317E00003700000035000000DD
:1068F0000FF04AFA0834AFF24802AFF22401204602
:106900000FF042FA0834AFF26802AFF228012046D5
:106910000FF03AFA0834AFF27802AFF2680120467D
:106920000FF032FA0834AFF27802AFF25401204689
:106930000FF02AFA0834AFF29802AFF2580120465D
:106940000FF022FA0834AFF2B002AFF26401204631
:106950000FF01AFA0834AFF2A802AFF28401204611
:106960000FF012FA0834AFF2C802AFF280012046ED
:106970000FF00AFA0834AFF2D002AFF2B4012046A9
:106980000FF002FA0834AFF2D802AFF2D801204675
:106990000FF0FAF90834AFF2E802AFF2C401204672
:1069A0000FF0F2F90834AFF2EC02AFF2D00120465A
:1069B0000FF0EAF90834AFF208122FA120460FF0C9
:1069C000E3F90834AFF21812AFF2F00120460FF0ED
:1069D000DBF90834AFF22812AFF2FC0120460FF0C9
:1069E000D3F90834AFF23812AFF2081120460FF095
:1069F000CBF90834AFF25812AFF21C1120460FF059
:106A0000C3F90834AFF24C12AFF2341120460FF044
:106A1000BBF90834AFF28012AFF23C1120460FF000
:106A2000B3F90834AFF27812AFF2481120460FF0F4
:106A3000ABF90834AFF27C12AFF2541120460FF0DC
:106A4000A3F90834AFF29812AFF2681120460FF0A4
:106A50009BF90834AFF28C12AFF2841120460FF08C
:106A600093F90834204608F027FF2846FDF756FC26
:106A700028460CF0A5F870BD357E000070B54FF4C7
:106A800016600CF0B1F805462C46FEA2FEA1204689
:106A90000FF07AF90834FDA2FDA120460FF074F939
:106AA0000834FCA2FCA120460FF06EF90834F7A2CE
:106AB000FAA120460FF068F90834F4A2F6A12046A6
:106AC0000FF062F90834F3A2EFA120460FF05CF951
:106AD0000834EEA2F2A120460FF056F90834EBA2DA
:106AE000E9A120460FF050F90834EAA2EDA12046B2
:106AF0000FF04AF90834E5A2EBA120460FF044F963
:106B00000834E2A2E6A120460FF03EF90834DDA2E7
:106B1000DDA120460FF038F90834DCA2DEA12046C2
:106B20000FF032F90834D9A2DCA120460FF02CF97D
:106B30000834D8A2DDA120460FF026F90834DCA2E3
:106B4000D3A120460FF020F90834D9A2D9A12046BC
:106B50000FF01AF90834D8A2D4A120460FF014F986
:106B60000834D5A2D0A120460FF00EF90834C5A2F2
:106B7000C5A120460FF008F90834C4A2C4A12046DC
:106B80000FF002F90834C3A2C3A120460FF0FCF8AD
:106B90000834BEA2C1A120460FF0F6F80834BBA20B
:106BA000BDA120460FF0F0F80834BAA2B6A12046E5
:106BB0000FF0EAF80834B5A2B9A120460FF0E4F8C6
:106BC0000834B2A2B0A120460FF0DEF80834B1A21A
:106BD000B4A120460FF0D8F80834ACA2B2A12046E8
:106BE0000FF0D2F80834A9A2B4A120460FF0CCF8D7
:106BF0000834A6A2ABA120460FF0C6F80834A3A221
:106C0000A7A120460FF0C0F80834A0A29EA12046FC
:106C10000FF0BAF808349DA2A0A120460FF0B4F8F6
:106C200008349CA298A120460FF0AEF8083499A22F
:106C30009BA120460FF0A8F808349FA292A12046FD
:106C40000FF0A2F8083493A297A120460FF09CF809
:106C500008348EA291A120460FF096F808348BA23A
:106C600092A120460FF090F8083488A288A120460F
:106C70000FF08AF8083485A28CA120460FF084F822
:106C8000083482A282A120460FF07EF808347DA24B
:106C900088A120460FF078F808347CA27CA1204619
:106CA0000FF072F8083479A280A120460FF06CF83A
:106CB000083478A279A120460FF066F8083473A250
:106CC00071A120460FF060F8083470A274A120462C
:106CD0000FF05AF808346FA272A120460FF054F852
:106CE00008346AA26DA120460FF04EF8083467A25E
:106CF0006EA120460FF048F8083464A264A1204633
:106D00000FF042F8083461A268A120460FF03CF869
:106D100008345EA25EA120460FF036F808345BA26C
:106D200064A120460FF030F8083458A258A120463C
:106D30000FF02AF8083455A25CA120460FF024F881
:106D400008345BA255A120460FF01EF808345CA25F
:106D50004DA120460FF018F8083457A24CA1204648
:106D60000FF012F8083449A24CA120460FF00CF89D
:106D7000083446A24DA120460FF006F8083443A27D
:106D800043A120460FF000F8083440A247A1204656
:106D90000EF0FAFF08343DA23DA120460EF0F4FFAC
:106DA000083438A243A120460EF0EEFF083437A283
:106DB00037A120460EF0E8FF083434A23BA120465C
:106DC0000EF0E2FF083431A234A120460EF0DCFFC1
:106DD000083437A235A120460EF0D6FF083434A27D
:106DE0002EA120460EF0D0FF083428A226A120466E
:106DF0000EF0CAFF083425A229A120460EF0C4FFD8
:106E0000083424A227A120460EF0BEFF08341FA29A
:106E100025A120460EF0B8FF08341CA220A1204670
:106E20000EF0B2FF083419A217A120460EF0ACFFF5
:106E3000083416A21AA120460EF0A6FF083413A2A9
:106E400011A120460EF0A0FF083410A210A1204688
:106E50000EF09AFF08340DA20BA120460EF094FF0D
:106E600008340AA20EA120460EF08EFF083407A2B5
:106E700005A120460EF088FF083404A208A1204690
:106E800020E00000332F320036000000312F3200A6
:106E9000337E0000322F320037000000317E0000C8
:106EA000350000003300000030000000327E00009A
:106EB000312F3400357E0000342F320032000000C4
:106EC000332F34000EF060FF0834AFF21402AFF23B
:106ED000480120460EF058FF0834AFF24802AFF2E6
:106EE000380120460EF050FF0834AFF26002AFF2D6
:106EF000600120460EF048FF0834AFF27002AFF296
:106F00004C0120460EF040FF0834AFF28002A6A1EB
:106F100020460EF039FF0834AFF29002AFF26C0158
:106F200020460EF031FF0834AFF2A002AFF2A0010C
:106F300020460EF029FF0834AFF2A802AFF2940108
:106F400020460EF021FF0834AFF2C002AFF2B401C8
:106F500020460EF019FF0834AFF2D002AFF2D8018C
:106F600020460EF011FF0834AFF2D802AFF2C40190
:106F700020460EF009FF0834AFF2F002AFF2CC0168
:106F800020460EF001FF0834AFF20812AFF20011F4
:106F900020460EF0F9FE0834AFF21012AFF2F801FD
:106FA00020460EF0F1FE0834AFF2FC02AFF22011E1
:106FB00020460EF0E9FE0834AFF20C12AFF20C11CD
:106FC00020460EF0E1FE0834AFF2381276A12046DA
:106FD0000EF0DAFE0834AFF24C12AFF22811204660
:106FE0000EF0D2FE0834AFF25C12AFF25C11204614
:106FF0000EF0CAFE0834AFF26412AFF25011204610
:107000000EF0C2FE0834AFF27C12AFF27C112046C3
:107010000EF0BAFE0834AFF28C12AFF268112046BF
:107020000EF0B2FE0834AFF27012AFF29C1120469F
:107030000EF0AAFE0834AFF2A412AFF2941120466B
:107040000EF0A2FE0834AFF2BC12AFF2BC11204623
:107050000EF09AFE0834AFF2CC12AFF2A81120461F
:107060000EF092FE0834AFF2D4124FA120460EF07B
:107070008BFE0834AFF2EC12AFF2C81120460EF0CE
:1070800083FE0834AFF2FC12AFF2FC1120460EF082
:107090007BFE0834AFF20422AFF2F01120460EF06E
:1070A00073FE0834AFF21422AFF2102120460EF026
:1070B0006BFE0834AFF22422AFF2242120460EF0FA
:1070C00063FE0834AFF23422AFF22C2120460EF0DA
:1070D0005BFE0834AFF24422AFF2402120460EF0AE
:1070E00053FE0834AFF25C22AFF2642120460EF06A
:1070F0004BFE0834AFF26C22AFF25C2120460EF05A
:1071000043FE0834AFF27422AFF2842120460EF021
:107110003BFE0834AFF28C22AFF2742120460EF011
:1071200033FE0834AFF29C22AFF2902120460EF0DD
:107130002BFE0834AFF2AC22AFF2A42120460EF0B1
:1071400023FE0834AFF29822AFF2B02120460EF0B1
:107150001BFE0834AFF2A822AFF2C42120460EF085
:1071600013FE0834AFF2DC22AFF2E42120460EF029
:107170000BFE0834AFF2EC22AFF2DC2120460EF019
:1071800003FE083409A2AFF2003120460EF0FCFDE8
:107190000834204608F090FB2846FDF7BFF8284643
:1071A0000BF00EFD70BD0000367E0000362F320061
:1071B00070B54FF4C8600BF017FD05462C4614A2BD
:1071C00014A120460EF0E0FD083411A212A12046C1
:1071D0000EF0DAFD08340EA210A120460EF0D4FD08
:1071E00008340BA20EA120460EF0CEFD08340DA2ED
:1071F0000DA120460EF0C8FD0834204608F05CFBC7
:107200002846FDF78BF828460BF0DAFC70BD00002D
:10721000312F320031000000320000003300000046
:1072200034000000312F3100350000002DE9FF4708
:1072300004460D4616469946002003900296002704
:107240008046009002A80DF0B7FC8DF80C00039862
:10725000C0F30310022800D01FE001A9029800F03B
:107260004DF88046029908440290DDE90110471864
:107270000298381A022800DA0FE002A80DF09CFCF0
:107280008DF80000009800F00100207002A80DF0B9
:1072900093FC28704FF0010800BF404604B0BDE8E1
:1072A000F0872DE9F84305460C460126002700200B
:1072B000206000BF4FF0FF38781C0746042801DD2E
:1072C00000BF17E001216846A8478046B8F1010FCA
:1072D00000D00FE09DF8001001F07F01206801FB55
:1072E00006002060F6019DF8000000F080000028F4
:1072F000E0D100BF3846BDE8F883000070B5044611
:107300000D460348046029460248FFF7CAFF70BDD6
:1073100010020020BDAD000830B50246002300BFBA
:107320000846CD1701EB5565ED11A1EBC515ECB283
:10733000CD1701EB5565E911002901DD44F080040A
:1073400018465B1C14540029EADC184630BD0000C6
:10735000401C802801DA401C0AE0B0F5804F01DAB9
:10736000801C05E00349884201DAC01C00E0001DD2
:1073700070470000FFFF1F002DE9FE4305460E4643
:107380001446029500200190009000274FF0FF382E
:10739000204600F0A5F807468146FFF7D9FFB04226
:1073A00002DD6FF001088FE000208DF804000198E5
:1073B00020F0F000103001909DF8041002A80FF0AA
:1073C000F5F839460298FFF7A7FF029908440290A2
:1073D000207A042808D13EA102A80FF0D3F8042196
:1073E00002A80FF0E3F807E03BA102A80FF0CAF8EB
:1073F000032102A80FF0DAF800208DF80000A17E2A
:10740000009861F341000090E07E08B1012100E0A6
:107410000021009861F3820000900098C0F3800082
:1074200058B194F83D10009861F3C400009094F8AE
:107430003C10009861F345100090206C08B9A06CD6
:1074400020B1009820F0800080300090E06C08B9F6
:10745000606D20B1009820F04000403000909DF811
:10746000001002A80FF0A2F8218B02A80FF0A4F8D8
:1074700002A8D4E90423E1680FF0B6F8E07E58B121
:1074800002A8D4E90A23616A0FF0AEF802A8D4E991
:107490000D23216B0FF0A8F80098C0F3C01028B19D
:1074A00002A8D4E91123216C0FF09EF80098C0F3D4
:1074B000801028B102A8D4E91423E16C0FF094F8ED
:1074C0000298A0EB050800BF4046BDE8FE8300001F
:1074D0004D515454000000004D5149736470000038
:1074E00070B504460025207A032801D10C2503E05D
:1074F000207A042800D10A25D4E90412E06800F0BB
:107500002AF8801C0544E07E68B1D4E90A12606A5A
:1075100000F021F8861CD4E90D12206B00F01BF856
:107520003044801C0544206C08B9A06C30B1D4E90B
:107530001112206C00F00FF8801C0544E06C08B9B3
:10754000606D30B1D4E91412E06C00F004F8801CD6
:107550000544284670BD37B50024009820B1009836
:10756000FBF7A6FC044600E0019C20463EBD00F06F
:107570004FF800F04DF8000070B5002100230F22F5
:10758000C47804B3154C246804F4E064C4F5E064E2
:10759000210AC1F10403CA40447804FA03F1847853
:1075A0001440214309010E4C0678A155047804F0DB
:1075B0001F050124AC4005786D11AD0005F1E025F3
:1075C000C5F8004109E0047804F01F050124AC402F
:1075D000044D0678761145F8264070BD0CED00E0AC
:1075E00000E400E080E100E002490143024A11604A
:1075F000704700000000FA050CED00E0024A0A4066
:107600000243024B1A60704780FFFF1F08ED00E045
:107610000648006800F4E06005490843001D03497E
:107620000860BFF3408F00BFFEE700000CED00E0F4
:107630000000FA0510B50D480068B0B90C480068A4
:10764000FBF777FA0B490860084600680A490860AA
:107650000A480849096800EB4110094908600846D2
:10766000006808490860FBF728FA10BD44000020B4
:10767000680000204C000020480000207C1D0020F5
:10768000540000205000002070B5044610464FF012
:1076900080750560051F28462C606FF00106051FE8
:1076A00028462E604FF01236051F28462E604FF0F8
:1076B0000336051F28462E604FF00236051F284668
:1076C0002E607610051F28462E60051F284629606B
:1076D0004FF01136051F28462E604FF01036051F5B
:1076E00028462E604FF00936051F28462E604FF0C1
:1076F0000836051F28462E604FF00736051F28461E
:107700002E604FF00636051F28462E604FF00536D6
:10771000051F28462E604FF00436051F28462E60B0
:1077200070BD000010B5FBF7C1F9044606480078AB
:10773000401C054908700548007805490870204636
:10774000FBF7B8F910BD0000640000204C000020D9
:107750006C00002010B5FBF7A9F904460948007831
:1077600020B108480078401E064908700548007896
:1077700010B92020044908702046FBF79BF902F05D
:10778000A7FD10BD640000206C00002010B503466A
:10779000074800EB42100160054800EB42104360CF
:1077A0004FF00040024C04EB4214E060002010BD9A
:1077B0007C1D0020014908627047000000000E4255
:1077C000024800880A300149088070477001002093
:1077D00029B1064AD2690243044BDA6104E0034A44
:1077E000D2698243014BDA61704700000010024009
:1077F00029B1064A12690243044B1A6104E0034AA4
:1078000012698243014B1A61704700000010024068
:1078100029B1064A92690243044B9A6104E0034A83
:1078200092698243014B9A61704700000010024048
:1078300029B1064AD2680243044BDA6004E0034AE5
:10784000D2688243014BDA607047000000100240AA
:1078500001490860704700004004424230B50021F1
:107860000022002400232D4D6D6805F00C0121B18C
:10787000042905D0082923D105E0294D056022E01F
:10788000274D05601FE0254D6D6805F47012234DEE
:107890006D6805F48034022505EB92421CB9214D38
:1078A000554305600BE01D4D6D6805F400351DB1B5
:1078B0001C4D5543056002E0194D5543056002E03B
:1078C000174D056000BF00BF144D6D6805F0F00155
:1078D0000909154D6B5C0568DD4045600F4D6D680D
:1078E00005F4E061090A104D6B5C4568DD40856078
:1078F0000A4D6D6805F46051C90A0B4D6B5C456813
:10790000DD40C560054D6D6805F44041890B074DAC
:107910006B5CC568B5FBF3F5056130BD0010024036
:1079200000127A0000093D00180000202800002005
:1079300010B501460022002300204A11012A02D17D
:10794000094C236806E0022A02D1074C236A01E0B1
:10795000054C636A01F01F02012494401C400CB1E5
:10796000012000E0002010BD0010024000210B4A61
:1079700011700A4A203A82F82010012802D0042807
:1079800008D103E00121054A117004E00521034AF2
:10799000117000E000BF00BF7047000020100240DF
:1079A00001490860704700003C0442420249096AEC
:1079B0000143014A116270470010024070B504464D
:1079C0000D460F4800780F490968884201D0002011
:1079D00070BD0DB90020FBE70BE000BF80210A4815
:1079E00002F0B4FD0028F9D020780749091D08806D
:1079F000641C2800A5F10101CDB2EED100BFE7E77C
:107A0000C80000204C0000200038014070B5054639
:107A10000E4600240B48008838B100BF03E0002068
:107A20002855601C84B2B442F9DB002404E0FDF761
:107A300075FA2855601C84B2024800880028F6D1E7
:107A4000204670BDD00000202DE9F04105460E46CD
:107A5000002400BF03E000202855601C84B2B4421B
:107A6000F9DB002442F2107809E0A8F101001FFAC6
:107A700080F8B8F1000F02D10020BDE8F081214864
:107A800000780028F1D020480068002838D0002471
:107A900000270CE001F062FBFF2804D101F072FB2B
:107AA000FF2800D105E0FDF739FA781C87B2322FA4
:107AB000F0DB00BF002410E0FDF730FA2855601C11
:107AC00084B2B44200D10CE001F048FBFF2804D19D
:107AD00001F058FBFF2800D103E00C480088002883
:107AE000EAD100BF0948008850B900200849088041
:107AF000084908600849088001200849C1F8940134
:107B00002046BAE7D200002020012142D000002008
:107B1000CA00002094012742CC0000200000274228
:107B200010B586B0044601210420FFF771FE012143
:107B30008803FFF76DFE464802F0BAFC4FF48070F0
:107B4000ADF8140004208DF8170003208DF81600FE
:107B500005A94048FDF778F84FF480713D48FDF7DE
:107B60004DF94FF40060ADF8140010208DF81700A7
:107B700003208DF8160005A93648FDF765F84FF487
:107B800000613448FDF738F94FF48050ADF8140027
:107B900010208DF8170003208DF8160005A92D4838
:107BA000FDF752F84FF480512A48FDF725F94FF4BC
:107BB0000070ADF8140002208DF8160018208DF822
:107BC000170005A92348FDF73FF84FF48060ADF892
:107BD000140004208DF8170005A91E48FDF734F89D
:107BE00025208DF8000000208DF801008DF802009E
:107BF00001208DF803006846FFF7BEFC01940020C9
:107C0000ADF80800ADF80A00ADF80C00ADF81000B2
:107C10000C20ADF80E0000210D4802F03CFC0C4891
:107C200002F046FC01A90A4802F0ECFC012240F2F5
:107C30002551074802F0C1FC012240F224410448CA
:107C400002F0BBFC0121024802F025FC06B010BD89
:107C500000380140000801401FB504464FF416509B
:107C6000FFF75EFF01201F4908601F49C1F8AC0102
:107C7000642006F05BFE1DA103C9CDE902018DF869
:107C80000C401CE0062102A8FFF798FE4FF4FA70A2
:107C900006F04CFE00200090019006216846FFF798
:107CA000B5FE694613A00DF091F800B108E09DF80B
:107CB00004009DF80C10884200D101E000BFE1E70C
:107CC00000BF0020074908600749C1F8AC016420E3
:107CD00006F02CFE4FF4E130FFF722FF002004B045
:107CE00010BD0000B001214200002142C200003A54
:107CF000144000004F4B0000202801D201490870B9
:107D000070470000C8000020024909888143014AE9
:107D100011807047042800400348008840F010009C
:107D2000014908807047000004280040034800888B
:107D30004FF6EF7108400149088070470428004061
:107D400070B500260024002500F07AF80646384871
:107D5000B6FBF0F437480088A0423CD035490C808F
:107D600040F2B27510E02846FDF73AFA40B1B4F59A
:107D7000B77F02D3A4F5B77404E0681C85B206E0AF
:107D8000A4F26D14681C85B2B4F5B67FEBD800BFC1
:107D900029488580002516E027498888FDF720FAC4
:107DA00030B1012D04D11D2C01D31D3C09E00CE0A4
:107DB0002248405DA04203D82048405D241A00E0DC
:107DC00003E0681C85B21C2CE6D200BF681C1A496F
:107DD0008871601CC8711648B6FBF0F100FB116495
:107DE0004FF46160B4FBF0F0134908704FF4616028
:107DF000B4FBF0F100FB11403C21B0FBF1F00E4967
:107E000048704FF46160B4FBF0F100FB11403C217D
:107E1000B0FBF1F201FB1200074988700B46DA79DA
:107E20009979988800F02CF803490872002070BDF9
:107E3000805101006E0000207C210020F27B0108AF
:107E4000002103480188001F008841EA0040704774
:107E50001C28004001460020064A12880A40D0B281
:107E6000044A121F12880A4012B108B1012000E032
:107E70000020704704280040004870477C21002003
:107E8000F0B503460C461546642093FBF0F0C6B2ED
:107E9000642093FBF0F700FB1730C1B2132E02DD14
:107EA00001F16400C1B20846CF1701EB977701EBEF
:107EB000A707BAB2072092FBF0F700FB172082B2A7
:107EC0005719601EDFF82CC01CF80000384482B23D
:107ED000CF1701EB9777BF10A1EB87071FB9032CD2
:107EE00001DA501E82B2072092FBF0F700FB172048
:107EF000C0B2F0BDE67B010810B50120FFF7AAFF74
:107F000008B1FFF71DFF0220FFF7A4FF10B1022008
:107F1000FFF7FAFE0520FFF7F7FE00F015F910BD98
:107F200029B1064A12880243044B1A8004E0034A2E
:107F300012888243014B1A807047000000280040DD
:107F40001CB500240420FCF74BF945F2500188428F
:107F500047D001214FF0C050FFF73AFC0120FFF756
:107F600029FCFCF735F90120FFF700FD04E0601C57
:107F7000C4B20A2006F0F4FC4120FFF7D9FC002827
:107F8000F5D0FA2C01DB01201CBD4FF48070FFF707
:107F90000DFD0120FFF704FD00F0D6F800F0DEF83B
:107FA00001210846FFF7BCFF00F0CEF8FFF7B4FE52
:107FB00047F6FF7000F0A6F800F0C6F83720002161
:107FC0000A230222CDE900100C2140F2D97000F002
:107FD00027F8FFF7ABFE45F250010420FCF70EF93D
:107FE00007E000F0BBF801210846FFF799FF00F019
:107FF000ABF800F004F8FFF7A3FE0020C4E708B5D3
:1080000003208DF8000001208DF8010003208DF879
:10801000020001208DF803006846FFF7ADFA08BDA5
:108020002DE9F05F06460F4690469946DDE90AAB1A
:10803000002440F2B270864203DB40F633008642F1
:1080400002DD0120BDE8F09F40F2B2750AE028464B
:10805000FDF7C6F810B12048044401E01F4804446D
:10806000681C85B2B542F2DB781EC7B2002510E06D
:108070001B48405D40F2A321484304EBC014304646
:10808000FDF7AEF818B1012D01D116480444681C63
:1080900085B2BD42ECDBA8F1010040F2A3214843C8
:1080A00004EBC014C9EB4910C0EB092004EB001429
:1080B000CAEB0A1004EB80045C4401214FF0C0506D
:1080C000FFF786FB0120FFF775FB204600F00CF858
:1080D00000F03AF80020B5E70085E2018033E101C5
:1080E000F27B01088051010000B50246FFF714FE43
:1080F000100C03490880091D0A80FFF717FE00BD18
:108100001828004000B50246FFF706FEC2F3034000
:1081100003490880091D0A80FFF708FE00BD000022
:108120000828004010B5044601214FF0C050FFF769
:108130004FFB0120FFF73EFB2046FFF7D5FF00F085
:1081400003F8002010BD000000BF0348008800F0C5
:1081500020000028F9D07047042800400748008814
:108160004FF6F77108400549088000BF03480088B2
:1081700000F008000028F9D07047000004280040F3
:108180002DE9F04780460D462621404600F0D6F8FE
:10819000064616B90020BDE8F08740F2B45086428A
:1081A00000DD06462821404600F0C8F80746B946DB
:1081B000C7F30A0710213A48FCF71EFE384600F0C4
:1081C000C3FB182101EB4811C8B200F0ADFB3548E4
:1081D00000F04DFE00F0FF0AB819B0F5006F11DA9B
:1081E00000240CE0002000F09FFB2E4800F03FFE32
:1081F00000F0FF0A85F800A06D1C601C84B2B44238
:10820000F0DB39E0C7F5006087B200240CE0002005
:1082100000F08AFB234800F02AFE00F0FF0A85F8F0
:1082200000A06D1C601C84B2BC42F0DB10211C4815
:10823000FCF7E4FD10211A48FCF7DEFD002000F0F9
:1082400083FB182101EB4811C8B200F06DFB154803
:1082500000F00DFE00F0FF0A0CE0002000F064FBCF
:10826000104800F004FE00F0FF0A85F800A06D1C25
:10827000601C84B2B442F0DB10210948FCF7BEFD5B
:1082800009EB06001FFA80F94A462821404602F011
:1082900039FC40220121404602F016FC30467AE7C4
:1082A000000801400030014070B5044610210D481F
:1082B000FCF7A2FD204600F047FB012000F034FB54
:1082C000094800F0D4FDC5B2002000F02DFB06489F
:1082D00000F0CDFDC5B210210248FCF78FFD284605
